:10000000180F00103D420000831E0000BF230000B7
:10001000000000000000000000000000696CFFEF1D
:10002000000000000000000000000000D5400000BB
:10003000000000000000000097400000BD410000EB
:100040006B4200006B420000000000006B420000A9
:100050006B4200006B420000000000006B42000099
:100060006B4200006B4200006B4200006B420000DC
:100070006B4200006B4200006B4200006B420000CC
:100080006B4200006B4200006B4200006B420000BC
:100090006B4200006B4200006B4200000000000059
:1000A0006B4200006B4200006B4200006B4200009C
:1000B0006B4200006B4200006B4200006B4200008C
:1000C000E3000001CA00000181008100810081007D
:1000D00081008100C70011AD320000ED3300005DEA
:1000E000340000C5340000E334BE000049810081C3
:1000F00000C7000001810081008100010000FCFFB9
:10010000D40004D8B9D11950FD000418C7D419700F
:10011000FD000458D4D7195094000001F2001F2BA1
:100120007E151628AED2A6ABF7158809CF4F3C2B0B
:100130007E151628AED2A6ABF7158809CF4F3CC462
:1001400000032876E819FA000001F800010101ED2A
:0F015000000064B9000001F9000001FD0000018A
:0402FC00FFFFFFFF02
:10030000F0B58DB00020694608720020002106AAD1
:1003100003C21022002108A801F0C5FA0020002124
:10032000784D2A6C6B6C0092019306AAC0CA2A0011
:1003300038320CCAB61A9F41009A019BBB4204D8BE
:1003400001D3B24201D2286469640022D243134629
:1003500004AC0CC46C4CA27C002A27D0220038329A
:100360000CCA0092019306AAC0CA220030320CCAFD
:10037000B61A9F41009A019BBB4202D818D3B242E1
:1003800016D32000383003C8002901D1002812D02C
:100390002000383003C8A5A20CCA994201D190426E
:1003A00009D02000383003C804AA03E004AA03C21D
:1003B0002200383203C2E87E6946087008AE002782
:1003C000A88C0121B940084229D09A48F900401868
:1003D0000168002923D0042141566B4600229A5619
:1003E0000B071B179A421ADB09116B4600229A561B
:1003F000914214DB4079182148432018383003C853
:100400002A6C6B6C02430B4309D1002A07D1694661
:10041000097A77546846007A401C694608727F1C46
:10042000102FCDDBDC2040002F186846007A002812
:1004300010D06846017A491E002001F01FFA305C96
:10044000E877286E102188432866380001F09EFA6C
:10045000002010E01024286E20400BD104A803C80F
:100460000100380001F0CBFA380001F042FA286EA2
:1004700004432C6601200DB0F0BD10B5214CDC20EA
:100480004000201801F082FA206E10218843206677
:10049000FFF736FF00280AD16020205CC00706D590
:1004A0006448E17FC900401803C800F06FFA10BD2E
:1004B00070B5794BDC7B102C22DA1D192876641C70
:1004C000DC73E4B21D19641C801E062816D801A630
:1004D000365CB74414221422062214002976DC73F9
:1004E000E4B218190276641CDC73D87B102807DA92
:1004F00001209873002070BD2976F5E7012070BDBA
:10050000022070BD00000010B0070010F8B5634C69
:1005100060660023202163546370A3700720E0709D
:1005200001272771A36000212173E1812174618279
:10053000A182217021766765A36561762366A08418
:10054000638323776777A377534D6B74A786002067
:100550002200383203C220646164AB7450488021A9
:100560006050504EA6667000E0664F4820674F48C6
:100570006067D2204000201800904D4901F0B2F988
:100580003100009801F03BFA4A49DC204000201875
:1005900001F0A8F94849E6204000201801F0A2F92E
:1005A0004649F0204000201801F09CF94449FA2007
:1005B0004000201801F096F942498220800020185E
:1005C00001F090F9404828644048A86440482865F4
:1005D000404868644048E864404E28004030316834
:1005E00088477069804701F03EF91020E0772F724C
:1005F000012001F0BFF8F06A8047F1BD2649C872BA
:10060000704738B5080011001D00244C20651022E9
:100610002000843001F03DF91022290020009430A0
:1006200001F037F90120607631BD0000FFFFFFFFC8
:10063000FFFFFFFFC40600101CB540236C4623716A
:1006400000920B000200002101A800F001F816BD85
:10065000F0B585B004000F0015001E000E48C07AEA
:10066000C00169460874FFF74BFE00280FD10A98B5
:10067000039002960195009704AB2200BC480749FD
:10068000C97FC900401803C800F03DFA00E005200A
:1006900005B0F0BD00000000B00700100000001021
:1006A000C0C62D0040420F00404B4C00808D5B00C7
:1006B000BD1500007B040000EB0A0000E9140000F7
:1006C0003D150000191700008D0E0000850F000079
:1006D000F9130000A5130000CD1300000441000031
:1006E000F8B586B000210391A24C6186A24801733F
:1006F0000E9B002B02D16D46A98709E09F4B1B255D
:1007000065575B5D6D46AD8FEDB2AB4200D21CE12B
:100710009B4E1378337001239A4D1278520904D0FE
:10072000022A49D0042A46D01FE1216F4919A16746
:10073000616F4919E16763860822816E701C01F0C0
:10074000A8F8608E083060860822A16C80B230184C
:1007500001F09FF8608E083060868B4840698047C2
:100760002086608E218E3154401C6086090A80B23A
:100770003154401C608603ABE26CC1B2300001F022
:10078000FCF9608E03993154401C60860399090A74
:1007900080B23154401C60860399090C80B23154F8
:1007A000401C60860399090E80B23154401C60865B
:1007B000002007B0F0BD0373627E002A01D1022041
:1007C000F7E7A26E5219A267E26E5219E2670C9A1D
:1007D000002A05D1069A1278F0231340069A137066
:1007E000427B002A06D04173069A127820231343D5
:1007F000069A1370069A1278D3091FD01B23E3566A
:10080000BF27002B03D1E165069A12780EE0E56D53
:10081000412D0BD340271743069A1770612D0DD336
:10082000E165012B06DB5A1EE27607E01740069AC7
:10083000177003E0A28C07231343A384226D727008
:10084000120AB270226D120CF270226D120E327109
:10085000069A12787271626DB271120AF2710825ED
:100860000C9A002A0ED0002305E00C9AD25CEDB25F
:1008700072556D1C5B1C069A12781207120F9BB200
:100880009342F2D3C27B069B1B781F073F0FD719F9
:10089000102F16DA877B002F13D0F0271F409B18EC
:1008A0001B071B0F3B43069F3B707371002305E042
:1008B000C7183F7EEDB277556D1C5B1C9BB293420F
:1008C000F6D3C181EDB280277F006946898F691810
:1008D000B9423ADA2100843105910E99002920D0DD
:1008E0000D9971556D1C2000A430049000290290D0
:1008F000606D019004D100200090236D059A04E002
:1009000000200090236D220094326846818F0E985B
:1009100001F0CFF86846828F0499EDB2701900F0AB
:10092000B8FF6846808F2918618603A80290606D21
:10093000019000200090236D059A89B2300001F0EB
:1009400079F8608E021DBA4201DB032031E73118CD
:10095000039A0A70039A120A4A70039A120C8A7058
:10096000039A120ECA70001D21E7042021E700003F
:10097000C406001000000010B0070010E0140000D2
:100980003008001018FCFFFF04410000F3B589B0E7
:1009900001256C490D70C87EC87009986A49C968FC
:1009A00088476848418EC9B20120674A126D904756
:1009B000664864491A228956445662481B214156AA
:1009C0006348405C604AD669624A07291DD1089293
:1009D000002107910691059104950391052102914B
:1009E0000021019101F064F900225B4B01F070F9E4
:1009F00001F030FA00900023584A21000020B0474F
:100A00005048418EC9B2002021E0062908920BD13E
:100A10000021079106910591049503910821029107
:100A20000195009001230AE00021079106910591AC
:100A30000495039108210291019500900023002262
:100A400021000120B0473F48418EC9B201203E4AF3
:100A5000526A90470021424C20666166607CFF2804
:100A600001D106203FE0002801D13E4A03C23548AB
:100A7000006E0543334805663B4800F03AFF00200E
:100A8000002102000B0009A84079182148432018D2
:100A9000383003C82B4E346C756C8D4205D801D3A9
:100AA000844202D206000F0001E026002F00BB4264
:100AB00011D801D3B2420ED28D4202D802D3844261
:100AC00000D32000294C0100200000F098FF2000F6
:100AD00000F00FFF06E01B48418EC9B224481A4AB5
:100AE000926A904700200BB0F0BD10B5154CE6207F
:100AF0004000201800F04AFF618EC9B21C48124A1B
:100B0000926A904710BDDFB506000F000D4C6020C3
:100B1000205CC00701D5012012E00B9803900A98D1
:100B2000029009980190089800903000FFF7D8FDD6
:100B3000002805D1A070607030003900FFF726FF53
:100B400004B0D0BD00000010044100005842000075
:100B5000D8140000C0C62D0000408F40A8610000DE
:100B6000B007001040000010A4010010CC010010DC
:100B700030080010F5B589B00C000EE0BF480078D1
:100B800040210143BD48017002980078BC490875B6
:100B90000998F4B2005D4875641C0AA80078E4B2B4
:100BA000844200D368E12000641C0999E4B2091969
:100BB0000291661C0999085C801E0628F1D802A1E2
:100BC0004000095E8F4400BFB4FF0E0034014E01A7
:100BD000C201DE017002072506A80C2101F07AF996
:100BE000A84806A91CC81CC10298007840B2010799
:100BF000090F05910006000F0190A348C07A002854
:100C000012D19F481B2140560199884205D19C482A
:100C10001A2140560599884206D00022002103205F
:100C2000FFF746FCF41CB8E70998F4B2015D641CB8
:100C3000E4B2005D00020843641C0999E4B2095D56
:100C4000641C4A06520F00920907090F00D10121C6
:100C5000024304D0009A002A03D0062A01DA0625AE
:100C60001EE0002201239340009E062E09D1C14EB2
:100C7000D700F659002E0ED006001800304380B27F
:100C800009E0184207D0BB4BD6009B59002B02D17C
:100C90002B00FE251D40521C102AE3DB6A46108300
:100CA0000198082802D32800FD250540059806284C
:100CB00002D32800FB2505406807400F072817D1FD
:100CC00001986F4AD076059890766846008B90849C
:100CD00006A84088D08406A88088108506A8C08809
:100CE000508506A80089908506A84089D08551774F
:100CF000002229000320FFF7DBFB4EE70298007873
:100D0000614948743400012181405D488186002298
:100D100000210420EFE70725029800784106490FDB
:100D200000910007000F01900998F4B2005D641C67
:100D30000999E4B2095D09020143641C0998E4B20F
:100D4000005D06040E43641C6420464330008A495B
:100D5000096A8847002800D106250198082802D38F
:100D60002800FD2505400098062802D32800FB2511
:100D70000540072D05D10198434908710E60009880
:100D80000874002229000520B5E7FF203C49496E80
:100D9000002903D049680A0000D0884738490A7CF6
:100DA00001000620A7E70325029807787FB209987B
:100DB000F4B2005D0390641C0999E4B2095D090274
:100DC00001430391641C08460999E4B2095D0904D2
:100DD00001430391641C0846642148430390099829
:100DE000E4B2005D03A90871641CF81E0E2800D34C
:100DF000022503986049096A8847002800D1022526
:100E000003A804214056011100070017814203DBAB
:100E1000082801D2082902D32800FD250540032D0A
:100E200006D103A803C80A000100F8B200F0B8FC1C
:100E30000022290007205EE7029800780007000FD3
:100E40003400002800D1012000F032FF0022BA4B0C
:100E500000F03EFF00F0FEFF0949886600F028FF21
:100E60000022B54B01F038F800F0F4FF0449C866E1
:100E70000022002108203EE70BB0F0BD200000104A
:100E80000000001024000010B0070010F0B583B07F
:100E90000020002106000F00384C207E022803D0DD
:100EA0003548C06A804701E000F048FB34483149CA
:100EB000E27FD20089184979182251434518280049
:100EC0003030C0C02E48807C00280FD02C4A106ED5
:100ED000516E2A8D002301F0D3F80090019128482B
:100EE000026E436E0098801A994100E00021383567
:100EF00003C520003830C0C0266C676C204A106ED5
:100F0000516EA28E002301F0BBF8801979411C4A72
:100F1000166E576E801BB94120646164907A002878
:100F200017D0F02040002518A16F280000F067FDC1
:100F3000280000F0DEFC207E022812D0FA204000BB
:100F40002518E16F280000F05AFD280000F0D1FCC0
:100F500007E02020205C01210143202021540020B3
:100F600020700748007B002802D1A07F401CA0779A
:100F7000F7BD0000C406001004410000000000108E
:100F8000B0070010FEB58EB0070000200790039058
:100F90000025D24C2000843002900890200094302C
:100FA00001900C90207E022803D0CD48C06A804773
:100FB00006E02020205C0009800701D100F0BEFA85
:100FC000FA204000201800F0E1FC387869460870EB
:100FD000216E012081432020225C68460078400970
:100FE0006B4658746846008F001F58820126684679
:100FF000407C012805D0032800D0052800D1A5E0B9
:10100000C8E1607E002800D0CAE1B64BE26C6846B9
:10101000008F411E89B2781C00F0D6FD684600782A
:10102000B149087007ABE26C6846418AAE4800F0EF
:10103000A4FDAD486946098F4018001F0178427829
:1010400012020A43817809041143C078000608435C
:101050000799884272D12020205C02210143202080
:10106000215410A8007820740F9800B2E0810198F4
:101070000090029B228E9B49E06C00F0C7FD9A48CD
:10108000C0799949097A090201439748407A0004D6
:1010900008439549897A0906014321659248C07A37
:1010A0004106490FD34A11740007000F10718E4892
:1010B000007B0007000F00D1012000F0F9FD0022A5
:1010C0001D4B00F005FE00F0C5FEA06600F0F0FD2F
:1010D0000022194B00F000FF00F0BCFEE0666846FD
:1010E000008F401E11281CDB502069460871032523
:1010F00000277D48C1194A7B887B00021043C97BC9
:1011000009040143642041430091684603C80A0072
:101110000100280000F044FB6D1CFF1CFFB2082DED
:10112000E7DB2020205C80210143202021546676CB
:10113000207FE076002002E080842E410520207090
:101140002020205C06432034267029E17B78B87883
:1011500000021843FB781B04034338790006184348
:101160000690236D98421FD0A248C56E00E0AD6A7C
:10117000002D0ED006982B689842F8D10820104315
:101180002022A054281D0890280014300C90686A72
:1011900003902020205CC30833420BD1064320205B
:1011A000265407202070FAE0F720104020216054D8
:1011B000A06D0390207E002808D0206E02210143FC
:1011C0002166D2204000201800F093FB78790BA90B
:1011D00008700BA800780007000F6946087468467D
:1011E000007C0830C0B205906846008F3818001F98
:1011F0000278417809021143827812040A43C078C8
:10120000000610430A90B879F9790902014303985E
:10121000081A80B2F103884203991FDA0818039074
:1012200007A80290039801900096069B089A6846CA
:10123000418A380000F0FEFB0A980799884224D0C2
:10124000002060702020205C0643202026540820C7
:101250002070206E012188432066A1E000B20818AA
:1012600031044018099007A802900998019000964F
:10127000069B089A6846418A380000F0DBFB0A9812
:1012800007998842DCD1099803902020215C022034
:1012900008432021605410A9097821740F9909B2DC
:1012A000E18100212173E165C0083042039801D03B
:1012B000686200E0A0656846407C052801D10120F5
:1012C00000E000204B4948738220800020180BA9C1
:1012D00009784909314209D066700FE0000000101A
:1012E0000441000031090010300900100021617034
:1012F0004049C97C3F4A127D914201D200F046FB31
:101300006846007C002805D0059AD2B20821380032
:10131000FFF730FC6846008F001F0599401A01282E
:1013200030DB785C694608740598401CC0B20590B3
:101330006846008F001F0599451A7818EDB22900FC
:101340006A46127C002A9A4A0292039A01920096F7
:10135000069B08D1089A00F005FC2A000021944859
:10136000FFF708FC0EE00C9A00F0FCFB2020205C4C
:1013700004210143202021546846007C20718C48C0
:10138000A06025732020205C0643202026540020E6
:10139000207005E0012010432022A0542670216611
:1013A00011B0F0BD10B5834C207E022803D08248D6
:1013B000C06A804701E000F0C1F82020205C0121D4
:1013C0000143202021540220207010BD10B5794C1B
:1013D000207E022802D07848C06A80472020205C06
:1013E000032102090A40012A03D10243202022548A
:1013F000217010BDB007001010B56E4C207E022881
:1014000002D06D48C06A80472020205C8106890F89
:10141000012904D10143202021540420207010BD53
:10142000FAB58BB0050017002BA06A462C21515647
:10143000405C0A90604C6068804700284AD12800D0
:10144000E1688847129D69462C20085607281BD161
:1014500000260995089607960696012005900496A1
:101460000396029605200190AA4800900A98C0B2FF
:1014700000F01EFC0022B04B00F02AFC00F0EAFC59
:1014800002000023AD4912E00126099508960020CC
:10149000079006900590049003906846008E029095
:1014A000082001900020009001230A9A3900184674
:1014B000A769B8470AA06A462C215156415C300002
:1014C000226D9047616B002D02D1B348006800E0A7
:1014D000002088470DB0F0BD0C0B0A090807073241
:1014E0003B3B3B7BFAFAFAFAB0B582B00525002700
:1014F000304CF0204000201800F048FA2020205CFA
:10150000CF21014020202154E07EA449097C411ACA
:1015100049B2002901D5002105E0032900DB082597
:10152000062900D10127002000902B003A00BC487A
:10153000E47FE4000059FFF773FFB3BDF8B505245D
:1015400000261C4DFA204000281800F01FFA202029
:10155000285CCF21014010200843202168548F4F80
:10156000387B00280FD0AF49AF4800F087F98221BF
:10157000890069180091AD494118009800F03FFAC0
:10158000009800F0B6F93979032900DB0824062910
:1015900000D1012638682A7E022A01D0002200E00C
:1015A000012200922300320049B2FFF739FFF1BD5A
:1015B000300900100000001004410000F8B59C4CF8
:1015C000D22040002018009000F0E0F92020205C9C
:1015D0000026C10774D50127FF43704D297B0029E0
:1015E00027D1C10902D0617FA1776665A17F627FA3
:1015F00091420ED3A6772670E06D401CE065687AB4
:10160000002802D1606D401C6065206E3840206665
:1016100016E0FE21014020202154FEF771FE002833
:101620000ED18648E17FC900401803C8FFF7AEF924
:1016300006E02078082801D0072801D1012068752C
:101640002020205C810712D56178002903D1E97C34
:101650002A7D91420BD26E75697A002902D1616DA3
:10166000491C6165297DA170216E39402166697D23
:10167000002935D0216ECA0632D46E752A7DEB7CE6
:101680009A421ED2092A1CDA521C2A75D10708D5A3
:101690001B2161564A1E012A01DB491E00E0002180
:1016A000E176FE21014020202154FEF729FE00288A
:1016B00016D16248E17FC900401803C8FFF766F9F8
:1016C0000EE0A08C07230343A3840F4027666670B7
:1016D000A270687A002802D1606D401C6065267097
:1016E000206E810702D5022188432066206E0028E3
:1016F0000CD1606E002806D00268100003D02100D3
:1017000020002030904720342670F1BD009800F072
:10171000F0F8F1BD8545010010B5454C82208000F0
:10172000201800F033F901201C494875206E04216F
:101730008843206610BD000000408F4050C3000069
:1017400001213F4A136E0B4000D0704710B50328AB
:101750000CDB0409052C09DA102807DA6300D2181B
:10176000938C0007000F81408B43938410BD344954
:101770000876704738B5094C2072324D0120A968AF
:1017800088472A6C207A002801D0342100E01221F9
:101790003920904731BD000080000010B0070010D4
:1017A00076B50200002369464B711D48D1004418EC
:1017B000684603C803C4083C01252149102A04DAFD
:1017C000888C954005438D8422E0202A06DACE8C51
:1017D0001000103885403543CD8419E0302A06DAF0
:1017E0000E8D10002038854035430D8510E0402ACD
:1017F00006DA4E8D10003038854035434D8507E0C0
:10180000482A05DA8E8D10004038854035438D8595
:1018100063712068002802D11000FFF791FF73BDAB
:10182000C406001040420F00C0BDF0FF80841E00BF
:10183000000000100449887470470000C4060010BE
:101840000000001004410000B007001000B5074977
:101850000868074A5043074A80180860064900F0A4
:1018600041FC080000BD01490860704728080010CD
:101870006D4EC64139300000FFFFFF7F38B50400D0
:101880000D00FFF7E3FF291B491C00F028FC081995
:1018900032BD03E00B780370491C401C13005A1E34
:1018A0001B04F7D17047130000D1704780B50A00C0
:1018B000591E89B200F0E6FA01BD30B401210022C0
:1018C0000368001D002B0BD00468001D0C4202D0E1
:1018D0004D466D1E64192260241D1B1FF0D0FAE7CF
:1018E00030BC70470022026042600272C160026137
:1018F0007047F8B572B6002836D04D494B681900CC
:1019000002E0814230D009690029FAD141680160C2
:1019100000240472002B03D01A68914203D21100F4
:1019200000F024F820E01D69002D01D1891A18E08B
:101930002E689619B14209D2891A0160002D02D091
:101940002A68511A2960186105610DE02B002D6984
:10195000002D05D032002F68F619002B04D0E9E7DE
:10196000891B01601861046162B6F1BD30B5304A6F
:1019700054680023002C03D00568491B21602372A2
:101980000461012101725060537030BD70B572B6B0
:1019900027494B681D002FD000282DD000228342FC
:1019A0001AD11C7A002C0CD004681D69002D11D0AE
:1019B0001A722B00186800191860012018724A70FA
:1019C0001AE01D69002D05D004682B001868001965
:1019D000186011E000230FE004682E002D69002D2F
:1019E0000AD08542F9D12D69002D04D035612868CF
:1019F0000019286000E032614B6062B670BD38B5F6
:101A000005000C00FFF7C2FF2C606C6031BD084878
:101A1000416800290AD0097A002907D041780529B0
:101A200002DA4178491C00E0002141707047000053
:101A300020080010F8B506000D001700954C069818
:101A40006071A371180AE071180C2072180E607290
:101A50000798A072010AE172010C2173000E6073F5
:101A6000E5732000203000F094FB39002000203086
:101A700000F0A0FB102221002000203000F0A2FB8B
:101A8000EAB231002000203000F09CFB2100203120
:101A90002000103000F0F7FBE07C0006A17C090478
:101AA0000143607C00020843217C014308980160E7
:101AB000F1BDFDB50F0000260125774CF022002175
:101AC00020002030FFF7EFFE220020321021019885
:101AD00000F0A4FE089860710298A0710298000AB4
:101AE000E0710298000C20720298000E6072099852
:101AF000A072010AE172010C2173000E607317E0FD
:101B0000E5736D1C2200203221001031200000F00E
:101B10000FFF00217018009A135C6218127C5A4063
:101B20000A9B1A54491C1029F4DB103F1036F6B2F8
:101B3000BFB2102FE4DA002F13D0E5732200203259
:101B400021001031200000F0F3FE00217018009AEF
:101B5000125C63181B7C53400A9A1354491CB94207
:101B6000F4DBF7BD10B584B0089C0294079C019487
:101B7000069C0094FFF79DFF1FBDF8B506000D0001
:101B80001700444C2000203000F003FB39002000F7
:101B9000203000F00FFBEAB231002000203000F0CE
:101BA00011FB210020312000103000F06CFBE07CA4
:101BB0000006A17C09040143607C00020843217CEB
:101BC000014300980160F1BDF4B505000E001F004F
:101BD000314CF022002120002030FFF764FE22006B
:101BE00020321021009800F019FE22002032390026
:101BF000280000F09DFE102E07DB20342200103755
:101C000039001035280000F093FEF1BDF4B584B022
:101C100004000E001F00204DF0220021280020307B
:101C2000FFF741FE2A0020321021200000F0F6FDCF
:101C3000102200216846FFF736FE6C460120207016
:101C400006223100601CFFF724FE022204A9E01DD9
:101C5000FFF71FFE2A0020323900684600F068FEB8
:101C6000102200216846FFF71EFE02202070062287
:101C70003100601CFFF70DFE022204A9E01DFFF7F2
:101C800008FE20352A000A99684600F051FE05B08A
:101C9000F0BD0000DC03001014050010010009D5A0
:101CA000F446404200F006F80122D2071143604793
:101CB000010000BF42221201D21E004207D002D40E
:101CC000521E0018FCD5C10A40051205891870473C
:101CD000F0B50E005E400125ED072E40B446AE0A79
:101CE000DF184C18F44208D2F7420ED2640D01D02E
:101CF0007F0D12D100206146F0BD05D1F74201D819
:101D00007F0D05D10020C143F0BDFBD1640DF9D09A
:101D10000020C143490549088FE0E419C902DB02EC
:101D200029432B43DB0A460DC00231438E4630B4B3
:101D300087B295B27D432E0CADB2140C7C43A4192E
:101D4000260C240425439CB27C43A419190C794326
:101D5000270CC919A4B20F043C43090C000C97B21C
:101D600047432E0CBE193543ADB2170C4743360C12
:101D7000BF19A6B2BF193E043543240C3E0C3619D8
:101D80009FB24743BF19BCB23E0C89191F0C474391
:101D90007F183E043443390C704680B297B24743F3
:101DA0002E0CBE193543ADB2170C4743360CBF1984
:101DB000A6B2BF193E043543240C3E0C36199FB21F
:101DC0004743BF19BCB23E0C89191F0C47437F180B
:101DD0003E043443390C77463F0C90B278432E0CC6
:101DE00080190604ADB22E43050CA0B22D18120CBA
:101DF0007A435019020C80B2240CA4189AB27A4388
:101E0000121914042043120C89181B0C7B43C918A7
:101E100030BCEF0A394203D1B61940414941641E32
:101E20006F12BF0DE41B0BDBFF19BC4211DA240556
:101E300000274208AE417841614166463143F0BD1A
:101E4000641C05D1401C6141CF0201D34908F4E76D
:101E500050E75DE74A1812D2400DC902084301213C
:101E6000C9070843520D40210901521A521C06D4D9
:101E700052421F3201D4D0407047C0177047002033
:101E80007047FEE71206130A1A43130C1A4300BFE9
:101E9000094205D0830705D00270401C491EF9D1C4
:101EA00070470000130030B414001500103902D33D
:101EB00010393CC0FCD2490700D30CC000D504C087
:101EC000890002D30280801C002900D5027030BC3A
:101ED000704700000022E5E7F0B40125ED070F0090
:101EE0005F404FD48B4200D1824205D98446100016
:101EF00062468C4619006346DF184C18640D7F0D4E
:101F00003AD0661C760537D0E61B352E34DCDB0272
:101F10002B43DB0A0C0DC9022943C912202E0DDB0D
:101F20001700203E06D01F00F741F3405F40002617
:101F3000012A7741C01871410DD217E01700F7410F
:101F4000F2405740F3415A40B340F3405A40002614
:101F5000801859410AD3A21C52050FD0C207012F85
:101F6000724117004008CB0718434908641C240538
:101F70004208AF4170416141F0BC7047641C2105CB
:101F80000020F9E76B400AE06B40ABE7F742F3D182
:101F9000E943F1E72442EFD100200021ECE70C00F7
:101FA000871A9C4105D2C01BA141D21963416940E7
:101FB0006B40AE0ADF184C18F442E7D2640D7F0D77
:101FC000E8D0E61B362ED7DCDB022B43DB0AA44627
:101FD0000C0DC9022943C90A012E28DC04D1D607F9
:101FE0005208DF073A435B08EF0A76429041994175
:101FF00014D039423BD1B61940414941761C39428F
:1020000004D1761C001849413942FAD0B9436746D9
:10201000B74208D9A41B24052143ADE70042EAD109
:102020003642E8D1A8E7E40AE1070020A4E7202E21
:102030000BDD203E1F00F340F7415F40012A0022E4
:1020400057417E42984191410BE01700F741F24021
:102050005740F3415A40B340F3405A407E429041CA
:1020600099410A0303D2641EB61940414941002731
:10207000641E24054208AE4178416141F0BC7047BE
:1020800030B4434351435D18010C0C00130C5C4306
:102090002D1980B2434392B251430024C9186441C0
:1020A00024040B04090C09195043C018694130BCC1
:1020B0007047F446002804D4494200F013F8404227
:1020C00060474042002905D45FD000F00BF8404241
:1020D00049426047494200F005F8494260470346DB
:1020E0000B43E6D40022030A8B420BD203098B4236
:1020F00019D243088B422ED2411A00D201465241D6
:1021000010467047FF2209023FD012068B4205D3CA
:10211000121209028B4201D31212090203098B42E7
:1021200019D300E0090AC3098B4201D3CB01C01ABD
:10213000524183098B4201D38B01C01A524143099A
:102140008B4201D34B01C01A524103098B4201D388
:102150000B01C01A5241C3088B4201D3CB00C01AF5
:10216000524183088B4201D38B00C01A524143086D
:102170008B4201D34B00C01A5241884200D3401A0F
:102180005241CFD201461046704708B5C046C046FE
:1021900008BD10B5040010220021F130FFF783FBC9
:1021A00000208A2149006050F02200212000FFF722
:1021B0007AFB10BD80B50B0002001021180000F062
:1021C0002DFB01BDF0B585B005000E0014008A207E
:1021D00040002858002848D010210F1AA74200D9E3
:1021E0002700BAB231002818FF239B1CC018FFF744
:1021F00050FB8A2040002858C0198A2149006850A5
:1022000010283ED3BC423CD000202918F1310A7876
:102210000B7C53400B70401C1028F6DB2A00290071
:10222000F1312800F13000F083FBF619E41B1CE0CB
:1022300000202918F1310A78335C53400B70401CA0
:102240001028F6DB10222900F1316846FFF721FB48
:102250002A006946684600F06BFB10226946280098
:10226000F130FFF716FB1036103C112CE0D2A2B271
:102270003100FF20801C2818FFF70BFB8A2040004C
:102280002C5005B0F0BDF1B588B00C001022002133
:102290006846FFF708FB22006946684600F048FBE5
:1022A000872100206A4613781B0603460DD5D518F2
:1022B0002E7876006F78FF0937432F705B1C0F2B49
:1022C000F5DBD37B5B004B400BE0D5182E78760016
:1022D0006F78FF0937432F705B1C0F2BF5DBD37B27
:1022E0005B00D3738A235B00E358102B0CD10021D1
:1022F0006318FF25AD1C5B191D78565C6E401E707F
:10230000491C102940DAF3E713781B060ED5002389
:10231000D5182E7876006F78FF0937432F705B1C35
:102320000F2BF5DBD37B5B0059400CE000215318E9
:102330001D786D005E78F6092E431E70491C0F292A
:10234000F5DBD17B4900D17380218A235B00E35800
:10235000E318FF25AD1C595501E0611848558A2145
:1023600049006158491C8A235B00E1501029F4D3CD
:1023700000216318FF25AD1C5B191D78565C6E406B
:102380001E70491C1029F4DB2118F1310A780B7CEE
:1023900053400B70401C1028F6DB10222100F13155
:1023A00004A8FFF776FA2200089904A800F0C0FA02
:1023B000102200216846FFF776FA09B0F0BDFEE76B
:1023C0000A6802604A6842608A688260C968C160BF
:1023D000704702680B685340036042684B68534083
:1023E000436082688B6853408360C268C96851400B
:1023F000C160704710B50B6814685C4004604B689E
:1024000054685C4044608B6894685C408460C96830
:10241000D2684A40C26010BD7F4902788A5C02706F
:1024200002798A5C0271027A8A5C0272027B8A5C9F
:10243000027342784379CB5C4370437ACB5C43713F
:10244000437BCB5C43728A5C42738278837ACB5C39
:1024500083708A5C82728279837BCB5C83718A5CB5
:102460008273C27BC37ACB5CC373C379CB5CC37208
:10247000C378CB5CC371895CC17070477FB50400C1
:1024800021006846FFF79CFF634800BF63A100BFBF
:10249000A2A26B461D78565D5D794D5D75409E7AB2
:1024A000865D6E40DD7B455D754025701D78465D1F
:1024B0005D79555D75409E7A8E5D6E40DD7B455D34
:1024C000754065701D78465D5D79455D75409E7A05
:1024D000965D6E40DD7B4D5D7540A5701D784E5D4F
:1024E0005D79455D75409E7A865D6E40DD7B555D0C
:1024F0007540E5701D79565D5D7A4D5D75409E7B3A
:10250000865D6E40DD78455D754025711D79465DBF
:102510005D7A555D75409E7B8E5D6E40DD78455DD4
:10252000754065711D79465D5D7A455D75409E7BA0
:10253000965D6E40DD784D5D7540A5711D794E5DEF
:102540005D7A455D75409E7B865D6E40DD78555DAC
:102550007540E5711D7A565D5D7B4D5D75409E78D9
:10256000865D6E40DD79455D754025721D7A465D5C
:102570005D7B555D75409E788E5D6E40DD79455D75
:10258000754065721D7A465D5D7B455D75409E7840
:10259000965D6E40DD794D5D7540A5721D7A4E5D8C
:1025A0005D7B455D75409E78865D6E40DD79555D4D
:1025B0007540E5721D7B565D5D784D5D75409E7979
:1025C000865D6E40DD7A455D754025731D7B465DF9
:1025D0005D78555D75409E798E5D6E40DD7A455D16
:1025E000754065731D7B465D5D78455D75409E79E0
:1025F000965D6E40DD7A4D5D7540A5731D7B495D2E
:102600005D78455D4D409979405C6840D97A515C70
:102610004140E1737FBD000084290000A584998DAD
:102620000DBDB1545003A97D1962E69A459D4087BE
:1026300015EBC90BEC67FDEABFF7965BC21CAE6AEF
:102640005A41024F5CF434089373533F0C52655E59
:1026500028A10FB509369B3D2669CD9F1B9E742E80
:102660002DB2EEFBF64D61CE7B3E7197F568002CE6
:10267000601FC8EDBE46D94BDED4E84A6B2AE5168A
:10268000C5D75594CF100681F044BAE3F3FEC08A53
:10269000ADBC4804DFC17563301A0E6D4C14352F84
:1026A000E1A2CC3957F28247ACE72B95A098D17FB5
:1026B000667EAB83CA29D33C79E21D763B564E1E1B
:1026C000DB0A6CE45D6EEFA6A8A4378B324359B7E2
:1026D0008C64D2E0B4FA0725AF8EE918D5886F7202
:1026E00024F1C751237C9C21DDDC86859042C4AA5D
:1026F000D8050112A35FF9D0915827B93813B33325
:10270000BB7089A7B622922049FF787A8FF880178C
:10271000DA31C6B8C3B07711CBFCD63AC6F8EEF6BC
:10272000FFD6DE916002CE56E7B54DEC8F1F89FAD9
:10273000EFB28EFB41B35F452353E49B75E13D4C03
:102740006C7EF5836851D1F9E2AB622A0895469D0B
:1027500030370A2F0E241BDFCD4E7FEA121D58346E
:1027600036DCB45BA476B77D52DD5E13A6B900C13A
:1027700040E379B6D48D67729498B085BBC54FEDB0
:10278000869A66118AE904FEA078254BA25D800531
:102790003F2170F16377AF4220E5FDBF811826C36A
:1027A000BE35882E9355FC7AC8BA32E6C0199EA36E
:1027B00044543B0B8CC76B28A7BC16ADDB64741468
:1027C000920C48B89FBD43C43931D3F2D58B6EDA31
:1027D00001B19C49D8ACF3CFCAF447106FF04A5C02
:1027E00038577397CBA1E83E96610D0FE07C71CC12
:1027F0009006F71CC26AAE6917993A27D9EB2B22CB
:10280000D2A907332D3C15C987AA50A50359091A27
:1028100065D784D082295A1E7BA86D2CF6B584B06A
:102820001146F0316A46147C102C03D0182C01D0CC
:10283000202C02D12246059B07E000200870FF20D3
:1028400074E005781D70401C5B1C15006A1E2D0687
:10285000F7D16846007C1C308006000E039000090A
:10286000401E087001256846007C029045A62FE0B6
:10287000029819280FDB10290DD1F75D68466946CB
:102880008978715C817069464978715C41706946EC
:102890000978715C01706946097C601AC0B20599BB
:1028A000081801784F4001990F700199491C42782E
:1028B0006B469B7853400B7082786B465B78534035
:1028C0004B70C0786A46127842408A70241DE4B288
:1028D0000398844229DA059800190190001F0778AF
:1028E000694642788A7082784A70C0780870200001
:1028F0000299FFF7F4FB0029BAD1380069468978BC
:10290000715C2F004F4069466A465278B25C8A700B
:102910006A461278B25C4A70305C08706800ED0953
:102920001B214D434540EDB2B5E7002006B0F0BD98
:10293000F0B585B00F001400F021615C00291DD0B6
:1029400001006846FFF756FD012506E0FFF796FDFA
:1029500031006846FFF73DFD6D1CEDB228012618D9
:10296000F020205C85426846F0D3FFF755FD320029
:1029700069463800FFF73EFD002000E0FF2005B06B
:10298000F0BD0000637C777BF26B6FC53001672B75
:10299000FED7AB76CA82C97DFA5947F0ADD4A2AF53
:1029A0009CA472C0B7FD9326363FF7CC34A5E5F161
:1029B00071D8311504C723C31896059A071280E20F
:1029C000EB27B27509832C1A1B6E5AA0523BD6B363
:1029D00029E32F8453D100ED20FCB15B6ACBBE39D3
:1029E0004A4C58CFD0EFAAFB434D338545F9027FBF
:1029F000503C9FA851A3408F929D38F5BCB6DA2178
:102A000010FFF3D2CD0C13EC5F974417C4A77E3DA3
:102A1000645D197360814FDC222A908846EEB814F9
:102A2000DE5E0BDBE0323A0A4906245CC2D3AC62BC
:102A30009195E479E7C8376D8DD54EA96C56F4EAC7
:102A4000657AAE08BA78252E1CA6B4C6E8DD741FD8
:102A50004BBD8B8A703EB5664803F60E613557B99B
:102A600086C11D9EE1F8981169D98E949B1E87E955
:102A7000CE5528DF8CA1890DBFE6426841992D0F04
:102A8000B054BB16F8B5984CA066984D2900C220EA
:102A900040002018FEF726FF2900CC204000201817
:102AA000FEF720FF2900D62040002018FEF71AFF6D
:102AB000C64800F036F8002000F033F8002000F09F
:102AC0007DFBB62040002018C046C04600250026E9
:102AD00006A770008019385C00F088FB761C0F2E6A
:102AE000F7D3002000F082FB2573F1BD000C23001A
:102AF0000D1E000ED2001FAA002407002712002876
:102B0000C1002994002AC10030D800358F003B0253
:102B10000040000041300123400000007248007B6B
:102B2000704771490861704770B504000D001600C8
:102B300000F05CFB2800FFF7F4FF052000F03EFBEF
:102B4000200000F02BFB040000F032FAA64201DA6C
:102B5000002070BD012070BD80B5012000F046FB53
:102B6000052000F02BFB00F023FA002002BD00003E
:102B7000002100BF07A2CB00D2181368984204D3EB
:102B80009368984201D210797047491CC9B215293F
:102B9000EFD3FEE7280A0000170000001C0C00001D
:102BA0000F0000003C0F0000070000005014000060
:102BB000160000009C1800000E000000781E0000A7
:102BC00006000000A028000015000000D43000001E
:102BD0000D000000F03C0000050000004051000026
:102BE00014000000A86100000C000000447A0000FE
:102BF00004000000E4A200001300000050C3000025
:102C00000B00000024F400000300000085450100D3
:102C100012000000A08601000A00000048E8010040
:102C2000020000002C8B020011000000400D030088
:102C30000900000090D0030001000000E0930400B0
:102C400000000000FBB514006846007800F0CEFAE2
:102C50005F4E0B980C990D9A109B119D6F463F7813
:102C6000002F02D0012F13D0F7BD019F3760B46051
:102C7000089C7460B073F17332747374B5740998FE
:102C8000B0810198FFF774FF2000FFF771FFF7BDD7
:102C9000019F032F00D3FEE7FF1D0197F762346306
:102CA000B24E6F463F7A777030717171B2710E9883
:102CB000F0710F9830727372B5720D2C01D30C2421
:102CC00002E0062C00D206240198072802D10B2C22
:102CD00002D103E0082803D10C2C01D1012000E02F
:102CE00000203070F7BD00001C0200102B320000E5
:102CF000F5B581B00C001D006846007900F076FA49
:102D0000B2480090006800F0FBFB000609D5122CC9
:102D100003DB152C0EDB14240CE0022C0ADA02244F
:102D200008E00020C043844201DA044602E00F2C90
:102D300000DB0E2408980B990C9A0F9B109E6F468F
:102D40003F79002F02D0012F16D0F7BD009F3C71B4
:102D5000029C009FBC60009CE560009C606168462E
:102D6000008D009C2083009881760098027700985F
:102D7000437700980662F7BD954F3C70032D00D352
:102D8000FEE7ED1D7D60B860099C7C736C46248D68
:102D9000FC8139740D99F9740E993975BA747B7583
:102DA000BE610D2801D30C2002E0062800D20620C7
:102DB000072D02D10B2802D103E0082D03D10C28E6
:102DC00001D1012000E000203873F7BD00A1BC3321
:102DD00038020010F2B588B0010000207D4A009250
:102DE0000025002902D001293CD0BCE090790028C0
:102DF00001D0002700E0784F107A002801D080250C
:102E0000ED059088401CFEF749FF00223B00FFF7CC
:102E100063F800220023FFF75FF806000F0008A800
:102E20000078FEF745FF32003B00FFF755F800221F
:102E30002B00FFF751F80022684BFEF749FF040012
:102E40000D0000980068FEF733FF02000B00200021
:102E5000290000F071FB0022614BFEF739FF00F002
:102E6000CDFB7EE000260027506A072804D008D357
:102E7000092805D002D304E0B14F02E0B14F00E0D1
:102E8000B14F906A0190012001998840FEF706FF3A
:102E900002000B000020390000F04EFB02000B0086
:102EA00000204D4900F048FB04AA03C22F480290BD
:102EB0004088FEF7FDFE0022B74BFFF70DF804AA8D
:102EC0000CCAFEF705FF06AA03C202980079002883
:102ED00000D0142002990978002900D00826019911
:102EE0008F0008A90978C900C91B029A92791201BA
:102EF00089181C31081AFEF7DBFE00900191B81BFF
:102F0000FEF7D6FE02000B000098019900F014FBBA
:102F100000F098FB06000F0002984078001DFEF7B5
:102F2000BDFE32003B00FEF7D3FE0022002300F07E
:102F3000B5FB01D300200021284BFEF7CDFF04AAEA
:102F40000CCAFEF7C5FE06AA0CCAFEF7C5FF002292
:102F5000234BFEF7BDFEADA20CCAFEF7BDFF00F08D
:102F6000B7FBFEF777FF09B0F0BD00006C02001060
:102F700010B50020A74A14003034537B002B02D038
:102F8000012B0DD011E02082E181002901D04129DF
:102F900000DB2021E174E17C40182082206804E0FD
:102FA0006432117000F01EF8E06A00F0CFF810BD36
:102FB00010B5984CCC2040002018FEF7E7FCC2204A
:102FC00040002018FEF7E2FC002018E02C02001060
:102FD00060020010400200100000F03F000020409E
:102FE00080842E4110B58B4CCC2040002018FEF779
:102FF000CDFCC22040002018FEF7C8FC012000F0E4
:10300000DDF80020207310BDF1B582B00025814CA1
:1030100026000C367078002802D0012808D03FE046
:1030200021002E3108780D75CD804D820D8236E05D
:10303000250048352868092830D205282ED801A156
:10304000095C8F4404101C2834407068FEF730FE81
:1030500000228C4B1CE07068FEF72AFE00228A4B8F
:1030600016E07068FEF724FE0022884B10E07068BE
:10307000FEF71EFE0022864B0AE07068FEF718FE7F
:103080000022844B04E07068FEF712FE0022824B9F
:10309000FEF722FFFEF7DEFEFFF743FDA87C0500EA
:1030A0008021490020006C30FEF714FF01203070B1
:1030B0000298002809D0CC20400027180299380037
:1030C000FEF79DFC3800FEF714FC707800282FD125
:1030D000052000F073F8002D31D1D62040002418CF
:1030E000B08BFEF7E5FD00226C4BFEF7F5FE0022EB
:1030F0006B4BFEF7F1FE00226A4BFEF7E9FD0090F4
:103100000191B069FEF7D4FD02000B00009801990F
:1031100000F012FA0022B44BFEF7DAFDFEF79AFE39
:1031200001002000FEF76BFC2000FEF7E2FBF7BD7C
:10313000002D01D0052000E0062000F03FF8F7BD8B
:103140008084FE4080840E4180841E4138B5314D1C
:10315000C22149006C1801002000FEF750FC280035
:103160000C304178002901D14235297002210170CB
:103170002000FEF7BEFB032000F020F831BD4A48D6
:10318000417B012900D0704780B5032101730720DE
:1031900000F014F801BD0000000011400100002003
:1031A00000290AD0012907D11A480069A949884293
:1031B00001D39C2000E0A320C043704710B5040059
:1031C000A54801788C4210D00470002C03D1012056
:1031D00000F09DF910BD002000F099F9032C01D1F9
:1031E000012000E0002000F098F910BD80B52E49C4
:1031F000CA79002A00D1FEE74A7B824203D0487395
:103200000020FFF7DBFF01BD000000002B8716D96F
:10321000CEF7EF3F1C020010704700207047704748
:10322000704780B5FFF7E2FF01BD10B5B34C200039
:103230000C3000220178012902D0022919D010BDDA
:10324000417800290DD121002E31CA804A820A829C
:103250000978002905D10270D62040002018FEF719
:1032600095FBA06E00280CD0C068010009D08047F3
:1032700010BD0270A06E002803D04068010000D08D
:10328000804710BD0082BE40005AC4400082CE403C
:103290008057D4408084DE40C058E4400000F03FB6
:1032A00000002440000020401C020010F0B583B054
:1032B000002569460D71914C26000C3630780128A6
:1032C00003D0022800D181E0F7BDCC2040002018B7
:1032D00000907078002802D0012840D0F7BDD62099
:1032E0004000201827002C373978002916D06A466C
:1032F000157169460979890710D4B978002902D176
:103300003570FEF7F6FA0098FEF740FBA06E002835
:1033100021D0006901001ED080471CE0798A002975
:1033200002D1BA8A002A00D0B982B978002902D124
:103330003570FEF7DEFA0098FEF728FBA06E002835
:1033400009D08668300006D000230A203A56798AD0
:103350006C342000B0473D81BD827D82F7BD0D7188
:1033600027005A376846007980060ED5387800283D
:1033700000D135700098FEF709FBA06E002832D00E
:10338000006901002FD08047F7BDBD7170683149D9
:10339000884201D39C2000E0A320C0433881BD7245
:1033A0003878002800D135700098FEF7EFFAA06E4B
:1033B000002818D08568280015D006203B56082024
:1033C0003A5EB97A6C342000A847F7BDC2204000AD
:1033D0002018FEF7DBFA3570A06E002803D00068D5
:1033E000010000D08047F7BD80842E4138B5434DA1
:1033F000280042302C000C342178012902D0022907
:1034000019D031BD6178002902D0012904D031BD25
:10341000A18E628E007814E0CC2040002818FEF7C0
:10342000B5FA00202070A86E002811D0C0680100F5
:103430000ED0804731BD6178002909D1A18E628EFE
:103440004078531A984202DA0818A08631BDA28645
:1034500031BD000041DD4A1F2C08001010B527487F
:1034600001000C310A78012A02D0022A1AD010BDBC
:103470004978002902D0012917D010BD0400343446
:10348000217801291DD1617800291AD1D62149005E
:103490004018FEF77BFA012060700020A070606089
:1034A000207210BD497801290BD15721415C0029B8
:1034B00007D0806E002804D04169080001D00020A8
:1034C000884710BD0D48417B012900D0704780B569
:1034D000806E002804D08169080001D00020884750
:1034E00001BD0648417B002906D13421415C0029F9
:1034F00002D1012134300170704700001C0200101D
:103500000949884201D3802070470020704707494D
:103510000A78824200D00870704705490A7A8242D0
:1035200000D008727047000041DD4A1F120B0010E6
:103530001C02001001207047F0B40E005E4001250F
:10354000ED072E40B446AE0ADF184C18F4423BD2C9
:10355000F74241D2640D43D07F0D38D0E41BC9023D
:10356000DB0229432B43CF0ADB0A0600B61A9F4130
:1035700004D2641EB6197F41B6185F416812800DEF
:1035800024180018844222DAE80C0021B6197F4181
:10359000B61A9F4102D2B6185F413F1C40414941D3
:1035A000F4D3241C21DD2405B6197F41B61A9F41AE
:1035B00005D33743C60737430026012F70416141C9
:1035C00066463143F0BC7047FCD1F74205D200207B
:1035D000C14349054908F3E704D00020C143F1E79E
:1035E0007F0DFAD000206146ECE72442FAD1401C5E
:1035F00061410F03F6D30020E2E7000083B501210B
:10360000684600F091F8401E012813D90021684651
:1036100000F08AF800280DD00198002868460CC8F0
:1036200002D50020054901E000200549FEF754FCC1
:103630006A4603C2684603C803B000BD0000F0BF7D
:103640000000F03F4A00520DFF239B009B1CD21A42
:1036500019DD35239B1A1EDD1300153B09DA9B414A
:10366000DB0AD340094201D4401E5941002099434E
:1036700070470022D243DA40094202D40023801866
:103680005941904370470B0D5B0500D0024901D3AF
:103690000121C907002070470000F03F30B4012429
:1036A00064054D00EC420BD85D00EC4208D80C00DC
:1036B0001C4364000443144304D28B4200D1824271
:1036C00030BC7047FCD09942FAD19042F8E7000034
:1036D0004A00520DFF239B009B1CD21A19DD352393
:1036E0009B1A1DDD1300153B09DA9B41DB0AD34011
:1036F000094201D5401E59410020994370470022DC
:10370000D243DA40094202D5002380185941904340
:1037100070474B00034300D0024900D20021002033
:10372000704700000000F0BF42685200520D1F4B6E
:103730009A4209D14168090304D10068002801D1E7
:10374000012070470220704743685B0002D1036884
:10375000002B28D0164B9A1A521A012A23DB352A3D
:1037600007DB4168802212061140416000210160A0
:1037700016E00121D306DB0E9940491E920608D5BA
:1037800042680A4041685140416003681343002188
:1037900003E003680B40016859400160002B02D030
:1037A0000020C04370470020704700BFFF070000A3
:1037B0003304000028490A680860704770B50C009F
:1037C000264E3100FEF78EFC85B220003100FEF758
:1037D00089FC80B2002200241F2803DA612D00BF7B
:1037E00021A104DB002070BD521C472A32D20C23D9
:1037F0005343CB181E88B542F6D15B889842F3D16B
:1038000017480280012400880C2242438D180220B0
:1038100000F0DEF9002000F0EBF9002000F0EAF9FA
:103820000120FFF7C7FF802000F0C8F90D4EA879EE
:10383000C006C00E297A8907490E014331608020F5
:1038400000F0C6F97068C007FCD5688930670320AE
:1038500000F0D0F9200070BD1000044040420F007D
:10386000100B0010088004400C000C00C000000089
:10387000030001000C000600C0000000030002006D
:103880000C000400C0000000030003000C00030053
:10389000C0000000030004000C000200C000000093
:1038A000030006000C000100C000000003000C0033
:1038B00018001800C00001000200010018000C00F0
:1038C000C00001000200020018000800C000010052
:1038D0000200030018000600C000010002000400FE
:1038E00018000400C00001000200060018000300D8
:1038F000C00001000200080018000200C000010022
:1039000002000C0018000100C000010002001800B5
:1039100024001200200102000200020024000C001A
:10392000200102000200030024000900200102001F
:10393000020004002400060020010200020006002C
:1039400024000400200102000200090024000300FA
:103950002001020002000C002400020020010200ED
:1039600002001200240001002001020002002400D5
:1039700030001800C00003000100020030001000F9
:10398000C00003000100030030000C00C000030071
:103990000100040030000800C00003000100060020
:1039A00030000600C00003000100080030000400E1
:1039B000C000030001000C0030000300C000030041
:1039C0000100100030000200C000030001001800D8
:1039D00030000100C0000300010030003C001E0068
:1039E000F0000400010002003C001400F00004009C
:1039F000010003003C000F00F0000400010004007F
:103A00003C000C00F0000400010005003C000A002E
:103A1000F0000400010006003C000600F000040075
:103A200001000A003C000500F000040001000C0049
:103A30003C000400F000040001000F003C00030003
:103A4000F0000400010014003C000200F00004003B
:103A500001001E003C000100F000040001003C00D9
:103A60004800180020010500010003004800120072
:103A7000200105000100040048000C0020010500A1
:103A800001000600480009002001050001000800AF
:103A90004800080020010500010009004800060058
:103AA0002001050001000C00480004002001050071
:103AB0000100120048000300200105000100180069
:103AC0004800020020010500010024004800010018
:103AD000200105000100480054001C00A800060059
:103AE0000000030054001500A800060000000400B8
:103AF00054000E00A80006000000060054000C0050
:103B0000A80006000000070054000700A8000600F7
:103B100000000C0054000600A800060000000E0083
:103B200054000400A8000600000015005400030023
:103B3000A800060000001C0054000200A8000600B7
:103B400000002A0054000100A800060000005400F4
:103B500060001800C00007000000040060001000B2
:103B6000C00007000000060060000C00C000070055
:103B70000000080060000800C000070000000C0002
:103B800060000600C0000700000010006000040094
:103B9000C00007000000180060000300C00007001C
:103BA0000000200060000200C0000700000030009C
:103BB00060000100C0000700000060000B490A68B7
:103BC0001043094A0240DA20C001104308607047E0
:103BD00006490A68824304481040DA22D2010243AF
:103BE0000A60704700000000FF8000003882044037
:103BF000044900E004490860002048600120486052
:103C000070470000408004407080044080B5082266
:103C10005E490120FCF710FD052801D1012002BDFD
:103C2000002002BD10B55A4C20003030FDF7AEFE2A
:103C30000120607010BD10B5554C20004430FDF7D8
:103C4000A5FE0120207110BD10B5514C2000583048
:103C5000FDF79CFE0120607110BD38B5007801248D
:103C60004B4DC20901D02C7012E0420822420FD005
:103C70008008204207D00879401E012803D8087B1D
:103C8000012800D1AC71EC7028005830FDF731FEEE
:103C9000AC7031BDF8B5002600253D4C3D48A06014
:103CA00020000830FCF732FC002020703A49FDF774
:103CB000E5FD010023002033220010320020FCF734
:103CC000A0FC012020706070344920003030FDF7E6
:103CD00009FE334920004430FDF704FE314F39001E
:103CE00020004430FDF78BFE2F4920005830FDF7AF
:103CF000F9FD390020005830FDF781FE0120FCF766
:103D00007DFC0120FDF796FD0120FDF733FD02202B
:103D1000FDF72DFD1D4F20780028FCD020790028CC
:103D200000D026716079002800D06671A079002843
:103D300000D0A671E078002800D0E670A0780028B6
:103D40000ED0A67019491A48FDF798FD1949411877
:103D500020003030FDF753FE20003030FDF7C9FD64
:103D6000002D02D0FFF752FF0500607800280AD02E
:103D700066707E707E807E6020004430FDF7B9FD65
:103D8000FFF744FF0500FDF742FEC4E7D00A00102C
:103D9000440700105B3C0000FFFFFF01253C0000D2
:103DA000373C0000A8610000493C000040420F0081
:103DB000C0BDF0FF404B4C00F8B50026544C206FBE
:103DC00000284FD1206D401C2065206D00900028F8
:103DD0000ED1E06A0068002801D072B6FEE7E06A02
:103DE000216BE1622063606E401C606600F094F815
:103DF000484F0098E16E88422BD31BE0281D00F04D
:103E0000A7F8A86A002803D02800183000F0A0F80E
:103E1000E86A616D814200D26065291DE86A14225A
:103E20005043381800F088F8E86AA16AC96A8842E5
:103E300000D30126E06A0068002802D10020C043B8
:103E400006E0E06AC068C568686800998142D5D21A
:103E5000E066A06AC06A142148433858022804D397
:103E6000012602E0E06D401CE065206E002800D0D5
:103E700001263000F2BD000010B5254C206F00284F
:103E800002D00120206610BD2066A06A006BA16AE6
:103E90000968884204D3A16A3431A06A00F06AF844
:103EA000142200BF15A1A06A006B00F066F800287C
:103EB00008D0A16A3431A06A00F05CF802E0606DBD
:103EC000401E60651348616D14225143415800291A
:103ED00004D1606D0028F2D172B6FEE7616D5143E6
:103EE0004118486842684A6008000830824201D19F
:103EF000506848604868C068A06210BDA5A5A5A527
:103F0000A5A5A5A5A5A5A5A5A5A5A5A5A5A5A5A561
:103F100028060010300A00100648C16A0968002906
:103F200002D10021C94303E0C16AC968C968496870
:103F3000C16670472806001042684A6093688B602B
:103F400093685960916008610168491C016070477D
:103F50000169826843689A60426883685A604A6867
:103F6000824201D182684A60002202610868401ED4
:103F70000860704772B602BEFEE710B402E0401C53
:103F8000491C521E002A09D00B7804789C42F6D0B6
:103F900002D20020C04302E0012000E0002010BC5B
:103FA0007047816807E00268116851185368CB18A0
:103FB000C36008320260C2689142F4D04A1C826039
:103FC00008787047F0B587B00100083102910268A7
:103FD0005208D200891803910025049505950168BF
:103FE0004908C9004418083440686946C307DB0F14
:103FF0004B704008C00020180190002735E002A84F
:10400000FFF7CFFF46B20AE002980168401804901B
:104010000299496840180590029808300290049867
:1040200005998842F0D0411C0491007869460870D7
:10403000BD4210D10198844201D100F01EF82568DC
:1040400068464078002801D048462D1860682F182F
:104050000834BD42EED06846007828706D1C002EF2
:1040600008D5761CE4D1BD42C9D101988442C6D19D
:1040700007B0F0BD761ED2D5F5E780B5012000F07F
:1040800001F801BD2021090326311820ABBEF9E754
:1040900080F308887047EFF30980194B1A682038BD
:1040A0001060F0C044464D4656465F46F0C008B525
:1040B00072B6FFF7E1FE62B60CBC116808681030FA
:1040C000F0C8A046A946B246BB4680F3098820380E
:1040D000F0C8184770470A4B19680868203080F309
:1040E0000988022080F314883FBCAE4662B600BD4A
:1040F000EFF3108072B6704780F3108870470000AD
:1041000050060010852A00001D2B0000ED31000034
:10411000232B0000292B0000592B0000452C000008
:10412000F12C000035350000D52D0000712F000066
:10413000B12F0000E52F0000093000007F310000A2
:104140009D310000193200001B3200001F320000B8
:10415000213200002332000004480168044A0A406A
:104160008021C90211430160704700008080044033
:10417000FFFFEF2580B5FFF7EFFF00F001F801BD6D
:1041800080B5FFE702494800FFF718FB01BD0000BA
:1041900080C3C90110B5074979441831064C7C44E5
:1041A000163404E0081D0A68891888470100A142F6
:1041B000F8D110BD2C0000005400000010B5FFF72E
:1041C00097FF0400FFF7F8FD002803D0802040058A
:1041D00002490860200080F3108810BD04ED00E063
:1041E000DBD6FFFFE40200003008001000000000F2
:1041F000D5FDFFFF0200000002000000C4BEFFFF6B
:104200009F000000000000102D0800000120C046A3
:10421000002801D0FFF7BEFF0020C046C046FFF7D0
:1042200039FD00F000F880B500F002F801BD000093
:1042300007463846FFF726FFFBE7000001488047A6
:1042400001480047614200004D420000C046C046A0
:10425000C046C046FFF7DAFF140E0B080502000047
:0C42600080B5FFF787FF01BDFEE7FEE719
:040000050000424D68
:00000001FF
