:10000000600B0010BD170000CB0C0000CF110000EA
:1000100000000000000000000000000049BEFFEFEB
:10002000000000000000000000000000110D0000B2
:100030000000000000000000D30C0000C108000018
:10004000EB170000EB17000000000000EB170000AA
:10005000EB170000EB17000000000000EB1700009A
:10006000EB170000EB170000EB170000EB17000088
:10007000EB170000EB170000EB170000EB17000078
:10008000EB170000EB170000EB170000EB17000068
:10009000EB170000EB170000EB170000000000005A
:1000A000EB170000EB170000EB170000EB17000048
:1000B000EB170000EB170000EB170000EB17000038
:1000C000F00001F80581008100810081008100813C
:1000D000008100810081008100810081008200FC9C
:0500E000FFD400FCAAA2
:0402FC00FFFFFFFF02
:10030000F7B506001F00002801D172B6FEE7089875
:10031000082801D372B6FEE70A99104600F04BFA9E
:10032000040072D0206B69460989890045182D1F89
:10033000072085436846008900900B9B089A019925
:10034000200000F0FBF93A003100280000F064FAC8
:1003500020600998002800D0046000F099FA394D17
:10036000E86C401CE864384FA86A002825D1AC62CC
:10037000E86C01282AD1002614207043381800F0B8
:10038000BBFA761C082EF7D32800743000F0B4FABC
:100390002E008836300000F0AFFA280000F0ACFAEA
:1003A0002800143000F0A8FA2800383000F0A4FA31
:1003B00028007430E8622E6308E0A86D002805D19B
:1003C0000898A96AC96A884200D3AC62A86E401C2A
:1003D000A8662064E06A696D814200D26865211DCB
:1003E000E06A14225043381800F095FA012400F016
:1003F0005BFAA86D002806D0A86AC06A08998842EE
:1004000001D200F03FFA2000FEBD0024E443FAE7E9
:1004100070B5040013D00B4D286F002801D072B6C0
:10042000FEE700F035F82E6DA86A001D00F099FA7D
:10043000301900F0A9F900F03FF8002801D100F0D0
:1004400021FA70BD18060010B806001000B585B07E
:10045000002003900290019000900023402200BFF2
:1004600009A16E48FFF74CFF012809D172B639483F
:10047000012181650021016500F0E6F905B000BDAC
:100480000028FBD172B6FEE749444C45000000004D
:100490003048016F491C0167704700202D498A6A66
:1004A000D26A002A06D12C4A1268022A02D2C86EE9
:1004B000096D401A70470000F8B50027254C206FE1
:1004C000002801D172B6FEE700F0E2F9206F401E6D
:1004D0002067206F002838D1E06C00281CD134E060
:1004E000E068C5682800183000F03BFA281D00F0CD
:1004F00038FAE86A616D814200D26065291D1648AC
:10050000EA6A14235A43801800F005FAE86AA16ADF
:10051000C96A884200D32666012620680028DFD1F8
:10052000E06D002808D10AE000F018F8002800D09B
:100530002666E06D401EE065E06D0028F4D1206E77
:10054000012802D1012700F09DF900F0ADF9380033
:10055000F2BD000018060010B8060010F8B500261D
:10056000554C206F00284FD1206D401C2065206D18
:10057000009000280ED1E06A0068002801D072B611
:10058000FEE7E06A216BE1622063606E401C6066FA
:1005900000F02FF9494F0098E16E88422BD31BE001
:1005A000281D00F0DEF9A86A002803D028001830C2
:1005B00000F0D7F9E86A616D814200D26065291DBB
:1005C000E86A14225043381800F0A5F9E86AA16AD5
:1005D000C96A884200D30126E06A0068002802D177
:1005E0000020C04306E0E06AC068C56868680099FA
:1005F0008142D5D2E066A06AC06A142148433858C7
:10060000022804D3012602E0E06D401CE065206E64
:10061000002800D001263000F2BD0000C106000015
:1006200010B5254C206F002802D00120206610BD97
:100630002066A06A006BA16A0968884204D3A16A97
:100640003431A06A00F014FA142200BF15A1A06A88
:10065000006B00F035FA002808D0A16A3431A06A96
:1006600000F006FA02E0606D401E60651348616D9F
:10067000142251434158002904D1606D0028F2D161
:1006800072B6FEE7616D51434118486842684A609E
:1006900008000830824201D1506848604868C0684C
:1006A000A06210BDA5A5A5A5A5A5A5A5A5A5A5A5BF
:1006B000A5A5A5A5A5A5A5A518060010B806001016
:1006C00070B5544C524D1EE0FFF7E2FE6869461EBD
:1006D000B641F60FFFF7F0FE002E14D100F0D8F867
:1006E000286AC668301D00F03CF9E86C401EE864DA
:1006F000686B401E686300F0D7F8306B00F04CFA6E
:10070000300000F049FA686B0028DDD1206802282B
:1007100001D300F0B7F800F05EFAFFF7BEFE022842
:10072000F1D3FFF7B5FEE86E296D884201D272B6AB
:10073000FEE7FFF7B2FEFFF7BFFEE4E7F8B50400FF
:100740001500002000228B181E78A71834373E7041
:100750001B78002B02D0521C0A2AF4D33D2160548E
:10076000082D00D3072526001036F561A564201D4D
:10077000002101612000183000210161346008204F
:10078000401BB0607461F1BD38B50400204DA86A0B
:100790004460286D8442A96A04D2091D286B00F0C8
:1007A000C6F831BD091DE86A00F0C1F8E86E844260
:1007B00000D2EC6631BD70B505000E004C2000F093
:1007C00093F9040013D0AD00002E03D1280000F0EF
:1007D0008BF900E030002063002804D1200000F0F5
:1007E000DBF9002403E0A522290000F0F7F920003E
:1007F00070BD0748C16A0968002902D10021C943B8
:1008000003E0C16AC968C9684968C16670470000E9
:1008100018060010B8060010001F80235B04036058
:10082000001F0160001F2E4901601438026020384B
:10083000704700002B4800680021C943884201D05E
:1008400072B6FEE772B6FEE710B527480168FF22D0
:1008500012040A4302600168FF2212060A43026082
:10086000224C23480068FA21890000F0D7F9401E85
:1008700060600720206000201A49086000F049FAF3
:10088000002010BD802040051A49086006E00000E5
:1008900072B614480168491C016000BFBFF34F8F56
:1008A000BFF36F8F704700000E480168002901D127
:1008B00072B6FEE7491E0160002900D162B670479A
:1008C00010B500F033FA0400FFF748FE002803D00B
:1008D0008020400507490860200080F3108810BD83
:1008E00035080000B406001020ED00E010E000E044
:1008F0005807001004ED00E00100083141600021BC
:10090000C943816001000831C16001000831016103
:1009100000210160704742684A6093688B60936869
:100920005960916008610168491C0160704730B5E9
:100930000A680023DB439A4201D1036907E0030000
:10094000083300E023005C682568AA42FAD25A689E
:100950004A6091608B60596008610168491C0160C0
:1009600030BD0169826843689A60426883685A6052
:100970004A68824201D182684A60002202610868A6
:10098000401E0860704730B4012100220368001D3A
:10099000002B0BD00468001D0C4202D04D466D1E8A
:1009A00064192260241D1B1FF0D0FAE730BC704789
:1009B00010B50024E1B2002000F0D0F9200001249D
:1009C0004440FA204000FFF723FDF3E710B5002470
:1009D000E1B2012000F0C2F9200001244440FA20D5
:1009E000C000FFF715FDF3E710B50024E1B20220C7
:1009F00000F0B4F9200001244440FA208000FFF701
:100A000007FDF3E700B585B000F030FA00F000FA1A
:100A100000200390029001900120009000234022CA
:100A200018A11048FFF76CFC002003900290019081
:100A3000012000900023402215A10B48FFF760FC25
:100A4000002003900290019001200090002340229A
:100A500012A10648FFF754FCFFF7F8FC012005B08F
:100A600000BD0000CD090000E9090000B109000047
:100A700010B50C000CA000F086F9200000F083F9FE
:100A800072B6FEE7765461736B4C6564310000000A
:100A9000765461736B4C6564320000007654617368
:100AA0006B4C656430000000537461636B204F76BB
:100AB000657220666C6F7720696E203A0000000036
:100AC00010B402E0401C491C521E002A09D00B78C9
:100AD00004789C42F6D002D20020C04302E00120FC
:100AE00000E0002010BC7047F8B504000026002587
:100AF000FFF7CEFCBF20C00034494A69002A0DD15F
:100B00000A00203207239A430A604E60C8608E6054
:100B100050600B000833136001224A61002C33D06F
:100B200008340722144203D02300083322409C1AC1
:100B3000002C29D0844227D20B000A6801E0130060
:100B400002005068A04202D210680028F7D10800C5
:100B50000830824218D01D68083510681860506847
:100B6000031B112B0CD310194360546044680B0015
:100B700000E033001E687768A742FAD30660186069
:100B800008695268801A0861FFF796FC002D01D1B0
:100B900000F01EF82800F2BD002800D1704770B5A3
:100BA00008380400FFF774FC606808490B0000E097
:100BB0002B001D686E688642FAD325601C600A69A6
:100BC00010180861FFF778FC70BD000000000010ED
:100BD00072B601BEFEE730BF704700001206130A6E
:100BE0001A43130C1A4300BF130030B4140015004D
:100BF000103902D310393CC0FCD2490700D30CC0D5
:100C000000D504C0890002D30280801C002900D5D1
:100C1000027030BC704700000022E5E70022030AA2
:100C20008B420BD203098B4219D243088B422ED23E
:100C3000411A00D20146524110467047FF22090274
:100C40003FD012068B4205D3121209028B4201D308
:100C50001212090203098B4219D300E0090AC309E1
:100C60008B4201D3CB01C01A524183098B4201D37D
:100C70008B01C01A524143098B4201D34B01C01A68
:100C8000524103098B4201D30B01C01A5241C308E0
:100C90008B4201D3CB00C01A524183088B4201D34F
:100CA0008B00C01A524143088B4201D34B00C01A3B
:100CB0005241884200D3401A5241CFD201461046D9
:100CC000704708B5C046C04608BDFEE780F30888F7
:100CD0007047EFF30980194B1A6820381060F0C094
:100CE00044464D4656465F46F0C008B572B6FFF71B
:100CF00097FC62B60CBC116808681030F0C8A046BA
:100D0000A946B246BB4680F309882038F0C8184788
:100D100070470A4B19680868203080F30988022060
:100D200080F314883FBCAE4662B600BDEFF310807E
:100D300072B6704780F310887047000040060010BC
:100D40004049012282400868C001C0091043086080
:100D5000704749014018835470470000032800DBA6
:100D6000704780B501234B403FA10A5C0021A020C1
:100D70000006FFF7EEFF01BD01B5012269463248CA
:100D800000F0DBF801BD10B5040002E0FFF7F4FF4E
:100D9000641C20780028F9D110BD38B52B4D286887
:100DA0002B4901408020084328601520FFF7C8FF29
:100DB0001620FFF7C5FF01246C610721112000F008
:100DC000D9F81221122000F0D5F8286821490140F5
:100DD00029601D4D280000F071F828681E49014067
:100DE0000420084328600121E120400300F048F975
:100DF000E1214902280000F0B2F8286817490140B3
:100E00000C432C60686816490140696031BD0000E0
:100E100070B5FFF7C2FFA0252D06280000F096F957
:100E2000002400BF10A6325D012090400D490860EB
:100E3000012300212800FFF78CFF641C032CF2DB48
:100E400070BD0000C0C100400080064080800440AA
:100E5000FFFFEF257FFFEF2501DAFC007DDAFC00C4
:100E600006030100802300A00C101B0080B500F0D9
:100E7000E3F80149086001BD5807001001218140D5
:100E80001B4802681B4B0B439A43026002681A4BD3
:100E900013400B4303607047C16170478168174876
:100EA000084070471649884201D10E207047154905
:100EB000884201D10F2070471020704710B5040000
:100EC000FFF7F0FF10490122824008680F4B0340F2
:100ED00013430B600A48844201D1032005E009480E
:100EE000844201D1042000E00520FFF7C7FF10BDB8
:100EF000048004400020FEFFFFDF01007FFD0100B1
:100F0000004006400080064080800440FFFFEF253F
:100F1000F8B50600170000240D0005E02978300020
:100F2000FFF7BAFF6D1C641CBC4204DA3000FFF707
:100F3000B5FF4007F2D42000F2BDF8B50700150058
:100F400000240E0007E02A0031003800FFF7E0FF20
:100F50002D1A24183618012DF5DA2000F2BD38B507
:100F600004000D0000F071F82901FFF757FE401E44
:100F7000206231BD10B50207520E0009054B8000FA
:100F800018180368FF249440A3439140194301605B
:100F900010BD000000C00040504900E0504908600A
:100FA00000204860012048607047000000B54D48AF
:100FB0000068C105C90D00BF54A04A0992008058BD
:100FC000C906C90E491C4900FFF728FE00BD434869
:100FD00000688007800F04D0012804D0032804D0C3
:100FE00006E041487047414800E0414800687047CA
:100FF0000020704780B5FFF7EAFF3E490968C9063F
:10100000C90E491C484302BD80B500203449096817
:101010008907890F05D0022908D004D3032908D0F5
:1010200002BD314802BDFFF7D2FF02BDFFF7BEFF90
:1010300002BDFFF7DFFF02BD80B5FFF7E5FF2E49D8
:101040000968C9B2FFF7EAFD02BD38B52B4C20682C
:10105000C5B2002D01D1002032BDFFF7D5FF290018
:10106000FFF7DCFDE26DD2B2FF2A08D1226E010E3D
:101070000002D2B2A30DD218002300F073F832BDE3
:10108000F8B505000C00FFF7BFFF06002900FFF7C9
:10109000C5FD010000D10121184FC8B23860002CF5
:1010A00016D017480268174B134003600268164BAE
:1010B000134004221A430260FF20F8653000FFF756
:1010C000ADFD00022900FFF7A9FDC0B2386601E0BE
:1010D0000020F865FFF7B9FFF2BD00004080044032
:1010E0007080044024800440001BB700D817000023
:1010F000DC1700000880044078800440948004409D
:1011000004800440FBDF0100FFDF0100000000005D
:10111000C027090090051000C05C1500F0B31A004C
:10112000200B2000009F2400E0322900C0C62D00C3
:1011300050973100E06735007038390000093D00F4
:101140004016400080234300C03046000348016839
:10115000034A0A40402111430160704780800440E7
:10116000FFFFEF25124224D0994228D970B50025FF
:101170001B4202D00C00002109E00024012649187E
:101180006441944200D3A41A7641F8D33100012679
:1011900001E0764109D2001864416D41A41A9D41D5
:1011A000F7D2A4185D41B619F5D3300022002B0008
:1011B00070BD1B42D8D108B5C046C04608BD01D19C
:1011C0009042D3D202000B00002100207047FEE7BE
:1011D00028490A680860704770B50C00264E310037
:1011E000FFF71CFD85B220003100FFF717FD80B22C
:1011F000002200241F2803DA612D00BF21A104DB97
:10120000002070BD521C472A32D20C235343CB1806
:101210001E88B542F6D15B889842F3D11748028008
:10122000012400880C2242438D18022000F0DEF9D0
:101230000020FFF7B1FE0020FFF7B0FE0120FFF70E
:10124000C7FF802000F0C8F90D4EA879C006C00E77
:10125000297A8907490E01433160802000F0C6F9E0
:101260007068C007FCD5688930670320FFF796FED9
:10127000200070BD1000044040420F005C070010C9
:10128000088004400C000C00C000000003000100B6
:101290000C000600C0000000030002000C00040067
:1012A000C0000000030003000C000300C0000000A9
:1012B000030004000C000200C00000000300060050
:1012C0000C000100C000000003000C001800180012
:1012D000C00001000200010018000C00C000010065
:1012E0000200020018000800C00001000200030014
:1012F00018000600C00001000200040018000400ED
:10130000C00001000200060018000300C000010038
:101310000200080018000200C000010002000C00DA
:1013200018000100C0000100020018002400120093
:10133000200102000200020024000C002001020033
:101340000200030024000900200102000200040042
:101350002400060020010200020006002400040010
:101360002001020002000900240003002001020005
:1013700002000C0024000200200102000200120002
:1013800024000100200102000200240030001800A7
:10139000C00003000100020030001000C000030084
:1013A0000100030030000C00C00003000100040035
:1013B00030000800C00003000100060030000600F5
:1013C000C00003000100080030000400C00003005A
:1013D00001000C0030000300C000030001001000F9
:1013E00030000200C00003000100180030000100BE
:1013F000C0000300010030003C001E00F0000400AB
:10140000010002003C001400F00004000100030091
:101410003C000F00F0000400010004003C000C0040
:10142000F0000400010005003C000A00F000040088
:10143000010006003C000600F000040001000A0064
:101440003C000500F000040001000C003C0004001A
:10145000F000040001000F003C000300F000040055
:10146000010014003C000200F000040001001E0016
:101470003C000100F000040001003C00480018009E
:1014800020010500010003004800120020010500B2
:101490000100040048000C002001050001000600C6
:1014A000480009002001050001000800480008006C
:1014B0002001050001000900480006002001050088
:1014C00001000C004800040020010500010012008A
:1014D0004800030020010500010018004800020038
:1014E0002001050001002400480001002001050042
:1014F0000100480054001C00A80006000000030082
:1015000054001500A80006000000040054000E005E
:10151000A80006000000060054000C00A800060009
:101520000000070054000700A800060000000C009F
:1015300054000600A800060000000E00540004003D
:10154000A80006000000150054000300A8000600D3
:1015500000001C0054000200A800060000002A0041
:1015600054000100A80006000000540060001800AC
:10157000C00007000000040060001000C000070069
:101580000000060060000C00C0000700000008001A
:1015900060000800C000070000000C0060000600AA
:1015A000C00007000000100060000400C000070039
:1015B0000000180060000300C000070000002000C9
:1015C00060000200C0000700000030006000010061
:1015D000C0000700000060000B490A681043094A78
:1015E0000240DA20C00110430860704706490A68CB
:1015F000824304481040DA22D20102430A60704755
:1016000000000000FF80000038820440816807E08D
:101610000268116851185368CB18C3600832026021
:10162000C2689142F4D04A1C826008787047F0B5D5
:1016300087B001000831029102685208D20089186F
:10164000039100250495059501684908C9004418CF
:10165000083440686946C307DB0F4B704008C00080
:1016600020180190002735E002A8FFF7CFFF46B20F
:101670000AE00298016840180490029949684018ED
:101680000590029808300290049805998842F0D09D
:10169000411C0491007869460870BD4210D1019840
:1016A000844201D100F01EF8256868464078002881
:1016B00001D048462D1860682F180834BD42EED07E
:1016C0006846007828706D1C002E08D5761CE4D181
:1016D000BD42C9D101988442C6D107B0F0BD761E83
:1016E000D2D5F5E780B5012000F002F801BD000079
:1016F0002021090326311820ABBEF9E70448016810
:10170000044A0A408021C902114301607047000069
:1017100080800440FFFFEF2580B5FFF7EFFF00F06A
:1017200001F801BD80B5FFE702494800FFF754FD0D
:1017300001BD000080C3C90110B5074979441831C3
:10174000064C7C44163404E0081D0A688918884752
:101750000100A142F8D110BD0800000030000000D7
:1017600027F2FFFFA8000000B806001000000000EC
:10177000BFFEFFFF020000000200000044E9FFFF7F
:101780002500000000000010B80600000120C0463F
:10179000002801D0FFF7D0FF0020C046C046FFF769
:1017A00031F900F000F880B500F002F801BD00004A
:1017B00007463846FFF79CFFFBE7000001488047DB
:1017C00001480047E1170000CD170000C046C046A1
:1017D000C046C046FFF7DAFF001BB700000000005C
:0C17E00080B5FFF799FF01BDFEE7FEE7B2
:04000005000017CD13
:00000001FF
