:10000000401900100D60000091240000BB2E00007C
:100010000000000000000000000000006733FFEF58
:100020000000000000000000000000000B3F000086
:100030000000000000000000D74000001F01000089
:10004000336000003360000000000000A354000093
:1000500033600000336000000000000033600000E7
:100060003360000033600000336000003360000044
:100070003360000033600000336000003360000034
:100080003360000033600000336000003360000024
:1000900033600000336000003360000000000000A7
:1000A0006D720000B1740000917500005B76000075
:1000B000A7760000C57600003360000033600000C2
:1000C0000022026042600272C1600261704770B536
:1000D0000400304D6E6802F0C1F9002C14D0606845
:1000E000002811D02060296840182060012020726B
:1000F0006868010002E0A14206D009690029FAD12E
:100100002161002803D16C6002F0AEF970BD306946
:1001100001E0060000690028FBD13461F4E738B53E
:100120001C4C656802F09AF92068401C20600DE0C4
:10013000287A002809D028682168884205D1002043
:100140002872E868002800D080472D69002DEFD183
:1001500002F08AF931BD10B5040002F07FF90020E9
:10016000207202F081F910BD38B505000C00FFF7D0
:10017000F2FF2C606C6031BD06480068704705498D
:100180000968814204D20022D243101A40187047F5
:10019000081A704728150010CA0F00D049420310F2
:1001A0005A400DD004B500D3404200F009F8009A3F
:1001B000D20701D34942124200D5404204BD00009B
:1001C000094214D088420FD30122030C01D100044C
:1001D0001204002300185B418B4200D35B1A52418A
:1001E000F8D319001000704701000020704708B5CF
:1001F000C046C04608BD000080B505F076F801494C
:10020000086001BD341500100023037003730381DF
:100210004160428170471CB50300B5222B490C7820
:10022000002C0AD0A12C16D0A22C1AD0B12C2CD084
:10023000B22C35D0B32C42D005E0612B01D0412B3C
:1002400003D1A1200870012016BD422BFBD1B122A1
:100250000A700873F7E7742B01D0542BF3D1A22056
:10026000F0E70D2B05D1A320087004F003FE002059
:1002700016BD0A894B899A4201D1A420F4E74B6844
:1002800098540889401C0881DDE74C899C4201D2C2
:100290000A70EAE74B810A7B50400873B220D1E72D
:1002A0004A680B89D0540A89521C0A810B7B58403A
:1002B0000873488992B28242C5D1B320C2E7087B55
:1002C0004340E5D1B422E3E7000000001815001018
:1002D0002021090326311820ABBEF9E7001BB70027
:0402E000000000001A
:1002FC00FFFFFFFFF0B585B0FFF738FF0190454CCD
:10030C00607B022803D04448C06A804701E000F0BB
:10031C00D9FC00250127414E707D01282DD12000EC
:10032C00B8300090616EFFF719FF0098FFF7C9FE17
:10033C00607B02280ED02000CC300090A16EFFF71D
:10034C000DFF0098FFF7BDFE607B022802D0A07C59
:10035C00012822D112206946087202A9207B01F0E3
:10036C0023FE2100E0310091A16E09180098FFF7DF
:10037C00F5FE0098FFF7A5FE0FE029484570042014
:10038C0060702020205C002801D12021675420209F
:10039C00205C10210143202021542020205CC00827
:1003AC00384204D02078401E8041C00F00E000206D
:1003BC003076207E607603A90870207C4870019806
:1003CC000490207B01F0FBFD0198E064A07C0028E8
:1003DC0004D113484570E07D401CE07505B0F0BDBC
:1003EC0010B50C4CA06D40210143A165A07C0028E8
:1003FC0001D000F08FFC2020205C12210143202032
:10040C002154903401212000FFF7A8FE2000FFF7B3
:10041C0058FE10BD4C020010EC5E0000D003001022
:10042C00EC140010FBB594B000270020694648730B
:10043C00059724300F90C04E300070300B90300078
:10044C00803001901290CF730E97BC490F71BC4C49
:10045C00E28116A800782074F07F60746780677161
:10046C00A760A781A77467612770B648C06A8047E8
:10047C003000CC30FFF769FE14980078694608709C
:10048C00684609784909017615A90988091F41832D
:10049C000125007E012807D0032877D0052875D0C8
:1004AC00072800D103E219E2307C012800D188E052
:1004BC00CA4C631C326B15A80088411E89B2149873
:1004CC00401C01F01EFF68460078207005AB326BB3
:1004DC006846418B200001F0EDFE15A8008820181D
:1004EC00001F0278417809021143827812040A43F2
:1004FC00C078000610430599884244D101980090B9
:10050C0033007033728C611C306B01F01CFF20794E
:10051C00617909020143A079000408437063E07912
:10052C00217A09020143607A00040843A17A090682
:10053C000143B1638449E07A4006400F212288547C
:10054C000F20E37A0F221A402823CA54217B08403B
:10055C0000D10120FA21890048437B4A10614018E0
:10056C00506120000D300C9015A8008811380CA992
:10057C000871307B01F03EFD777035749848007837
:10058C0071494870ADE107207070AAE107A8954940
:10059C00097881702179417009210170F07B012863
:1005AC0002D10A206946087707A9307B01F0FCFCD0
:1005BC0015A909880D3909B2002900D500218842F6
:1005CC0001D26570A0E1149841788078000208434C
:1005DC001499C9780904014314980079000608435A
:1005EC000990B16B884216D0F06B099900E0806AD3
:1005FC00002800D186E102689142F8D109916A463F
:10060C00D573011D0B91010014311291416A0491B3
:10061C0024300F9001E0706C04906846149949796D
:10062C0001736946097B0907090F81730846083075
:10063C00C0B20890149815A909884018001F0278B8
:10064C00417809021143827812040A43C0780006EB
:10065C0010431190149880791499C97909020143B7
:10066C000498081A80B20A90E903884204980A99FF
:10067C0013DA4018049005A8029004980190009594
:10068C00099B0B9A6846418B149801F05BFD1198FD
:10069C000599884219D10E9517E009B24018290422
:1006AC004018109005A80290109801900095099B95
:1006BC000B9A6846418B149801F044FD11980599EA
:1006CC00884202D10E951098049011206946087743
:1006DC0007A9307B01F068FC0A99814204D30A20F7
:1006EC006070049860610FE10E98002800D1DCE086
:1006FC0067706846C07BA0706846007B00090121CA
:10070C0001406171A7602773049860610B494F70B9
:10071C00B764B7756846C07B002817D002202070DC
:10072C000F9800680499884201D1002833D10846FB
:10073C000F9908601AE000BF4C020010EC14001076
:10074C00D4140010EC5E000038140010706C694674
:10075C00097E052918D1F57425700499884203D1B6
:10076C00002801D069464D73049870646846694648
:10077C00097B490901220A40C27399480078012873
:10078C000BD1002A0AD008E0F7742770049988422C
:10079C00EAD10028E8D00820B5E0777515A80088C4
:1007AC00001F0899401A002855DD1498405C491C1C
:1007BC00C9B20891694615AA1288121F089BD21A51
:1007CC000A73E0701499089A8918069100286846F3
:1007DC00807B1ED1002819D1004805E09C10001028
:1007EC00711400106514001002900498019000958B
:1007FC00099B0B9A6846017B069801F051FD16A8DF
:10080C0003786846027B002176482DE068464573E4
:10081C0042E0002808D016A803780898421ED2B2ED
:10082C000821149800F012FB6E4802900498019075
:10083C000095099B129A6846017B069801F030FDE1
:10084C006846407B002811D16648A0606846007B52
:10085C00207365730EE06846807B002806D016A8CE
:10086C000378CAB20821149800F0F0FA6846407B6D
:10087C00002811D13000E0306946C97B002903D033
:10088C00574A1571A57405E055490F71B17EF27E7A
:10089C00914201D2FFF759FC2020305CFB21014032
:1008AC006846407B8000084313E00C202BE04D4D44
:1008BC0015A802881498411C280001F0A6FD0320FD
:1008CC0020706770A56015A80088401E207320203A
:1008DC00305C022101432020315402E06570FFF7A7
:1008EC007FFD2020305C1021014320203154340046
:1008FC00903401212000FFF731FC2000FFF7E1FBD1
:10090C0017B0F0BD0B206070FFF76AFDF8E710B56B
:10091C00354C607B022803D03448C06A804701E024
:10092C0000F0D0F902202E4A507060702020205C1C
:10093C00102101432020215410BD38B52A4C607B76
:10094C00022803D02948C06A804701E000F0BAF9B8
:10095C00A07C10252249E27F002A0BD10522012818
:10096C0000D14A706270E06CFFF703FCA16E884204
:10097C000AD304E00622012800D14A7062702020BC
:10098C00205C05432020255431BD38B5164C607BC6
:10099C00022803D01548C06A804701E000F092F9A4
:1009AC00A07C10250E49E27F002A0BD103220128DE
:1009BC0000D14A706270E06CFFF7DBFBA16E8842DD
:1009CC000DD307E00422012800D14A706270607BCD
:1009DC00022804D02020205C05432020255431BD62
:1009EC00EC1400109C1000104C020010EC5E000087
:1009FC00FEB500240194C64D280090300090FFF7FE
:100A0C00A4FB2020295CAE4F0809C0074ED5A86D69
:100A1C00420602D541229043A8650126F6430920DF
:100A2C0008402BD07878022802D06878022809D1A7
:100A3C00A86D3040A8656C75E87E78713C71BC601F
:100A4C0001200190A87C019A024317D10120CB0808
:100A5C0003422CD02A78002A29D1687FA8726A78A0
:100A6C00002A02D12C64EC7537E0AA7F904234D274
:100A7C00EF2008402021685400F0CBF8A86DE97EE7
:100A8C002022AA5C5208D2072BD53A79012A02D02F
:100A9C00AA7E8A4225D22C77AC743A7D002A02D1E8
:100AAC002A6C521C2A6479710640AE6560E04A08D3
:100ABC001040EA7DB84B1B789A4201D20200D7D085
:100ACC00002803D16C75A86C401CA864EC75387DAB
:100ADC00002802D1286C401C2864A86D3040A86501
:100AEC00CCE72A7F012A43D1C00641D42C77287B3E
:100AFC00AA7E91422BD2082929DC491CE976C90728
:100B0C000CD502A920220A70A44A12788A70C84A0D
:100B1C0052784A7001F048FAC549487000F012FB4F
:100B2C00002806D12020285CEF21014020202954E8
:100B3C001EE0092078706C75A86D0640AE65AC742B
:100B4C003C71E87E7871BA484078B8700AE00121AF
:100B5C0001F03DFAA86D0640AE656C75AC743C7145
:100B6C00E87E7871387D002802D1286C401C2864FE
:100B7C00A86D810702D502218843A865A86D0028BD
:100B8C0024D101242020285C204209D03800E96DB2
:100B9C00096888472020285CFE2101402020295428
:100BAC002020285CC008204209D02800E96D896803
:100BBC0088472020285CF721014020202954202040
:100BCC00285CEF2101402020295407E0FA218900FC
:100BDC000098FFF7C3FA0098FFF773FA012420205E
:100BEC00285C4008204213D0687B022801D100F019
:100BFC0069F82020285C8008204203D18D48E96DDB
:100C0C00496888472020285CF9210140202029547C
:100C1C00F7BD1CB53E4C2000A430FFF796FAA06D32
:100C2C0010218843A0652020205CC008C0071ED579
:100C3C00207800281BD100F017FB607F401C694610
:100C4C00C88001A9891C207B01F047FA78494870BB
:100C5C00002069464871607CC0010871002000903A
:100C6C000023002201A901A8401C00F03FFB00F06A
:100C7C0069FA13BD70B5264D2800B830FFF765FA38
:100C8C000020E8776C4C297E2170694E2121715C23
:100C9C00E1702D21715C2174E97B61746082687B49
:100CAC00022802D16548006B8047654A2100287BE9
:100CBC0001F0C9F9F168A07C00F044F870BD0000A7
:100CCC00EC14001070B5124D2800CC30FFF73DFA33
:100CDC005C4C287E2070564E706A60602D20305C13
:100CEC002074E87B60740120E074697B022900D0D9
:100CFC000020A074524A2100287B01F0A4F901289D
:100D0C0005D1F168A07C00F01DF8E07CE87770BD9F
:100D1C004C02001010B54C4C2000E030FFF715FAD7
:100D2C00A07C012804D12077A06D04218843A06504
:100D3C00607B022805D12020205C1021014320205B
:100D4C00215410BD80B5020008003C49496B002AB3
:100D5C0000D00020884701BD7CB56B460F4C247831
:100D6C009C70597009211970374EF17B012901D102
:100D7C000A211970140005006946307B01F014F942
:100D8C00291980B28AB2904204D389B2FF2901DCBE
:100D9C00012076BD002076BD58140010641400109C
:100DAC00F7B501000120284A8023947D1D1BEDB26C
:100DBC00D14C537DE3180093537D5B1C8E1E082E83
:100DCC0033D801A7BF5DBF4442384238083842428D
:100DDC004E00517DAD1EA94212DA6846007A0621FA
:100DEC00009D2970537569460979DBB2E1545B1C8F
:100DFC005375DBB2E0545B1C537500200121117557
:100E0C00FEBD567D6D1EAE42FADA08E0547DAC4252
:100E1C00F6DA00980170EFE7567DAE42F0DA0098F2
:100E2C000170537568460079E3E70220FEBD0000AF
:100E3C0038140010D4140010D0030010EC5E000025
:100E4C00D8140010041500104C020010FDB588B029
:100E5C000E00B948069008E044701178017269469A
:100E6C000E780899895D4172761C09A90978F0B24F
:100E7C00884200D33EE13300761C0898F6B2821902
:100E8C00AE486C46711C2170072700240121089D77
:100E9C00DBB2EB5C9B1E082BEBD802A55B00ED5E76
:100EAC00AF4400BFB4FF12009C00B60022013C010D
:100EBC009601BA010C026B469C60521E039203A968
:100ECC0009AA1278921B521C0A71427C8A719C4DA1
:100EDC002C22AA5C4A716A78CA712A780A7220227A
:100EEC00AA5C4A7202A90191491C009102AB9B1C9D
:100EFC0002AAD21C03A9007B01F0BCF80740072F03
:100F0C0009D16946C97A69706946897A2970694636
:100F1C00497A2022A954050005E00022290003206B
:100F2C00FFF73EFF641C6846007A0521FFF72EF997
:100F3C00E4B28442F1DB6846007A401E361894E72E
:100F4C001378C84A93756A4616789940C184002272
:100F5C0000210420FFF724FF87E701AC1178090971
:100F6C0007230B40637011780907090F217069463C
:100F7C000E780899895D0291761C089AF6B2925DFA
:100F8C0012020A430292761C0899F6B2895D090492
:100F9C0011430291761C64225143029101A9007BFA
:100FAC0001F077F80740072F09D1654922782823EB
:100FBC00CA54029A069B1A6062782123CA540022F2
:100FCC0001000520C6E7FF21006E002804D0006850
:100FDC00002801D0804701000AA802780620B9E752
:100FEC00117804AA117169460E7801A90491089927
:100FFC00895D0191761C089AF6B2925D12020A4341
:10100C000192761C1146089AF6B2925D12040A43BC
:10101C000192761C11466422514301910294089965
:10102C00F6B2895D01AA1172761C04A9007B01F04D
:10103C0039F80022010007208CE710780207120F04
:10104C006846067800D10122FA2080003C494243D0
:10105C000A61101848610022002108207AE71278F2
:10106C006B461E7801AD2C80930600D56970D306B3
:10107C0000D529701107090FA97001A9007B01F097
:10108C001AF80021C943884200D1EEE62C4C28788E
:10109C002C21605468782D21605400BF17A0A978CA
:1010AC00405C01F0F1F9206300220021092051E796
:1010BC0011786A46117169460E780899895D02911A
:1010CC00761C089AF6B2925D12020A430292761CC2
:1010DC000899F6B2895D090411430291761C6422C9
:1010EC005143029101A9007B00F0EEFF00220100A8
:1010FC000A202FE70BB0F0BD38130010080A0C0DB6
:10110C000E10121415181A1B1D1E21247CB50B4C25
:10111C00657CED016E463571009313000A0001A940
:10112C0000F0E4F8010006D16B4800218180216CAD
:10113C00C16000F007F876BD5C1400104C02001082
:10114C0038140010F8B588B000200190454EB17DE0
:10115C00FF2901D1092082E0604C002900D12065D3
:10116C0005AD207C2870F07DA870607EE870606D05
:10117C00FEF7FFFF0690E06E0790307E687005A9C1
:10118C00207B00F0B3FFE06E216DE28C42438918A6
:10119C00081A20650290524D02AF68783872F07DC3
:1011AC00B872207C7872E06C039003E039202856EA
:1011BC006870387220005030009001AB2200183259
:1011CC0002A9207B00F09AFF0028EFD02120285C98
:1011DC0043B201202A562D20295C207B00F0A3FF6E
:1011EC0000966B682A7A41B2207B00F021FF3D4FBC
:1011FC0000976B682A7A2820285C41B2207B00F08B
:10120C0017FF207C002804D1A869F1684018E9690F
:10121C000DE0627D01202956307DFFF79DFD0028F1
:10122C0001D108201BE02869F16840186969FA6847
:10123C008918A16660660198002803D1207E00F011
:10124C00DBF90CE0A06D10210143A165A4340199D8
:10125C002000FEF783FF2000FEF733FF002009B0CB
:10126C00F0BD0000D003001030B500221B4B1A74E7
:10127C001A645A649A64DA7501209876D8761A77CB
:10128C0019498A75D8845A759A754875144C382042
:10129C00205C20703920205C60705920205C21215A
:1012AC006054E06D216E2500243503C520005930B3
:1012BC00C17A2C256155007B2D216054A06E2063D2
:1012CC00E06E60635A821A75D86B01E04262806AE4
:1012DC000028FBD11A8330BDEC1400104C02001016
:1012EC003814001004150010D0030010F0B589B0AC
:1012FC000E9C0025049505936E463271BA4A95846E
:10130C009574002B00D10024B84A1475B84C02789F
:10131C0022700078400907D002284AD0042845D012
:10132C00072800D123E131E1AF4D0120A884082228
:10133C00E96A601C01F075F8A88C0830A8840822B2
:10134C00A96A80B2201801F06CF8A88C0830A88427
:10135C00A848406980476884A88C698C2154401C3B
:10136C00A884090A80B22154401CA88404AB2A6BBF
:10137C00C1B2200000F09EFFA88C04992154401C9F
:10138C00A8840499090A80B22154401CA8840499A9
:10139C00090C80B22154401CA8840499090E80B217
:1013AC002154401CA884002009B0F0BD01208E4AB5
:1013BC0090748D48007C002801D10720F4E70F00C1
:1013CC0006A8012101703978C9094170864DA96CB4
:1013DC000791BB4B59780172197841722C21595CD9
:1013EC0081722800483000905A1C06A9287B00F016
:1013FC0012FE3978BF220A40800110433870E97C14
:10140C00012904D10021E974202101433970A86B12
:10141C006070010AA170010CE170000E2071387827
:10142C006071286CA071000AE0710820694608738D
:10143C00B14CAA7DB149687D201800F0E6FF687DAB
:10144C00A97D46186E75287D0599002921D067491C
:10145C00097D00291DD0012825D1F6B2102E1CDAE9
:10146C003878F021014080190007000F08433870CC
:10147C005F4948710024A04A6846007BA5B2B5427A
:10148C0000D385E0A4B2155DC0B20D54401C641CA1
:10149C00F4E7310607D0012805D1544806750594A8
:1014AC0000206946087100254F490D7500246846D7
:1014BC0086700BE00B7069464C780D78115D4155C8
:1014CC006D1C02E00B7068460578641C69468978CF
:1014DC00E0B288425FD28948EDB241196A466B1C72
:1014EC001370854AE4B2135D6E46671C7770032B4C
:1014FC000AD0052BDED0062B09D0072B04D0082BE5
:10150C00E0D00A2BD6D0E0E768464478DDE7A41C8F
:10151C00DBE70290019200200090220080320598B7
:10152C0000F04EFE6846007B3049097D4118A184CD
:10153C002F4D04A80290206C019000200090A36B0A
:10154C002200703289B2280000F0FCFDA08C291812
:10155C00049A0A70049A120A6B1C1A54049A120CFC
:10156C008A70049A120ECA70001DA0841BE7002B0F
:10157C00FCD01E4D2A7D002AF8D01900601C00F00A
:10158C0044FF287D401C184988840CE702200BE797
:10159C006946087387E7144CA575A07D002801D017
:1015AC000120207505980028BCD01048017D002929
:1015BC00B8D00F486A4612796B461B7BC2546A46F8
:1015CC006B461B7B5B1C1373127B8018A36B226C0A
:1015DC006D462D79002D9CD16575029001920020ED
:1015EC000090220070329AE74C020010D0030010D9
:1015FC009C0F0010EC5E000078B585B000216A46A7
:10160C00117001A908702E4E70784870307888706F
:10161C00306B0290706B0390B64CA08C88812300C9
:10162C006C33207B00F01AFD01256570B2484570C3
:10163C007178817069460978C170E16E8160616072
:10164C0026009036FA2189003000FEF787FD300025
:10165C00FEF737FD207C002802D1607F401C6077AC
:10166C00A18CC9B2A548D74A926A9047A06D054390
:10167C00A565002006B070BD38B584B09D4C694698
:10168C00227E0A70D04A53784B7013788B70136B90
:10169C000193526B02928881207B00F03CFD250067
:1016AC009035FA2189002800FEF758FD2800FEF736
:1016BC0008FDA06D01210143A165002005B030BDDE
:1016CC003814001038B50300080011001A0049B294
:1016DC00BC4BDB6B9847874C25009035FA21890071
:1016EC002800FEF73BFD2800FEF7EBFCA06D012166
:1016FC000143A165002032BD38130010B81300104F
:10170C00FEB505000C00002D08D02868002805D077
:10171C006868002802D0A868002801D10320FEBD0B
:10172C001600300000F03AFC002801D10A20FEBD62
:10173C002000704CE5652066267300202022A05402
:10174C006073A06560770127A777E073E06420657C
:10175C000B2069460870207B00F026FC002800D086
:10176C0001209A4EF075082069460870207B00F025
:10177C001BFC954D38216854052069460870207B68
:10178C0000F012FC392168540C2069460870207B4B
:10179C0000F00AFC68640D2069460870207B00F09C
:1017AC0003FCA8640E2069460870207B00F0FCFB4B
:1017BC00E8640F2069460870207B00F0F5FB286573
:1017CC00102069460870207B00F0EEFB6865132042
:1017DC0069460870207B00F0E7FB29005831019125
:1017EC004870142069460870207B00F0DDFB0199DD
:1017FC004860152069460870207B00F0D5FB0199E4
:10180C0008721A2069460870207B00F0CDFB019904
:10181C0008731B2069460870207B00F0C5FB0199FA
:10182C0048731C2069460870207B00F0BDFB0199B1
:10183C0008611D2069460870207B00F0B5FB0199FA
:10184C0048610021207B00F0C2FB019807700A2040
:10185C00E86306214022A95468602972686CE8602C
:10186C00A86C2861E86C6861286DA861686DE861F6
:10187C0020202F54FFF7F8FC250090358B492800C9
:10188C00FEF718FCFA2189002800FEF767FC88494E
:10189C002000A430FEF70EFC86492000B830FEF77D
:1018AC0009FC85492000CC30FEF704FC834920005C
:1018BC00E030FEF7FFFBFEF759FC60658048F061F5
:1018CC00804870628048F062804830628048B06224
:1018DC003C4D30001C30296888476869804700F00F
:1018EC0086FDA7730120A96D8847E86A8047002010
:1018FC00FEBD00004C020010EC1400109C0F0010F8
:10190C00F2B586B00700304D2800393069460278B0
:10191C004A712800383002788A716E4C6846617DB5
:10192C00A27D891801710698002801D1032047E097
:10193C00002603A80670617C4170A16C0491697843
:10194C000172297841722C21695C81722000483027
:10195C00009001AB9B1C01AA521C03A9207B00F038
:10196C005AFB02A82C21695C817069464979417047
:10197C0009210170E17B012901D10A21017002A921
:10198C00207B00F011FB06994870069841786A4656
:10199C001279914201D3891A03E06A461671667571
:1019AC00A6753800069A117069460A796B460521AE
:1019BC005956FFF7D1F9002801D1082000E000208A
:1019CC0007B0F0BDEC5E000038140010D00300101E
:1019DC007CB505000024002D01D1032076BD3D49C6
:1019EC00087B3D4A2B781D2B5CD801A6F65CB744CE
:1019FC001C2024282C30363C404448505E5A6C70D5
:101A0C0074787C808488928C969A9EA2A6AC487B33
:101A1C0043E0087C41E0487C3FE0486B40E0886B49
:101A2C003EE0080070303BE00800803038E0887BF6
:101A3C0033E0C87B31E019210BE01000243003C8DF
:101A4C0001E0D06D116E2A1D03C22CE0172100E0BD
:101A5C0016216A461170694600F0A6FA20E0202093
:101A6C000EE0D0681CE010691AE0506918E090692B
:101A7C0016E0D06914E0392002E050780DE03820EF
:101A8C00105C0AE0107808E0086C09E0486C07E08C
:101A9C00C86B05E0506803E0107A287103E0506BC6
:101AAC00686000E00224200076BD0000FD09000003
:101ABC001F0C0000810C0000D10C0000210D000057
:101ACC000103000031040000470900001B0900005D
:101ADC00970900004C02001038140010F8B584B0BF
:101AEC00040000200027002C01D1032024E1934D99
:101AFC005821695CC90701D501201DE1904E02A94E
:101B0C0022781D2A00D915E101A352009B5A9F444B
:101B1C003A0058005E0064006A0070008000940077
:101B2C00A0002202A6001E014A0142015C016A01CA
:101B3C00700176017C0182018801A401DE01C001E3
:101B4C00FE01040222020A0212021C0221796973AC
:101B5C00002902D0022904D0EDE07A48C06A8047FF
:101B6C00E9E0A874FFF7AEF8E5E020792874E2E02C
:101B7C0020796874DFE060686863DCE06068A86303
:101B8C00D9E06068002871D010220146280070301E
:101B9C0006E06068002869D01022014628008030D9
:101BAC0000F033FCC7E02079A8736649896D88473B
:101BBC00C1E02079E873BEE001A8217A01702D21E3
:101BCC00715C4170062201A9287B00F008FA0128FB
:101BDC0026D1201D03C83200243203C2687B0228A0
:101BEC00E9D1287C0128E6D1574C00947368327AED
:101BFC002820305C41B2287B00F01AFA287E207035
:101C0C00706A60602D20305C2074E87B6074012069
:101C1C00E074A0744D4A2100287B00F014FA0128CE
:101C2C0074D1F168A07CFFF78DF8E07CE87782E056
:101C3C0001A8217A01702D21715C4170062201A945
:101C4C00287B00F0CCF9012860D1201D03C8F06579
:101C5C00316670E060680290012001E062680292D7
:101C6C000871287B00F0CEF9002864D14EE0207971
:101C7C0000284BD0102849DA202137E06068F0604A
:101C8C0059E06068306156E06068706153E06068EC
:101C9C00B06150E06068F0614DE0684621790171F7
:101CAC00052201A9287B00F09AF901282ED168465B
:101CBC00007939211AE0684621790171042201A9C1
:101CCC00287B00F08CF9012820D1684600797070CF
:101CDC0031E0684621790171082201A9287B00F0C6
:101CEC007EF9012812D1684600793821705422E01F
:101CFC00684621790171072201A9287B00F06FF950
:101D0C00012803D168460079307014E0032712E0F3
:101D1C00606828640FE0606868640CE06068F063D9
:101D2C00706008E0207940217054307203E06068E4
:101D3C00706300E00227380005B0F0BD4C020010C3
:101D4C0038140010EC5E000004150010D8140010BC
:101D5C00FEB504000225002C2AD001278B4EB06D55
:101D6C00384017D10C220021300000F068FB77704E
:101D7C0008272020315C082008432178002905D051
:101D8C00022958D04DD303295CD064E05820305C34
:101D9C00C00601D50120FEBD6068002808D0A068EF
:101DAC00002805D0E068002802D0207C002801D152
:101DBC000320FEBD694608721E2202A9307B00F08A
:101DCC000EF9002807D11F206946087101A9307B44
:101DDC0000F0EAF820742020305C074320203754B0
:101DEC00207830706068B062A068F062E0683063A0
:101DFC00207CB0770020707769460870FFF734FAC2
:101E0C00707F401C69464880891C307B00F065F966
:101E1C005F4948700023002200216846FFF776F9DD
:101E2C0018E020217054207830700022002102200C
:101E3C00FEF7B6FF0EE0317020217054A088FFF73A
:101E4C001BFC07E0317020217054227BA168A08814
:101E5C00FFF738FC0500280007D00020B0742020C4
:101E6C00305CF7210140202031542800FEBDF0B534
:101E7C0085B0070002206946887000244C70002F42
:101E8C007CD0424D5820285C1121014001D001200A
:101E9C007AE069460C70142200213E4800F0CFFA1B
:101EAC0001203C4A5070E87668460078C006C00EA7
:101EBC003978002904D0012907D0032915D024E052
:101ECC0001210124A976402103E00124F97BA976A4
:101EDC00802101436846017039794170B8680290DD
:101EEC006846B98981800E200EE001200124A87675
:101EFC0068460078E02101436846017078680290DA
:101F0C006846398981800A203E5604A80121017057
:101F1C0021490978817004A9287B00F045F876B234
:101F2C00B04200D30600002C2CD0687C00280FD1C6
:101F3C0003A80670164C2C21615C8170042203A945
:101F4C00287B00F04CF8012818D16846007B6070A3
:101F5C0068468388029A4178FFF7D8F869468870FA
:101F6C006846807800280BD138780A490870202000
:101F7C00285C012101432020295403E0032003E0C5
:101F8C000020A8746846807805B0F0BD4C020010A3
:101F9C0038140010EC14001064140010022801D145
:101FAC00012070470020704780B5C0B2022803D1D1
:101FBC00080000F0D1FA02BD61A0006802BD022841
:101FCC0000D0704780B5080000F01EFB01BD022850
:101FDC0000D0704780B5080000F026FB01BD80B52D
:101FEC00030008001100022B02D100F041FB02BDDE
:101FFC00002002BD022800D0704780B50800C04602
:10200C00C04601BD80B5022803D1080000F052FB88
:10201C0002BD002002BD10B50400080011001A001A
:10202C00022C03D1029B00F05AFB10BD002010BD06
:10203C0010B50400080011001A00022C02D1029BFA
:10204C0000F088FB10BD80B5030008001100022BC6
:10205C0002D100F0BDFB02BD002002BD10B5040092
:10206C00080011001A00022C02D100F01BFC10BD5C
:10207C00002010BD1CB50400080011001A00022C31
:10208C0005D1059C049B009400F064FC16BD002057
:10209C0016BD80B5022803D1080000F0F7FC02BD84
:1020AC00002002BD80B5022803D108000020C046E4
:1020BC0002BD002002BD80B5022803D1080000201B
:1020CC00C04302BD002002BD80B5022803D1080028
:1020DC000020C04602BD002002BD80B5022803D1FD
:1020EC00080000F005FD02BD002002BD022800D052
:1020FC00704780B5080000F01BFD01BD10B5040051
:10210C00080011001A00022C03D1029B00F02EFDD6
:10211C0010BD002010BD022800D0704780B508000B
:10212C0000F080FD01BD10B50400080011001A007C
:10213C00022C02D100F0A6FD10BDC8B210BD0000EB
:10214C0000000000F4B507000D0006990798089EE2
:10215C009E4C6171A371190AE171190C2172190E4F
:10216C006172A072010AE172010C2173000E60739E
:10217C00E5732000203000F08BFD0099200020300A
:10218C0000F097FD102221002000203000F098FD77
:10219C00EAB239002000203000F092FD21002031FD
:1021AC002000103000F0EBFDE07C0006A17C09045F
:1021BC000143607C00020843217C01433160F1BD86
:1021CC00FFB581B00A9F0B9E00250120694608804F
:1021DC007F4CF02200212000203000F030F922004A
:1021EC0020321021039801F009F967710498A0714D
:1021FC000498000AE0710498000C20720498000EF8
:10220C006072A672300AE072300C2073300E60736C
:10221C0023E00088E073684669460988491C018000
:10222C002200203221001031200001F06EF9002232
:10223C0001980C99AB18C65C27001037BF5C77402F
:10224C00CF54521C102AF5DB01900C91684669465C
:10225C000989103901811035EDB2684600891028C2
:10226C006846D6DA0089002818D068460088E073E2
:10227C002200203221001031200001F046F900210B
:10228C000C986A4612896B18019EF65C2700103771
:10229C007F5C7740C754491C9142F4DB05B0F0BD1C
:1022AC007FB5089C099D0A9E029601950094FFF744
:1022BC0087FF7FBDF8B506000D001700434C2000CA
:1022CC00203000F0E5FC39002000203000F0F1FC5B
:1022DC00EAB231002000203000F0F2FC2100203165
:1022EC002000103000F04BFDE07C0006A17C0904BE
:1022FC000143607C00020843217C0143009801608B
:10230C00F1BDF4B505000E001F00314CF022002188
:10231C002000203000F093F8220020321021009889
:10232C0001F06CF8220020323900280001F0EDF8A1
:10233C00102E07DB2200203239001031280010301B
:10234C0001F0E3F8F1BDFEB584B004000E000C9F63
:10235C001F4DF02200212800203000F070F82A00D8
:10236C0020321021200001F049F81022002168468B
:10237C0000F065F86C460120207006223100601CCC
:10238C0000F043F8022205A9E01D00F03EF82A00F7
:10239C0020320699684601F0B8F8102200216846F0
:1023AC0000F04DF80220207006223100601C00F075
:1023BC002CF8022205A9E01D00F027F82A00203293
:1023CC003900684601F0A1F807B0F0BD000000101C
:1023DC003801001000B525490868254A5043254AA4
:1023EC00801808602449FDF7E5FE080000BD1F4970
:1023FC000860704738B504000D00FFF7EBFF291B90
:10240C00491CFDF7C3FE081932BD10B51B4B03E088
:10241C000C780470491C401C1400E2182404F7D1F9
:10242C0010BD10B58018401E144B03E00C780470DE
:10243C00491C401E1400E2182404F7D110BD0B00F7
:10244C00110000D1704780B51A0001F007F901BDE9
:10245C0072B60B480178491C017070470848017826
:10246C00491E0170090600D162B670473004001095
:10247C006D4EC64139300000FFFFFF7FFFFF0000AB
:10248C0039150010FEE700009D2102000AD002D48D
:10249C00491E9218FCD5C905100A1206524100D3E8
:1024AC00012A484170470000F2B586B00C9D00210E
:1024BC006C462170002601910C950025069C019F0D
:1024CC007F00E41905946C4660700492039368468F
:1024DC0004780291059800880121A940084223D074
:1024EC000498029949190C2251434718386800285E
:1024FC001AD0082039560A1109070917684640787E
:10250C0040B201F01EF900280ED00398797A090127
:10251C004018C068002801D0761C05E002984019CC
:10252C000C99E4B20855641C6D1C102DD2DB684666
:10253C004078049A039B0C9D69460C7002991031EB
:10254C00019C641CE4B201946029B5DB0D98067003
:10255C006846007807B0F0BDF8B5010029A0006806
:10256C00FA24E4006208934D0E78202E48D801A777
:10257C00BF5DBF447C7C8A8A8A7C8A8A7C32367CAA
:10258C004044484C50545A7C667C6A6E74787C7C0F
:10259C0080848888200001200856010001D1002089
:1025AC0000E0401E40B2F2BDAF4800E0B9A00122ED
:1025BC008956405CF2BDAD48F2BD1000F2BD200062
:1025CC00F2BDAB48F2BDAB48F2BD8020C001F2BDFC
:1025DC001100A948FFF70EFF0019F2BDA748F2BD84
:1025EC002800F2BD28000C30F2BD6020F2BDA448DA
:1025FC00F2BD0020F2BDA348F2BDA348F2BD3020CD
:10260C00F2BD00000000000038B5426869499C4BDF
:10261C0004780C256C431B195B7A1B01C918183103
:10262C00407801F0C7F831BDF8B50100614802D01F
:10263C00012917D0F1BD002200265023934C944D54
:10264C008F490C277743C91937006F433F190F6027
:10265C000B724A72761C602EF2DB03218181C281DF
:10266C0002614261062201000C3101F094F8F1BDC7
:10267C0080B5091F012909D9891E09D0491E0129D4
:10268C0008D9091F14D013390DD011E0052202E02E
:10269C00052201E0072200210023C05601F051F869
:1026AC00002806D002E00078302801DB012002BDB2
:1026BC00002002BD80B501003E480A79002A02D0F4
:1026CC00012A06D009E00622096801F064F801200D
:1026DC0002BD062209680C30F7E7002002BDF7B5F1
:1026EC000700002400250820385609217E567968F9
:1026FC0019607978012925D1010001D11C6021E0F4
:10270C007968402901D30125002660291AD3C9060E
:10271C00C90E012916D1694620220A704870B87A70
:10272C0088706846FFF718FF01060BD10025397831
:10273C00012907D11F49D34A0A804A808A80CA805E
:10274C000A814A81029A0199087016702800FEBD10
:10275C00000000007FB5052800DB05201C00607020
:10276C0015A00123E3569B00C358C74DAB4204D0C0
:10277C006D00AB4203D1022302E0012300E00023F1
:10278C0015000E00A370012162569100415800BF44
:10279C006EA0805C01F0DCF822000C320292220068
:1027AC0008320192012200922B00320001F0EEF867
:1027BC007FBD00000804001048E8010048E8010053
:1027CC0048E8010048E8010048E8010048E8010039
:1027DC00F0B58BB004000E00012020560A906768FB
:1027EC00C14D68688047002801D0002039E0E07CAA
:1027FC00002807D120783021FDF7C8FC244841433C
:10280C00BA480F183800E9688847A07C0990012065
:10281C000890002007900690059004900390A06803
:10282C0080B202900820019000200090012300BF8C
:10283C0046A00A99425C52B2A1780120AF69B84710
:10284C00607C012802D100BF12A000E013A00A99FD
:10285C00415C0D31C9B201206A6D90470A98307005
:10286C0001200BB0F0BD0000A8280000B80B000040
:10287C00881300007017000018FCFFFF20441E1E78
:10288C00340400103333B1419A9909406035081C67
:10289C00400D030033333373DEDE00003333337308
:1028AC00DEDE0000F7B58AB0040009A8401C00BFAA
:1028BC0026A10122A256895C0170AA4DAA48217852
:1028CC000C2251436918497A090140181A214756BC
:1028DC00022161568F4200DA0F00A268616838004D
:1028EC0001F0B4F809A908707F4E20780C214843F8
:1028FC002858F1688847CA4808900020079006902D
:10290C0005900120049000200390082002900120E3
:10291C0001906946252008560090002300222420AF
:10292C0009560120F569A847A189C9B20120726D29
:10293C009047A189C9B20120726A90470C9908602E
:10294C000B98077001200DB0F0BD000007070707BA
:10295C0007070000FFB591B007240020009006A8DF
:10296C000C2100F0A3FE0622BE4906A800F013FFBE
:10297C0001250C2706E04348088048808880C880E1
:10298C000881488177480390009811990979884209
:10299C0031DA01A911980068009A801800F069FFDB
:1029AC00002828D000990818C0B20090072401A86C
:1029BC00C27806A9062ADED0072A01D10624E1E74F
:1029CC0000231001059001A8808801269E4030420A
:1029DC0009D00398059EF6187E438059002802D131
:1029EC002000FE2404405B1C102BECDB01A880882B
:1029FC0052008852C6E704A8057011994979817074
:102A0C00FFF7AAFD09A90C70119A92794A7001ACD2
:102A1C0062788A70A278CA7022780A71119AD27977
:102A2C004A71119A127A8A71119A527ACA71602279
:102A3C000A7206AA0C9208740520487403980E902A
:102A4C00072008760020487601ABA21C611C09A85F
:102A5C0000F031FF0500072D04D1062206A981489C
:102A6C0000F099FE1A981499139B129A66781670B6
:102A7C00A2781A7022780A7000990170280015B09B
:102A8C00F0BD0000FFFF000090D003007CB50500F6
:102A9C0007246E6830001449096A8847002809D059
:102AAC00714830187149884204D27149FDF782FB94
:102ABC00002900D00624052200210020285600F011
:102ACC0040FE002802D12000FD24044003220021F6
:102ADC000120285600F035FE002802D12000FB24EE
:102AEC000440200076BD0000EC5E0000E0F8D11D33
:102AFC0038B50025048820003021FDF747FB00295C
:102B0C0014D0E00601D1012510E020001821FDF7BA
:102B1C003DFB002901D1022508E0200701D1032546
:102B2C0004E0600701D1042500E00525280032BD32
:102B3C0000B585B00B4900914E4901916946427828
:102B4C000A7202784A7282788A72C278CA724168B2
:102B5C00039180680490684600F08DFF05B000BDBD
:102B6C00000000003404001008040010FBB59CB0F9
:102B7C0007001600002469460C7204A8602100F0BE
:102B8C0095FD384D06220021280000F0E2FD0028BA
:102B9C0006D1394828806880A880E880288168811F
:102BAC0003967868FDF7E5FA396888421DD31E98BC
:102BBC00046001232A001832B97A787A00F0FFFDFC
:102BCC00060002A8019004A800902B0018332B4A91
:102BDC002900387AFFF768FC002811D16846007A82
:102BEC000028039818D0066014E06846007A401C50
:102BFC00694608727868FDF7BCFA39680E1AEDE779
:102C0C001D9D411E0020FFF7F5FB04A9085C2870F0
:102C1C0003980460012001E0046000201FB0F0BDA7
:102C2C00B80B000038B50400144821780C2251432D
:102C3C0041180C484A7A120180181A228256022036
:102C4C0023561000984200DA18000D68A2686168DB
:102C5C0000F0FCFE0100A2892800094BDB6B9847B1
:102C6C0031BD00000804001020072EE2C16E8F0059
:102C7C00400D030020040010FFFF0000340400107E
:102C8C00EC5E0000881A010600D50020C0B2704727
:102C9C0010B5040010220021F130FFF7D0FB00200A
:102CAC008A2149006050F02200212000FFF7C7FB69
:102CBC0010BD80B502000800102100F09FFB01BD83
:102CCC00F8B584B006000D0014008A20400030587E
:102CDC00002846D010210F1AA74200D92700BAB2FB
:102CEC002900FF239B1CF3181818FFF78EFB8A2072
:102CFC0040003058C0198A214900705010283CD32C
:102D0C00BC423AD000203118F1310A780B7C534088
:102D1C000B70401C1028F6DB3000F1303200010043
:102D2C0000F0F3FBED19E41B1BE000203100F13146
:102D3C000A5C2B5C53400B54401C1028F6DB37000C
:102D4C00F13710226846FFF760FB3200694668468F
:102D5C0000F0DBFB102269463800FFF756FB1035FC
:102D6C00103C102CE1D8A2B22900FF20801C301896
:102D7C00FFF74BFB8A204000345005B0F0BDF3B593
:102D8C0089B0102200216846FFF759FB0A9A694660
:102D9C00684600F0BAFB872100206A4613781B06B0
:102DAC0004460ED513191D786D00561C365DF609B8
:102DBC002E431E70641C0F2CF4DBD37B5B004B404A
:102DCC000CE013191D786D00561C365DF6092E4368
:102DDC001E70641C0F2CF4DBD37B5B00D3730A9B3B
:102DEC00FF24A41C1B190A9C8A256D006459102C05
:102DFC0024D100215C5C555C65405D54491C0F2955
:102E0C00F8DD0A9C2118F1310A780B7C53400B70C9
:102E1C00401C0F28F6DD099D10222100F13104A879
:102E2C00FFF7F3FA2200290004A800F06EFB102231
:102E3C0000216846FFF703FB0BB0F0BD14782406A5
:102E4C000FD50025541926787600571C7F5DFF0995
:102E5C00374327706D1C0F2DF4DBD47B640061406D
:102E6C000DE0002411190D786D00561C365DF60925
:102E7C002E430E70641C0F2CF4DBD17B4900D173F4
:102E8C000A998A2464000C1980212568595500E0A0
:102E9C0058542168491C21601029F9D300215C5C2D
:102EAC00555C65405D54491C0F29F8DDA9E7FEE728
:102EBC000A7802704A7842708A788270CA78C27036
:102ECC000A7902714A7942718A798271CA79C2711E
:102EDC000A7A02724A7A42728A7A8272CA7AC27206
:102EEC000A7B02734A7B42738A7B8273C97BC173F0
:102EFC00704702780B785340037042784B785340FC
:102F0C00437082788B7853408370C278CB7853406F
:102F1C00C37002790B795340037142794B7953405A
:102F2C00437182798B7953408371C279CB79534049
:102F3C00C371027A0B7A53400372427A4B7A534034
:102F4C004372827A8B7A53408372C27ACB7A534023
:102F5C00C372027B0B7B53400373427B4B7B53400E
:102F6C004373827B8B7B53408373C27BC97B514001
:102F7C00C173704710B50B7814785C4004704B78B3
:102F8C0054785C4044708B7894785C408470CB7837
:102F9C00D4785C40C4700B7914795C4004714B7923
:102FAC0054795C4044718B7994795C408471CB7911
:102FBC00D4795C40C4710B7A147A5C4004724B7AFD
:102FCC00547A5C4044728B7A947A5C408472CB7AEB
:102FDC00D47A5C40C4720B7B147B5C4004734B7BD7
:102FEC00547B5C4044738B7B947B5C408473C97BC7
:102FFC00D27B4A40C27310BD7F4902788A5C027052
:10300C0002798A5C0271027A8A5C0272027B8A5CA7
:10301C00027342784379CB5C4370437ACB5C437147
:10302C00437BCB5C43728A5C42738278837ACB5C41
:10303C0083708A5C82728279837BCB5C83718A5CBD
:10304C008273C27BC37ACB5CC373C379CB5CC37210
:10305C00C378CB5CC371895CC17070477FB50400C9
:10306C0021006846FFF724FF634800BF63A100BF3F
:10307C00A2A26B461D78565D5D794D5D75409E7ABA
:10308C00865D6E40DD7B455D754025701D78465D27
:10309C005D79555D75409E7A8E5D6E40DD7B455D3C
:1030AC00754065701D78465D5D79455D75409E7A0D
:1030BC00965D6E40DD7B4D5D7540A5701D784E5D57
:1030CC005D79455D75409E7A865D6E40DD7B555D14
:1030DC007540E5701D79565D5D7A4D5D75409E7B42
:1030EC00865D6E40DD78455D754025711D79465DC8
:1030FC005D7A555D75409E7B8E5D6E40DD78455DDD
:10310C00754065711D79465D5D7A455D75409E7BA8
:10311C00965D6E40DD784D5D7540A5711D794E5DF7
:10312C005D7A455D75409E7B865D6E40DD78555DB4
:10313C007540E5711D7A565D5D7B4D5D75409E78E1
:10314C00865D6E40DD79455D754025721D7A465D64
:10315C005D7B555D75409E788E5D6E40DD79455D7D
:10316C00754065721D7A465D5D7B455D75409E7848
:10317C00965D6E40DD794D5D7540A5721D7A4E5D94
:10318C005D7B455D75409E78865D6E40DD79555D55
:10319C007540E5721D7B565D5D784D5D75409E7981
:1031AC00865D6E40DD7A455D754025731D7B465D01
:1031BC005D78555D75409E798E5D6E40DD7A455D1E
:1031CC00754065731D7B465D5D78455D75409E79E8
:1031DC00965D6E40DD7A4D5D7540A5731D7B495D36
:1031EC005D78455D4D409979405C6840D97A515C79
:1031FC004140E1737FBD000068350000A584998DC6
:10320C000DBDB1545003A97D1962E69A459D4087C6
:10321C0015EBC90BEC67FDEABFF7965BC21CAE6AF7
:10322C005A41024F5CF434089373533F0C52655E61
:10323C0028A10FB509369B3D2669CD9F1B9E742E88
:10324C002DB2EEFBF64D61CE7B3E7197F568002CEE
:10325C00601FC8EDBE46D94BDED4E84A6B2AE51692
:10326C00C5D75594CF100681F044BAE3F3FEC08A5B
:10327C00ADBC4804DFC17563301A0E6D4C14352F8C
:10328C00E1A2CC3957F28247ACE72B95A098D17FBD
:10329C00667EAB83CA29D33C79E21D763B564E1E23
:1032AC00DB0A6CE45D6EEFA6A8A4378B324359B7EA
:1032BC008C64D2E0B4FA0725AF8EE918D5886F720A
:1032CC0024F1C751237C9C21DDDC86859042C4AA65
:1032DC00D8050112A35FF9D0915827B93813B3332D
:1032EC00BB7089A7B622922049FF787A8FF8801795
:1032FC00DA31C6B8C3B07711CBFCD63AC6F8EEF6C5
:10330C00FFD6DE916002CE56E7B54DEC8F1F89FAE1
:10331C00EFB28EFB41B35F452353E49B75E13D4C0B
:10332C006C7EF5836851D1F9E2AB622A0895469D13
:10333C0030370A2F0E241BDFCD4E7FEA121D583476
:10334C0036DCB45BA476B77D52DD5E13A6B900C142
:10335C0040E379B6D48D67729498B085BBC54FEDB8
:10336C00869A66118AE904FEA078254BA25D800539
:10337C003F2170F16377AF4220E5FDBF811826C372
:10338C00BE35882E9355FC7AC8BA32E6C0199EA376
:10339C0044543B0B8CC76B28A7BC16ADDB64741470
:1033AC00920C48B89FBD43C43931D3F2D58B6EDA39
:1033BC0001B19C49D8ACF3CFCAF447106FF04A5C0A
:1033CC0038577397CBA1E83E96610D0FE07C71CC1A
:1033DC009006F71CC26AAE6917993A27D9EB2B22D3
:1033EC00D2A907332D3C15C987AA50A50359091A30
:1033FC0065D784D082295A1E7BA86D2CFFB513008B
:10340C00F0330C002500102D03D0182D01D0202DE9
:10341C0001D1160007E000201870FF2073E0077838
:10342C003770401C761C2F007D1E3F06F7D108001C
:10343C001C308006000E05096D1E1D7001250291C1
:10344C006B46D97001920390039884425ADA019822
:10345C000619301F0778694642788A7082784A705C
:10346C00C078087020000299FCF790FE3BA0002960
:10347C0013D0029A192A28DB102926D1C75D694678
:10348C006A469278825C8A706A465278825C4A708C
:10349C006A461278805C087017E039006A469278A8
:1034AC00825C2F0057406A466B465B78C35C937016
:1034BC006B461B78C35C5370405C107068002D0623
:1034CC00ED0FFF211C314D4345406946C978601A08
:1034DC00C0B2019909180A7857403770019A521CEA
:1034EC00105C6A4692784240727088786A465278CC
:1034FC004240B270C878694609784140F170241D89
:10350C00E4B2A1E7002004B0F0BDF8B584B00E0021
:10351C001400F021615C00291DD001006846FFF702
:10352C0029FD012506E0FFF799FD39006846FFF7F4
:10353C00E0FC6D1CEDB228012718F021615C8D4276
:10354C006846F0D3FFF758FD3A0069463000FFF7A4
:10355C0011FD002000E0FF2005B0F0BD637C777BFF
:10356C00F26B6FC53001672BFED7AB76CA82C97D73
:10357C00FA5947F0ADD4A2AF9CA472C0B7FD932604
:10358C00363FF7CC34A5E5F171D8311504C723C308
:10359C001896059A071280E2EB27B27509832C1A4C
:1035AC001B6E5AA0523BD6B329E32F8453D100EDA6
:1035BC0020FCB15B6ACBBE394A4C58CFD0EFAAFB8A
:1035CC00434D338545F9027F503C9FA851A3408F52
:1035DC00929D38F5BCB6DA2110FFF3D2CD0C13EC6A
:1035EC005F974417C4A77E3D645D197360814FDCFF
:1035FC00222A908846EEB814DE5E0BDBE0323A0AE3
:10360C004906245CC2D3AC629195E479E7C8376D66
:10361C008DD54EA96C56F4EA657AAE08BA78252E8B
:10362C001CA6B4C6E8DD741F4BBD8B8A703EB56614
:10363C004803F60E613557B986C11D9EE1F8981105
:10364C0069D98E949B1E87E9CE5528DF8CA1890DF4
:10365C00BFE6426841992D0FB054BB161206130AEF
:10366C001A43130C1A4300BF094205D0830705D037
:10367C000270401C491EF9D170470000130030B491
:10368C0014001500103902D310393CC0FCD2490784
:10369C0000D30CC000D504C0890002D30280801C6A
:1036AC00002900D5027030BC704700000022E5E70D
:1036BC00B349884201D264207047B249884202D291
:1036CC00FA2080007047B0487047B8B584B0040049
:1036DC009A4233DB6B462420185690422EDB0A9814
:1036EC00039100230093029408E0641C102C0EDB61
:1036FC001033DBB20099491CC9B2009102998B427C
:10370C001CDA00240399009D6D004919019101995F
:10371C0009880125A5402942E7D019190C256943D0
:10372C00411808254D570F210F272F40BA42DCDBDB
:10373C002D1129409142D8DB012000E0002005B07A
:10374C00B0BD884203DB824201DB012070470020C0
:10375C007047F1B581B00020019C002C1AD06C464A
:10376C00227011E0019AC9B24C00125B00240025B2
:10377C000126AE4037001740B74200D1641C6D1CC7
:10378C00102DF5DB0019491C6C462478CAB2A242F4
:10379C00E8D3C0B2F6BD002800D1704730B500297F
:1037AC0007D0002303E05C000D5B05535B1C9342C8
:1037BC00F9DB30BD01288A6000D04A607047F8B54B
:1037CC0084B00024E44300270191029369460870F9
:1037DC0003921CE00024EC6018E00128FAD1A868E0
:1037EC00FCF7C7FCE968884201D30020E860E86870
:1037FC0000280BD0A868FCF7BCFCE968081AA042AA
:10380C0004D2A868FCF7B5FCE9680C1A7F1C029876
:10381C0087422BDA0398390145186846007800284E
:10382C000198DAD1012804D1A868FCF7A2FC0600A3
:10383C0000E000266868FCF79CFC864201D26868B0
:10384C0003E00198012803D1A868FCF792FC00E082
:10385C000020E968884201D30021E960E968002969
:10386C00D4D0081AA042D1D20400CFE7200005B072
:10387C00F0BD020000201378032B00D0704710B568
:10388C00507848700F204B7803408B700123CB5637
:10389C001B1103404B7093788B80D47824021C430B
:1038AC008C8012790A705206520FCA700A78104036
:1038BC000870052010BDFFB583B0040025780220E8
:1038CC0020566946087203216656277961780029CB
:1038DC000BD10F2801D10F2E02D00025072027561F
:1038EC006846617901720620265628001DD0606951
:1038FC000190112020560090102023566946082074
:10390C000A56E168207AFFF7E0FE002802D1280071
:10391C00FD25054019202056864217DB182020561D
:10392C00B04202DA2800FB250540072D03D13806EA
:10393C0001D107202756069A059904986B461B7AE5
:10394C0003700E701770280007B0F0BD0600ECE78E
:10395C0070B502000E000120904000F0C9F8040080
:10396C000D00300000F0B4F802000B00200029001C
:10397C0000F0C8F80022324B00F025F970BD0000B1
:10398C0080EE3600803F5C0210270000FBB582B051
:10399C0014001D006000083800F0AAF802AA0CCA36
:1039AC0000F011F906000F00680000F091F83200E9
:1039BC003B0000F0CAF902AA0CCA00F0A3F80600FA
:1039CC000F0000F09DFA00F0D9FA844206D23000C4
:1039DC00390000F095FA00F0D1FA00E020000C9EBE
:1039EC000B9D0A9C286002A803C80022154B00F00E
:1039FC00EAF800900191286800F06AF802000B00C8
:103A0C0002A803C800F0DFF800220F4B00F0DBF82F
:103A1C0002000B000098019900F0FAF90090019156
:103A2C00200000F055F802000B000098019900F0FE
:103A3C00EFF900F065FA00F08FFA306005B0F0BDD8
:103A4C0000408F40000010400000E03F38B50C00F3
:103A5C0015004000FEF718FD0100200000F0DDFA13
:103A6C00290000F0DAFA00F031FB00F049FB00F01D
:103A7C0073FA40B232BDF8B504002068E17A0C222A
:103A8C0051434018407A07016068C0190588002628
:103A9C00C660607A002811D1E068FFF709FE2A00A1
:103AAC000500954200D21500A07A002809D1207A91
:103ABC00002806D16068C019C660F1BDA07A012843
:103ACC00F8D120694543281A6168C919C860F1BD4D
:103ADC00010042221201D21E004207D002D4521E13
:103AEC000018FCD5C10A4005120589187047000062
:103AFC000100EED54042F446FFF7EBFF0122D2075E
:103B0C0011436047F0B40E005E400125ED072E40D6
:103B1C00B446AE0ADF184C18F4423BD2F74241D2FD
:103B2C00640D43D07F0D38D0E41BC902DB0229435E
:103B3C002B43CF0ADB0A0600B61A9F4104D2641E3F
:103B4C00B6197F41B6185F416812800D2418001811
:103B5C00844222DAE80C0021B6197F41B61A9F4143
:103B6C0002D2B6185F413F1C40414941F4D3241C9A
:103B7C0021DD2405B6197F41B61A9F4105D3374381
:103B8C00C60737430026012F704161416646314319
:103B9C00F0BC7047FCD1F74205D20020C143490567
:103BAC004908F3E704D00020C143F1E77F0DFAD0B8
:103BBC0000206146ECE72442FAD1401C61410F031E
:103BCC00F6D30020E2E7F0B50E005E400125ED07CC
:103BDC002E40B446AE0ADF184C18F44208D2F74215
:103BEC000ED2640D01D07F0D12D100206146F0BDC4
:103BFC0005D1F74201D87F0D05D10020C143F0BD9E
:103C0C00FBD1640DF9D00020C143490549088FE070
:103C1C00E419C902DB0229432B43DB0A460DC0021F
:103C2C0031438E4630B487B295B27D432E0CADB283
:103C3C00140C7C43A419260C240425439CB27C430D
:103C4C00A419190C7943270CC919A4B20F043C43CD
:103C5C00090C000C97B247432E0CBE193543ADB27C
:103C6C00170C4743360CBF19A6B2BF193E04354397
:103C7C00240C3E0C36199FB24743BF19BCB23E0C04
:103C8C0089191F0C47437F183E043443390C704686
:103C9C0080B297B247432E0CBE193543ADB2170C08
:103CAC004743360CBF19A6B2BF193E043543240C4A
:103CBC003E0C36199FB24743BF19BCB23E0C891952
:103CCC001F0C47437F183E043443390C77463F0C96
:103CDC0090B278432E0C80190604ADB22E43050C1D
:103CEC00A0B22D18120C7A435019020C80B2240C7D
:103CFC00A4189AB27A43121914042043120C89188E
:103D0C001B0C7B43C91830BCEF0A394203D1B619DE
:103D1C0040414941641E6F12BF0DE41B0BDBFF19C0
:103D2C00BC4211DA240500274208AE4178416141BA
:103D3C0066463143F0BD641C05D1401C6141CF0285
:103D4C0001D34908F4E750E75DE7F0B40125ED072E
:103D5C000F005F404FD48B4200D1824205D984467C
:103D6C00100062468C4619006346DF184C18640D2F
:103D7C007F0D3AD0661C760537D0E61B352E34DC29
:103D8C00DB022B43DB0A0C0DC9022943C912202E7E
:103D9C000DDB1700203E06D01F00F741F3405F40BB
:103DAC000026012A7741C01871410DD217E0170087
:103DBC00F741F2405740F3415A40B340F3405A4068
:103DCC000026801859410AD3A21C52050FD0C207F5
:103DDC00012F724117004008CB0718434908641C97
:103DEC0024054208AF4170416141F0BC7047641C2E
:103DFC0021050020F9E76B4010E06B40ABE7F74280
:103E0C00F3D1E943F1E72442EFD100200021ECE7A4
:103E1C00F0B40125ED070F005F40EED40C00871ABB
:103E2C009C4105D2C01BA141D219634169406B4032
:103E3C00AE0ADF184C18F442E1D2640D7F0DE2D0CB
:103E4C00E61B362ED1DCDB022B43DB0AA4460C0D21
:103E5C00C9022943C90A012E28DC04D1D60752080D
:103E6C00DF073A435B08EF0A76429041994114D040
:103E7C0039423BD1B61940414941761C394204D1F3
:103E8C00761C001849413942FAD0B9436746B7420B
:103E9C0008D9A41B24052143A7E70042EAD13642E6
:103EAC00E8D1A2E7E40AE10700209EE7202E0BDD13
:103EBC00203E1F00F340F7415F40012A002257418A
:103ECC007E42984191410BE01700F741F240574078
:103EDC00F3415A40B340F3405A407E4290419941DD
:103EEC000A0303D2641EB619404149410027641EDF
:103EFC0024054208AE4178416141F0BC7047FEE7B1
:103F0C004A00520DFF239B009B1CD21A19DD35234E
:103F1C009B1A1EDD1300153B09DA9B41DB0AD340CB
:103F2C00094201D4401E5941002099437047002298
:103F3C00D243DA40094202D40023801859419043FD
:103F4C0070470B0D5B0500D0024901D30121C90755
:103F5C00002070470000F03FF4464A1805D200F0EC
:103F6C000FF801D580174008604700F009F80121CF
:103F7C00C907884200D90800404260474A1812D24B
:103F8C00400DC90208430121C9070843520D4021C5
:103F9C000901521A521C06D452421F3201D4D0408D
:103FAC007047C0177047002070470122D2070300EA
:103FBC004B402ED4431A01D2C01AC91830B44B1836
:103FCC000418240E1B0E22D0FF2C20D0E31A182B21
:103FDC001DDC09021143C40D641E000210439446FB
:103FEC001925ED1A0A00AA40D940451801D36D08CD
:103FFC00A41CE405D209280A2D062A436546AA41C9
:10400C00604103181B0EFF2B01D3C00DC00530BC43
:10401C007047514006E05140CCE70122D207030023
:10402C004B40F8D4431A03D2C01AC918504051401F
:10403C0030B44B18090211430418240E1B0E40D047
:10404C00FF2C3AD025009D410BD31ED8C50D400244
:10405C00401A0BD3ED050100400AC9059141684196
:10406C00D5E7C50D40024918401AD0D001214008AF
:10407C00491C0018FCD58C4204D36D1A000AED05BE
:10408C004019C4E7E8051040C1E7182DBFDCAC1C93
:10409C000D00E140E5414D40012D4941C40D0002A8
:1040AC001043451A01D46D199543641EE405280A82
:1040BC002D069541604130BC7047FF2BA7D1D843EA
:1040CC00A5E72442A3D10020A1E7FEE701221206B6
:1040DC000118CA420AD28A420DD83822120609099E
:1040EC008918C20FD20711434007704700D0490806
:1040FC000909014301E0C10FC90700207047000006
:10410C004A00520DFF239B009B1CD21A19DD35234C
:10411C009B1A1DDD1300153B09DA9B41DB0AD340CA
:10412C00094201D5401E5941002099437047002295
:10413C00D243DA40094202D50023801859419043FA
:10414C0070470B0D5B0500D0024900D20021002006
:10415C00704700000000F0BF01218140B3480268A5
:10416C00B34B0B439A4302600268B24B13400B43B0
:10417C0003607047B049012282400868C0B2104306
:10418C0008607047012393408900401890218901F1
:10419C004350704780B5002B07D001239340890012
:1041AC0040188E218901435001BDFFF7EBFF01BD83
:1041BC000268FF238233134003600268FF23BE337F
:1041CC0013400B430360F021090301627047F8B5FB
:1041DC009A4F9B4E30683840802101433160994C96
:1041EC00132020600020FFF7C5FFA0252D06132209
:1041FC0000212800FFF7C6FF122060600120FFF7A6
:10420C00B9FF122200212800FFF7BCFF1120A0608B
:10421C000220FFF7AFFF112200212800FFF7B2FFA9
:10422C001520E0600320FFF7A5FF152200212800D0
:10423C00FFF7A8FF142020610420FFF79BFF142236
:10424C0000212800FFF79EFF0123172200212800E0
:10425C00FFF7A0FF7C4C02221921200000F0C6F9C8
:10426C0001230E2200212800FFF794FF02221221C5
:10427C00200000F0BBF90123192200212800FFF7D0
:10428C0089FF03221721200000F0B0F90023072238
:10429C0000212800FFF77EFF00220F21200000F0F4
:1042AC00A5F90123062200212800FFF773FF032242
:1042BC001021200000F09AF90E21612000F0A0F9E5
:1042CC001921522000F09CF90721602000F098F988
:1042DC000621532000F094F930685C4901403160AC
:1042EC008024640130683840204330600120FFF79F
:1042FC0033FF574D04212800FFF75AFF0021684671
:10430C0001606946280000F0A1F92868FF21BE3140
:10431C000140012008432860306807403C4334606A
:10432C00F1BD4C480168FE220A4002600121816007
:10433C004949802252040A600268FD23134003603D
:10434C000222826012060A600268FB23134003609B
:10435C000422826012060A600268F723134003608D
:10436C000822826012060A600268EF231340036081
:10437C001022826012060A600268DF231340036079
:10438C002022826010060860704770B50500092075
:10439C0002F02EFE4D2002F02BFE040080202F494F
:1043AC00C9682F4A914201D2802100E0002170227D
:1043BC000A430F2102421FD00720122D02DB2600D8
:1043CC00072402E0F8262640042434432040072822
:1043DC0008D1052D01DA052502E0152D00DB142589
:1043EC00681F07E0022D01DA022502E0122D00DB26
:1043FC001125A81E01400AE00020C043854201DAC5
:10440C00054602E00F2D00DB0E256D1C29401143E3
:10441C00092002F0E7FD21004D2002F0E3FD70BD04
:10442C0010490A78824200D008707047048004401A
:10443C000020FEFFFFDF010004820440FFFFEF2598
:10444C008080044078810440004004407FFFEF25C9
:10445C0000C00540004000A000E100E0C00C0010CE
:10446C0040DD4A1F381500100120704770B404005D
:10447C000D000B0002185B4104D1002A02D122006E
:10448C002B0018E0484E5A0DB61A352E04DB0022CC
:10449C0080231B060B400EE0202E03DD203EF14056
:1044AC00B14000E001D1002003E0012E01DBF0401F
:1044BC00B04002000B00002D06DA00208021090616
:1044CC00001BA94104000D00002B06DA00208021FE
:1044DC000906801A994102000B009D4203D19442B7
:1044EC0001D1002000E0012070BC70473EB50400F3
:1044FC000D0068004015401C52D020000B00021823
:10450C005B4101D1002A18D0284C5A0DA21A352A29
:10451C0004DB002480252D060D400EE0202A03DD4F
:10452C00203AD140914000E001D1002003E0002A64
:10453C0001DDD040904004000D0020002900FFF761
:10454C0095FF00282CD0200029000B0002185B419D
:10455C0001D1002A18D0144C5A0DA21A352A04DBAA
:10456C00002480252D060D400EE0202A03DD203A84
:10457C00D140914000E001D1002003E0002A01DD90
:10458C00D040904004000D00E80F02D000200849F4
:10459C0000E0084922002B00FFF7D7FB04000D00B8
:1045AC002000290003B030BD3304000032040000A9
:1045BC000000F0BF0000F03F30B4012464054D0052
:1045CC00EC420BD85D00EC4208D80C001C43640094
:1045DC000443144304D28B4200D1824230BC704756
:1045EC00FCD09942FAD19042F8E7000089004018BB
:1045FC00016818239943D2000A43026070470000F7
:10460C0010B5C30078221A4000090E4B8000181810
:10461C000368FF249440A34391401943016010BDEB
:10462C0081B00122824008480029016804D0FE2391
:10463C001B061343994302E0C901C90911430160E8
:10464C0001B0704700C00040C0C1004010B50A78EE
:10465C001207120F4B781B01F0241C4014438A786C
:10466C001302F02212011A402243C978002906D005
:10467C001300491E0903F02212020A401A43426039
:10468C0010BD000010B50022A649A74B022802D08D
:10469C00E0280DD010BDDB7D0B704A704A804A605B
:1046AC000A818872CA728A81FF208873C87310BD10
:1046BC0001209C7B012C09D19A7303225A75052287
:1046CC000A70DA7B4A701A7C8A7004E05A78012AE4
:1046DC0003D0042A07D1587010BD02205875988950
:1046EC00020A0A70487010BD7FB58F4C2000403014
:1046FC00FBF72BFD01266D462E706846FDF768F919
:10470C00002807D12879012803D10220607626766B
:10471C007FBD66767FBD80B58448FBF716FD012111
:10472C00002000F031FA01BD80B58148FBF70DFD8A
:10473C000121012000F028FA01BD80B57D48FBF76E
:10474C0004FD01BD10B5784C4078002806D100213D
:10475C0000F01AFA20005430FBF7B3FC012020764D
:10476C0010BD00004178002900D07047F0B58BB027
:10477C006D4C2278012A02D1A189491CA181417B6F
:10478C00012905D1C178491E012902D9DF3909D087
:10479C00A0E0017B0129FBD180680078C107C90F1B
:1047AC00E17597E0002502210126002A18D1027B31
:1047BC00042AF6D180680278012AF2D14278012AC3
:1047CC00EFD18278012AECD1C0780128E9D1A57506
:1047DC00E02020756175E56025742670667012E026
:1047EC0082681278627010226378072B72D801A746
:1047FC00FF5CBF44061C2024284C5890A5752175DD
:10480C006275A5812570684601700671FDF766F921
:10481C0060E061755EE0A6755BE0A57559E0017B13
:10482C006175B84A04231370F223F22900DC0B00E3
:10483C009E424FDA83689B5D5B1C9355761CF6B2E7
:10484C00F2E76846067303A8FDF782FA42E0A57505
:10485C0021756275A581257003A801700671FDF79D
:10486C003DF906A80570210020310791210028315F
:10487C00089121003031099103210174FDF768FA88
:10488C000420607626E0027B032A08D103AA11706B
:10489C0080684178090280780143918016E0072AEC
:1048AC0017D103A903220A70806842781202837818
:1048BC001A438A80C278120403791B02134342798B
:1048CC001A4364235A4305928079087303A8FDF7B1
:1048DC003FFA66700021012000F056F92000683084
:1048EC00FBF7EFFB0BB0F0BD874901220378002BDF
:1048FC0002D0012B08D012E04078002802D102200F
:10490C0048760CE04A760AE04378002B07D10B7806
:10491C00012B04D18A73037ACB73407A08740A761C
:10492C00704700009C11001040030010940300100D
:10493C00A8030010BC03001000207047F0B58DB028
:10494C00FBF754FC71480168714A0A40012111437C
:10495C00016070480068FA218900FBF72BFC401EAF
:10496C008021490488420DD26B4948606B4802682B
:10497C001202120AC0231B06134303600020886036
:10498C0007200860FBF732FC00F02EFA00F056FA14
:10499C005D4F002078760A236EA26149614800F0D1
:1049AC0011FC3EE060480590604806906048079016
:1049BC0060480190022201A905A8FCF7A1FE5E49FE
:1049CC0038004030FBF776FB5C4938005430FBF77D
:1049DC0071FB192138005430FBF7C0FB58493800E3
:1049EC006830FBF767FB192138006830FBF7B6FB22
:1049FC00544938007C30FBF75DFB192138007C30C2
:104A0C00FBF7ACFB02AD0220287001262E7102A828
:104A1C00FDF764F8072028702C7102A8FDF75EF8EA
:104A2C007E76494901236A463E4800F0E3FB0128A3
:104A3C0003DB68460078FBF7E8FB387E0425032689
:104A4C000024797E0029ADD0022917D003D3042984
:104A5C00E7D04AD354E008A90C703A0020320992EE
:104A6C003A0028320A923A0030320B920E74012826
:104A7C0002D108A8FDF76CF97D76D2E7012828D180
:104A8C00387DFFF7FFFD08AD00A9891C787DFCF788
:104A9C0037FF002803D02C700A94AC8111E0787D8C
:104AAC00397D184ABB7D002B04D12C7029710A92D8
:104ABC00A88106E001232B7029710A92A881082095
:104ACC00E873AC7308A8FDF7D2F9002800D00120D8
:104ADC0038761E4C3878012805D0FA2189001C48FC
:104AEC00FDF788FC0419FC619AE77D76F9693800BA
:104AFC004030FBF733FB38004030FBF7E2FA90E72D
:104B0C007C768EE79C1100104003001080800440DE
:104B1C00FFFFEF253415001010E000E020ED00E061
:104B2C0090120010004006405147000071470000F1
:104B3C00F548000045490000F546000023470000F9
:104B4C003547000047470000A412001088130000EE
:104B5C0018FCFFFF706F776572206F6E0D0A0000F6
:104B6C0020490A68012383401F4805E01F490A6851
:104B7C0001238340FE200006184382430A607047DD
:104B8C004901401883547047022800DB704780B5F8
:104B9C004B1E9B41DB0FA1490A5C0021A0200006A3
:104BAC00FFF7EEFF01BD000080B50E4801689C4A7E
:104BBC000A40802111430160012141610B480268C8
:104BCC00D201D2091143016004210020FFF718FD26
:104BDC0000210120FFF714FD0720FFF7C1FF01BDE5
:104BEC000000000080800440000010DAC0C10040CA
:104BFC0038B58C4C002211212000FFF7F7FC002265
:104C0C000B212000FFF7F2FC022204212000FFF709
:104C1C00EDFC002210212000FFF7E8FC00220F2100
:104C2C002000FFF7E3FC002208212000FFF7DEFC48
:104C3C00002207212000FFF7D9FC002202212000CE
:104C4C00FFF7D4FC002201212000FFF7CFFC00224B
:104C5C0012212000FFF7CAFC00220A212000FFF7D6
:104C6C00C5FC002209212000FFF7C0FC0222002114
:104C7C002000FFF7BBFC02221E212000FFF7B6FC30
:104C8C0002221D212000FFF7B1FC02221C21200072
:104C9C00FFF7ACFC02221B212000FFF7A7FC02222D
:104CAC001A212000FFF7A2FC002219212000FFF797
:104CBC009DFC002218212000FFF798FC03221721ED
:104CCC002000FFF793FC002216212000FFF78EFC3A
:104CDC00002215212000FFF789FC0022142120005E
:104CEC00FFF784FC504801684D4A0A40802111436B
:104CFC0001604E4C4E4D2868204001210143296033
:104D0C0028682040022101432960286820400421A2
:104D1C0001432960286820400821014329600420B0
:104D2C00FFF724FF0520FFF721FF28682040690DBD
:104D3C000143296028682040290D01432960286817
:104D4C002040E90C0143296028682040A90C01434C
:104D5C00296028682040690C01432960286820409C
:104D6C00290C014329602868204080210902014355
:104D7C002960286820408021490201432960286865
:104D8C00204080218902014329602868204080212D
:104D9C00C90201432960286820408021090301438E
:104DAC002960286820408021490301432960286834
:104DBC0020408021890301432960286820408021FC
:104DCC00C90301432960286820408021090401435C
:104DDC002960286804408020400420432860072074
:104DEC00FFF7BEFE31BD0000F8B5A0252D0628004A
:104DFC0000F01EFAFFF7FCFE00240E4F0EA6325DEB
:104E0C00012090403860012300212800FFF7B8FEF4
:104E1C00641C012CF3DDFFF7C7FEF1BD444E00000E
:104E2C00FFFFEF250040044080800440FFFFFF019E
:104E3C00C0C10040802300A00B0B000010B59A4CA1
:104E4C00982149002000FEF731FC00F0D1FA00F067
:104E5C00DDFA00F0E7FA9622520021009448FBF7A5
:104E6C00CDF910BD00000000F8B58AB08E4D287841
:104E7C0000F08DFB8E490A89D2B22C00002A15D085
:104E8C006E7833008BA176280DD1022A10D13F2BDE
:104E9C000ED1280000F082FB2C1800BF8AA1200044
:104EAC0000F07CFBAEE07A281ED1012A00D1EBE0A9
:104EBC008EA1280000F072FB2C180D2020700A2007
:104ECC006070A01C431B962040002B529BB22A0002
:104EDC0079497A4800F076F99622520029007448F4
:104EEC00FBF78CF90BB0F0BD262806D1022ADFD1D6
:104EFC00300000F04CFB66285AE06C4F2C267328CF
:104F0C0058D1012AD4DD3F2B23D1022AD0D16C48B1
:104F1C0000788007CCD5280000F040FB2C18B9692C
:104F2C00200000F000FB20180670441CF9692000DA
:104F3C0000F0F9FA20180670441C796C200000F07F
:104F4C00F2FA20180670441C396C200000F0EBFAC1
:104F5C0058E03D2BACD1552AAAD10822A91C684691
:104F6C0000F0F0FA0028A3D0A87A2C28A0D16E4625
:104F7C00082229000B31301D00F0E4FA002897D0EC
:104F8C00E87C2C2894D120222900143130000830E0
:104F9C0000F096FA10288BD13420285C2C2887D16D
:104FAC002022290035313000183000F089FA102801
:104FBC00F5D169E06A2859D10120012A6CDD3F2B1B
:104FCC0022D1022AEBD13E4A12681040D7D02800D9
:104FDC0000F0E4FA2C1808223249684600F0C9FAAD
:104FEC0008226946200000F087FA20180670441C3D
:104FFC0008223900684600F0BCFA082269462000F5
:10500C0000F07AFA24183FE03D2BC8D1442AC6D1CF
:10501C001022A91C684600F053FA0828BFD1A87CBE
:10502C002C28BCD16E4610222900133130000830D8
:10503C0000F046FA082834D12320285C2C2830D1E3
:10504C002022290024313000103000F039FA1028C9
:10505C0027D108226946684600F08BFA08223100F5
:10506C0008313000083000F084FA0DE0702818D0B8
:10507C00612816D1012A14DD521ED2B2691C684671
:10508C0000F060FA00280CD0AC4204D10DA1200035
:10509C0000F084FA241810E703D109490968084084
:1050AC00F2D105E7088000006C0E001010800000A3
:1050BC00181500104F4B2C009012001000400640A9
:1050CC00048000004F4B000056455253494F4E2070
:1050DC00312E3220284E6F76203239203230313743
:1050EC002032303A33313A34342900004552524F91
:1050FC00520000000121814015480268154B0B43FA
:10510C009A4302600268144B13400B4303607047D0
:10511C0070B51249124A904201D10E2304E0884224
:10512C0001D10F2300E010230E4C01259D40236874
:10513C000D4E1E402E432660904201D1032004E008
:10514C00884201D1042000E00520FFF7D3FF70BD99
:10515C00048004400020FEFFFFDF010000800640B9
:10516C000040064080800440FFFFEF2538B5040066
:10517C000D0000F0BDF82901FBF71CF8401E206261
:10518C0031BD7CB5012405000E0005E06869694657
:10519C000870300000F0B2FAA8682040F6D173BD58
:1051AC007CB5042405000E00A868204009D069468F
:1051BC00300000F006FB002803D068460078E86158
:1051CC00F2E773BDFBB50500170004262E61029AA9
:1051DC003900019800F0ABFA040001992800FFF7A0
:1051EC00DFFF0298021B3919019800F0A0FAEE605B
:1051FC002018FEBD80B5080011001A0000F0FAFA64
:10520C0002BDF8B506000C00B0680425284009D092
:10521C00170039003000FFF7C3FFF868396988427E
:10522C0000D1356121003000FFF7ABFFF1BD00006C
:10523C0003480168034A0A4040211143016070474A
:10524C0080800440FFFFEF254D4900E04D49086088
:10525C0000204860012048607047000000B54A48B3
:10526C000068C105C90D00BF51A04A0992008058C1
:10527C00C906C90E491C4900FAF79CFF00BD4048FD
:10528C0000688007800F04D0012804D0032804D0C4
:10529C0006E03E4870473E4800E03E4800687047D4
:1052AC000020704710B500203B4CA16E8907890F78
:1052BC0005D0022908D004D3032908D010BD3348E7
:1052CC0010BDFFF7DCFF10BDFFF7C8FF10BDFFF7E7
:1052DC00D6FF2168C906C90E491C484310BD80B5CC
:1052EC00FFF7E0FF2D490968C9B2FAF763FF02BD69
:1052FC0038B52B4C2068C5B2002D01D1002032BD31
:10530C00FFF7D0FF2900FAF755FFE26DD2B2FF2A62
:10531C0008D1226E010E0002D2B2A30DD2180023C6
:10532C0000F0B0FA32BD70B505000C00FFF7BAFF03
:10533C0006002900FAF73EFF010000D101212000F0
:10534C00174CCAB22260002816D016480268164BB9
:10535C00134003600268154B134004221A43026089
:10536C00FF20E0653000FAF725FF00022900FAF76C
:10537C0021FFC0B2206600E0E065FFF7B9FF70BD09
:10538C00408004407080044024800440001BB7001F
:10539C00DC020000E0020000088004407880044039
:1053AC009480044004800440FBDF0100FFDF010017
:1053BC0000000000C027090090051000C05C15001B
:1053CC00F0B31A00200B2000009F2400E0322900CB
:1053DC00C0C62D0050973100E06735007038390099
:1053EC0000093D004016400080234300C0304600B9
:1053FC00054801000C31816001000C314160010055
:10540C000C31016070470000B408001010B5044C5A
:10541C002821201DFEF74AF90020207010BD000045
:10542C00A8140010F8B5FDF713F81F4C2000FFF777
:10543C006FFE206804261D49014031432160012183
:10544C00E1204003FFF76FFFE12149022000FFF745
:10545C008DFE0125206816490140294321606068B2
:10546C00144901406160144F402301223900283156
:10547C003800143000F03AF9402301223900683129
:10548C00380000F033F9E560266108200B4908600C
:10549C00FCF7E4FFF1BD80B5074A11001431024856
:1054AC00FFF7AFFE01BD00000040064001DAFC0032
:1054BC007DDAFC00060301009012001000E100E010
:1054CC0030B503000020D40712D407E01D782D015D
:1054DC002C431C70D40701D45B1C401C1400621EAE
:1054EC00240407D038A40D786457491C002CEDD542
:1054FC00002030BDC0B230BD70B513000F2400BF0A
:10550C002CA509E00E783609AE5D06700E782640A3
:10551C00AE5D4670801C491C1600721E3606F1D119
:10552C005800C0B270BD80B56A460B0E13700B0CE0
:10553C0053700B0A9370D17004226946FFF7DCFF9D
:10554C00082002BD30B50023036000BF1EA303E09A
:10555C0005682D012C4304601400621E240606D03D
:10556C000C781C57491C002CF2D5002030BD0120B2
:10557C0030BD30B5002305E0CC5C8D5CC554845443
:10558C005B1CDBB2521ED2B29342F5DB30BD010084
:10559C0041391A2900D22030C0B2704702000020D5
:1055AC0000E0401C0B78491C1370521C002BF8D1E6
:1055BC00C0B2704730313233343536373839414226
:1055CC004344454600000000FFFFFFFFFFFFFFFFC5
:1055DC00FFFFFFFFFFFFFFFFFFFFFFFFFFFFFFFFCF
:1055EC00FFFFFFFFFFFFFFFFFFFFFFFFFFFFFFFFBF
:1055FC00FFFFFFFFFFFFFFFF00010203040506078B
:10560C000809FFFFFFFFFFFFFF0A0B0C0D0E0FFF3A
:10561C00FFFFFFFFFFFFFFFFFFFFFFFFFFFFFFFF8E
:10562C00FFFFFFFFFFFFFFFFFF0A0B0C0D0E0FFF2D
:10563C00FFFFFFFFFFFFFFFFFFFFFFFFFFFFFFFF6E
:10564C00FFFFFFFFFFFFFFFFFFFFFFFFFFFFFFFF5E
:10565C00FFFFFFFFFFFFFFFFFFFFFFFFFFFFFFFF4E
:10566C00FFFFFFFFFFFFFFFFFFFFFFFFFFFFFFFF3E
:10567C00FFFFFFFFFFFFFFFFFFFFFFFFFFFFFFFF2E
:10568C00FFFFFFFFFFFFFFFFFFFFFFFFFFFFFFFF1E
:10569C00FFFFFFFFFFFFFFFFFFFFFFFFFFFFFFFF0E
:1056AC00FFFFFFFFFFFFFFFFFFFFFFFFFFFFFFFFFE
:1056BC00FFFFFFFFFFFFFFFFFFFFFFFFFFFFFFFFEE
:1056CC00FFFFFFFFFFFFFFFFC1680269891A4068F7
:1056DC00814201DB0120704700207047C1680069DE
:1056EC00814201D101207047002070470160436066
:1056FC00826000210161C1600120704770B5040017
:10570C000E002568FFF7E0FF002801D0002070BDD7
:10571C003100A268E06863685B1E03405343E818DD
:10572C0000F0E6F8E068401CE060012070BDF2B5C6
:10573C0082B004001500206801902000FFF7C4FF20
:10574C00002801D00020FEBDE06861682269801A43
:10575C00081A06004A1EE36817001F4000971A40FB
:10576C0092198A4201D3009A8E1A2900029D871B36
:10577C008E4200DD0E00881B874200DD0700A0680A
:10578C00320042430199009B4343C818290000F0A2
:10579C00AFF8E0688019E060A3683A005A43310022
:1057AC00594369188C46216865686D1E05405D4338
:1057BC004819614600F09CF8E068C019E060F019E7
:1057CC00FEBD70B504000E002568FFF787FF0028AA
:1057DC0001D0002070BD3000A268216963685B1E97
:1057EC000B405343E91800F083F82069401C2061FA
:1057FC00012070BDF2B582B0040015002068019044
:10580C002000FFF76BFF002801D00020FEBDE068F0
:10581C002169401A060061684A1E236917001F405F
:10582C0000971A4092198A4201D3009A8E1A2900C5
:10583C00029D871B8E4200DD0E00881B874200DD17
:10584C000700A068320042430199009B4343C918EA
:10585C00280000F04DF8206981192161A0683A00F8
:10586C0042439446226863685B1E0B404343D11845
:10587C0062467043281800F03BF82069C01920617B
:10588C00F019FEBD124224D0994228D970B50025DA
:10589C001B4202D00C00002109E00024012649180B
:1058AC006441944200D3A41A7641F8D33100012606
:1058BC0001E0764109D2001864416D41A41A9D4162
:1058CC00F7D2A4185D41B619F5D3300022002B0095
:1058DC0070BD1B42D8D108B5C046C04608BD01D129
:1058EC009042D3D202000B00002100207047000030
:1058FC00124207D08B0706D00B78491C0370401C52
:10590C00521EF7D87047830706D00B78491C0370DA
:10591C00401C521EF9D1704770B4103A03D378C9A9
:10592C00103A78C0FBD2530701D318C918C001D55F
:10593C0008C908C0D20704D30B880380891C801CBB
:10594C00002A01D50B78037070BC704770B50D0040
:10595C00274E3100FAF72EFC84B228003100FAF7FA
:10596C0029FC81B2002300251F2901DA602C3BDDC4
:10597C00002070BD5B1C472B34D20C245C431419E3
:10598C002688B042F6D16488A142F3D1194803802D
:10599C000126012500880C2141435418022000F0F7
:1059AC00E3F90020FFF750FC0020FFF74FFC1248F2
:1059BC0001680660802000F0CDF9104EA079C00679
:1059CC00C00E2189490160220A40024332608020C6
:1059DC0000F0CAF97068C007FCD5608930670320F5
:1059EC00FFF734FC280070BD200000BF04A2C4E700
:1059FC0040420F00021500101000044008800440C3
:105A0C000C000C00C0000000030001000C0006009C
:105A1C00C0000000030002000C000400C0000000E5
:105A2C00030003000C000300C0000000030004008E
:105A3C000C000200C0000000030006000C00010076
:105A4C00C000000003000C0018001800C00001008A
:105A5C000200010018000C00C0000100020002004E
:105A6C0018000800C0000100020003001800060026
:105A7C00C00001000200040018000400C000010076
:105A8C000200060018000300C0000100020008001C
:105A9C0018000200C000010002000C0018000100F8
:105AAC00C0000100020018002400120020010200B6
:105ABC000200020024000C0020010200020003007E
:105ACC00240009002001020002000400240006004A
:105ADC002001020002000600240004002001020044
:105AEC0002000900240003002001020002000C0047
