:10000000D81E0010516E0000450200009B02000047
:10001000000000000000000000000000F76DFFEF8E
:10002000000000000000000000000000AD02000021
:100030000000000000000000AF0200002B010000E3
:100040007F6E00007F6E000000000000AD550000D4
:100050007F6E00007F6E0000000000007F6E0000D9
:100060007F6E00007F6E00007F6E00007F6E0000DC
:10007000FF2500007F6E00007F6E000081250000DC
:100080007F6E00007F6E00007F6E00007F6E0000BC
:100090007F6E00007F6E00007F6E00000000000099
:1000A000317B0000837C00007F6E00007F6E0000CB
:1000B0007F6E00007F6E00007F6E00007F6E00008C
:1000C00000220260426013000372C1600261704747
:1000D000F8B50400384D6E68370002F0A5F9002C21
:1000E0000DD0606800280AD0206029684018206080
:1000F00001202072200000F03DF8002802D002F01C
:1001000099F9F1BD002020616868002803D16C6076
:1001100002F090F9F1BD366901E037003669002E32
:10012000FBD13C6102F086F9F1BD38B5224C65681F
:1001300002F07AF92068401C20600DE0287A00283F
:1001400009D028682168884205D100202872E86813
:10015000010000D080472D69002DEFD102F06AF92F
:1001600031BD10B5040002F05FF90020207202F0EA
:1001700061F910BD1049496800E00969002903D000
:100180008142FAD1012070470020704738B5050040
:100190000C00FFF7E6FF2C606C6031BD064800687C
:1001A000704705490968814204D20022D243101ADF
:1001B00040187047081A7047C41A001001290168D6
:1001C00003D101220A43026070470122914301607A
:1001D00070470068C00701D4014870470148704764
:1001E000B0710B001027000048210140104808435F
:1001F00010490860704710490140DA20C0010843E7
:100200000E49086070470E490A6810430A4A0240C6
:10021000DA20C00110430860704709490A68824328
:1002200005481040DA22D20102430A6070470000FC
:10023000B7FF000030820440FF8000003482044099
:1002400038820440FEE7000008490A68084B134062
:10025000802292021A430A6000210160FF2141605E
:100260000449416104498161704700008080044075
:10027000FFFFEF25FFFF0000FFFFFF004A0703D548
:1002800002681B23134003600822114004D0016858
:100290008906890E0A4302607047FEE7010000E00C
:1002A000491C0A78002AFBD1081A7047FEE7FEE7CE
:0402FC00FFFFFFFF02
:10030000FEB5FFF74BFF0600454C607B022803D08B
:100310004448C06A804701E000F0DBFD424D687D43
:1003200000282ED09C2040002718616E3800FFF76F
:100330002DFF3800FFF7CCFE607B022809D0A620F5
:1003400040002718A16E3800FFF720FF3800FFF7A4
:10035000BFFE607B022802D0A07C002823D01220A0
:1003600069460870207B01F0AFFDB0214900671895
:10037000A16E09183800FFF709FF3800FFF7A8FE43
:1003800011E0002029494870042060702020205C82
:10039000002802D10120202160542020205C10215F
:1003A0000143202021542020205C000705D520781F
:1003B000411E8941C90F297601E000202876207E60
:1003C000607601A90870207C48700296207B01F0BD
:1003D00086FD2665A07C002805D1002013494870C1
:1003E000E07D401CE075F7BD10B50D4CE06D40217F
:1003F0000143E165A07C002801D000F095FD20209C
:10040000205C1221014320202154F03024180121C6
:100410002000FFF7BBFE2000FFF75AFE10BD0000D2
:1004200000000010306D000040060010881A001017
:10043000FBB592B000273800694608730997049706
:100440003D008D4E300070300C90300080300190B7
:100450000F9038004873C87388490871884CE2814E
:1004600014A800782074F07F607438006080607198
:10047000A760A081A074676120708248C06A80472D
:10048000A62040003018FFF76CFE307C00281DD0FD
:10049000380001E0401CC0B2032817DA7A49097815
:1004A000091A7A4A521880235B00D35C9C466B463B
:1004B00050229A5663469342ECDA491E7448406DC6
:1004C000814203D07248416501F0A6FD1298007880
:1004D0006946087068460078400908756846007DDE
:1004E000012809D0032800D1A6E0052800D1A3E007
:1004F000072800D16FE285E2307C002800D0B6E00A
:10050000624D2B005B1C726B13A80088411E89B2E0
:100510001298401C01F0A2FE68460078287009ABD2
:10052000726B13A80088011F89B2280001F06FFECA
:1005300013A800882818001F0178427812020A4385
:10054000817809041143C07800060843099988425C
:100550006FD10198009033007033B28C2900491C90
:10056000706B01F09DFE2879697909020143A87931
:1005700000040843B063E879297A09020143687AE4
:1005800000040843A97A09060143F1631022019986
:10059000404801F0E5FE1022310070313E4801F084
:1005A000DFFEF06B3A49C862B06B8862707F4865C5
:1005B00008460079FE2101400220084334490871B1
:1005C00001F02AFDE87A354C21001031009101003C
:1005D00009094907490F009A51740F210A00024086
:1005E00000980276287B014000980160009800681E
:1005F000002802D1012000990860FA2080000099AB
:1006000009684143009A11600818009948600D3547
:10061000109513A80088113810A90871307B01F0DB
:1006200079FC777001203074009829300078607070
:10063000ECE107207070E9E11948407F07A9887054
:1006400020794870092069460877F07B002801D09E
:100650000A20087707A9307B01F036FC13A9098826
:100660000D3909B2002900D5390088421AD201207B
:100670006070FFF7B9FED8E100000010881A001082
:10068000581A0010306D00007C060010C0030010E6
:1006900080150010C0150010B0150010941900103E
:1006A000A41900101298417880780002084312992A
:1006B000C97809040143129800790006084308909C
:1006C000F16B88421BD0356C00E0AD6A002D0DD077
:1006D00029688842F9D10120694648732800001D25
:1006E0000C90280014300F90686A04906846407B94
:1006F000002806D10B206070FFF776FE95E1B06C04
:100700000490129840790BA908700F210BA800786B
:1007100001406846817308460830C0B206901298BE
:1007200013A909884018001F027841780902114373
:10073000827812040A43C078000610430E90129883
:1007400080791299C979090201430498081A80B284
:100750000A9013A80088001F6946C8820A98802161
:100760000902884204980A9916DA4018049009A8E8
:1007700002900498019001200090089B0C9A684612
:10078000C18A129801F094FC0E98099988421FD1F1
:1007900001206946C8731BE009B240188021490254
:1007A00040180D9009A802900D980190012000902A
:1007B000089B0C9A6846C18A129801F079FC0E9841
:1007C0000999884204D101206946C8730D980490A4
:1007D00011206946087707A9307B01F075FB0A995B
:1007E000814206D30A20607004986061FFF7FCFD27
:1007F0001BE16846C07B002800D1E7E0380060704C
:100800006846407BA0700BA800780100C906C90F9C
:100810006171A76038002073049860613800A749AF
:100820004870F764B0756846407B01280AD1022001
:100830002070686A0499884201D1002828D10846AE
:10084000686211E06846007D052818D10120F07427
:100850002070B06C0499884204D1002802D0012095
:10086000694608730498B06494480078012816D14A
:100870000BA80078800614D53800707511E0380098
:10088000F0742070B06C04998842EBD10028E9D054
:100890000820607004986061FFF7A6FDC5E038008D
:1008A000707513A80088001F0699401A012857DBAD
:1008B0001298405C491CC9B2069113A90988091F06
:1008C000069A891A6A465173E07000286846807B50
:1008D0001FD1002819D19D4D029504980190012047
:1008E0000090089B0C9A6846417B8C4612990698AA
:1008F0000818614601F080FC14A803786846427B22
:100900003946280000F0DBFB36E001206946087319
:1009100032E0002808D014A803780698421ED2B20C
:100920000821129800F0CBFB884D029504980190A5
:1009300001200090089B0F9A6846417B8C461299D3
:1009400006980818614601F057FC6846007B0028AD
:1009500012D1A5606846407B2073012060730BE0D4
:100960006846807B002807D014A803780A46D2B2D4
:100970000821129800F0A3FB6846007B002818D1DC
:100980000BA80078800609D501204C490871A07495
:10099000B02040003018FFF7E4FB0AE04748077139
:1009A000B07EF17E884204D2B02040003018FFF7BC
:1009B000D8FB2020305CFB2101406846007B800092
:1009C000084302210143202031541FE00C206070B5
:1009D000FFF70AFD29E05D4D13A802881299491C12
:1009E000280001F0F2FC032020706770A56013A8B6
:1009F0000088401E20732020305C0221014320200B
:100A0000315403E001206070FFF7EEFC2020305CE1
:100A10001021014320203154F030341801212000EE
:100A2000FFF7B4FB2000FFF753FB15B0F0BD10B586
:100A3000474C607B022803D04648C06A804701E0EB
:100A400000F047FA02200100434A517060702020F4
:100A5000205C102101432034217010BD10B53C4CA6
:100A6000607B022803D03B48C06A804701E000F069
:100A700030FAA07CE17F002912D10521002801D0A5
:100A8000354841706170206DFFF78BFBA16E884285
:100A900012D32020205C102101432034217010BD8E
:100AA0000621002801D02C48417061702020205C74
:100AB000102101432034217010BD0000881A00105D
:100AC00010B5234C607B022803D02248C06A8047BF
:100AD00001E000F0FEF9A07CE17F002912D10321A2
:100AE000002801D01C4841706170206DFFF759FB50
:100AF000A16E884228D32020205C1021014320349D
:100B0000217010BD002803D004201349487010E064
:100B1000207C00280DD001F0CEFE012802D101F08A
:100B2000C6FE06E0BC480021017081700A2001F079
:100B300015FE04206070607B022805D02020205C18
:100B4000102101432034217010BD0000C0030010AB
:100B500000000010306D0000881A0010F0B585B05C
:100B60000024200069460872C44D882040002818DF
:100B70000190FFF7F6FA2020285C012701000909FF
:100B80003A00114200D1F3E0E96D4A0602D5412254
:100B90009143E96509210140B94E13D07278022AC8
:100BA00002D06A78022A0DD1EA6D3B469A43EA6583
:100BB00022006A75EA7E727122003271B4603A00D6
:100BC0006B461A72AA7C6B461B7A13431FD100290D
:100BD0001DD00100C9083A0011425FD029780029D0
:100BE0005CD1697FA9726A78002A07D16C64200001
:100BF000E875E86D39468843E86508E0AA7F9142C8
:100C000066D2EF2101402020295400F007F920206E
:100C1000285C40083900084215D03079002803D1FB
:100C2000A87EE97E88420ED220002877A874307D05
:100C3000002802D1686C401C6864E87E7071E86D21
:100C400039468843E865287F002800D190E05C2081
:100C5000285CC00600D58BE020002877E87EA97EBE
:100C600088426AD2092868DA401CE876BB490978CC
:100C7000002932D0C0073ED503A820210170BE490B
:100C80002C228A5C8270491C00910978417003A96A
:100C9000287B01F019F9009908702CE00200520835
:100CA00039001140EA7DB54BDB7F9A4201D2002921
:100CB000A7D0002904D120006875E86C401CE864C6
:100CC0002000E875307D002802D1686C401C686403
:100CD000E86D39468843E86599E7A749491C0091C2
:100CE000084600214056B64909780200914202DACE
:100CF000401E0099087000F005FA002806D1202057
:100D0000285CEF2101402020295431E00920707037
:100D100020006875E86D39468843E8652000A874AE
:100D20003471E87E707194484078B070307D00284E
:100D30001ED1686C401C68641AE03946287B01F0BB
:100D4000D6F8E86D39468843E86520006875A874D0
:100D50003071E87E7071307D002802D1686C401CD3
:100D600068642D482100017084700A2001F0F6FCAF
:100D7000E86D810702D502218843E865E86D002807
:100D800025D12020285C3900084209D03C48296E32
:100D9000096888472020285CFE2101402020295432
:100DA0002020285CC0083900084209D02800296E9C
:100DB000896888472020285CF72101402020295499
:100DC0002020285CEF2101402020295407E0FA214F
:100DD00089000198FFF7DAF90198FFF779F92020E7
:100DE000285C40083900084213D0687B022801D1F2
:100DF00000F06FF82020285C8008384203D1BB48FF
:100E0000296E496888472020285CF9210140203557
:100E1000297005B0F0BD0000391500101FB5174C42
:100E2000922040002018FFF79CF9E06D10218843C4
:100E3000E0652020205C00071CD52078002819D10F
:100E400000F008FA607F401C6946888001A9207B79
:100E500001F0A0F848494870002069460873607C9A
:100E6000C0010872002000900346024602A903A8B0
:100E700000F03EFA00F046F91FBD0000000000102F
:100E8000881A001070B59A4D9C2040002818FFF772
:100E900068F90020E877974C297E217036490E00CA
:100EA0000C36727DE2702D3109782174E97B617412
:100EB0006082687B022802D18F48006B80478F4A8E
:100EC0002100287B01F04FF83168A07C00F048F841
:100ED00070BD70B5864DA62040002818FFF741F977
:100EE000874C287E2070244806000C36B16961606A
:100EF0002D3000782074E87B60740120E074697BF9
:100F0000022902D00020A07400E0A0747B4A2100D6
:100F1000287B01F028F8002805D03168A07C00F07B
:100F20001FF8E07CE87770BD10B5714CB020400030
:100F30002018FFF716F9A07C002805D001202077A3
:100F4000E06D04218843E065607B022805D1202004
:100F5000205C102101432034217010BDA515001024
:100F600080B5654A526B002802D10800904701BD48
:100F70000020904701BD0000941900109519001041
:100F800038B5040015006846B14A12788270417085
:100F900009210170564AD17B002901D00A21017034
:100FA0006946107B00F090FF611980B289B28842D7
:100FB00003D3FF2901DC012032BD002032BD000037
:100FC0007D060010F4B401242200494D8023AE7D3B
:100FD0009F1BFFB203009B1E082B3FD801A6F65CA7
:100FE000B74400BF4A404A400A404A4A5E006B7D0F
:100FF0001E00BF1EBE420FDAB74A062090555B1C8A
:101000006B75DBB2D1545B1C6B7568460078DBB244
:10101000D0545B1C6B750022002A00D12C75100087
:10102000F2BC70476B7D7F1EBB42F5DA0CE06B7D36
:101030001E00BE42F0DAA84988555B1C6B75002281
:10104000EAE76B7DBB42E7DAA34AD0545B1C6B75C1
:10105000DBB2D1545B1C6B750022DDE70220DFE7B9
:1010600070B4030000242000002B26D0002A02D1F7
:1010700023E0641C641CE4B28C421DD21D5D2E0072
:10108000032EF6D0052E07D0062E13D0072EF0D053
:10109000082E0BD00A2EEDD1C0B21554641C401C92
:1010A000E4B21D5DC0B21554401CE3E7C0B2155454
:1010B000401CDFE7A41CDDE7C0B270BC704770477E
:1010C0007CB50B4C657CED016E46357100931300C9
:1010D0000A0001A900F00CF9002806D17F48002180
:1010E0008180616CC16000F00DF876BD581A001067
:1010F0000000001040060010306D00005C1A001067
:10110000A01A0010F0B587B000200290744EB17D97
:10111000FF2901D109207AE0724C002900D16065D5
:10112000607E00F076F8606D03906F4D03AF6878D5
:101130003872F07DB872207C7872206D049004E0E3
:1011400001981121405668703872280028300190AB
:1011500020005430009002AB2200183203A9207BFB
:1011600000F029FF0028EBD02F003F1D7B7F5BB2F2
:1011700001202A5601984179207B00F029FF009632
:101180003B683A79010049B2207B00F0E1FE574804
:1011900000903B683A790198017849B2207B00F0D1
:1011A000D7FE207C002809D17869F1684018606674
:1011B000B8694E49C9684018A06612E0627D0120F6
:1011C0002956307DFFF7DCFE002801D108201EE003
:1011D000F868F1684018606638694449C968401881
:1011E000A0660298002803D1207E00F0D5F90EE019
:1011F000E06D10210143E16592204000241802991E
:101200002000FEF7C3FF2000FEF762FF002007B0BA
:10121000F0BD70B584B0334C6D46217C2970304EE2
:10122000F17DA970E870A06DFEF7BBFF0190E06E44
:101230000290307E68706946207B00F0B4FEE06E5C
:10124000616D228D42438918081A60657FBD0000D8
:10125000C019001030B40023224C180020746364BD
:10126000A364E364E07501200100A176E176190032
:1012700021771B491A008A75020022851A006275BF
:10128000A2754875184D3820285C28703920285CD4
:1012900068705920285C21216854E86D296E2A0065
:1012A000243203C26420285C2C2168546520285C09
:1012B0002D216854A86E2863E86E68631800608268
:1012C0002075206C01E04362806A0028FBD1180081
:1012D000208330BC7047000014190010881A0010D9
:1012E000400600100000001094190010A01A001011
:1012F000F2B588B000210391049369460A71C84C85
:101300000021E184A1740E99002B00D10021A14F8E
:101310003975C44D017829700078400907D002283A
:101320004AD0042846D0072800D120E12FE101202F
:10133000E0840822216B2800401C01F051F8E08C69
:101340000830E0840822E16A80B2281801F048F8E9
:10135000E08C0830E084B44840698047A084E08C89
:10136000A18C0A002A54401CE084090A80B2295446
:10137000401CE08403AB626BC1B2280000F047FF61
:10138000E08C03992954401CE0840399090A80B237
:101390002954401CE0840399090C80B22954401C54
:1013A000E0840399090E80B22954401CE084002097
:1013B00009B0F0BD0120A074207C002801D10720D5
:1013C000F6E705A80121017008990978C9094A1EA4
:1013D0009241D243D20F4270E16C0691934A517808
:1013E0000172117841722C21515C817220004C30C5
:1013F00000901300521C05A9207B00F09CFD089969
:101400000978BF220A408001104308990870E17CE6
:10141000002905D00021E1742021014308980170C2
:10142000E06B01006970090AA9700100090CE970FC
:10143000000E2871089800786871606C0100A9712D
:10144000000AE8710826200090300090A27D014635
:101450007748637DC01800F0B8FF607DA17D41181A
:101460006175049800281FD0387D00281CD0207D8D
:10147000002825D0C9B210291CDA08980278F0207B
:10148000104052181207120F0243089802706A7136
:1014900000200A0080B2904212D2654A125CF6B275
:1014A000AA55761C401CF4E7C9B2002908D0207D5B
:1014B000002805D039755E48049000206A461071F6
:1014C00000202075009AC9B25948FFF7C9FDA075E0
:1014D000002801D0012020750498002826D0387DEE
:1014E000002823D068460079F6B2A855761CF6B2DB
:1014F000A819E36B616C6A461279002A0CD10022AC
:101500006275029001911046009022007032397D80
:10151000049800F012FE09E0029001910020009072
:1015200022008032397D049800F007FEF6B2387D43
:101530003118E18403A80290606C019000200090B3
:10154000E36B2200703289B2280000F0B1FDE08C1C
:101550002918039A0A70039A120A4A70039A120C05
:101560008A70039A120ECA70001DE0841FE7002BD8
:1015700000D11CE73A7D002A00D118E719006D1C44
:10158000280000F022FF387D401CE0840FE7022095
:101590000EE700004006001070B586B000216A46D4
:1015A000117001A90870214E7078487030788870E9
:1015B000306B0290706B0390194CE08C8881230093
:1015C0006C33207B00F0DAFC0125280060709B481A
:1015D000290041707178817069460978C170E16EA7
:1015E00081606160882040002618FA21890030005F
:1015F000FEF7CCFD3000FEF76BFD207C002802D109
:10160000607F401C6077E18CC9B20648BE4A926A8E
:101610009047E06D0543E565002006B070BD000011
:101620000000001094170010306D00009419001095
:1016300014190010F2B582B005001600002D08D074
:101640002868002805D06868002802D0A86800280B
:1016500001D10320FEBD300000F030FC002801D194
:101660000A20FEBD764C2566A94F0298B863267302
:10167000002001002022A1546173E06561770121FF
:10168000A1770100E173206560650B206946087051
:10169000207B00F019FC401E8041C043C00FF8754C
:1016A000082069460870207B00F00EFC974D2E0044
:1016B00038363070052069460870207B00F004FC45
:1016C00070700C2069460870207B00F0FDFBF06014
:1016D0000D2069460870207B00F0F6FB30610E207B
:1016E00069460870207B00F0EFFB70610F206946AF
:1016F0000870207B00F0E8FBB0611020694608709C
:10170000207B00F0E1FBF061132069460870207B2C
:1017100000F0DAFB29005831019148701420694625
:101720000870207B00F0D0FB0199486015206946C5
:101730000870207B00F0C8FB019908721A206946E6
:101740000870207B00F0C0FB019908731B206946DC
:101750000870207B00F0B8FB019948731C20694693
:101760000870207B00F0B0FB019908611D206946DC
:101770000870207B00F0A8FB019948610021207BC4
:1017800000F0B5FB0120019908703220706006213D
:1017900031722D1D286008462871F068A8603069F4
:1017A000E86070692861B0696861F069A8610198B2
:1017B00000782877FFF74EFD88204000251855490E
:1017C0002800FEF77DFCFA2189002800FEF7DEFCE8
:1017D0005149922040002018FEF772FC4F499C208E
:1017E00040002018FEF76CFC4D49A6204000201850
:1017F000FEF766FC4B49B02040002018FEF760FC65
:10180000FEF7CCFCA0654848F86148487862484833
:10181000F862484838624848B8623B4D1C37380087
:10182000296888476869804700F0C1FD0120A073DE
:10183000A96D8847E86A80470020FEBD881A00101D
:1018400000000010F1B586B00F00304D3920285C43
:10185000694648713820285C8871384C6846617D3B
:10186000A27D89180171002F01D103204AE00026D2
:1018700003A831000170617C4170E16C04916978CA
:101880000172297841722C21695C817220004C30F0
:10189000009001AB9B1C01AA521C03A9207B00F005
:1018A0004AFB02A82C352978817069464979417034
:1018B00009210170E17B002901D00A21017002A9F0
:1018C000207B00F001FB78707878694609798842BE
:1018D00004D369460979401A387005E03870300041
:1018E000694608716075A6756846027969460520E3
:1018F00009566846007EFFF743FB002801D1082007
:1019000000E0304607B0F0BD306D000094190010C3
:10191000400600105D0B00001D0E0000850E00004B
:10192000D30E0000290F0000010300003104000065
:101930005D0A00002F0A0000C10A0000000000102C
:10194000F0B585B0040000200600002C01D1032072
:101950004BE1A74D5C21695CC90701D5012044E139
:1019600021781D2900D93EE101A24900525A97442D
:101970003A0058005E0064006A00700086009C0017
:10198000A8007402AE00360178015E018E01A2014A
:10199000AA01B201BA01C201CA01EA012A020A027D
:1019A0004A0250027402560260026C022179697385
:1019B000002902D0022904D016E18E48C06A80476F
:1019C00012E1A874FFF785FA0EE1207928740BE183
:1019D0002079687408E16068A86305E16068E863DD
:1019E00002E16168002905D010227035280000F05E
:1019F000ECFCF9E00326F7E06168002905D010222D
:101A00008035280000F0E1FCEEE00326ECE02079D0
:101A1000A8737849896D8847E6E02079E873E3E0A8
:101A200001AF207A3870744800787870062201A9D6
:101A3000287B00F064FA002834D0241D03CC6F4AC0
:101A400003C2687B022800D0CEE0287C002800D1A9
:101A5000CAE06B4C00946B484368027A6A4801788C
:101A600049B2287B00F074FA287E20706548406AED
:101A70006060614800782074E87B60740120E07445
:101A8000A074624A2100287B00F06DFA002807D07C
:101A90005C48C168A07CFFF763FAE07CE877A3E0CC
:101AA0000326A1E003269FE001AF207A3870524858
:101AB00000787870062201A9287B00F020FA00281F
:101AC00004D0241D03CC524A03C28DE003268BE0D0
:101AD00060680290012002A90871287B00F022FAB8
:101AE000002800D080E003267EE06168029102A910
:101AF0000871287B00F016FA002875D1032673E0E0
:101B00002079002804D0102802DA424908706BE0DE
:101B1000032669E060683B49C86065E06068394950
:101B2000086161E06068374948615DE06068354997
:101B3000886159E060683349C86155E001AF207998
:101B40003870052201A9287B00F0D9F9002803D0BC
:101B500038787849087047E0032645E001AF2079DE
:101B60003870042201A9287B00F0C9F9002803D0AD
:101B700038782449487037E0032635E001AF2079F2
:101B80003870082201A9287B00F0B9F9002803D099
:101B900038786949087027E0032625E001AF2079ED
:101BA0003870072201A9287B00F0A9F9002803D08A
:101BB00038781449087017E0032615E060686864F7
:101BC00012E06068A8640FE060680E49C86348606E
:101BD0000AE02079594908700A49087204E06068EF
:101BE0000849486300E00226300005B0F0BD00005F
:101BF00000000010306D0000C1190010B81900106D
:101C0000A01A001094190010BC1900105C1A0010E2
:101C1000F0190010B4190010F0B585B005000226C7
:101C2000002D22D00127464CE06D38400FD10C2208
:101C30000021200000F0E1FB67702878002802D026
:101C400001285BD068E05C20205CC00601D53846E6
:101C50006DE06868002808D0A868002805D0E8680A
:101C6000002802D0287C002801D103205FE06946CB
:101C700008711E2201A9207B00F041F9002806D13D
:101C80001F2069460870207B00F01EF928748648E2
:101C90000078002806D11F2069460870207B00F0DC
:101CA00013F928742020205C0821014320202154AE
:101CB000287820706868E062A8682063E86860633C
:101CC000287CA07700200100617769460873FFF740
:101CD000C1FA607F401C6946088102A9207B00F0A0
:101CE00059F97249487000231A46114603A8FFF7B4
:101CF000E7F90600052000F031FD0DE02020205C12
:101D00000821014320202154287820700022114608
:101D10003046FFF757F90600002E07D00020A074C8
:101D20002020205CF721014020342170300005B0D4
:101D3000F0BD0000CD190010CC190010D41900100E
:101D400000000010F0B585B0070002206946487019
:101D5000002008700446002F00D19AE0514D5C200D
:101D6000285C1121014001D0012098E020466946FD
:101D700008714F482521415C002906D16630007862
:101D800080001C2101406846017114222146494807
:101D900000F033FB012047494870E8763878002886
:101DA00004D0012817D003282AD039E00124204686
:101DB000A87668460079C006C00E402101436846F7
:101DC0000171387969460870B8680290B88948800E
:101DD0000E203E5624E00124F87BA8766846007960
:101DE000C006C00E802101436846017138796946FA
:101DF0000870B8680290B88948800E203E560FE0FF
:101E000001242046A87668460079E021014368460F
:101E10000171786802903889694648800A203E56E8
:101E200004A80121017024490978817004A9287B44
:101E300000F04AF876B2B04200D30600002C2CD055
:101E4000687C00280ED103AC26701B480078A07077
:101E5000042203A9287B00F052F8002819D020782A
:101E60001249487068464388029A017801A8FFF732
:101E700027F9694648706846407800280BD13878C1
:101E80000C4908702020285C01210143203529706D
:101E900003E0032003E00020A8746846407805B002
:101EA000F0BD000000000010A515001094190010EE
:101EB00080150010881A0010C0190010022801D1E6
:101EC000012070470020704780B5C0B2022803D1BE
:101ED000080001F0A1F902BD44A0006802BD02287B
:101EE00000D0704780B5080001F004FA01BD022857
:101EF00000D0704780B5080001F014FA01BD80B52C
:101F00000B001100022803D1180001F05DFA02BD98
:101F1000002002BD022800D0704780B50800C046EE
:101F2000C04601BD80B5022803D1080001F086FA41
:101F300002BD002002BD10B50400080011001A0007
:101F4000022C03D1029B01F08FFA10BD002010BDBE
:101F500010B50400080011001A00022C02D1029BE7
:101F600001F0D8FA10BD80B50B001100022803D192
:101F7000180001F0FFFA02BD002002BD10B50400F8
:101F8000080011001A00022C02D101F04BFB10BD19
:101F9000002010BD80B5022803D1080001F0A2FB8B
:101FA00002BD002002BD022800D0704780B50800A5
:101FB00001F00CFC01BD10B50400080011001A006E
:101FC000022C03D1029B01F01DFC10BD002010BDAE
:101FD00010B50400080011001A00022C02D101F013
:101FE000EDFC10BD0800C0B210BD000000000000F4
:101FF0002A4A0009106008000009802109060143EF
:102000005160704780B509014118FFF7F1FF01BD2C
:1020100023480068C00F704730B585B0214C21219E
:102020002000401D00F04CFC050430212000283029
:1020300000F046FC054325601B4D0022802128004E
:1020400001F0C4FC68222100280000F089F901F0A9
:10205000FBFC684601F003FD00F0E6F91F2108468D
:1020600001F0D8FC1149481E01F010FD1F2108465F
:1020700001F0D0FC80222900FF20C00101F0D1FC3A
:1020800000F0D8F94021F820C001FFF7BBFFFFF7AF
:10209000BFFF0028FBD105B030BD00002000044088
:1020A000240004408015001094180010FF01000067
:1020B000F8B506000D0017009D4C069860711800D9
:1020C000A071000AE0711800000C20721800000EC8
:1020D000607207980100A172090AE1720100090CFF
:1020E0002173000E60732800E0732000203001F09F
:1020F000E7FC39002000203001F0F3FC1022210021
:102100002000203001F0F5FCEAB231002000203040
:1021100001F0EFFC210020312000103001F04EFDD5
:10212000E07C0006A17C09040143607C00020843B6
:10213000217C014308980160F1BDFDB50F00002628
:1021400001257C4CF02231462000203000F055F96A
:10215000220020321021019802F0A2F80898607144
:102160000298A0710298000AE0710298000C207297
:102170000298000E607209980100A172090AE172CA
:102180000100090C2173000E60730DE07018009AB5
:10219000135C6218127C5A400A9B1A54491C10297D
:1021A000F4DB103F1036F6B2BFB2102F0BDB280065
:1021B000E0736D1C2200203221001031200002F05B
:1021C000F0F80021EBE7002F15D0E5732200203254
:1021D00021001031200002F0E4F8002109E070181D
:1021E000009A125C63181B7C53400A9A1354491CD2
:1021F00089B2B942F3DBF7BD10B584B0089C0294F4
:10220000079C0194069C0094FFF797FF1FBDF8B54B
:1022100006000D001700464C2000203001F050FC55
:1022200039002000203001F05CFCEAB231002000CF
:10223000203001F05EFC210020312000103001F040
:10224000BDFCE07C0006A17C09040143607C000227
:102250000843217C014300980160F1BDF4B50500FD
:102260000E001F00334CF02200212000203000F02F
:10227000C4F8220020321021009802F011F8220048
:1022800020323900280002F08CF8102E07DB2034B1
:102290002200103739001035280002F082F8F1BD15
:1022A000F4B584B004000E001F00224DF02200217E
:1022B0002800203000F0A1F82A0020321021200050
:1022C00001F0EEFF10220021684600F096F86C46FF
:1022D00001202070062231002000401C00F075F81B
:1022E000022204A92000C01D00F06FF82A0020324D
:1022F0003900684602F055F810220021684600F0C7
:102300007CF802202070062231002000401C00F0E2
:102310005CF8022204A9E41D200000F056F82035E4
:102320002A000A99684602F03CF805B0F0BD0000AA
:1023300074010010AC020010124207D08B0706D0C7
:102340000B78491C0370401C521EF7D87047830756
:1023500006D00B78491C0370401C521EF9D17047FF
:1023600070B4103A03D378C9103A78C0FBD253073F
:1023700001D318C918C001D508C908C0D20704D3B1
:102380000B880380891C801C002A01D50B78037000
:1023900070BC704700B52C4908682C4A50432C4A41
:1023A000801808602B4902F0BEF8080000BD2649DD
:1023B0000860704738B504000D00FFF7EBFF291BDC
:1023C000491C02F0ADF8081932BD03E00B78037028
:1023D000491C401C13005A1E9BB2002BF6D17047BB
:1023E0008018401E03E00B780370491C401E130048
:1023F0005A1E9BB2002BF6D1704701E00170401CC1
:1024000013005A1E9BB2002BF8D170470020010028
:1024100003E0521C052AFCD3491CFA229200914287
:1024200001D20200F6E7704772B60B480178491CEA
:102430000170704708480178491E0170C9B200292F
:1024400000D162B670470000CC0600106D4EC64148
:1024500039300000FFFFFF7FD51A00100121C006B0
:10246000C00E81407E48016070470121C006C00E49
:1024700081407C48016070477B490A6801238340A2
:102480007A48184382430A607047774901228240A4
:102490000868774B034013430B60704710B5040086
:1024A000FFF7EAFF2000FFF7F0FF10BD9D490A6823
:1024B000D2B202430A61704740014908491E0143F4
:1024C000A04801607047A0490122824008689F4BE4
:1024D000034013430B60704742691207120F0A430F
:1024E0004261704742690F23DB430B439A434261C9
:1024F000704701684907490F02220A43026070478A
:1025000001684907490F04220A4302607047C1600D
:10251000704741607047AA218160552181607047F2
:10252000416170478161704702689206920E0A43CA
:102530000260704710B504000121FFF7F5FF20008D
:10254000FFF7E9FF10BD000000B583B0684600BF8B
:1025500009A10CC90CC000207D49087001207D49EB
:10256000087000F09EF905226946022002F09AF8F0
:1025700002F0A7F807BD00000001020A0B000000EE
:1025800080B57548FFF7B5FF01BD70B50C001600AA
:10259000714D01002800FDF711FE2800FDF719FE1E
:1025A000010061432800FFF7B2FF4820FDF71CFE41
:1025B000A720C043FDF71FFE3100C04802F00CFB0E
:1025C0000020FDF711FE2800FFF79AFF70BD10B53F
:1025D00080200002FFF76AFF0920FFF774FF09203F
:1025E000FFF75CFFB54C0A212000FFF77BFF0D21B0
:1025F0002000FFF771FF0F20FFF730FF10BD70477D
:1026000038B540210120FFF757FF4020FDF705FEB8
:1026100002F000FB0500AD088024E4052000FDF772
:1026200013FE6D0829002000FFF773FF610D2000E5
:10263000FFF776FF29002000FFF774FF022120003A
:10264000FFF772FF0C212000FDF718FE0C20FFF7AA
:102650000CFF0C20FFF702FF2000FFF76BFF31BDDE
:1026600000E100E080E200E0048004400020FEFF82
:10267000FFDF010038B5A04C2078002805D00228E3
:1026800027D014D3032836D048E09C4D2800FDF70E
:1026900068FD0121002002F0B4FB64212800FDF751
:1026A00075FD2800FDF714FD0120207031BD934D0C
:1026B0002800FDF756FD0021084602F0A2FBC821C4
:1026C0002800FDF763FD2800FDF702FD02202070C1
:1026D00031BD8A4D2800FDF744FD0121002002F0A4
:1026E00090FB64212800FDF751FD2800FDF7F0FC68
:1026F0000320207031BD814D2800FDF732FD0021FF
:10270000084602F07EFBFA2189002800FDF73EFD15
:102710002800FDF7DDFC0020207031BD0020207076
:1027200031BD00000482044010B50021084602F0CB
:1027300068FBC24C0A212000FDF728FD2000FDF7B0
:10274000C7FC10BD2480044080800440FFFFEF25BB
:10275000D01A0010CA04001000800040F8B505002F
:102760002E00052802D0062803D009E0FFF7DCFF81
:1027700006E06248FDF7F5FC0021084602F041FB47
:10278000AF480068E840C00700D489E0AD4CA8001D
:102790002518286CFDF782FD07000A2E01D00D2EAA
:1027A00062D1A948009006780322A8A12000FFF773
:1027B000D7FDFFB23A00296C2000C01CFFF7BCFD1A
:1027C000FF1C2C25FFB2E5557F1C3800401C310052
:1027D000090601D5412105E03100490601D54E2108
:1027E00000E03021FFB2E15503005B1C3100C90756
:1027F00001D531210AE03100890701D5322105E0F8
:102800003100490701D5502100E03021C0B22154E8
:10281000F00611D5DBB2E5545B1C1E0001228C488A
:10282000009949784018FF21C43141183000C0B2E6
:10283000201802F081FC331800988078002821D0FD
:10284000DBB2E5545B1C1D0000988278804800993B
:1028500049784018E221490041182800C0B22018E8
:1028600002F06AFC2B180DE0032278A12000FFF78C
:1028700077FDFFB23A00296C2000C01CFFF75CFD19
:10288000FF1C3B000D20DBB2E0545B1C0A20DBB2D6
:10289000E0545B1CDBB222006E496F4802F0C2FDBF
:1028A000F1BD6E4801214170002101707047002088
:1028B0006A49487070476948407870470000024094
:1028C00030B402000B000024210000E0641C9C4294
:1028D0000ED2105D000248400100082001E02900EE
:1028E000401EF3D04D000904F9D55D496940F7E772
:1028F000080080B230BC70479F1A0010E815001025
:10290000F0B58DB00600524C822080002018029055
:10291000FF27FF0168223900FFF722FD51482018E8
:1029200000902121FFF7CCFF05008C2080002018AB
:1029300001903021FFF7C4FF39682A040243914215
:1029400001D1002E4DD009A801F089F8464E082289
:1029500009A908313000FFF7EFFC444D082231008F
:102960002800FFF7E9FC03A821A10CC90CC000BF97
:1029700021A11022FFF7F4FC082203A92800083047
:10298000FFF7EEFC102205A928001030FFF7E8FC45
:1029900000263000202168540127EF6421222900FD
:1029A0000098FFF7C9FC8320800020180090077072
:1029B0003022243529000198FFF7D2FC00984665A3
:1029C000009886650020C0430099C8659B20800060
:1029D000201831000170032141708670FFF71CFB45
:1029E00004E0682239000298FFF7BAFC0DB0F0BD90
:1029F0004D4A2D4D6F64656D2B7E151628AED2A6FF
:102A0000ABF7158809CF4F3C10B50020FFF778FFD2
:102A100002F07DFD0E4C002298214900200000F0BC
:102A2000D5FF962252002100114802F0DDFD114928
:102A30009C2080002018FDF743FB10BDE815001016
:102A4000E0150010C00500103915001045565F0054
:102A500078130010D006001000400640D01A001075
:102A6000211000000D020000C4060010041A00101E
:102A7000B41A001075260000F0B59FB00025CD4CAB
:102A8000207802F0AFFB0090CB480789FFB2260008
:102A9000284669460871002F01D1012597E2009868
:102AA000762810D1022F0ED160783F280BD1C3A118
:102AB000200002F09EFB2518C149280002F099FB76
:102AC0002E18012583E200987A2809D1012F07D119
:102AD000BC48C06A8047012528006946087176E233
:102AE000262811D1022F0FD1607802F07BFB6628D7
:102AF0000AD1B448C06A80470120FFF701FF0125D1
:102B000028006946087162E20098732800D099E0B5
:102B1000022F00DA96E060783F282ED1022F2CD1C8
:102B2000A6A1200002F065FB25188C20800021580A
:102B3000280002F01BFB2E182C2528003070761C74
:102B40008D2080002158300002F010FB361828003C
:102B50003070761C992080002158300002F006FB6E
:102B600030180570401C050098208000215828006E
:102B700002F0FCFA2E18012529E23D2800D026E2B9
:102B8000552F00D023E208222100891C13A802F04F
:102B9000FFFA002800D11AE2A07A2C2800D016E211
:102BA00013AF082221000B313800001D02F0F0FAAB
:102BB000002800D10BE2E07C2C2800D007E2202284
:102BC000210014313800083002F096FA102800D0A5
:102BD000FDE13420205C2C2800D0F8E120222100E7
:102BE00035311837380002F087FA102800D0EEE1AE
:102BF0009620800020581D909720800020581E901D
:102C0000302213A98C2080002018FFF7A9FBD620C2
:102C100040002058992189006050D420400020585D
:102C2000091F60508320800020180178FE220A408E
:102C30000221114301702846C2490870FFF7ECF9E0
:102C40000125C4E16A287AD1022F78DB60783F2819
:102C500023D1022F21D159A1200002F0CAFA251850
:102C60000822B948211805A802F0ABFA082205A9E4
:102C7000280002F061FA2D182C2028706D1C082203
:102C8000B248211805A802F09CFA082205A92800DC
:102C900002F052FA2E18012599E13D2800D096E164
:102CA000442F00D093E10AAF284620217854102207
:102CB0002100891C0AA802F01FFA082800D086E12A
:102CC000A07C2C2800D082E1102221001331380092
:102CD000083002F011FA082800D078E12320205CA7
:102CE0002C2800D073E1202221002431380010303C
:102CF00002F002FA102800D069E108220AA90AA805
:102D000002F05FFA0822390008310837380002F073
:102D100058FA21220AA98C482018FFF70DFB8320BE
:102D20008000201801250178FD220A402900114366
:102D30000170002083490870FFF76EF947E16728AA
:102D400000D081E0022F00DA7EE060783F283BD19E
:102D5000022F39D119A1200002F04BFA25180122C7
:102D60009B2080002118280002F0E6F92E182C255F
:102D700028003070761C0122A8482118300002F08B
:102D8000DBF9361828003070761C0122A44821187F
:102D9000300002F0D1F930180570401C0500012206
:102DA000832080002118280002F0C6F92E18012582
:102DB0000DE100BF78130010B41A00104F4B2C0027
:102DC0000C6D0000306D00003D2800D0FFE00A2FA0
:102DD00000D0FCE002222100891C01A8C01C02F0E6
:102DE0008BF9012800D0F2E020792C2800D0EEE009
:102DF00002222100491D01A8801C02F07DF9012852
:102E000000D0E4E0E0792C2800D0E0E002222100AC
:102E1000083101A8401C02F06FF9012800D0D6E06B
:102E20006846C0799B218900605468468079491CB6
:102E3000605468464079491C6054284641490870EE
:102E4000FFF7EAF80125C2E06A280CD1012F0AD168
:102E5000012583208000205CC00700D4B7E0280053
:102E600070490870B3E0742876D1052F74DB607860
:102E7000302802D0312800D0A9E0A0782C2800D03A
:102E8000A5E0A72040002018039002222100C91CC1
:102E900002F032F9012800D099E003980078002868
:102EA00000D194E0FF205030201804906078303832
:102EB00004990870A8204000201802902846029922
:102EC0000870062F0EDB60792C280BD13800821F8A
:102ED00092B22100891DFF205230201802F00CF917
:102EE00002990870052F03D00298007800286ED050
:102EF0000398007800286AD0E02868DA04980078FF
:102F00004949087002980278FF205230211803982E
:102F1000007801F0C7FB4248205C002818D1082146
:102F20004248FFF7DFFA42480068002810D101202C
:102F30003C4948709622520021003E4802F054FB62
:102F40001FB0F0BDBD0600100D020000150200000C
:102F500001F0B7FB05003AE0612838D1022F36DBDB
:102F600060783F2817D1022F15D107A80C2100F057
:102F70004BFD31A1200002F03CF92518962080007D
:102F8000215807A802F0F2F807A9280002F031F949
:102F90002E1801251BE03D2819D1B81E0100C90FCC
:102FA000091849104A00821A11D101290FDBBA1EF3
:102FB000D2B22100891C684602F0EAF8002806D047
:102FC0000098962189006050FFF726F80125002D12
:102FD00007D0A6420BD119A1300002F00AF9361829
:102FE00005E000BF18A1300002F003F936180D20EB
:102FF0003070761C0A203070761C2000331A962020
:10300000400023529BB222000D490E4802F00AFAFA
:103010006846007901288DD1FEE700006D020000AE
:103020006E0200009D1A0010CA0400100000024049
:103030005C000010B41A00104F4B2C004F4B0000E6
:10304000D0060010004006404552524F520000008A
:10305000F1B598B00D0000246846602100F0D4FC62
:10306000AD480078002841D12546264615E0AB48FA
:103070007100401880880121B940084207D0E81942
:10308000062101F04DFA68460155641CE4B27F1C2C
:10309000102FECDB1035761CF6B2602D01DA00271C
:1030A000F6E70020611E0EE06B469B185D781E78E7
:1030B000AE4201D21D705E70521CD2B20B1A9A42FF
:1030C000F2DB401CC0B2884201DA0022F6E7694612
:1030D000602008566B461978814201DA0D460DE0F2
:1030E0005D782900814209DB9D7807E06946602010
:1030F0000856A84202D060200856451E280040B25B
:1031000019B0F0BD864980000858AE49884204D005
:103110004900884203D000207047012070470220F8
:1031200070470200914200DB08007047FFB583B092
:1031300000242646784800780028204624D10146FD
:103140001BE0049B4D005B5B012595402B420ED09C
:10315000059B85186E007519AD005B59002B06D0D4
:10316000030015005B190C9DE4B22B55641C521C26
:10317000102AE6DB1030491CC9B2602801DA0022AF
:10318000F6E72000C0B245E00090019007E000980B
:103190001030C0B200900198401CC0B2019000985D
:1031A000602833DA002507E00098290040180C99C0
:1031B000E4B20855641C6D1C102DE8DA04980199DE
:1031C0004900405A0121A9400842F4D005980099CD
:1031D00049194A0051188900471838680028EAD070
:1031E000082039560A001211090709176846007BA2
:1031F00040B202F0A3FA0028DDD00698797A0901DE
:103200004018C0680028CFD0761CD4E70D9806700F
:103210002000C0B207B0F0BD00B59BB034A1096872
:103220000278202A61D801A39B5C9F448686BCBC9F
:10323000BC86BCBC862E388642464C52565A6086A6
:103240007286767A7E8286868A8E9292200000210D
:1032500001228056FFF7FCFE010046E0A049012252
:103260008056095C41E09F4901228056095C3CE0A0
:103270009D493AE0FA21890037E0FA21C90034E09B
:103280009A4932E09A4930E08021C9012DE0FA21C3
:1032900089009848FFF78EF8FA21C900411824E008
:1032A000954922E0954920E095491EE060211CE007
:1032B00094491AE0002118E0934916E0934914E07C
:1032C0001548007800280FD102A8602100F09CFB6F
:1032D0000020019002A8009000238A4A87491846DE
:1032E000FFF724FF010000E0302108001BB000BD03
:1032F0000000000038B542680849824B0478650038
:103300002C19A4001B195B7A1B01C9181C314078C9
:1033100002F044FA31BD0000A51500107C06001033
:103320005C350000F8B5002802D0012840D0F1BD7E
:1033300000221000B34C0DE0724943001B189B00A3
:10334000C918B14B43431B190B6050230B72130078
:103350004B72401C6028EFDB6D4BAC492520085CAC
:1033600000281ED11000188258829882D8821883B3
:103370005883080064304478A24219DA007884182F
:103380002000C010000F001905002D1168001E1844
:10339000378A01202D01641BA04038433082521C23
:1033A000E7E79B48188258829882D882188358830E
:1033B000574B0622190010311B1D180002F0DDF9D1
:1033C000F1BD000090D0030080B5091F012909D983
:1033D000891E12D0491E01291AD9091F23D0133979
:1033E00023D029E0052200210023C05602F0A6F9CF
:1033F000401E8041C043C00F02BD052200210023B2
:10340000C05602F09BF9401E8041C043C00F02BD70
:10341000072200210023C05602F090F9401E80418F
:10342000C043C00F02BD002002BD0078302801DA81
:10343000002002BD012002BD002002BD80B501793F
:10344000002902D0012907D00CE0062201682B4890
:1034500002F093F9012002BD06220168284802F01B
:103460008CF9F7E7002002BDF7B50700002425001E
:103470000820385609217E56796819607978002924
:1034800026D0002801D11C6022E07968402901D3B0
:103490000125260060291BD3C906C90E012917D1B1
:1034A000694620220A704870B87A88706846FFF72B
:1034B000B3FE40B200280BD125003978002907D08F
:1034C0001349534A8A80CA800A814A818A81CA8103
:1034D00001990870029806702800FEBD00000000E7
:1034E0001C36000014360000B80B000088130000E2
:1034F0007017000018FCFFFF20441E1E80060010FD
:103500008C060010F80E00103333B1419A9909402F
:103510007C06001070B584B00D0016001C00052854
:1035200000DB0520607001202056FFF7EBFDA07046
:103530000120205609A18200895800BF63A2105CB7
:1035400002F08CF922000C3202920834019401221C
:10355000009233002A0002F09FF97FBD48E8010085
:1035600048E8010048E8010048E8010048E8010097
:1035700048E80100F2B58AB00400012026566768C9
:10358000544D68688047002801D0002038E0E07C76
:10359000002807D12078302100F0C2FF1A484143AB
:1035A0004D480F183800E9688847A07C0990012031
:1035B0000890002007900690059004900390A06862
:1035C00080B202900820019000200090012300BFEB
:1035D0003EA0825D52B2A1781846AF69B847607CC0
:1035E000002802D00BA0815D02E000BF0BA0815D2E
:1035F0000D31C9B201206A6D90470A98067001200A
:103600000BB0F0BD6035081C400D030080150010A4
:10361000FFFF000033333373DEDE000033333373D8
:10362000DEDE0000F6B58BB004000120225600BF9C
:1036300026A0805C09A90870284803001B1D2849A2
:1036400025786E007519AD004919497A09014018AD
:103650001E21415602202056FFF763FD0600A26896
:10366000616802F075F907001A4D1D4821784A007B
:10367000511889004058E96888476148089000203F
:1036800007900690059001200490002003900820E8
:1036900002900120019069462420085600900023E2
:1036A0001A4639000120EF69B847A189C9B2012043
:1036B0006A6D9047A189C9B201206A6A90470C9946
:1036C00008600B98067001200DB0F0BD0C0B0A09C4
:1036D00008070000306D0000E0F8D11D7C060010E6
:1036E000F80E0010F1B598B000252C466846602110
:1036F00000F08AF9A9480078002845D1264615E04F
:10370000A7487100401880880121B940084207D0BD
:10371000E819062100F004FF68460155641CE4B274
:103720007F1C102FECDB1035761CF6B2602D01DA11
:103730000027F6E70020611E0EE06D46AB185D78AD
:103740001E78AE4201D21D705E70521CD2B20B1AAE
:103750009A42F2DB401CC0B2884201DA0022F6E74E
:103760008F486D46297801702919491E09784170E2
:10377000022C07DB18980088401E210000F0D0FEC4
:103780006D5C1FE005781DE0189804882600300065
:10379000302100F0C5FE002914D0E00601D101253A
:1037A00010E03000182100F0BBFE002901D10225F5
:1037B00008E0200701D1032504E0600701D10425BA
:1037C00000E00525280040B219B0F0BD00B585B075
:1037D0007449009174490191694642780A720278ED
:1037E0004A7282788A72C278CA724168039180688C
:1037F0000490684602F0C1F805B000BD000000006A
:10380000B80B0000FFB59DB000252E0028006946CA
:10381000087204A8602100F0F7F8614C06222946DE
:103820002000001D01F092FF002806D15F48A08013
:10383000E08020816081A081E0815D4F2520385C9F
:10384000002842D13879800702D51F98056015E01D
:103850001D984068FCF7A5FC5649884202D31F9882
:1038600005600BE01D984068FCF79BFC52490E1A5E
:103870006420FEF79FFD30181F99086002A8019090
:1038800004A8009023001C33464A241D21001D98E3
:10389000007AFFF74BFC06002C0001E0641CE4B248
:1038A000B4420CDA04A8075D3800062100F038FEA7
:1038B0001D98082280568142F0D11E980770B442AC
:1038C00001DB1E980570012066E01D984068FCF73A
:1038D00068FC1D990968884219D320980560012366
:1038E00022001C321D98817A407A01F05CFF03901F
:1038F00002A8019004A8009023001C33294A241D2B
:1039000021001D98007AFFF711FC06000CE06846C4
:10391000007A401C694608721D984068FCF741FC1B
:103920001D990968081A0390002E29D02537387888
:10393000002809D0761E31002846FEF73BFD04A979
:10394000085C1E99087017E02C0001E0641CE4B2CA
:10395000B4420CDA04A8075D3800062100F0E0FD4F
:103960001D98082280568142F0D11E980770B442FB
:1039700002DB28001E9908701F98056001200BE0EB
:103980006846007A002804D003981F990860012037
:1039900002E01F980560284621B0F0BDA515001073
:1039A0007C060010F80E001098060010FFFF0000C3
:1039B00080150010D517000070170000881A01004C
:1039C00049B2002900D50020C0B270471206130A80
:1039D0001A43130C1A4300BF130030B4140015002F
:1039E000103902D310393CC0FCD2490700D30CC0B7
:1039F00000D504C0890002D30280801C002900D5B4
:103A0000027030BC704700000022E5E780B50C4A28
:103A1000904701BD00B58BB0322200920190029117
:103A200046E000B58BB033230093019002910392DE
:103A300004480068FA21890000F075FD049037E021
:103A4000F11FFF1FCC1A001000B58BB03620059077
:103A5000694605A8FFF7DAFF01980BB000BD10B565
:103A60008AB004003A200590694605A8FFF7CEFF0A
:103A7000002081006A46521852686250401C042897
:103A8000F7D300980AB010BD0000000000B58BB05D
:103A90003B2200BF009201900291014802E000BF6A
:103AA000CC1A00100068FA21890000F03CFD039058
:103AB00005A96846FFF7AAFF0598C0B20BB000BD84
:103AC00010B5040010220021F130FEF796FC002012
:103AD0008A2149006050F02201462000FEF78DFC4B
:103AE00010BD80B50B0002001021180000F0D8FBBB
:103AF00001BDF0B585B005000E0014008A2040001D
:103B00002858002849D010210F1AA74200D92700B1
:103B10003A0092B231002818FF239B1CC018FEF710
:103B200054FC8A2040002858C0198A214900685056
:103B3000102841D3BC423FD0002006E02918F131C3
:103B40000A780B7C53400B70401C1028F6DB2A00CF
:103B50002900F1312800F13000F023FCF619E41BB4
:103B60001BE06818F1300278735C53400370491C05
:103B70001029F6DB10222900F1316846FEF725FCFA
:103B80002A006946684600F00CFC102269462800AD
:103B9000F130FEF71AFC1036103C112C01D3002135
:103BA000E6E7220092B23100FF20801C2818FEF7C1
:103BB0000CFC8A2040002C5005B0F0BDF1B588B057
:103BC0000C00102200216846FEF717FC220069460F
:103BD000684600F0E6FB802100206A4613780B421D
:103BE00011D0030007E0D5182E7876006F78FF0912
:103BF00037432F705B1C0F2BF5DBD37B5B008725D6
:103C00005D40D5730EE0030007E0D5182E787600EE
:103C10006F78FF0937432F705B1C0F2BF5DBD37BCD
:103C20005B00D3738A235B00E358102B0CD1010097
:103C3000102956DA6318FF25AD1C5B191D78565CF8
:103C40006E401E70491CF3E713780B4211D003003D
:103C500007E0D5182E7876006F78FF0937432F706C
:103C60005B1C0F2BF5DBD37B5B0087255D40D57399
:103C70000EE0030007E0D5182E7876006F78FF0974
:103C800037432F705B1C0F2BF5DBD37B5B00D373AB
:103C90008A235B00E358E318FF25AD1C595502E069
:103CA000030061184B558A2149006158491C8A2339
:103CB0005B00E1501029F3D3010008E06318FF25F1
:103CC000AD1C5B191D78565C6E401E70491C102996
:103CD000F4DB06E02118F1310A780B7C53400B70BD
:103CE000401C1028F6DB10222100F13104A8FEF759
:103CF0006CFB2200089904A800F053FB102200215D
:103D00006846FEF77AFB09B0F0BD30B4012100220D
:103D10000368001D002B0BD00468001D0C4202D06C
:103D20004D466D1E64192260241D1B1FF0D0FAE75A
:103D300030BC70470A7802704A7842708A78827084
:103D4000CA78C2700A7902714A7942718A7982719D
:103D5000CA79C2710A7A02724A7A42728A7A827285
:103D6000CA7AC2720A7B02734A7B42738A7B82736D
:103D7000C97BC173704703E00B780370491C401C7A
:103D800013005A1EDBB2002BF6D1704702780B7875
:103D90005340037042784B785340437082788B785D
:103DA00053408370C278CB785340C37002790B794B
:103DB0005340037142794B795340437182798B7937
:103DC00053408371C279CB795340C371027A0B7A25
:103DD00053400372427A4B7A53404372827A8B7A11
:103DE00053408372C27ACB7A5340C372027B0B7BFF
:103DF00053400373427B4B7B53404373827B8B7BEB
:103E000053408373C27BC97B5140C173704710B468
:103E10000B7814785C4004704B7854785C404470A4
:103E20008B7894785C408470CB78D4785C40C47094
:103E30000B7914795C4004714B7954795C4044717E
:103E40008B7994795C408471CB79D4795C40C4716E
:103E50000B7A147A5C4004724B7A547A5C40447258
:103E60008B7A947A5C408472CB7AD47A5C40C47248
:103E70000B7B147B5C4004734B7B547B5C40447332
:103E80008B7B947B5C408473C97BD27B4A40C2733A
:103E900010BC704780B5FFF779FF01BD7F490278FC
:103EA0008A5C027002798A5C0271027A8A5C027210
:103EB000027B8A5C027342784379CB5C4370437A1D
:103EC000CB5C4371437BCB5C43728A5C42738278E8
:103ED000837ACB5C83708A5C82728279837BCB5CD1
:103EE00083718A5C8273C27BC37ACB5CC373C379F0
:103EF000CB5CC372C378CB5CC371895CC170704703
:103F00007FB5040021006846FFF714FF634800BF37
:103F100063A100BFA2A26B461D78565D5D794D5D21
:103F200075409E7A865D6E40DD7B455D75402570EF
:103F30001D78465D5D79555D75409E7A8E5D6E405B
:103F4000DD7B455D754065701D78465D5D79455D3D
:103F500075409E7A965D6E40DD7B4D5D7540A57027
:103F60001D784E5D5D79455D75409E7A865D6E403B
:103F7000DD7B555D7540E5701D79565D5D7A4D5D63
:103F800075409E7B865D6E40DD78455D7540257190
:103F90001D79465D5D7A555D75409E7B8E5D6E40F8
:103FA000DD78455D754065711D79465D5D7A455DDD
:103FB00075409E7B965D6E40DD784D5D7540A571C8
:103FC0001D794E5D5D7A455D75409E7B865D6E40D8
:103FD000DD78555D7540E5711D7A565D5D7B4D5D03
:103FE00075409E78865D6E40DD79455D7540257231
:103FF0001D7A465D5D7B555D75409E788E5D6E4099
:10400000DD79455D754065721D7A465D5D7B455D78
:1040100075409E78965D6E40DD794D5D7540A57268
:104020001D7A4E5D5D7B455D75409E78865D6E4078
:10403000DD79555D7540E5721D7B565D5D784D5DA2
:1040400075409E79865D6E40DD7A455D75402573CD
:104050001D7B465D5D78555D75409E798E5D6E4039
:10406000DD7A455D754065731D7B465D5D78455D18
:1040700075409E79965D6E40DD7A4D5D7540A57305
:104080001D7B495D5D78455D4D409979405C684098
:10409000D97A515C4140E1737FBD0000F4430000D8
:1040A000A584998D0DBDB1545003A97D1962E69A7E
:1040B000459D408715EBC90BEC67FDEABFF7965BA2
:1040C000C21CAE6A5A41024F5CF434089373533FEA
:1040D0000C52655E28A10FB509369B3D2669CD9F20
:1040E0001B9E742E2DB2EEFBF64D61CE7B3E71977A
:1040F000F568002C601FC8EDBE46D94BDED4E84AF7
:104100006B2AE516C5D75594CF100681F044BAE363
:10411000F3FEC08AADBC4804DFC17563301A0E6D72
:104120004C14352FE1A2CC3957F28247ACE72B95DE
:10413000A098D17F667EAB83CA29D33C79E21D76F5
:104140003B564E1EDB0A6CE45D6EEFA6A8A4378BCF
:10415000324359B78C64D2E0B4FA0725AF8EE91820
:10416000D5886F7224F1C751237C9C21DDDC8685C4
:104170009042C4AAD8050112A35FF9D0915827B97B
:104180003813B333BB7089A7B622922049FF787ADF
:104190008FF88017DA31C6B8C3B07711CBFCD63AA6
:1041A000C6F8EEF6FFD6DE916002CE56E7B54DECCE
:1041B0008F1F89FAEFB28EFB41B35F452353E49B17
:1041C00075E13D4C6C7EF5836851D1F9E2AB622A12
:1041D0000895469D30370A2F0E241BDFCD4E7FEA0F
:1041E000121D583436DCB45BA476B77D52DD5E1305
:1041F000A6B900C140E379B6D48D67729498B085B2
:10420000BBC54FED869A66118AE904FEA078254B5E
:10421000A25D80053F2170F16377AF4220E5FDBFCD
:10422000811826C3BE35882E9355FC7AC8BA32E66B
:10423000C0199EA344543B0B8CC76B28A7BC16AD7A
:10424000DB647414920C48B89FBD43C43931D3F277
:10425000D58B6EDA01B19C49D8ACF3CFCAF44710C4
:104260006FF04A5C38577397CBA1E83E96610D0F0B
:10427000E07C71CC9006F71CC26AAE6917993A27A8
:10428000D9EB2B22D2A907332D3C15C987AA50A5FB
:104290000359091A65D784D082295A1E7BA86D2C30
:1042A000F6B585B069460C7D2100102903D0182988
:1042B00001D0202911D1224601000698FFF75BFDAD
:1042C0006846007D1C308000C0B203900011401E83
:1042D0000699F0310870012532E000201146F031D6
:1042E0000870FF205BE0029819280DDB10290BD124
:1042F00040A0865D69466A465278825C4A706A468A
:104300001278825C0A70C75D20006946097D411AF7
:10431000C9B20698401801784E4001990E70019973
:10432000491C42786B465B7853400B7082786B4631
:104330001B7853404B70C07847408F70241DE4B207
:10434000039884422ADA069800190190001F067823
:10435000694642784A7082780A70C7786846007D5C
:1043600002902000029900F0DBF80029BBD1310057
:1043700020A06A465278825C2E0056406A466B4600
:104380001B78C35C5370C35D1370475C280040000A
:10439000ED091B214D434540EDB2B5E7002007B0C4
:1043A000F0BDF0B585B00F001400F021615C00296C
:1043B0001DD001006846FFF72AFD012506E0FFF742
:1043C0009FFD31006846FFF765FD6D1CEDB22801C9
:1043D0002618F020205C85426846F0D3FFF75EFD8A
:1043E000320069463800FFF712FD002000E0FF2090
:1043F00005B0F0BD637C777BF26B6FC53001672B36
:10440000FED7AB76CA82C97DFA5947F0ADD4A2AFC8
:104410009CA472C0B7FD9326363FF7CC34A5E5F1D6
:1044200071D8311504C723C31896059A071280E284
:10443000EB27B27509832C1A1B6E5AA0523BD6B3D8
:1044400029E32F8453D100ED20FCB15B6ACBBE3948
:104450004A4C58CFD0EFAAFB434D338545F9027F34
:10446000503C9FA851A3408F929D38F5BCB6DA21ED
:1044700010FFF3D2CD0C13EC5F974417C4A77E3D19
:10448000645D197360814FDC222A908846EEB8146F
:10449000DE5E0BDBE0323A0A4906245CC2D3AC6232
:1044A0009195E479E7C8376D8DD54EA96C56F4EA3D
:1044B000657AAE08BA78252E1CA6B4C6E8DD741F4E
:1044C0004BBD8B8A703EB5664803F60E613557B911
:1044D00086C11D9EE1F8981169D98E949B1E87E9CB
:1044E000CE5528DF8CA1890DBFE6426841992D0F7A
:1044F000B054BB16F446002804D4494200F013F827
:10450000404260474042002905D45FD000F00BF8DC
:10451000404249426047494200F005F8494260473D
:1045200003460B43E6D40022030A8B420BD2030955
:104530008B4219D243088B422ED2411A00D2014637
:10454000524110467047FF2209023FD012068B42AB
:1045500005D3121209028B4201D312120902030978
:104560008B4219D300E0090AC3098B4201D3CB0166
:10457000C01A524183098B4201D38B01C01A5241A8
:1045800043098B4201D34B01C01A524103098B42AC
:1045900001D30B01C01A5241C3088B4201D3CB0097
:1045A000C01A524183088B4201D38B00C01A52417A
:1045B00043088B4201D34B00C01A5241884200D3BA
:1045C000401A5241CFD201461046704708B5C04646
:1045D000C04608BD0121C006C00E81409B48016055
:1045E00070470121C006C00E8140994801607047A4
:1045F00010B48207920FD300FF249C40E24389014C
:10460000C9B2994003000BD592481B071B0F083B0A
:104610009B089B00C01803681A401143016007E023
:104620008D489B089B00C01803681A401143016025
:1046300010BC704710B5401E80214904884201D348
:10464000012010BD854C606003210020C043FFF7AE
:10465000CFFF0020A06007202060002010BD80490F
:104660000122824008687F4B034013430B60704770
:1046700042691207120F0A434261704742690F23D1
:10468000DB430B439A4342617047C1680069814232
:1046900001D10120704700207047AA218160552177
:1046A0008160704770B504001500002C08D0E02C24
:1046B00006DA6D4E3000001DFDF73EFE3470757059
:1046C00070BD70B586B06948406D69460880684E17
:1046D000654C02AD01A96078FDF7B4F800280BD055
:1046E0000020010029700490A88169460220FDF78E
:1046F00051FCA873707023E0A07800280FD100202F
:104700002870207828712000001D04906078A8810E
:1047100069460220FDF73EFCA873707010E001208E
:104720002870207828712000001D04906078A881EE
:104730000320E87369460220FDF72CFCA873707013
:1047400002A8FDF7FFFA002801D1012000E00020B7
:1047500006B070BD704701004878002800D070474F
:1047600038B544480200913200231370424C24783B
:10477000012C06D18C7C002C01D0802400E0402448
:10478000147014784D7C002D03D00225254315703C
:1047900002E001252543157014784D7B002D0ED0C5
:1047A00010232343137001235370CB78D3700B7BFA
:1047B00093700A7B89689530FDF7BEFD03E0937026
:1047C000202020431070FEF776F8012803D10D2039
:1047D000FDF7C4FF31BD0A20FDF7C0FF31BD10B5A4
:1047E0000178002902D0012917D023E0234C40781A
:1047F00000280CD104206075002021490870062093
:10480000FDF7ACFF0021084600F0FBFA12E008209B
:10481000FDF7A4FF012060750CE04178002909D163
:10482000164C2178002905D00121A173017AE1738A
:10483000407A207401201149087510BD002070478E
:1048400080B501F0C7F800F033FC01BD00E100E0E5
:1048500080E100E01CED00E000E400E010E000E09A
:1048600080800440FFFFEF25C80400108015001071
:1048700094190010A8140010881A0010A80600103F
:104880009D1A0010F0B58DB0FFF7DAFFFEF7BCF807
:1048900001F0A0F80020FFF7E2FEA5480068FA2129
:1048A0008900FFF740FEFFF7C5FE0020A1494875CB
:1048B000FDF78DFEFBF772FC9E498861FDF7A0FEB7
:1048C0000427A6E02000FFF7E8FEFBF767FC994904
:1048D00088616846007B00F091FE012303AA29004D
:1048E000300000F0B9FD0128ECDA9248407D002844
:1048F00007D0012836D0042879D0052800D1B5E0AA
:1049000012E18D4805908D4806908D4807908D489E
:104910000490022204A905A8FCF78CFE6D46002035
:104920002870894C6620205C28716846FDF708F8DD
:10493000022028700126300028716846FDF700F833
:10494000072028702520205C28716846FCF7F8FFB6
:104950002079C00703D538467649487559E075482F
:10496000467556E00320784C2179C90716D508A969
:1049700000220A702200521D099222000D320A9272
:1049800015340B9408746B48007D002802D008A8E9
:10499000FDF742F93846674948753AE06D46287098
:1049A00026002836306801906846FCF7C9FF3800B9
:1049B0002870706801906846FCF7C2FF05202870D7
:1049C0002000303001906846FCF7BAFF06202870BE
:1049D000403401946846FCF7B3FF0126300028708C
:1049E0002E716846FCF7ACFF5248477511E0564CF3
:1049F0006620205C022813D12079C0072BD55348AC
:104A00000078012827D101204A49487500204F49E4
:104A100008703C072000FFF740FE4D4D4D4E5CE70F
:104A20004D4800680028F4D14C48FFF72EFE0028BE
:104A300004D02800FFF729FE002803D1FBF7AEFBC6
:104A40003C4988613B488069FBF7ABFB0B2802D3EC
:104A500005203849487508214148FFF70FFE00221C
:104A60000121C9430120FDF790FDD2E7364C2079A2
:104A7000C10703D5354909780129C4D0022108406E
:104A800025D06621615C002921D136490A78012AA6
:104A90001DD10020087008213148FFF7EFFD2F4C91
:104AA000FFF70FFE002807D03B4600BF30A22100D1
:104AB000300000F0B7FC06E0072300BF2EA2210063
:104AC000300000F0AFFC38461A494875A1E7264986
:104AD0000968002907D1002805D0FDF735FD3846C3
:104AE0001449487595E71820FFF77BFD1920FFF75B
:104AF00078FD1E48C06A804719482179C90703D547
:104B00000821FFF7BBFD02E00821FFF7B1FD0322FA
:104B10002834A16A0120FDF738FD1820FFF75AFD5F
:104B20001920FFF757FD74E700200249487570E728
:104B3000CC1A0010A8060010554700005747000087
:104B4000DF4700003D480000801500109D1A00104E
:104B5000E4060010004006405C000010D006001083
:104B6000000002409E1A001044000010306D00004A
:104B70004F4B0D0A000000004552524F520D0A00E3
:104B800014490A68122313400B600021016030BFF2
:104B9000704710490A681623134004221A430A601A
:104BA0000121016030BF70470A490A68162313408B
:104BB00004221A430A600221016030BF7047054990
:104BC0000A681623134004221A430A600321016075
:104BD00030BF704710ED00E080B5012902D1FFF72A
:104BE000D8FF01BD022902D1FFF7DEFF01BD032975
:104BF00002D1FFF7E4FF01BDFFF7C2FF01BD0000D6
:104C0000504900E050490860002048600120486099
:104C10007047000000B54D480068C105C90D00BFD0
:104C200054A04A0992008058C906C90E491C49007F
:104C3000FFF779FC00BD434800688007800F04D06F
:104C4000012804D0032804D006E0414870474148B9
:104C500000E04148006870470020704780B5FFF7CA
:104C6000EAFF3E490968C906C90E491C484302BD0E
:104C700080B50020344909688907890F05D00229C9
:104C800008D004D3032908D002BD314802BDFFF784
:104C9000D2FF02BDFFF7BEFF02BDFFF7DFFF02BD7F
:104CA00080B5FFF7E5FF2E490968C9B2FFF73BFC65
:104CB00002BD38B52B4C2068C5B2002D01D10020B3
:104CC00032BDFFF7D5FF2900FFF72DFCE26DD2B210
:104CD000FF2A08D1226E010E0002D2B2A30DD21813
:104CE000002300F07FFE32BDF8B505000C00FFF791
:104CF000BFFF06002900FFF716FC010000D10121CB
:104D0000184FC8B23860002C16D017480268174BED
:104D1000134003600268164B134004221A430260DA
:104D2000FF20F8653000FFF7FEFB00022900FFF7C7
:104D3000FAFBC0B2386601E00020F865FFF7B9FF62
:104D4000F2BD000040800440708004402480044094
:104D5000001BB7006C6E0000706E000008800440FD
:104D6000788004409480044004800440FBDF01000C
:104D7000FFDF010000000000C027090090051000BF
:104D8000C05C1500F0B31A00200B2000009F240027
:104D9000E0322900C0C62D0050973100E067350091
:104DA0007038390000093D00401640008023430060
:104DB000C03046001949012282400868184B034060
:104DC00013430B60704715490A6801238340154857
:104DD000184382430A6070478900401801688022A6
:104DE000D2000A43026070470F49012282400868DE
:104DF000C001C0091043086070474901401883543E
:104E00007047002800D0704780B501234B400B222B
:104E10000021A0200006FFF7F0FF01BD80800440C4
:104E2000FFFFEF25000010DAC0C1004010B50720D9
:104E3000FFF7C0FF0020FFF7D7FF0120FFF7D4FFE7
:104E40000220FFF7D1FF0320FFF7CEFF0620FFF778
:104E5000CBFF0720FFF7C8FF0920FFF7C5FF0A2097
:104E6000FFF7C2FF0B20FFF7BFFF0C20FFF7BCFFCF
:104E70000D20FFF7B9FF0E20FFF7B6FF0F20FFF759
:104E8000B3FF1020FFF7B0FF1120FFF7ADFF122096
:104E9000FFF7AAFF1320FFF7A7FF1420FFF7A4FFD7
:104EA0001520FFF7A1FF1620FFF79EFF1720FFF741
:104EB0009BFF1820FFF798FF0720FFF784FF894822
:104EC00089490860894C11212000FFF785FF0B21DB
:104ED0002000FFF781FF04212000FFF77DFF032161
:104EE0002000FFF779FF10212000FFF775FF0F2149
:104EF0002000FFF771FF0E212000FFF76DFF0D214D
:104F00002000FFF769FF08212000FFF765FF072158
:104F10002000FFF761FF02212000FFF75DFF012164
:104F20002000FFF759FF12212000FFF755FF0A214B
:104F30002000FFF751FF09212000FFF74DFF00215E
:104F40002000FFF749FF1E212000FFF745FF1D212C
:104F50002000FFF741FF1C212000FFF73DFF1B2130
:104F60002000FFF739FF1A212000FFF735FF192134
:104F70002000FFF731FF18212000FFF72DFF172138
:104F80002000FFF729FF16212000FFF725FF15213C
:104F90002000FFF721FF14212000FFF71DFF002252
:104FA0001121200000F054FD00220B21200000F010
:104FB0004FFD00220421200000F04AFD00220321C1
:104FC000200000F045FD00221021200000F040FDEF
:104FD00000220F21200000F03BFD00220E212000C6
:104FE00000F036FD00220D21200000F031FD0022EE
:104FF0000821200000F02CFD00220721200000F0F5
:1050000027FD00220221200000F022FD00220121C4
:10501000200000F01DFD00221221200000F018FDEC
:1050200000220A21200000F013FD002209212000A7
:1050300000F00EFD00220021200000F009FD0022FA
:105040001E21200000F004FD00221D21200000F0A0
:10505000FFFC00221C21200000F0FAFC00221B2192
:10506000200000F0F5FC00221A21200000F0F0FCE6
:1050700000221921200000F0EBFC00221821200062
:1050800000F0E6FC00221721200000F0E1FC0022E5
:105090001621200000F0DCFC00221521200000F089
:1050A000D7FC00221421200000F0D2FC10BD00002B
:1050B00070B5A0252D06280000F0D4FCFFF7B6FE41
:1050C000002400BF0BA6325D012090400849086013
:1050D000012300212800FFF790FE641C012CF2DB65
:1050E00070BD0000FFFFFF1F002400A0004004402F
:1050F000802300A00B00000030B403000020D40780
:1051000014D407E01D782D012C431C70D40701D462
:105110005B1C401C1400621EA4B2002C08D000BF0F
:105120003FA40D786457491C002CEBD5002000E00B
:10513000C0B230BC7047000030B413000DE000BFB7
:1051400032A40D782D11655D0570401C0D782D077A
:105150002D0F645D0470401C491C1400621EE4B2F3
:10516000002CECD15800C0B230BC704780B56A4604
:105170000B001B0E13700B001B0C53700B001B0A53
:105180009370D17004226946FFF7D6FF082002BD54
:1051900010B40023036003E0046824012343036088
:1051A00013005A1EDBB2002B08D000BF1CA30C78E2
:1051B0001B57491C002BEFD5002000E0012010BC3C
:1051C000704730B40023521ED2B207E0CC5C8D5C35
:1051D000C55484545B1CDBB2521ED2B29342F5DB41
:1051E00030BC7047010041391A2900D22030C0B2CA
:1051F00070470200002000E0401C0B78491C13702F
:10520000521C002BF8D1C0B270470000303132334D
:1052100034353637383941424344454600000000B2
:10522000FFFFFFFFFFFFFFFFFFFFFFFFFFFFFFFF8E
:10523000FFFFFFFFFFFFFFFFFFFFFFFFFFFFFFFF7E
:10524000FFFFFFFFFFFFFFFFFFFFFFFFFFFFFFFF6E
:1052500000010203040506070809FFFFFFFFFFFF27
:10526000FF0A0B0C0D0E0FFFFFFFFFFFFFFFFFFFFD
:10527000FFFFFFFFFFFFFFFFFFFFFFFFFFFFFFFF3E
:10528000FF0A0B0C0D0E0FFFFFFFFFFFFFFFFFFFDD
:10529000FFFFFFFFFFFFFFFFFFFFFFFFFFFFFFFF1E
:1052A000FFFFFFFFFFFFFFFFFFFFFFFFFFFFFFFF0E
:1052B000FFFFFFFFFFFFFFFFFFFFFFFFFFFFFFFFFE
:1052C000FFFFFFFFFFFFFFFFFFFFFFFFFFFFFFFFEE
:1052D000FFFFFFFFFFFFFFFFFFFFFFFFFFFFFFFFDE
:1052E000FFFFFFFFFFFFFFFFFFFFFFFFFFFFFFFFCE
:1052F000FFFFFFFFFFFFFFFFFFFFFFFFFFFFFFFFBE
:10530000FFFFFFFFFFFFFFFFFFFFFFFFFFFFFFFFAD
:10531000FFFFFFFFFFFFFFFFFFFFFFFFFFFFFFFF9D
:10532000012181401E4802681E4B0B439A430260D4
:1053300002681D4B13400B4303607047C161704707
:105340004069C005C00D704701617047816817480A
:10535000084070471649884201D10E207047154910
:10536000884201D10F2070471020704710B504000B
:10537000FFF7F0FF10490122824008680F4B0340FD
:1053800013430B600A48844201D1032005E0094819
:10539000844201D1042000E00520FFF7C1FF10BDC9
:1053A000048004400020FEFFFFDF01007FFD0100BC
:1053B000004006400080064080800440FFFFEF254B
:1053C00038B504000D00FFF774FC2901FFF7ABF8B6
:1053D000401E206231BD38B504000D0007E02000FA
:1053E000FFF7AEFF69460870280000F066FB20005A
:1053F000FFF7ACFFC007F2D431BD38B504000D0093
:1054000004E0684601782000FFF798FF2000FFF7CE
:105410009DFF400705D56946280000F0B2FB002833
:10542000EFD131BDF2B5050016001F000421FFF7D2
:105430008BFF3A003100009800F058FB04000099FF
:105440002800FFF7DAFF3A1B3119009800F04EFBF5
:105450000421E9602018F2BD80B5080011001A008F
:1054600000F0A8FB02BD70B504000D001600FFF7A8
:105470006DFF40070BD531002000FFF7BEFFF0683D
:105480003169884203D104212000FFF75DFF290024
:105490002000FFF7A0FF70BD0121C006C00E8140B3
:1054A0004648016070474649012282400868454BE2
:1054B000034013430B60704741490A68012383404E
:1054C0004148184382430A6070474049086070476A
:1054D0003F49012282400868C001C00910430860AA
:1054E000704701683B4A0A4001211143016070473F
:1054F0004168394A0A4042607047C16070470161A3
:1055000070470368354A1A4011430160704770B50F
:10551000FCF78AFF0720FFF7C6FF0120FFF7D5FF42
:105520000020FFF7D5FF0021084600F08BFB042187
:10553000012000F087FB0720FFF7BEFF284D280061
:10554000FFF714FF04212800FFF7DBFF0121E12012
:105550004003FFF7C9FBE12149022800FFF730FFB4
:105560002800FFF7BEFF2800FFF7C2FF1D4C2E0DDD
:1055700033000122210028312000143000F095FA78
:10558000330001228520C0002118200000F08DFA90
:1055900001212800FFF7B1FF04212800FFF7AFFF2A
:1055A0000320FFF779FFFCF745FF70BD80B50D497B
:1055B0000A0014310A48FFF756FF01BD00E100E080
:1055C00080800440FFFFEF25000010DA9480044043
:1055D000C0C100407DDAFC000603010001DAFC00D6
:1055E00000400640D006001010B400231C000470D8
:1055F000047303814160428110BC704780B53E490D
:105600000A78002A10D0A12A29D0A22A2FD0A52AB0
:105610000CD0A62A10D0A82A13D0B12A3FD0B22A83
:105620004ED0B32A5CD005E0A5220A70FF2801D134
:10563000A6200870012002BD5528FBD1A8200870C3
:10564000F8E70200612A01D0412A02D1A1200870A6
:10565000F0E7422AEED1B1220A700873EAE70200AD
:10566000742A01D0542AE5D1A2200870E2E70D285F
:1056700005D1A3200870FDF7FFF9002002BD0A89BB
:105680004B899A4205D1A4200870FDF7F5F9002056
:1056900002BD4B6898540889401C0881CAE7020083
:1056A0004B89934205D2B5200870FDF7E5F900203B
:1056B00002BD4A810A7B50400873B2200870B9E7E6
:1056C0004A680B89D0540A89521C0A810B7B5840C6
:1056D0000873488992B28242ACD1B3200870A9E71E
:1056E0000A7B504002D0B520087001E0B420087059
:1056F000FDF7C2F9002002BDB41A001030B4020058
:105700000023180008E001249C4025001540A54214
:1057100000D1401C5B1CDBB28B42F4DBC0B230BC5E
:1057200070475A49884201D26420704758498842DC
:1057300002D2FA208000704756487047884203DB47
:10574000824201DB0120704700207047F8B5040059
:1057500016000020002C0FD00D000AE007001021D9
:105760006800205AFFF7CAFF010038004018C0B295
:105770006D1CEDB2B542F1D3F2BD002800D17047E7
:1057800030B4002908D0002304E05C000D5B055311
:105790005B1CDBB29342F8DB30BC704700288A60A8
:1057A00000D14A607047FFB581B00024E443002770
:1057B0003E0003E03C00EF60761CF6B26846007CD9
:1057C000864248DA03983101451868460079002876
:1057D0006846007A26D1002804D0A868FAF7E1FCD0
:1057E000009000E000976868FAF7DBFC00998142BE
:1057F00003D26868FAF7D5FC08E06846007A00280A
:1058000003D0A868FAF7CDFC00E03800E9688842C8
:1058100000D3EF60E9680029CED0081AA042CBD2AD
:105820000400C9E70028C5D0A868FAF7BAFCE968FF
:10583000884200D3EF60E8680028BDD0A868FAF776
:10584000B0FCE968081AA042B6D2A868FAF7A9FC29
:10585000E9680C1AB0E7200005B0F0BD70B50E0085
:1058600001218140080000F0FFF904000D00300024
:1058700000F004FA02000B002000290000F00EFAEC
:105880000022304B00F06BFA70BD000080EE360055
:10589000803F5C0210270000FBB514001D00600073
:1058A000083800F0E1F96A460CCA00F058FA060020
:1058B0000F00680000F0E2F932003B0000F011FB3D
:1058C0006A460CCA00F0EAF906000F0000F0E4FB9B
:1058D00000F020FC844206D23000390000F0DCFBEE
:1058E00000F018FC00E02000099E306068460CC8FB
:1058F0000020154900F033FA04000D00306800F074
:10590000BDF96A460CCA00F02AFA00220F4B00F0DB
:1059100026FA02000B002000290000F045FB0400DD
:105920000D00089800F0AAF902000B0020002900E1
:1059300000F03AFB00F0B0FB00F0DAFB0A990860D7
:10594000F7BD000000408F40000010400000E03F25
:1059500038B50C001500400000F0F4FB01002000F9
:1059600000F032FC290000F02FFC00F085FC00F074
:105970009DFC00F0BDFB40B232BDF8B504002068CC
:10598000E17A4A00511889004018407A070160689E
:10599000C01905880026C660607A00280FD1E0682B
:1059A000FFF7BFFEA84200D30500A07A002809D166
:1059B000207A002806D16068C019C660F1BDA07ABF
:1059C0000028F8D020694543281A6168C919C860C1
:1059D000F1BD000080B5FFF763F90149086001BD22
:1059E000CC1A0010124224D0994228D970B5002553
:1059F0001B4202D00C00002109E0002401264918B6
:105A00006441944200D3A41A7641F8D331000126B0
:105A100001E0764109D2001864416D41A41A9D410C
:105A2000F7D2A4185D41B619F5D3300022002B003F
:105A300070BD1B42D8D108B5C046C04608BD01D1D3
:105A40009042D3D202000B000021002070470000DA
:105A500089004018016818239943D2000A43026064
:105A60007047000003480168034A0A40402111437F
:105A70000160704780800440FFFFEF25C168006926
:105A8000081A704710B50400FFF7F8FF61688842F4
:105A900001DB012010BD002010BDC16800698142FA
:105AA00001D101207047002070470160436082608F
:105AB00000210161C1600120704770B504000E0033
:105AC0002568FFF7DFFF002801D0002070BDA26825
:105AD0003100E06863685B1E03405343E818FCF73D
:105AE0002BFCE068401CE060012070BDF2B582B084
:105AF00004001500206801902000FFF7C3FF002874
:105B000001D00020FEBD2000FFF7B8FF0100606853
:105B1000411A0E00421EE36817001F4000971A400A
:105B20009219824201D3009A861A881BAE4200DD88
