:10000000E01E0010CD020000BD0100001B500000EA
:100010000000000000000000000000007B8CFFEFEB
:10002000000000000000000000000000235200005B
:100030000000000000000000775500002B010000C8
:10004000DF020000DF020000000000002D5A000067
:10005000DF020000DF02000000000000DF020000FD
:10006000DF020000DF020000DF020000DF0200000C
:1000700073300000DF020000DF020000F52F0000F7
:10008000DF020000DF020000DF020000DF020000EC
:10009000DF020000DF020000DF02000000000000BD
:1000A000617C0000B37D0000DF020000DF02000081
:1000B000DF020000DF020000DF020000DF020000BC
:1000C00000220260426013000372C1600261704747
:1000D000F8B50400384D6E68370002F0BDFE002C04
:1000E0000DD0606800280AD0206029684018206080
:1000F00001202072200000F03DF8002802D002F01C
:10010000B1FEF1BD002020616868002803D16C6059
:1001100002F0A8FEF1BD366901E037003669002E15
:10012000FBD13C6102F09EFEF1BD38B5224C656802
:1001300002F092FE2068401C20600DE0287A002822
:1001400009D028682168884205D100202872E86813
:10015000010000D080472D69002DEFD102F082FE12
:1001600031BD10B5040002F077FE0020207202F0CD
:1001700079FE10BD1049496800E00969002903D0E3
:100180008142FAD1012070470020704738B5050040
:100190000C00FFF7E6FF2C606C6031BD064800687C
:1001A000704705490968814204D20022D243101ADF
:1001B00040187047081A7047C81A0010FEE7000080
:1001C00080B50C4A904701BD00B58BB03222009239
:1001D0000190029146E000B58BB03323009301906B
:1001E0000291039204480068FA21890004F0C1F9E1
:1001F000049037E0F11FFF1FD01A001000B58BB03C
:1002000036200590694605A8FFF7DAFF01980BB084
:1002100000BD10B58AB004003A200590694605A8D3
:10022000FFF7CEFF002081006A46521852686250E4
:10023000401C0428F7D300980AB010BD000000004D
:1002400000B58BB03B2200BF0092019002910148A3
:1002500002E000BFD01A00100068FA21890004F003
:1002600088F9039005A96846FFF7AAFF0598C0B270
:100270000BB000BD012212060118CA420AD28A42FE
:100280000DD83822120609098918C20FD207114366
:100290004007704700D049080909014301E0C10F38
:1002A000C90700207047000080B504F007FF01492E
:1002B000086001BDD01A0010890040180168182399
:1002C0009943D2000A43026070470000014880470A
:1002D00001480047B56F00009F6F0000FEE7FEE792
:0402FC00FFFFFFFF02
:10030000FEB5FFF74BFF0600454C607B022803D08B
:100310004448C06A804701E000F0C1FD424D687D5D
:1003200000282ED09C2040002718616E3800FFF76F
:100330002DFF3800FFF7CCFE607B022809D0A620F5
:1003400040002718A16E3800FFF720FF3800FFF7A4
:10035000BFFE607B022802D0A07C002823D01220A0
:1003600069460870207B01F0C5FDB021490067187F
:10037000A16E09183800FFF709FF3800FFF7A8FE43
:1003800011E0002029494870042060702020205C82
:10039000002802D10120202160542020205C10215F
:1003A0000143202021542020205C000705D520781F
:1003B000411E8941C90F297601E000202876207E60
:1003C000607601A90870207C48700296207B01F0BD
:1003D0009CFD2665A07C002805D1002013494870AB
:1003E000E07D401CE075F7BD10B50D4CE06D40217F
:1003F0000143E165A07C002801D000F07BFD2020B6
:10040000205C1221014320202154F03024180121C6
:100410002000FFF7BBFE2000FFF75AFE10BD0000D2
:1004200000000010806E0000380500108C1A0010CB
:10043000FBB592B000273800694608730997049706
:100440003D007F4E300070300C90300080300190C5
:100450000F9038004873C8737A4908717A4CE2816A
:1004600014A800782074F07F607438006080607198
:10047000A760A081A074676120707448C06A80473B
:10048000A62040003018FFF76CFE129800786946ED
:10049000087068460078400908756846007D0128A4
:1004A00009D0032800D1ABE0052800D1A8E0072837
:1004B00000D173E289E2307C002800D0BBE0644DBB
:1004C0002B005B1C726B13A80088411E89B2129826
:1004D000401C01F079FE68460078287009AB726B09
:1004E00013A80088011F89B2280001F046FE13A856
:1004F00000882818001F0178427812020A43817888
:1005000009041143C078000608430999884274D150
:100510000198009033007033B28C2900491C706B35
:1005200001F074FE2879697909020143A879000471
:100530000843B063E879297A09020143687A000424
:100540000843A97A09060143F163424C102201993C
:100550002000403001F0BAFE10223100703120003E
:10056000303001F0B3FEF06BE062B06BA062707FE0
:1005700060652079FE210140022008432071694610
:100580005020085602F078FB02F0CDFBE87A324C9E
:10059000210010310091010009094907490F009A13
:1005A00051740F210A00024000980276287B014016
:1005B0000098016000980068002802D1012000998D
:1005C0000860FA208000009909684143009A116090
:1005D0000818009948600D35109513A80088113847
:1005E00010A90871307B01F0ABFC777001203074EA
:1005F0000098293000786070EBE107207070E8E126
:100600001648407F07A988702079487009206946FC
:100610000877F07B002801D00A20087707A9307BF3
:1006200001F068FC13A909880D3909B2002900D529
:100630003900884214D201206070FFF7D5FED7E15F
:10064000000000108C1A0010741A0010806E000058
:10065000B017001088140010B0190010C019001055
:10066000129841788078000208431299C9780904E9
:10067000014312980079000608430890F16B884204
:100680001BD0356C00E0AD6A002D0DD02968884282
:10069000F9D10120694648732800001D0C902800FC
:1006A00014300F90686A04906846407B002806D199
:1006B0000B206070FFF798FE9AE1B06C04901298DE
:1006C00040790BA908700F210BA8007801406846FB
:1006D000817308460830C0B20690129813A90988A1
:1006E0004018001F027841780902114382781204F1
:1006F0000A43C078000610430E9012988079129930
:10070000C979090201430498081A80B20A9013A813
:100710000088001F6946C8820A9880210902884221
:1007200004980A9916DA4018049009A802900498CF
:10073000019001200090089B0C9A6846C18A12988B
:1007400001F06CFC0E98099988421FD1012069467E
:10075000C8731BE009B240188021490240180D906F
:1007600009A802900D98019001200090089B0C9A16
:100770006846C18A129801F051FC0E980999884286
:1007800004D101206946C8730D9804901120694670
:10079000087707A9307B01F0ADFB0A99814206D3A7
:1007A0000A20607004986061FFF71EFE20E1684631
:1007B000C07B002800D1ECE069465020085602F0CA
:1007C0005BFA380060706846407BA0700BA8007828
:1007D0000100C906C90F6171A76038002073049831
:1007E00060613800A6494870F764B0756846407B80
:1007F00001280AD102202070686A0499884201D138
:10080000002828D10846686211E06846007D052866
:1008100018D10120F0742070B06C0499884204D182
:10082000002802D00120694608730498B0649448F7
:100830000078012816D10BA80078800614D538005E
:10084000707511E03800F0742070B06C0499884223
:10085000EBD10028E9D00820607004986061FFF7B0
:10086000C3FDC5E03800707513A80088001F069905
:10087000401A012857DB1298405C491CC9B2069106
:1008800013A90988091F069A891A6A465173E070EC
:1008900000286846807B1FD1002819D19D4D029504
:1008A0000498019001200090089B0C9A6846417BB7
:1008B0008C46129906980818614601F053FC14A85A
:1008C00003786846427B3946280000F0DEFB36E0BC
:1008D00001206946087332E0002808D014A8037884
:1008E0000698421ED2B20821129800F0CEFB894D24
:1008F00002950498019001200090089B0F9A684689
:10090000417B8C46129906980818614601F02AFC32
:100910006846007B002812D1A5606846407B2073A2
:10092000012060730BE06846807B002807D014A884
:1009300003780A46D2B20821129800F0A6FB684656
:10094000007B002818D10BA80078800609D501206B
:100950004B490871A074B02040003018FFF701FC2B
:100960000AE047480771B07EF17E884204D2B02089
:1009700040003018FFF7F5FB2020305CFB210140E0
:100980006846007B80000843022101432020315447
:100990001FE00C206070FFF727FD29E05D4D13A8D4
:1009A00002881299491C280002F027FA03202070BF
:1009B0006770A56013A80088401E20732020305C5B
:1009C000022101432020315403E001206070FFF731
:1009D0000BFD2020305C1021014320203154F030E9
:1009E000341801212000FFF7D1FB2000FFF770FB36
:1009F00015B0F0BD10B5484C607B022803D04748C5
:100A0000C06A804701E000F04AFA02200100444A2F
:100A1000517060702020205C10210143203421702F
:100A200010BD10B53C4C607B022803D03B48C06A27
:100A3000804701E000F033FAA07CE17F002912D169
:100A40000521002801D0364841706170206DFFF704
:100A5000A8FBA16E884212D32020205C1021014304
:100A60002034217010BD0621002801D02C4841708F
:100A700061702020205C102101432034217010BDC2
:100A80008C1A001010B5244C607B022803D0234838
:100A9000C06A804704E001202249087000F0FFF995
:100AA000A07CE17F002912D10321002801D01C483D
:100AB00041706170206DFFF774FBA16E884228D3EE
:100AC0002020205C102101432034217010BD00281B
:100AD00003D004201249487010E0207C00280DD07B
:100AE00002F02AFC012802D102F01FFC06E0BD48FA
:100AF0000021017081700A2002F06EFB04206070FA
:100B0000607B022805D02020205C10210143203486
:100B1000217010BDB017001000000010806E0000A2
:100B20008C1A0010BD050010F0B585B0002420001F
:100B300069460872C44D8820400028180190FFF7CC
:100B400010FB2020285C0127010009093A0011420E
:100B500000D1F3E0E96D4A0602D541229143E965EF
:100B600009210140B94E13D07278022A02D06A7866
:100B7000022A0DD1EA6D3B469A43EA6522006A7566
:100B8000EA7E727122003271B4603A006B461A72CA
:100B9000AA7C6B461B7A13431FD100291DD001008C
:100BA000C9083A0011425FD0297800295CD1697FD9
:100BB000A9726A78002A07D16C642000E875E86D94
:100BC00039468843E86508E0AA7F914266D2EF2162
:100BD00001402020295400F007F92020285C40081B
:100BE0003900084215D03079002803D1A87EE97E6B
:100BF00088420ED220002877A874307D002802D1C8
:100C0000686C401C6864E87E7071E86D3946884302
:100C1000E865287F002800D190E05C20285CC006B1
:100C200000D58BE020002877E87EA97E88426AD232
:100C3000092868DA401CE876BB490978002932D0D7
:100C4000C0073ED503A820210170BE492C228A5C32
:100C50008270491C00910978417003A9287B01F03A
:100C600049F9009908702CE002005208390011403F
:100C7000EA7DB54BDB7F9A4201D20029A7D000293B
:100C800004D120006875E86C401CE8642000E87519
:100C9000307D002802D1686C401C6864E86D3946DC
:100CA0008843E86599E7A749491C00910846002157
:100CB0004056B64909780200914202DA401E009976
:100CC000087000F005FA002806D12020285CEF21EA
:100CD00001402020295431E00920707020006875FF
:100CE000E86D39468843E8652000A8743471E87ED1
:100CF000707194484078B070307D00281ED1686CC7
:100D0000401C68641AE03946287B01F006F9E86D5A
:100D100039468843E86520006875A8743071E87E1C
:100D20007071307D002802D1686C401C68642D48C9
:100D30002100017084700A2002F04EFAE86D8107EC
:100D400002D502218843E865E86D002825D12020DE
:100D5000285C3900084209D03C48296E0968884758
:100D60002020285CFE210140202029542020285CDE
:100D7000C0083900084209D02800296E89688847D0
:100D80002020285CF7210140202029542020285CC5
:100D9000EF2101402020295407E0FA218900019821
:100DA000FFF7F4F90198FFF793F92020285C400839
:100DB0003900084213D0687B022801D100F06FF897
:100DC0002020285C8008384203D1BB48296E49683E
:100DD00088472020285CF92101402035297005B082
:100DE000F0BD0000411400101FB5174C92204000C8
:100DF0002018FFF7B6F9E06D10218843E065202048
:100E0000205C00071CD52078002819D100F008FAD2
:100E1000607F401C6946888001A9207B01F0D0F8E2
:100E200048494870002069460873607CC001087218
:100E3000002000900346024602A903A800F03EFAF3
:100E400000F046F91FBD0000000000108C1A0010D1
:100E500070B59A4D9C2040002818FFF782F90020B9
:100E6000E877974C297E217036490E000C36727D4A
:100E7000E2702D3109782174E97B61746082687BAE
:100E8000022802D18F48006B80478F4A2100287BBF
:100E900001F07FF83168A07C00F048F870BD70B5B3
:100EA000864DA62040002818FFF75BF9874C287E66
:100EB0002070244806000C36B16961602D3000783E
:100EC0002074E87B60740120E074697B022902D001
:100ED0000020A07400E0A0747B4A2100287B01F070
:100EE00058F8002805D03168A07C00F01FF8E07C9D
:100EF000E87770BD10B5714CB02040002018FFF7A6
:100F000030F9A07C002805D001202077E06D042175
:100F10008843E065607B022805D12020205C1021F9
:100F200001432034217010BDAD14001080B5654A16
:100F3000526B002802D10800904701BD0020904765
:100F400001BD0000B0190010B119001038B504003F
:100F500015006846B14A127882704170092101700B
:100F6000564AD17B002901D00A2101706946107BC5
:100F700000F0C0FF611980B289B2884203D3FF2913
:100F800001DC012032BD002032BD000075050010DB
:100F9000F4B401242200494D8023AE7D9F1BFFB293
:100FA00003009B1E082B3FD801A6F65CB74400BF88
:100FB0004A404A400A404A4A5E006B7D1E00BF1EFE
:100FC000BE420FDAB74A062090555B1C6B75DBB248
:100FD000D1545B1C6B7568460078DBB2D0545B1C47
:100FE0006B750022002A00D12C751000F2BC7047EE
:100FF0006B7D7F1EBB42F5DA0CE06B7D1E00BE42AE
:10100000F0DAA84988555B1C6B750022EAE76B7D16
:10101000BB42E7DAA34AD0545B1C6B75DBB2D154F8
:101020005B1C6B750022DDE70220DFE770B4030074
:1010300000242000002B26D0002A02D123E0641CCB
:10104000641CE4B28C421DD21D5D2E00032EF6D02E
:10105000052E07D0062E13D0072EF0D0082E0BD069
:101060000A2EEDD1C0B21554641C401CE4B21D5DC3
:10107000C0B21554401CE3E7C0B21554401CDFE772
:10108000A41CDDE7C0B270BC704770477CB50B4C48
:10109000657CED016E463571009313000A0001A9CD
:1010A00000F00CF9002806D17F4800218180616C96
:1010B000C16000F00DF876BD741A00100000001039
:1010C00038050010806E0000781A0010A41A001075
:1010D000F0B587B000200290744EB17DFF2901D198
:1010E00009207AE0724C002900D16065607E00F032
:1010F00076F8606D03906F4D03AF68783872F07DBD
:10110000B872207C7872206D049004E0019811215F
:101110004056687038722800283001902000543002
:10112000009002AB2200183203A9207B00F059FF87
:101130000028EBD02F003F1D7B7F5BB201202A5699
:1011400001984179207B00F059FF00963B683A797D
:10115000010049B2207B00F011FF574800903B6826
:101160003A790198017849B2207B00F007FF207C92
:10117000002809D17869F16840186066B8694E495D
:10118000C9684018A06612E0627D01202956307DB2
:10119000FFF7DCFE002801D108201EE0F868F168A6
:1011A0004018606638694449C9684018A0660298CA
:1011B000002803D1207E00F0EBF90EE0E06D102155
:1011C0000143E16592204000241802992000FEF7B7
:1011D000DDFF2000FEF77CFF002007B0F0BD70B5FA
:1011E00084B0334C6D46217C2970304EF17DA9705E
:1011F000E870A06DFEF7D5FF0190E06E0290307EA2
:1012000068706946207B00F0E4FEE06E616D228D1F
:1012100042438918081A60657FBD0000DC19001080
:1012200030B40023224C180020746364A364E36488
:10123000E07501200100A176E176190021771B49B4
:101240001A008A75020022851A006275A275487517
:10125000184D3820285C28703920285C6870592087
:10126000285C21216854E86D296E2A00243203C2CB
:101270006420285C2C2168546520285C2D2168544A
:10128000A86E2863E86E6863180060822075206C81
:1012900001E04362806A0028FBD11800208330BC43
:1012A00070470000301900108C1A0010380500102B
:1012B00000000010B0190010A41A0010F2B588B098
:1012C00000210391049369460A71AD4C0021E18429
:1012D000A1740E99002B00D10021AA4F3975AA499B
:1012E00025228A5C002A09D10578E3222A4066314A
:1012F000097889001C250D4015430570A34D017820
:1013000029700078400907D002284AD0042846D026
:10131000072800D122E131E10120E0840822216B7D
:101320002800401C01F074FDE08C0830E0840822A5
:10133000E16A80B2281801F06BFDE08C0830E0848F
:10134000B94840698047A084E08CA18C0A002A54E7
:10135000401CE084090A80B22954401CE08403AB9D
:10136000626BC1B2280000F008FFE08C0399295499
:10137000401CE0840399090A80B22954401CE0848F
:101380000399090C80B22954401CE0840399090E8A
:1013900080B22954401CE084002009B0F0BD012037
:1013A000A074207C002801D10720F6E705A80121C0
:1013B000017008990978C9094A1E9241D243D20F97
:1013C0004270E16C0691994A51780172117841722C
:1013D0002C21515C817220004C3000901300521C73
:1013E00005A9207B00F0BDFD08990978BF220A40BD
:1013F0008001104308990870E07C002807D0002085
:10140000E074089800782021014308980170E06B8F
:1014100001006970090AA9700100090CE970000E49
:101420002871089800786871606C0100A971000A41
:10143000E8710826200090300090A27D01467C488B
:10144000637DC01801F0D9FC607DA17D41186175F4
:10145000049800281FD0387D00281CD0207D00284B
:1014600025D0C9B210291CDA08980278F020104063
:1014700052181207120F0243089802706A71002076
:101480000A0080B2904212D2694A125CF6B2AA55A2
:10149000761C401CF4E7C9B2002908D0207D002842
:1014A00005D039756248049000206A46107100200A
:1014B0002075009AC9B25E48FFF7B8FDA0750028F4
:1014C00001D0012020750498002826D0387D0028FE
:1014D00023D068460079F6B2A855761CF6B2A81952
:1014E000E36B616C6A461279002A0CD100226275A6
:1014F000029001911046009022007032397D0498CC
:1015000000F0D1FD09E0029001910020009022003E
:101510008032397D049800F0C6FDF6B2387D31186E
:10152000E18403A80290606C019000200090E36BBE
:101530002200703289B2280000F070FDE08C29187A
:10154000039A0A70039A120A4A70039A120C8A705C
:10155000039A120ECA70001DE0841DE7002B00D113
:101560001AE73A7D002A00D116E719006D1C280001
:1015700001F043FC387D401CE0840DE702200CE7BD
:10158000000000103805001088140010B01600107C
:10159000F0B585B0002769460F7001A90870234E89
:1015A0007078487030788870306B0290706B039060
:1015B000204CE08C888123006C336A46207B00F04D
:1015C000F3FC0125280060701B48290041707178E8
:1015D000817069460978C170E16E81606160882020
:1015E00040002618FA2189003000FEF7CFFD3000B8
:1015F000FEF76EFD207C002802D1607F401C6077E2
:101600009548077095480770FEF7C8FD9449086033
:10161000E18CC9B29348944A926A9047E06D0543C1
:10162000E565384605B0F0BD806E0000B0190010C9
:1016300030190010000000108C1A0010F2B582B0B2
:1016400005001600002D08D02868002805D068681D
:10165000002802D0A868002801D10320FEBD300078
:1016600000F042FC002801D10A20FEBDB14C2566E5
:10167000B14F0298B8632673002001002022A154C4
:101680006173E06561770121A1770100E173206555
:1016900060650B2069460870207B00F02BFC401E23
:1016A0008041C043C00FF875082069460870207B50
:1016B00000F020FC9E4D2E00383630700520694623
:1016C0000870207B00F016FC70700C2069460870D2
:1016D000207B00F00FFCF0600D2069460870207B35
:1016E00000F008FC30610E2069460870207B00F095
:1016F00001FC70610F2069460870207B00F0FAFB46
:10170000B061102069460870207B00F0F3FBF061A7
:10171000132069460870207B00F0ECFB290058314B
:1017200001914870142069460870207B00F0E2FBAC
:1017300001994860152069460870207B00F0DAFBAB
:10174000019908721A2069460870207B00F0D2FBCC
:10175000019908731B2069460870207B00F0CAFBC2
:10176000019948731C2069460870207B00F0C2FB79
:10177000019908611D2069460870207B00F0BAFBC2
:10178000019948610021207B00F0C7FB01200199ED
:10179000087032207060062131722D1D28600846C5
:1017A0002871F068A8603069E86070692861B069E4
:1017B0006861F069A861019800782877FFF730FD2B
:1017C0008820400025185D492800FEF779FCFA21A1
:1017D00089002800FEF7DAFC5949922040002018C1
:1017E000FEF76EFC57499C2040002018FEF768FC6D
:1017F0005549A62040002018FEF762FC5349B0204E
:1018000040002018FEF75CFCFEF7C8FCA0655048BD
:10181000F861504878625048F86250483862504841
:10182000B862114D1C373800296888474D48417906
:10183000827912020A43C17909041143007A000631
:10184000084301F0CCFA0120A073A96D8847E86A2B
:1018500080470020FEBD000076050010BD05001089
:10186000C4050010B0160010806E0000F1B586B0FF
:101870000F002F4D3920285C694648713820285CBC
:101880008871394C6846617DA27D89180171002FED
:1018900001D103204AE0002603A831000170617CD9
:1018A0004170E16C049169780172297841722C21B0
:1018B000695C817220004C30009001AB9B1C01AA36
:1018C000521C03A9207B00F04CFB02A82C35297880
:1018D000817069464979417009210170E17B0029D5
:1018E00001D00A21017002A9207B00F003FB78706F
:1018F000787869460979884204D369460979401A9B
:10190000387005E038703000694608716075A6755A
:10191000684602796946052009566846007EFFF749
:1019200015FB002801D1082000E0304607B0F0BDCB
:10193000B01900100000001038050010290B00003D
:10194000E90D0000510E00009F0E0000F50E000092
:101950000103000031040000230A0000F509000023
:10196000850A00008814001000000010F0B585B052
:10197000040000200600002C01D103204BE1A74DFC
:101980005C21695CC90701D5012044E121781D294A
:1019900000D93EE101A24900525A97443A0058004A
:1019A0005E0064006A00700086009C00A80074025B
:1019B000AE00360178015E018E01A201AA01B201DA
:1019C000BA01C201CA01EA012A020A024A0250020D
:1019D0007402560260026C0221796973002902D0F8
:1019E000022904D016E18E48C06A804712E1A8742B
:1019F000FFF755FA0EE1207928740BE1207968741D
:101A000008E16068A86305E16068E86302E1616875
:101A1000002905D010227035280001F0EEF9F9E018
:101A20000326F7E06168002905D0102280352800E0
:101A300001F0E3F9EEE00326ECE02079A8737849A1
:101A4000896D8847E6E02079E873E3E001AF207A0A
:101A50003870744800787870062201A9287B00F05D
:101A600064FA002834D0241D03CC6F4A03C2687B7B
:101A7000022800D0CEE0287C002800D1CAE06B4CC0
:101A800000946B484368027A6A48017849B2287B1F
:101A900000F074FA287E20706548406A60606148F2
:101AA00000782074E87B60740120E074A074624ABE
:101AB0002100287B00F06DFA002807D05C48C1683F
:101AC000A07CFFF733FAE07CE877A3E00326A1E0EF
:101AD00003269FE001AF207A387052480078787072
:101AE000062201A9287B00F020FA002804D0241D3A
:101AF00003CC524A03C28DE003268BE0606802905B
:101B0000012002A90871287B00F022FA002800D0E9
:101B100080E003267EE06168029102A90871287BBB
:101B200000F016FA002875D1032673E0207900280A
:101B300004D0102802DA424908706BE0032669E0FD
:101B400060683B49C86065E060683949086161E0E8
:101B50006068374948615DE060683549886159E0EF
:101B600060683349C86155E001AF207938700522BB
:101B700001A9287B00F0D9F9002803D038787849EA
:101B8000087047E0032645E001AF20793870042251
:101B900001A9287B00F0C9F9002803D0387824492E
:101BA000487037E0032635E001AF2079387008220D
:101BB00001A9287B00F0B9F9002803D038786949D9
:101BC000087027E0032625E001AF2079387007224E
:101BD00001A9287B00F0A9F9002803D0387814491E
:101BE000087017E0032615E06068686412E060681A
:101BF000A8640FE060680E49C86348600AE0207975
:101C0000594908700A49087204E060680849486345
:101C100000E00226300005B0F0BD0000000000101A
:101C2000806E0000DD190010D4190010A41A0010F5
:101C3000B0190010D8190010781A00100C1A0010F2
:101C4000D0190010F0B585B005000226002D22D075
:101C50000127464CE06D38400FD10C2200212000B6
:101C600001F0E3F867702878002802D001285BD0E3
:101C700068E05C20205CC00601D538466DE06868ED
:101C8000002808D0A868002805D0E868002802D0FD
:101C9000287C002801D103205FE0694608711E22DC
:101CA00001A9207B00F041F9002806D11F206946D8
:101CB0000870207B00F01EF9287486480078002800
:101CC00006D11F2069460870207B00F013F92874A4
:101CD0002020205C082101432020215428782070F6
:101CE0006868E062A8682063E8686063287CA07781
:101CF00000200100617769460873FFF791FA607F61
:101D0000401C6946088102A9207B00F059F97249FC
:101D1000487000231A46114603A8FFF7B7F90600DA
:101D2000052001F059FA0DE02020205C0821014334
:101D30002020215428782070002211463046FFF7D9
:101D400027F90600002E07D00020A0742020205C78
:101D5000F721014020342170300005B0F0BD0000B3
:101D6000E9190010E8190010F01900100000001027
:101D7000F0B585B007000220694648700020087061
:101D80000446002F00D19AE0514D5C20285C1121BF
:101D9000014001D0012098E02046694608714F4873
:101DA0002521415C002906D16630007880001C2185
:101DB00001406846017114222146494801F035F876
:101DC000012047494870E8763878002804D0012877
:101DD00017D003282AD039E001242046A876684687
:101DE0000079C006C00E4021014368460171387970
:101DF00069460870B8680290B88948800E203E563F
:101E000024E00124F87BA87668460079C006C00E5D
:101E10008021014368460171387969460870B868C5
:101E20000290B88948800E203E560FE001242046DB
:101E3000A87668460079E021014368460171786818
:101E400002903889694648800A203E5604A801213C
:101E5000017024490978817004A9287B00F04AF8B0
:101E600076B2B04200D30600002C2CD0687C00284B
:101E70000ED103AC26701B480078A070042203A981
:101E8000287B00F052F8002819D0207812494870B9
:101E900068464388029A017801A8FFF7F7F8694677
:101EA00048706846407800280BD138780C49087093
:101EB0002020285C012101432035297003E0032004
:101EC00003E00020A8746846407805B0F0BD00002B
:101ED00000000010AD140010B0190010881400109C
:101EE0008C1A0010DC190010022801D10120704763
:101EF0000020704780B5C0B2022803D1080000F06E
:101F0000E3FA02BD44A0006802BD022800D0704779
:101F100080B5080000F046FB01BD022800D07047E4
:101F200080B5080000F056FB01BD80B50B00110024
:101F3000022803D1180000F09FFB02BD002002BD63
:101F4000022800D0704780B50800C046C04601BDD9
:101F500080B5022803D1080000F0C8FB02BD0020B4
:101F600002BD10B50400080011001A00022C03D1B4
:101F7000029B00F0D1FB10BD002010BD10B5040085
:101F8000080011001A00022C02D1029B00F01AFC7A
:101F900010BD80B50B001100022803D1180000F01D
:101FA00041FC02BD002002BD10B504000800110074
:101FB0001A00022C02D100F08DFC10BD002010BDD3
:101FC00080B5022803D1080000F0E4FC02BD002027
:101FD00002BD022800D0704780B5080000F04EFD19
:101FE00001BD10B50400080011001A00022C03D135
:101FF000029B00F05FFD10BD002010BD10B5040075
:10200000080011001A00022C02D100F02DFE10BDB4
:102010000800C0B210BD000000000000F8B50600C6
:102020000D0017009D4C069860711800A071000A01
:10203000E0711800000C20721800000E6072079802
:102040000100A172090AE1720100090C2173000E5E
:1020500060732800E0732000203001F037FD390064
:102060002000203001F043FD10222100200020300C
:1020700001F045FDEAB231002000203001F03FFDC3
:10208000210020312000103001F09EFDE07C000690
:10209000A17C09040143607C00020843217C0143C8
:1020A00008980160F1BDFDB50F00002601257C4CAC
:1020B000F02231462000203000F0B7FE220020320E
:1020C0001021019802F0F2F8089860710298A0714E
:1020D0000298000AE0710298000C20720298000E2B
:1020E000607209980100A172090AE1720100090CED
:1020F0002173000E60730DE07018009A135C621873
:10210000127C5A400A9B1A54491C1029F4DB103FD8
:102110001036F6B2BFB2102F0BDB2800E0736D1C37
:102120002200203221001031200002F040F900216D
:10213000EBE7002F15D0E57322002032210010318B
:10214000200002F034F9002109E07018009A125CB6
:1021500063181B7C53400A9A1354491C89B2B94234
:10216000F3DBF7BD10B584B0089C0294079C019482
:10217000069C0094FFF797FF1FBDF8B506000D0001
:102180001700464C2000203001F0A0FC3900200050
:10219000203001F0ACFCEAB231002000203001F028
:1021A000AEFC210020312000103001F00DFDE07C5C
:1021B0000006A17C09040143607C00020843217CE5
:1021C000014300980160F1BDF4B505000E001F0049
:1021D000334CF02200212000203000F026FE2200A7
:1021E00020321021009802F061F8220020323900DC
:1021F000280002F0DCF8102E07DB20342200103714
:1022000039001035280002F0D2F8F1BDF4B584B0E1
:1022100004000E001F00224DF02200212800203073
:1022200000F003FE2A0020321021200002F03EF8C8
:1022300010220021684600F0F8FD6C460120207055
:10224000062231002000401C00F0D7FD022204A924
:102250002000C01D00F0D1FD2A0020323900684660
:1022600002F0A5F810220021684600F0DEFD0220F1
:102270002070062231002000401C00F0BEFD02222A
:1022800004A9E41D200000F0B8FD20352A000A99B9
:10229000684602F08CF805B0F0BD00007401001033
:1022A000AC020010124207D08B0706D00B78491CF5
:1022B0000370401C521EF7D87047830706D00B7876
:1022C000491C0370401C521EF9D1704770B4103A7B
:1022D00003D378C9103A78C0FBD2530701D318C989
:1022E00018C001D508C908C0D20704D30B880380E1
:1022F000891C801C002A01D50B78037070BC7047C4
:10230000F1B598B00D0000246846602102F016F97E
:10231000AD480078002841D12546264615E0AB4857
:102320007100401880880121B940084207D0E8199F
:10233000062102F01BF968460155641CE4B27F1CBB
:10234000102FECDB1035761CF6B2602D01DA002779
:10235000F6E70020611E0EE06B469B185D781E7844
:10236000AE4201D21D705E70521CD2B20B1A9A425C
:10237000F2DB401CC0B2884201DA0022F6E769466F
:10238000602008566B461978814201DA0D460DE04F
:102390005D782900814209DB9D7807E0694660206D
:1023A0000856A84202D060200856451E280040B2B8
:1023B00019B0F0BD864980000858AE49884204D063
:1023C0004900884203D00020704701207047022056
:1023D00070470200914200DB08007047FFB583B0F0
:1023E00000242646784800780028204624D101465B
:1023F0001BE0049B4D005B5B012595402B420ED0FA
:10240000059B85186E007519AD005B59002B06D031
:10241000030015005B190C9DE4B22B55641C521C83
:10242000102AE6DB1030491CC9B2602801DA00220C
:10243000F6E72000C0B245E00090019007E0009868
:102440001030C0B200900198401CC0B201900098BA
:10245000602833DA002507E00098290040180C991D
:10246000E4B20855641C6D1C102DE8DA049801993B
:102470004900405A0121A9400842F4D0059800992A
:1024800049194A0051188900471838680028EAD0CD
:10249000082039560A001211090709176846007BFF
:1024A00040B202F0DDF80028DDD00698797A090103
:1024B0004018C0680028CFD0761CD4E70D9806706D
:1024C0002000C0B207B0F0BD00B59BB034A10968D0
:1024D0000278202A61D801A39B5C9F448686BCBCFD
:1024E000BC86BCBC862E388642464C52565A608604
:1024F0007286767A7E8286868A8E9292200000216B
:1025000001228056FFF7FCFE010046E0A0490122AF
:102510008056095C41E09F4901228056095C3CE0FD
:102520009D493AE0FA21890037E0FA21C90034E0F8
:102530009A4932E09A4930E08021C9012DE0FA2120
:102540008900984800F04EFCFA21C900411824E0A7
:10255000954922E0954920E095491EE060211CE064
:1025600094491AE0002118E0934916E0934914E0D9
:102570001548007800280FD102A8602101F0DEFF85
:102580000020019002A8009000238A4A874918463B
:10259000FFF724FF010000E0302108001BB000BD60
:1025A0000000000038B542680849824B0478650095
:1025B0002C19A4001B195B7A1B01C9181C31407827
:1025C00002F07EF831BD0000AD140010740500105B
:1025D0000C280000F8B5002802D0012840D0F1BD39
:1025E00000221000B34C0DE0724943001B189B0001
:1025F000C918B14B43431B190B6050230B721300D6
:102600004B72401C6028EFDB6D4BAC492520085C09
:1026100000281ED11000188258829882D882188310
:102620005883080064304478A24219DA007884188C
:102630002000C010000F001905002D1168001E18A1
:10264000378A01202D01641BA04038433082521C80
:10265000E7E79B48188258829882D882188358836B
:10266000574B0622190010311B1D180002F017F8F5
:10267000F1BD000090D0030080B5091F012909D9E0
:10268000891E12D0491E01291AD9091F23D01339D6
:1026900023D029E0052200210023C05601F0E0FFED
:1026A000401E8041C043C00F02BD0522002100230F
:1026B000C05601F0D5FF401E8041C043C00F02BD8F
:1026C000072200210023C05601F0CAFF401E8041AE
:1026D000C043C00F02BD002002BD0078302801DADF
:1026E000002002BD012002BD002002BD80B501799D
:1026F000002902D0012907D00CE0062201682B48EE
:1027000001F0CDFF012002BD06220168284801F03A
:10271000C6FFF7E7002002BDF7B50700002425003B
:102720000820385609217E56796819607978002981
:1027300026D0002801D11C6022E07968402901D30D
:102740000125260060291BD3C906C90E012917D10E
:10275000694620220A704870B87A88706846FFF788
:10276000B3FE40B200280BD125003978002907D0EC
:102770001349534A8A80CA800A814A818A81CA8160
:1027800001990870029806702800FEBD0000000044
:10279000CC280000C4280000B80B000088130000FB
:1027A0007017000018FCFFFF20441E1E7805001063
:1027B00084050010000E00103333B1419A9909408E
:1027C0007405001070B584B00D0016001C000528BB
:1027D00000DB0520607001202056FFF7EBFDA070A4
:1027E0000120205609A18200895800BF63A2105C15
:1027F00001F0C6FF22000C3202920834019401223B
:10280000009233002A0001F0D9FF7FBD48E80100A3
:1028100048E8010048E8010048E8010048E80100F4
:1028200048E80100F2B58AB0040001202656676826
:10283000544D68688047002801D0002038E0E07CD3
:10284000002807D12078302101F090FE1A4841433A
:102850004D480F183800E9688847A07C099001208E
:102860000890002007900690059004900390A068BF
:1028700080B202900820019000200090012300BF48
:102880003EA0825D52B2A1781846AF69B847607C1D
:10289000002802D00BA0815D02E000BF0BA0815D8B
:1028A0000D31C9B201206A6D90470A980670012067
:1028B0000BB0F0BD6035081C400D030088140010FB
:1028C000FFFF000033333373DEDE00003333337336
:1028D000DEDE0000F6B58BB004000120225600BFFA
:1028E00026A0805C09A90870284803001B1D284900
:1028F00025786E007519AD004919497A090140180B
:102900001E21415602202056FFF763FD0600A268F3
:10291000616801F0AFFF07001A4D1D4821784A0099
:10292000511889004058E96888476148089000209C
:102930000790069005900120049000200390082045
:10294000029001200190694624200856009000233F
:102950001A4639000120EF69B847A189C9B20120A0
:102960006A6D9047A189C9B201206A6A90470C99A3
:1029700008600B98067001200DB0F0BD0C0B0A0921
:1029800008070000806E0000E0F8D11D74050010FB
:10299000000E0010F1B598B000252C466846602165
:1029A00001F0CCFDAE480078002845D1264615E060
:1029B000AC487100401880880121B940084207D016
:1029C000E819062101F0D2FD68460155641CE4B205
:1029D0007F1C102FECDB1035761CF6B2602D01DA6F
:1029E0000027F6E70020611E0EE06D46AB185D780B
:1029F0001E78AE4201D21D705E70521CD2B20B1A0C
:102A00009A42F2DB401CC0B2884201DA0022F6E7AB
:102A100094486D46297801702919491E097841703A
:102A2000022C07DB18980088401E210001F09EFD53
:102A30006D5C1FE005781DE01898048826003000C2
:102A4000302101F093FD002914D0E00601D10125C9
:102A500010E03000182101F089FD002901D1022584
:102A600008E0200701D1032504E0600701D1042517
:102A700000E00525280040B219B0F0BD00B585B0D2
:102A80009449009194490191694642780A7202780A
:102A90004A7282788A72C278CA72416803918068E9
:102AA0000490684601F0FBFE05B000BD0000000088
:102AB000B80B0000FFB59DB000252E002800694628
:102AC000087204A8602101F039FD664C06222946EF
:102AD0002000001D01F0CCFD002806D17F48A08019
:102AE000E08020816081A081E0817D4F2520385CDD
:102AF00000284CD1A0783979890714D500280FD146
:102B000078480078012802D11F98056018E07649BE
:102B1000012000F067F91F9908600120A0700FE004
:102B20001F9805600CE0002808D17049012000F0D2
:102B300059F91F9908600120A07001E01F980560F5
:102B400002A8019004A8009023001C33614A241DB0
:102B500021001D98007AFFF741FC06002C0001E0DF
:102B6000641CE4B2B4420CDA04A8075D3800062104
:102B700001F0FCFC1D98082280568142F0D11E987D
:102B80000770B44201DB1E980570012066E01D98B5
:102B90004068FDF706FB1D990968884219D3209803
:102BA0000560012322001C321D98817A407A01F0D1
:102BB0008CFD039002A8019004A8009023001C3310
:102BC000444A241D21001D98007AFFF707FC0600E7
:102BD0000CE06846007A401C694608721D984068FF
:102BE000FDF7DFFA1D990968081A0390002E29D015
:102BF00025373878002809D0761E3100284600F0A5
:102C0000F1F804A9085C1E99087017E02C0001E097
:102C1000641CE4B2B4420CDA04A8075D3800062153
:102C200001F0A4FC1D98082280568142F0D11E9824
:102C30000770B44202DB28001E9908701F980560D7
:102C400001200BE06846007A002804D003981F9901
:102C50000860012002E01F980560284621B0F0BD01
:102C6000AD14001074050010881A010049B2002943
:102C700000D50020C0B2704770B59AB0050002A818
:102C8000602101F05BFC1A4C0020019002A800902A
:102C90000023104A2100091D1846FFF79FFB06007C
:102CA00061782C2300E0491CC9B2080022789142C7
:102CB00003D22218D2569542F5DA310001F056FCC3
:102CC000701A07494A6D904202D0486500F02BF80F
:102CD0001AB070BD000E001090050010FFFF00003C
:102CE000881400101B000010B80B000070170000C3
:102CF000740500102E4A00091060080000098021A8
:102D0000090601435160704780B509014118FFF77A
:102D1000F1FF01BD27480068C00F7047AA218160FC
:102D200055218160704730B585B0234C21212000AA
:102D3000401D00F004FB050430212000283000F085
:102D4000FEFA054325601D4D00228021280001F078
:102D5000D7FB682221002800FFF7B8FAFDF74EFAEA
:102D60006846FDF756FA8020C005FFF7D7FF00F050
:102D700073F81F210846FDF727FA1149481EFDF791
:102D80005FFA1F210846FDF71FFA80222900FF2065
:102D9000C001FDF720FA00F065F84021F820C001DD
:102DA000FFF7B2FFFFF7B6FF0028FBD105B030BD3B
:102DB000200004402400044088140010B0180010C3
:102DC000FF01000000B52C4908682C4A50432C4AEA
:102DD000801808602B4901F0CCFB080000BD264993
:102DE0000860704738B504000D00FFF7EBFF291BA2
:102DF000491C01F0BBFB081932BD03E00B780370DE
:102E0000491C401C13005A1E9BB2002BF6D1704780
:102E10008018401E03E00B780370491C401E13000D
:102E20005A1E9BB2002BF6D1704701E00170401C86
:102E300013005A1E9BB2002BF8D1704700200100EE
:102E400003E0521C052AFCD3491CFA22920091424D
:102E500001D20200F6E7704772B60B480178491CB0
:102E60000170704708480178491E0170C9B20029F5
:102E700000D162B670470000D40500106D4EC64107
:102E800039300000FFFFFF7FD91A00100121C00672
:102E9000C00E81409048016070470121C006C00EFD
:102EA00081408E48016070478A490A680123834047
:102EB0008B48184382430A6070478649012282404A
:102EC0000868884B034013430B60704710B504003B
:102ED000FFF7EAFF2000FFF7F0FF10BD82490A6804
:102EE000D2B202430A61704740014908491E0143BA
:102EF0007E48016070477E490122824008687D4B10
:102F0000034013430B60704742691207120F0A43D4
:102F10004261704742690F23DB430B439A4342618E
:102F2000704701684907490F02220A43026070474F
:102F300001684907490F04220A4302607047C160D3
:102F4000704741607047AA218160552181607047B8
:102F5000416170478161704702689206920E0A4390
:102F60000260704710B504000121FFF7F5FF200053
:102F7000FFF7E9FF10BD000000B583B0684600BF51
:102F80000CA10CC90CC03C208E49896C884769464D
:102F9000087000208C49087001208C49087000F0EE
:102FA000BEF901226946022001F00EFD01F01BFD71
:102FB00007BD00000001020A0B0000001CB56846B6
:102FC0000AA10CC90CC000247F4804707F4804701B
:102FD00000F0A5F922466946022001F0F5FC01F057
:102FE00002FD002801D07A48047013BD5501020A81
:102FF0000B00000080B57748FFF793FF01BD70B567
:103000000C001600734D0100280001F083FF28001A
:1030100001F08BFF010061432800FFF790FF48207B
:1030200001F08EFFA720C04301F091FF3100C1489D
:1030300001F0E0FF002001F083FF2800FFF778FF98
:1030400070BD10B580200002FFF748FF0920FFF790
:1030500052FF0920FFF73AFFB64C0A212000FFF784
:1030600059FF08212000FFF74FFF0F20FFF70EFF49
:1030700010BD704738B540210120FFF735FF4020D3
:1030800001F077FF01F0D4FF0500AD088024E405CE
:10309000200002F09DF86D0829002000FFF751FF85
:1030A000610D2000FFF754FF29002000FFF752FFB9
:1030B00002212000FFF750FF0C21200002F0A2F8AF
:1030C0000C20FFF7EAFE0C20FFF7E0FE2000FFF7E0
:1030D00049FF31BD0480044000E100E080E200E0EF
:1030E0000020FEFFFFDF0100048204402480044032
:1030F00080800440FFFFEF2538B59F4C20780028E2
:1031000005D0022827D014D3032836D048E09B4DA1
:103110002800FDF726F80121002002F0AAF864211A
:103120002800FDF733F82800FCF7D2FF01202070BB
:1031300031BD924D2800FDF714F80021084602F039
:1031400098F8C8212800FDF721F82800FCF7C0FFF7
:103150000220207031BD894D2800FDF702F80121C1
:10316000002002F086F864212800FDF70FF82800FF
:10317000FCF7AEFF0320207031BD804D2800FCF726
:10318000F0FF0021084602F074F8FA2189002800B7
:10319000FCF7FCFF2800FCF79BFF0020207031BDEE
:1031A0000020207031BD000010B50021084602F05B
:1031B00060F8C14C0A212000FCF7E8FF2000FCF772
:1031C00087FF10BD806E0000D41A0010C2030010EB
:1031D0001300001000800040F8B505002E000528FF
:1031E00002D0062803D009E0FFF7DEFF06E06348BF
:1031F000FCF7B7FF0021084602F03BF8AF48006833
:10320000E840C00700D489E0AD4CA8002518286C20
:1032100002F0A9F907000A2E01D00D2E62D1A948AB
:10322000009006780322A8A12000FFF74FF8FFB214
:103230003A00296C2000C01CFFF734F8FF1C2C2535
:10324000FFB2E5557F1C3800401C3100090601D54E
:10325000412105E03100490601D54E2100E0302131
:10326000FFB2E15503005B1C3100C90701D53121D4
:103270000AE03100890701D5322105E03100490714
:1032800001D5502100E03021C0B22154F00611D503
:10329000DBB2E5545B1C1E0001228C480099497882
:1032A0004018FF21C43141183000C0B2201802F08C
:1032B00083F9331800988078002821D0DBB2E554D8
:1032C0005B1C1D000098827880480099497840185E
:1032D000E221490041182800C0B2201802F06CF920
:1032E0002B180DE0032278A12000FEF7EFFFFFB2BC
:1032F0003A00296C2000C01CFEF7D4FFFF1C3B00E5
:103300000D20DBB2E0545B1C0A20DBB2E0545B1CF6
:10331000DBB222006E496F4802F0C4FAF1BD6E487C
:103320000121417000210170704700206A494870F6
:10333000704700000000024067484078704730B492
:1033400002000B000024210000E0641C9C420ED20D
:10335000105D000248400100082001E02900401EE5
:10336000F3D04D000904F9D55C496940F7E708003E
:1033700080B230BC70470000A31A0010F014001097
:10338000F0B58DB00600514C8220800020180290CC
:10339000FF27FF0168223900FEF798FF50482018E8
:1033A00001902121FFF7CBFF05008C208000201821
:1033B00000903021FFF7C3FF39682A04024391428D
:1033C00001D1002E4AD009A8FCF723FF454E082260
:1033D00009A908313000FEF765FF434D082231008E
:1033E0002800FEF75FFF03A820A10CC90CC000BF96
:1033F00020A11022FEF76AFF082203A92800083046
:10340000FEF764FF102205A928001030FEF75EFFCA
:1034100000263000202168540A20E8642122290077
:103420000198FEF73FFF83208000271801203870A5
:103430003022243529000098FEF748FF7E65BE65DE
:103440000020C043F8659B208000201831000170E7
:10345000032141708670FFF766FC04E068223900A2
:103460000298FEF733FF0DB0F0BD00004D4A2D4D20
:103470006F64656D2B7E151628AED2A6ABF7158846
:1034800009CF4F3C10B50020FFF77AFF02F07FFA1A
:103490000E4C002298214900200001F031F89622BC
:1034A00052002100114802F0DFFA11499C208000EF
:1034B0002018FCF705FE10BDF0140010E8140010F1
:1034C000B80400104114001045565F00801200102F
:1034D000D805001000400640D41A0010211000004A
:1034E0000D020000CC050010201A0010B81A0010C0
:1034F000F9300000F0B59FB00025CD4C207802F0E7
:10350000B1F80090CB480789FFB2260028466946EB
:103510000871002F01D1012597E20098762810D17B
:10352000022F0ED160783F280BD1C3A1200002F0FA
:10353000A0F82518C149280002F09BF82E18012593
:1035400083E200987A2809D1012F07D1BC48C06ACC
:103550008047012528006946087176E2262811D1A6
:10356000022F0FD1607802F07DF866280AD1B448A6
:10357000C06A80470120FFF703FF01252800694644
:10358000087162E20098732800D099E0022F00DAF7
:1035900096E060783F282ED1022F2CD1A6A12000E2
:1035A00002F067F825188C2080002158280002F0CE
:1035B0001DF82E182C2528003070761C8D208000D8
:1035C0002158300002F012F8361828003070761CAE
:1035D000992080002158300002F008F8301805705A
:1035E000401C0500982080002158280001F0FEFFB3
:1035F0002E18012529E23D2800D026E2552F00D0C3
:1036000023E208222100891C13A802F001F80028F7
:1036100000D11AE2A07A2C2800D016E213AF0822BB
:1036200021000B313800001D01F0F2FF002800D10D
:103630000BE2E07C2C2800D007E22022210014318C
:103640003800083001F098FF102800D0FDE1342048
:10365000205C2C2800D0F8E12022210035311837D9
:10366000380001F089FF102800D0EEE1962080009C
:1036700020581D909720800020581E90302213A9BA
:103680008C2080002018FEF721FED6204000205814
:10369000992189006050D42040002058091F6050B3
:1036A0008320800020180178FE220A400221114365
:1036B00001702846C2490870FFF735FB0125C4E1B7
:1036C0006A287AD1022F78DB60783F2823D1022F35
:1036D00021D159A1200001F0CCFF25180822B948BA
:1036E000211805A801F0ADFF082205A9280001F066
:1036F00063FF2D182C2028706D1C0822B248211859
:1037000005A801F09EFF082205A9280001F054FF3A
:103710002E18012599E13D2800D096E1442F00D0D4
:1037200093E10AAF28462021785410222100891CF9
:103730000AA801F021FF082800D086E1A07C2C28EF
:1037400000D082E11022210013313800083001F04E
:1037500013FF082800D078E12320205C2C2800D01B
:1037600073E12022210024313800103001F004FFE1
:10377000102800D069E108220AA90AA801F061FF17
:103780000822390008310837380001F05AFF212299
:103790000AA98C482018FEF785FD83208000201898
:1037A00001250178FD220A40290011430170002003
:1037B00083490870FFF7B7FA47E1672800D081E036
:1037C000022F00DA7EE060783F283BD1022F39D10A
:1037D00019A1200001F04DFF251801229B20800037
:1037E0002118280001F0E8FE2E182C252800307042
:1037F000761C0122A8482118300001F0DDFE3618A1
:1038000028003070761C0122A4482118300001F0F5
:10381000D3FE30180570401C050001228320800073
:103820002118280001F0C8FE2E1801250DE100BF67
:1038300080120010B81A00104F4B2C005C6E000074
:10384000806E00003D2800D0FFE00A2F00D0FCE091
:1038500002222100891C01A8C01C01F08DFE012854
:1038600000D0F2E020792C2800D0EEE002222100E6
:10387000491D01A8801C01F07FFE012800D0E4E072
:10388000E0792C2800D0E0E002222100083101A8D4
:10389000401C01F071FE012800D0D6E06846C079D6
:1038A0009B218900605468468079491C60546846B1
:1038B0004079491C6054284641490870FFF733FAA3
:1038C0000125C2E06A280CD1012F0AD101258320ED
:1038D0008000205CC00700D4B7E028007049087061
:1038E000B3E0742876D1052F74DB6078302802D0DD
:1038F000312800D0A9E0A0782C2800D0A5E0A7208E
:1039000040002018039002222100C91C01F034FE5F
:10391000012800D099E003980078002800D194E0B5
:10392000FF205030201804906078303804990870D7
:10393000A820400020180290284602990870062FFF
:103940000EDB60792C280BD13800821F92B2210047
:10395000891DFF205230201801F00EFE02990870D8
:10396000052F03D00298007800286ED003980078C5
:1039700000286AD0E02868DA04980078494908707D
:1039800002980278FF20523021180398007801F045
:103990001BF84248205C002818D108214248FFF754
:1039A000B9FA42480068002810D101203C4948700B
:1039B0009622520021003E4802F056F81FB0F0BD9A
:1039C000BE0500100D0200001502000001F00BF80A
:1039D00005003AE0612838D1022F36DB60783F28B5
:1039E00017D1022F15D107A80C2100F0A7FD31A196
:1039F000200001F03EFE251896208000215807A8DF
:103A000001F0F4FD07A9280001F033FE2E1801256E
:103A10001BE03D2819D1B81E0100C90F0918491033
:103A20004A00821A11D101290FDBBA1ED2B221003D
:103A3000891C684601F0ECFD002806D0009896210C
:103A400089006050FFF76FF90125002D07D0A642CD
:103A50000BD119A1300001F00CFE361805E000BFB3
:103A600018A1300001F005FE36180D203070761CCC
:103A70000A203070761C2000331A96204000235212
:103A80009BB222000D490E4801F00CFF68460079F8
:103A900001288DD1FEE700006D0200006E020000DB
:103AA000A11A0010C2030010000002405C000010C8
:103AB000B81A00104F4B2C004F4B0000D8050010D7
:103AC000004006404552524F5200000010B504001D
:103AD00010220021F130FFF7A8F900208A214900C7
:103AE0006050F02201462000FFF79FF910BD80B51D
:103AF0000B0002001021180000F0D8FB01BDF0B54A
:103B000085B005000E0014008A20400028580028C7
:103B100049D010210F1AA74200D927003A0092B2CB
:103B200031002818FF239B1CC018FFF766F98A2074
:103B300040002858C0198A2149006850102841D3F4
:103B4000BC423FD0002006E02918F1310A780B7CF6
:103B500053400B70401C1028F6DB2A002900F1317D
:103B60002800F13000F023FCF619E41B1BE0681874
:103B7000F1300278735C53400370491C1029F6DB66
:103B800010222900F1316846FFF737F92A0069460B
:103B9000684600F00CFC102269462800F130FFF75F
:103BA0002CF91036103C112C01D30021E6E722003D
:103BB00092B23100FF20801C2818FFF71EF98A20DE
:103BC00040002C5005B0F0BDF1B588B00C001022BB
:103BD00000216846FFF729F922006946684600F08F
:103BE000E6FB802100206A4613780B4211D00300C7
:103BF00007E0D5182E7876006F78FF0937432F70CD
:103C00005B1C0F2BF5DBD37B5B0087255D40D573F9
:103C10000EE0030007E0D5182E7876006F78FF09D4
:103C200037432F705B1C0F2BF5DBD37B5B00D3730B
:103C30008A235B00E358102B0CD10100102956DABF
:103C40006318FF25AD1C5B191D78565C6E401E7015
:103C5000491CF3E713780B4211D0030007E0D51895
:103C60002E7876006F78FF0937432F705B1C0F2B7F
:103C7000F5DBD37B5B0087255D40D5730EE0030049
:103C800007E0D5182E7876006F78FF0937432F703C
:103C90005B1C0F2BF5DBD37B5B00D3738A235B00AC
:103CA000E358E318FF25AD1C595502E003006118E5
:103CB0004B558A2149006158491C8A235B00E15019
:103CC0001029F3D3010008E06318FF25AD1C5B1930
:103CD0001D78565C6E401E70491C1029F4DB06E00E
:103CE0002118F1310A780B7C53400B70401C1028CE
:103CF000F6DB10222100F13104A8FFF77EF8220044
:103D0000089904A800F053FB102200216846FFF731
:103D10008CF809B0F0BD30B4012100220368001D09
:103D2000002B0BD00468001D0C4202D04D466D1EC6
:103D300064192260241D1B1FF0D0FAE730BC7047C5
:103D40000A7802704A7842708A788270CA78C270A3
:103D50000A7902714A7942718A798271CA79C2718B
:103D60000A7A02724A7A42728A7A8272CA7AC27273
:103D70000A7B02734A7B42738A7B8273C97BC1735D
:103D8000704703E00B780370491C401C13005A1E57
:103D9000DBB2002BF6D1704702780B7853400370EA
:103DA00042784B785340437082788B7853408370CD
:103DB000C278CB785340C37002790B7953400371BA
:103DC00042794B795340437182798B7953408371A7
:103DD000C279CB795340C371027A0B7A5340037294
:103DE000427A4B7A53404372827A8B7A5340837281
:103DF000C27ACB7A5340C372027B0B7B534003736E
:103E0000427B4B7B53404373827B8B7B534083735A
:103E1000C27BC97B5140C173704710B40B781478D2
:103E20005C4004704B7854785C4044708B78947894
:103E30005C408470CB78D4785C40C4700B79147982
:103E40005C4004714B7954795C4044718B7994796E
:103E50005C408471CB79D4795C40C4710B7A147A5C
:103E60005C4004724B7A547A5C4044728B7A947A48
:103E70005C408472CB7AD47A5C40C4720B7B147B36
:103E80005C4004734B7B547B5C4044738B7B947B22
:103E90005C408473C97BD27B4A40C27310BC7047BC
:103EA00080B5FFF779FF01BD7F4902788A5C027017
:103EB00002798A5C0271027A8A5C0272027B8A5CF5
:103EC000027342784379CB5C4370437ACB5C437195
:103ED000437BCB5C43728A5C42738278837ACB5C8F
:103EE00083708A5C82728279837BCB5C83718A5C0B
:103EF0008273C27BC37ACB5CC373C379CB5CC3725E
:103F0000C378CB5CC371895CC17070477FB5040016
:103F100021006846FFF714FF634800BF63A100BF9C
:103F2000A2A26B461D78565D5D794D5D75409E7A07
:103F3000865D6E40DD7B455D754025701D78465D74
:103F40005D79555D75409E7A8E5D6E40DD7B455D89
:103F5000754065701D78465D5D79455D75409E7A5A
:103F6000965D6E40DD7B4D5D7540A5701D784E5DA4
:103F70005D79455D75409E7A865D6E40DD7B555D61
:103F80007540E5701D79565D5D7A4D5D75409E7B8F
:103F9000865D6E40DD78455D754025711D79465D15
:103FA0005D7A555D75409E7B8E5D6E40DD78455D2A
:103FB000754065711D79465D5D7A455D75409E7BF6
:103FC000965D6E40DD784D5D7540A5711D794E5D45
:103FD0005D7A455D75409E7B865D6E40DD78555D02
:103FE0007540E5711D7A565D5D7B4D5D75409E782F
:103FF000865D6E40DD79455D754025721D7A465DB2
:104000005D7B555D75409E788E5D6E40DD79455DCA
:10401000754065721D7A465D5D7B455D75409E7895
:10402000965D6E40DD794D5D7540A5721D7A4E5DE1
:104030005D7B455D75409E78865D6E40DD79555DA2
:104040007540E5721D7B565D5D784D5D75409E79CE
:10405000865D6E40DD7A455D754025731D7B465D4E
:104060005D78555D75409E798E5D6E40DD7A455D6B
:10407000754065731D7B465D5D78455D75409E7935
:10408000965D6E40DD7A4D5D7540A5731D7B495D83
:104090005D78455D4D409979405C6840D97A515CC6
:1040A0004140E1737FBD000000440000A584998D6C
:1040B0000DBDB1545003A97D1962E69A459D408714
:1040C00015EBC90BEC67FDEABFF7965BC21CAE6A45
:1040D0005A41024F5CF434089373533F0C52655EAF
:1040E00028A10FB509369B3D2669CD9F1B9E742ED6
:1040F0002DB2EEFBF64D61CE7B3E7197F568002C3C
:10410000601FC8EDBE46D94BDED4E84A6B2AE516DF
:10411000C5D75594CF100681F044BAE3F3FEC08AA8
:10412000ADBC4804DFC17563301A0E6D4C14352FD9
:10413000E1A2CC3957F28247ACE72B95A098D17F0A
:10414000667EAB83CA29D33C79E21D763B564E1E70
:10415000DB0A6CE45D6EEFA6A8A4378B324359B737
:104160008C64D2E0B4FA0725AF8EE918D5886F7257
:1041700024F1C751237C9C21DDDC86859042C4AAB2
:10418000D8050112A35FF9D0915827B93813B3337A
:10419000BB7089A7B622922049FF787A8FF88017E2
:1041A000DA31C6B8C3B07711CBFCD63AC6F8EEF612
:1041B000FFD6DE916002CE56E7B54DEC8F1F89FA2F
:1041C000EFB28EFB41B35F452353E49B75E13D4C59
:1041D0006C7EF5836851D1F9E2AB622A0895469D61
:1041E00030370A2F0E241BDFCD4E7FEA121D5834C4
:1041F00036DCB45BA476B77D52DD5E13A6B900C190
:1042000040E379B6D48D67729498B085BBC54FED05
:10421000869A66118AE904FEA078254BA25D800586
:104220003F2170F16377AF4220E5FDBF811826C3BF
:10423000BE35882E9355FC7AC8BA32E6C0199EA3C3
:1042400044543B0B8CC76B28A7BC16ADDB647414BD
:10425000920C48B89FBD43C43931D3F2D58B6EDA86
:1042600001B19C49D8ACF3CFCAF447106FF04A5C57
:1042700038577397CBA1E83E96610D0FE07C71CC67
:104280009006F71CC26AAE6917993A27D9EB2B2220
:10429000D2A907332D3C15C987AA50A50359091A7D
:1042A00065D784D082295A1E7BA86D2CF6B585B0BF
:1042B00069460C7D2100102903D0182901D020293E
:1042C00011D1224601000698FFF75BFD6846007D8C
:1042D0001C308000C0B203900011401E0699F031DE
:1042E0000870012532E000201146F0310870FF20EF
:1042F0005BE0029819280DDB10290BD140A0865DE8
:1043000069466A465278825C4A706A461278825CD4
:104310000A70C75D20006946097D411AC9B2069836
:10432000401801784E4001990E700199491C42785D
:104330006B465B7853400B7082786B461B7853401A
:104340004B70C07847408F70241DE4B203988442BC
:104350002ADA069800190190001F0678694642780B
:104360004A7082780A70C7786846007D0290200003
:10437000029900F0FBF80029BBD1310020A06A4669
:104380005278825C2E0056406A466B461B78C35CAE
:104390005370C35D1370475C28004000ED091B217A
:1043A0004D434540EDB2B5E7002007B0F0BDF0B594
:1043B00085B00F001400F021615C00291DD00100C0
:1043C0006846FFF72AFD012506E0FFF79FFD310053
:1043D0006846FFF765FD6D1CEDB228012618F02038
:1043E000205C85426846F0D3FFF75EFD32006946E7
:1043F0003800FFF712FD002000E0FF2005B0F0BDFF
:10440000637C777BF26B6FC53001672BFED7AB7691
:10441000CA82C97DFA5947F0ADD4A2AF9CA472C03C
:10442000B7FD9326363FF7CC34A5E5F171D83115A9
:1044300004C723C31896059A071280E2EB27B275CA
:1044400009832C1A1B6E5AA0523BD6B329E32F8442
:1044500053D100ED20FCB15B6ACBBE394A4C58CF3A
:10446000D0EFAAFB434D338545F9027F503C9FA80E
:1044700051A3408F929D38F5BCB6DA2110FFF3D2DC
:10448000CD0C13EC5F974417C4A77E3D645D197390
:1044900060814FDC222A908846EEB814DE5E0BDB8A
:1044A000E0323A0A4906245CC2D3AC629195E479C1
:1044B000E7C8376D8DD54EA96C56F4EA657AAE081B
:1044C000BA78252E1CA6B4C6E8DD741F4BBD8B8AB6
:1044D000703EB5664803F60E613557B986C11D9E1C
:1044E000E1F8981169D98E949B1E87E9CE5528DF93
:1044F0008CA1890DBFE6426841992D0FB054BB16BF
:104500001206130A1A43130C1A4300BF130030B4E7
:1045100014001500103902D310393CC0FCD24907F1
:1045200000D30CC000D504C0890002D30280801CD7
:10453000002900D5027030BC704700000022E5E77A
:10454000F446002804D4494200F013F84042604782
:104550004042002905D45FD000F00BF840424942A8
:104560006047494200F005F84942604703460B4363
:10457000E6D40022030A8B420BD203098B4219D2E4
:1045800043088B422ED2411A00D2014652411046B6
:104590007047FF2209023FD012068B4205D3121248
:1045A00009028B4201D31212090203098B4219D36B
:1045B00000E0090AC3098B4201D3CB01C01A524162
:1045C00083098B4201D38B01C01A524143098B42AC
:1045D00001D34B01C01A524103098B4201D30B0195
:1045E000C01A5241C3088B4201D3CB00C01A5241BA
:1045F00083088B4201D38B00C01A524143088B427F
:1046000001D34B00C01A5241884200D3401A524194
:10461000CFD201461046704708B5C046C04608BD17
:1046200030B402000023180008E001249C4025005B
:104630001540A54200D1401C5B1CDBB28B42F4DB71
:10464000C0B230BC70475A49884201D264207047DA
:104650005849884202D2FA20800070475648704775
:10466000884203DB824201DB012070470020704753
:10467000F8B5040016000020002C0FD00D000AE051
:10468000070010216800205AFFF7CAFF0100380018
:104690004018C0B26D1CEDB2B542F1D3F2BD002896
:1046A00000D1704730B4002908D0002304E05C003A
:1046B0000D5B05535B1CDBB29342F8DB30BC7047EB
:1046C00000288A6000D14A607047FFB581B000249D
:1046D000E44300273E0003E03C00EF60761CF6B2A6
:1046E0006846007C864248DA0398310145186846DE
:1046F000007900286846007A26D1002804D0A868EE
:10470000FBF74FFD009000E000976868FBF749FD5C
:104710000099814203D26868FBF743FD08E06846D0
:10472000007A002803D0A868FBF73BFD00E03800C2
:10473000E968884200D3EF60E9680029CED0081A02
:10474000A042CBD20400C9E70028C5D0A868FBF777
:1047500028FDE968884200D3EF60E8680028BDD0F2
:10476000A868FBF71EFDE968081AA042B6D2A8683F
:10477000FBF717FDE9680C1AB0E7200005B0F0BDA3
:1047800070B50E0001218140080001F0F7F9040026
:104790000D00300001F0FCF902000B0020002900A0
:1047A00001F006FA0022304B01F063FA70BD000000
:1047B00080EE3600803F5C0210270000FBB514003D
:1047C0001D006000083801F0D9F96A460CCA01F0F2
:1047D00050FA06000F00680001F0DAF932003B00E1
:1047E00001F009FB6A460CCA01F0E2F906000F006D
:1047F00001F0DCFB01F018FC844206D230003900E5
:1048000001F0D4FB01F010FC00E02000099E3060B4
:1048100068460CC80020154901F02BFA04000D0071
:10482000306801F0B5F96A460CCA01F022FA00229C
:104830000F4B01F01EFA02000B002000290001F0CE
:104840003DFB04000D00089801F0A2F902000B00E6
:104850002000290001F032FB01F0A8FB01F0D2FB9F
:104860000A990860F7BD000000408F40000010402A
:104870000000E03F38B50C001500400001F0ECFBF3
:104880000100200001F02AFC290001F027FCFBF7C1
:10489000F1FC01F07BFC01F0B5FB40B232BDF8B594
:1048A00004002068E17A4A00511889004018407AD3
:1048B00007016068C01905880026C660607A002874
:1048C0000FD1E068FFF7BFFEA84200D30500A07A31
:1048D000002809D1207A002806D16068C019C66076
:1048E000F1BDA07A0028F8D020694543281A6168F4
:1048F000C919C860F1BD00000121C006C00E814089
:10490000A548016070470121C006C00E8140A34840
:104910000160704710B48207920FD300FF249C40BF
:10492000E2438901C9B2994003000BD59C481B079B
:104930001B0F083B9B089B00C01803681A401143DB
:10494000016007E097489B089B00C01803681A4065
:104950001143016010BC704710B5401E802149040E
:10496000884201D3012010BD8F4C606003210020DC
:10497000C043FFF7CFFF0020A06007202060002089
:1049800010BD8A49012282400868894B03401343C5
:104990000B60704742691207120F0A434261704769
:1049A00042690F23DB430B439A4342617047C1685E
:1049B0000069814201D10120704700207047AA217F
:1049C000816055218160704770B504001500002C8E
:1049D00008D0E02C06DA774E3000001DFDF762FCAF
:1049E0003470757070BD70B586B07348406D69469F
:1049F0000880724E6F4C02AD01A96078FCF736FF5B
:104A000000280BD00020010029700490A88169467D
:104A10000220FDF7D5FAA873707023E0A078002873
:104A20000FD100202870207828712000001D0490EC
:104A30006078A88169460220FDF7C2FAA8737070F9
:104A400010E001202870207828712000001D0490BB
:104A50006078A8810320E87369460220FDF7B0FA68
:104A6000A873707002A8FDF783F9002801D1012016
:104A700000E0002006B070BD7047F8B50400607813
:104A800000284ED14E4F3D00913500262E704D48E6
:104A90000078012806D1A07C002801D0802000E009
:104AA000402028702878617C002903D0022101432E
:104AB000297002E00121014329702078012803D1E7
:104AC000FBF76CFB404988612878617B00290FD097
:104AD00010210143297001206870E078E870207B84
:104AE000A870227BA16895373800FDF7DBFB03E057
:104AF000AE70202101432970FEF71EFC012803D16E
:104B00000D20FEF769FBF1BD2F48417D002905D13D
:104B1000012141750A20FEF75FFBF1BD0D20FEF774
:104B20005BFBF1BD10B50178002902D0012919D035
:104B300025E0254C407800280ED10420A0750020E7
:104B400022490870FEF718FA0620FEF745FB0021FF
:104B5000084600F08EFB12E00820FEF73DFB012026
:104B6000A0750CE04178002909D1174C2178002963
:104B700005D00121A173017AE173407A20740120EC
:104B80001149087510BD0020704780B5FBF78CFBFC
:104B900000F0C6FC01BD000000E100E080E100E0A3
:104BA0001CED00E000E400E010E000E08080044044
:104BB000FFFFEF25C003001088140010B01900108B
:104BC000B01300108C1A0010A8050010A11A0010D4
:104BD000F0B58DB0FFF7D9FFFEF754FCFBF764FB8F
:104BE0000020FFF7CEFEB6480068FA218900FFF7E3
:104BF000C0FCFFF7B1FE0020B2498875FEF721FA2C
:104C0000FBF7CCFAAF490862FEF734FA042728E034
:104C1000AD480590AD480690AD480790AD4804906A
:104C2000022204A905A8FCF709FD6D4600202870A2
:104C3000A94C6620205C28716846FCF797FE02208C
:104C400028700126300028716846FCF78FFE072087
:104C500028702534207828716846FCF787FE99482B
:104C600086753C072000FFF7AAFE9C4D9C4E0AE08B
:104C70002000FFF7A4FEFBF791FA9249086268460C
:104C8000007B00F0FBFE012303AA2900300000F0A6
:104C900023FE0128ECDA8B48807D0028B8D001285B
:104CA00005D0042846D0052800D195E004E1032072
:104CB000894C2179C90714D508A900220A7022005D
:104CC000521D099222000D320A9215340B94087479
:104CD0007C48007D002800D1B7E008A8FCF7B2FFAF
:104CE000B3E06D462870260028363068019068468B
:104CF000FCF73CFE38002870706801906846FCF7AD
:104D000035FE052028702000303001906846FCF701
:104D10002DFE06202870403401946846FCF726FEDC
:104D20000126300028702E716846FCF71FFE65488A
:104D3000877596E7684C6620205C02282CD1207984
:104D4000C00703D567480078012857D0664D28680A
:104D5000002809D165480078002805D059488069A5
:104D6000FBF71FFA65283BD2286800282FD120794D
:104D700080072CD55348C069FBF713FA2834A16A81
:104D8000FA2292005143814221D2FBF707FA4D49A2
:104D9000C861FEF7F1F81AE053480068002816D100
:104DA0005348FFF704FE002804D02800FFF7FFFD5A
:104DB000002803D1FBF7F2F9424908624148006A32
:104DC000FBF7EFF90B2802D305203E498875002137
:104DD000484800F00FF944E744480078002805D01F
:104DE000FEF7ECF83846374988753AE73A4C2079AF
:104DF000C1070AD53B490978012906D1012031496B
:104E000088750020374908702BE70221084020D020
:104E10006621615C00291CD137490A78012A18D122
:104E200000200870324CFFF7DEFD002806D03B461C
:104E300034A22100300000F035FD06E0072300BF5A
:104E400032A22100300000F02DFD38461D49887542
:104E500007E72A490968002907D1002805D0FEF78D
:104E60008BF8384617498875FBE61820FFF74BFD8D
:104E70001920FFF748FD2248C06A80471D4D207960
:104E8000C00704D50C212800FFF78AFD03E00C21A0
:104E90002800FFF77FFD01212800FFF77BFD03229B
:104EA0002834A16A0120FEF7AAF81820FFF724FD94
:104EB0001920FFF721FDD4E6002002498875D0E6CD
:104EC000D01A0010A8050010794A00007B4A0000A3
:104ED000254B0000874B000088140010EC050010E3
:104EE00000400640A11A00105C00001013000010E2
:104EF000D805001000000240A21A00104400001063
:104F0000806E00004F4B0D0A000000004552524FCA
:104F1000520D0A000129016803D101220A430260EF
:104F2000704701229143016070470068C00701D4B7
:104F30000148704701487047B0710B00102700000E
:104F40004821014010480843104908607047104943
:104F50000140DA20C00108430E49086070470E493D
:104F60000A6810430A4A0240DA20C0011043086070
:104F7000704709490A68824305481040DA22D20185
:104F800002430A6070470000B7FF0000308204400F
:104F9000FF800000348204403882044014490A68CB
:104FA000122313400B600021016030BF704710498D
:104FB0000A681623134004221A430A600121016083
:104FC00030BF70470A490A681623134004221A4367
:104FD0000A600221016030BF704705490A68162344
:104FE000134004221A430A600321016030BF704756
:104FF00010ED00E080B5012902D1FFF7D8FF01BD17
:10500000022902D1FFF7DEFF01BD032902D1FFF71C
:10501000E4FF01BDFFF7C2FF01BDFEE7504900E01C
:105020005049086000204860012048607047000037
:1050300000B54D480068C105C90D00BF54A04A091C
:1050400092008058C906C90E491C4900FFF791FA21
:1050500000BD434800688007800F04D0012804D0B9
:10506000032804D006E041487047414800E0414829
:10507000006870470020704780B5FFF7EAFF3E499F
:105080000968C906C90E491C484302BD80B5002005
:10509000344909688907890F05D0022908D004D34B
:1050A000032908D002BD314802BDFFF7D2FF02BD7F
:1050B000FFF7BEFF02BDFFF7DFFF02BD80B5FFF7C0
:1050C000E5FF2E490968C9B2FFF753FA02BD38B5AA
:1050D0002B4C2068C5B2002D01D1002032BDFFF756
:1050E000D5FF2900FFF745FAE26DD2B2FF2A08D1B9
:1050F000226E010E0002D2B2A30DD218002301F0DD
:1051000071F832BDF8B505000C00FFF7BFFF0600CF
:105110002900FFF72EFA010000D10121184FC8B273
:105120003860002C16D017480268174B13400360F4
:105130000268164B134004221A430260FF20F865F0
:105140003000FFF716FA00022900FFF712FAC0B28A
:10515000386601E00020F865FFF7B9FFF2BD0000F6
:10516000408004407080044024800440001BB7004D
:10517000AC6F0000B06F00000880044078800440ED
:105180009480044004800440FBDF0100FFDF010045
:1051900000000000C027090090051000C05C150049
:1051A000F0B31A00200B2000009F2400E0322900F9
:1051B000C0C62D0050973100E067350070383900C7
:1051C00000093D004016400080234300C0304600E7
:1051D00008490A68084B1340802292021A430A6069
:1051E00000210160FF21416004494161044981615E
:1051F0007047000080800440FFFFEF25FFFF0000A4
:10520000FFFFFF004A0703D502681B23134003601A
:105210000822114004D001688906890E0A43026001
:105220007047FEE71949012282400868184B034085
:1052300013430B60704715490A68012383401548E2
:10524000184382430A607047890040180168802231
:10525000D2000A43026070470F4901228240086869
:10526000C001C009104308607047490140188354C9
:105270007047002800D0704780B501234B400B22B7
:105280000021A0200006FFF7F0FF01BD8080044050
:10529000FFFFEF25000010DAC0C1004010B5072065
:1052A000FFF7C0FF0020FFF7D7FF0120FFF7D4FF73
:1052B0000220FFF7D1FF0320FFF7CEFF0620FFF704
:1052C000CBFF0720FFF7C8FF0920FFF7C5FF0A2023
:1052D000FFF7C2FF0B20FFF7BFFF0C20FFF7BCFF5B
:1052E0000D20FFF7B9FF0E20FFF7B6FF0F20FFF7E5
:1052F000B3FF1020FFF7B0FF1120FFF7ADFF122022
:10530000FFF7AAFF1320FFF7A7FF1420FFF7A4FF62
:105310001520FFF7A1FF1620FFF79EFF1720FFF7CC
:105320009BFF1820FFF798FF0720FFF784FF8948AD
:1053300089490860894C11212000FFF785FF0B2166
:105340002000FFF781FF04212000FFF77DFF0321EC
:105350002000FFF779FF10212000FFF775FF0F21D4
:105360002000FFF771FF0E212000FFF76DFF0D21D8
:105370002000FFF769FF08212000FFF765FF0721E4
:105380002000FFF761FF02212000FFF75DFF0121F0
:105390002000FFF759FF12212000FFF755FF0A21D7
:1053A0002000FFF751FF09212000FFF74DFF0021EA
:1053B0002000FFF749FF1E212000FFF745FF1D21B8
:1053C0002000FFF741FF1C212000FFF73DFF1B21BC
:1053D0002000FFF739FF1A212000FFF735FF1921C0
:1053E0002000FFF731FF18212000FFF72DFF1721C4
:1053F0002000FFF729FF16212000FFF725FF1521C8
:105400002000FFF721FF14212000FFF71DFF0022DD
:1054100011212000FAF750FF00220B212000FAF79B
:105420004BFF002204212000FAF746FF002203214F
:105430002000FAF741FF002210212000FAF73CFF7C
:1054400000220F212000FAF737FF00220E21200052
:10545000FAF732FF00220D212000FAF72DFF00227B
:1054600008212000FAF728FF002207212000FAF780
:1054700023FF002202212000FAF71EFF0022012153
:105480002000FAF719FF002212212000FAF714FF7A
:1054900000220A212000FAF70FFF00220921200034
:1054A000FAF70AFF002200212000FAF705FF002288
:1054B0001E212000FAF700FF00221D212000FAF72C
:1054C000FBFE00221C212000FAF7F6FE00221B2121
:1054D0002000FAF7F1FE00221A212000FAF7ECFE74
:1054E000002219212000FAF7E7FE002218212000EF
:1054F000FAF7E2FE002217212000FAF7DDFE002273
:1055000016212000FAF7D8FE002215212000FAF714
:10551000D3FE002214212000FAF7CEFE10BD0000B9
:1055200070B5A0252D06280000F092FEFFF7B6FE0C
:10553000002400BF0BA6325D01209040084908609E
:10554000012300212800FFF790FE641C012CF2DBF0
:1055500070BD0000FFFFFF1F002400A000400440BA
:10556000802300A00B00010000E0491C0A78002AFB
:10557000FBD1081A7047FEE730B403000020D407BF
:1055800014D407E01D782D012C431C70D40701D4DE
:105590005B1C401C1400621EA4B2002C08D000BF8B
:1055A0003FA40D786457491C002CEBD5002000E087
:1055B000C0B230BC7047000030B413000DE000BF33
:1055C00032A40D782D11655D0570401C0D782D07F6
:1055D0002D0F645D0470401C491C1400621EE4B26F
:1055E000002CECD15800C0B230BC704780B56A4680
:1055F0000B001B0E13700B001B0C53700B001B0ACF
:105600009370D17004226946FFF7D6FF082002BDCF
:1056100010B40023036003E0046824012343036003
:1056200013005A1EDBB2002B08D000BF1CA30C785D
:105630001B57491C002BEFD5002000E0012010BCB7
:10564000704730B40023521ED2B207E0CC5C8D5CB0
:10565000C55484545B1CDBB2521ED2B29342F5DBBC
:1056600030BC7047010041391A2900D22030C0B245
:1056700070470200002000E0401C0B78491C1370AA
:10568000521C002BF8D1C0B27047000030313233C9
:10569000343536373839414243444546000000002E
:1056A000FFFFFFFFFFFFFFFFFFFFFFFFFFFFFFFF0A
:1056B000FFFFFFFFFFFFFFFFFFFFFFFFFFFFFFFFFA
:1056C000FFFFFFFFFFFFFFFFFFFFFFFFFFFFFFFFEA
:1056D00000010203040506070809FFFFFFFFFFFFA3
:1056E000FF0A0B0C0D0E0FFFFFFFFFFFFFFFFFFF79
:1056F000FFFFFFFFFFFFFFFFFFFFFFFFFFFFFFFFBA
:10570000FF0A0B0C0D0E0FFFFFFFFFFFFFFFFFFF58
:10571000FFFFFFFFFFFFFFFFFFFFFFFFFFFFFFFF99
:10572000FFFFFFFFFFFFFFFFFFFFFFFFFFFFFFFF89
:10573000FFFFFFFFFFFFFFFFFFFFFFFFFFFFFFFF79
:10574000FFFFFFFFFFFFFFFFFFFFFFFFFFFFFFFF69
:10575000FFFFFFFFFFFFFFFFFFFFFFFFFFFFFFFF59
:10576000FFFFFFFFFFFFFFFFFFFFFFFFFFFFFFFF49
:10577000FFFFFFFFFFFFFFFFFFFFFFFFFFFFFFFF39
:10578000FFFFFFFFFFFFFFFFFFFFFFFFFFFFFFFF29
:10579000FFFFFFFFFFFFFFFFFFFFFFFFFFFFFFFF19
:1057A000012181401E4802681E4B0B439A43026050
:1057B00002681D4B13400B4303607047C161704783
:1057C0004069C005C00D7047016170478168174886
:1057D000084070471649884201D10E20704715498C
:1057E000884201D10F2070471020704710B5040087
:1057F000FFF7F0FF10490122824008680F4B034079
:1058000013430B600A48844201D1032005E0094894
:10581000844201D1042000E00520FFF7C1FF10BD44
:10582000048004400020FEFFFFDF01007FFD010037
:10583000004006400080064080800440FFFFEF25C6
:1058400038B504000D00FFF742FC2901FEF791FE78
:10585000401E206231BD38B504000D0007E0200075
:10586000FFF7AEFF69460870280000F01CFD20001D
:10587000FFF7ACFFC007F2D431BD38B504000D000E
:1058800004E0684601782000FFF798FF2000FFF74A
:105890009DFF400705D56946280000F068FD0028F7
:1058A000EFD131BDF2B5050016001F000421FFF74E
:1058B0008BFF3A003100009800F00EFD04000099C3
:1058C0002800FFF7DAFF3A1B3119009800F004FDB9
:1058D0000421E9602018F2BD80B5080011001A000B
:1058E00000F05EFD02BD70B504000D001600FFF76C
:1058F0006DFF40070BD531002000FFF7BEFFF068B9
:105900003169884203D104212000FFF75DFF29009F
:105910002000FFF7A0FF70BD0121C006C00E81402E
:105920004648016070474649012282400868454B5D
:10593000034013430B60704741490A6801238340C9
:105940004148184382430A607047404908607047E5
:105950003F49012282400868C001C0091043086025
:10596000704701683B4A0A400121114301607047BA
:105970004168394A0A4042607047C160704701611E
:1059800070470368354A1A4011430160704770B58B
:10599000FDF762FA0720FFF7C6FF0120FFF7D5FFEA
:1059A0000020FFF7D5FF0021084600F041FD04214B
:1059B000012000F03DFD0720FFF7BEFF284D280025
:1059C000FFF714FF04212800FFF7DBFF0121E1208E
:1059D0004003FFF797FBE12149022800FFF730FF62
:1059E0002800FFF7BEFF2800FFF7C2FF1D4C2E0D59
:1059F00033000122210028312000143000F04BFC3C
:105A0000330001228520C0002118200000F043FC53
:105A100001212800FFF7B1FF04212800FFF7AFFFA5
:105A20000320FFF779FFFDF71DFA70BD80B50D4922
:105A30000A0014310A48FFF756FF01BD00E100E0FB
:105A400080800440FFFFEF25000010DA94800440BE
:105A5000C0C100407DDAFC000603010001DAFC0051
:105A600000400640D805001010B400231C0004704C
:105A7000047303814160428110BC704780B53E4988
:105A80000A78002A10D0A12A29D0A22A2FD0A52A2C
:105A90000CD0A62A10D0A82A13D0B12A3FD0B22AFF
:105AA0004ED0B32A5CD005E0A5220A70FF2801D1B0
:105AB000A6200870012002BD5528FBD1A82008703F
:105AC000F8E70200612A01D0412A02D1A120087022
:105AD000F0E7422AEED1B1220A700873EAE7020029
:105AE000742A01D0542AE5D1A2200870E2E70D28DB
:105AF00005D1A3200870FDF7FDFC002002BD0A8936
