:10000000B00C0010554000007F2200005323000078
:10001000000000000000000000000000296DFFEF5C
:100020000000000000000000000000002B24000081
:100030000000000000000000333000000D1A000036
:10004000774000007740000000000000C33000004F
:10005000774000007740000000000000774000007B
:1000600077400000774000007740000077400000B4
:1000700077400000774000007740000077400000A4
:100080007740000077400000774000007740000094
:10009000774000007740000077400000000000003B
:1000A000451500007B1700005518000025190000B9
:1000B0007319000095190000774000007740000098
:1000C00000000000400000000000000000000000F0
:1000D0000000000000000000000000000000000020
:0400E000000000001C
:0402FC00FFFFFFFF02
:10030000416270478068C005C00D704781607047CA
:10031000491E09070909114301627047C16170470D
:10032000521E120712090A43C02189031143816139
:100330007047406980B27047F8B57C4FF8667C4CD6
:100340002100B8204000381801F032FB2100C22003
:100350004000381801F02CFB2100CC204000381858
:1003600001F026FB01F0DDFB00F02FFF714C0322B2
:100370002100612000F0E1FF012020700220607068
:100380000320A07003222100612000F095FF0026C9
:100390002680A67003222100612000F0CEFF4220BB
:1003A00000F082FF207000F07AF8002000F024FFB7
:1003B00001F06BFC00246048610009194518287899
:1003C00000F032FFA978687800F068FF641C102CF8
:1003D000F1D3002000F028FF3E72F1BD5348007AAF
:1003E000704710B55149C86001F004FD0022534B1D
:1003F00001F010FD01F096FD04002102090E062017
:1004000000F04CFF2104090E072000F047FFE1B285
:10041000082000F043FF10BDF4B504000E001F00DB
:10042000012500F001FF3000FFF7DBFF052000F0A1
:10043000E3FE0120C046C04601F015FB0600300077
:1004400001F014FBB84207D2200000F09FFE009993
:1004500009B28142F3DA002500F0B7FC2800F2BDB2
:1004600038B500240025012000F0DEFEFF21112018
:1004700000F014FF052000F0BFFE0120C046C0467A
:100480002C2000F011FFC107C90FA14029430D0026
:10049000641C202CF1DB00F098FC280032BDF8B57C
:1004A000092000F001FF0700062000F0FDFE040017
:1004B000072000F0F9FE210404020C43082000F09C
:1004C000F3FE204301F096FC00221C4B01F041FD9D
:1004D00001F028FD06000021092000F0DFFE3B208E
:1004E00000F0E2FE0100402421433B2000F0D6FE54
:1004F00020253B2000F0D8FE2842FAD11048FFF713
:1005000070FF3B2000F0D0FE044321003B2000F0B0
:10051000C5FE3B2000F0C8FE2842FAD13900092070
:1005200000F0BCFE3000FFF75CFFF1BDF0050010ED
:10053000391400009C0800101415000080844E40FF
:1005400000A1BC33002100BF07A2CB00D218136862
:10055000984204D39368984201D210797047491C9D
:10056000C9B21529EFD3FEE7280A000017000000E2
:100570001C0C00000F0000003C0F000007000000F2
:1005800050140000160000009C1800000E0000002F
:10059000781E000006000000A028000015000000E2
:1005A000D43000000D000000F03C00000500000009
:1005B0004051000014000000A86100000C00000081
:1005C000447A000004000000E4A2000013000000D0
:1005D00050C300000B00000024F4000003000000E2
:1005E0008545010012000000A08601000A000000FD
:1005F00048E80100020000002C8B020011000000FE
:10060000400D03000900000090D00300010000002D
:10061000E093040000000000F9B585B00E0014005E
:100620006846007D00F000FE6846808E000A69463C
:100630000873A74D28000C3002900F9F149815994D
:100640006A46127D002A03D0012A00D187E03DE1ED
:10065000029AD660029A54610C9A029B1A61029A1D
:10066000977610AA1278029BDA7611AA1278029B6A
:100670001A77029A5077029881776846808E02999D
:100680000883200001F0B6FB04000D006846008FCF
:1006900001F0B0FB0090019100208E4922002B0058
:1006A00001F0B8FB00228C4B01F053FC009A019B37
:1006B00001F04FFC0022894B01F04BFC01F032FCB1
:1006C000029948620020864922002B0001F0A2FB1B
:1006D00001F016FC84B2210A022000F0DFFDE1B235
:1006E000032000F0DBFD3000FFF72CFF010012209B
:1006F00000F0D4FD0C98FFF725FF0100132000F057
:10070000CDFD6846017B252000F0C8FD6846818E3E
:10071000C9B2262000F0C2FD002F02D010A8017837
:1007200000E0FF21322000F0B9FD302000F0BCFDD8
:10073000002F01D0002200E080226F2101400A43F7
:1007400011A8007801011143C9B2302000F0A6FDC4
:10075000312000F0A9FD402101433120B4E0032EF7
:1007600000D3FEE7F61D029AD663029A1464503550
:100770006A46127E6A706A46928E6A802F7110AA4B
:1007800012786A7111AA1278AA71129AEA71139AF0
:100790002A726872A9720D2C01D30C2402E0062C77
:1007A00000D20624072E02D10B2C02D103E0082E22
:1007B00003D10C2C01D1012000E0002028701D2065
:1007C00000F072FD30016946097E4900014339435A
:1007D000C9B21D2000F062FD1E2000F065FD082159
:1007E00008402101014311A80078800008436946B0
:1007F000098F8905890F0143C9B21E2000F04EFD03
:10080000262000F051FDF72202402878C100114354
:10081000C9B2262000F042FD6846018FC9B21F20F0
:1008200000F03CFD6846017B202000F037FD684663
:10083000818EC9B2212000F031FD002F04D010A814
:100840000178222000F02AFDE87900280BD044200E
:1008500000F02AFD80210143442000F01FFD297A89
:10086000242000F01BFD092E0AD102980068A0493F
:10087000884208D30221362000F010FD642107E0F1
:100880000321362005E00221362000F007FD7F21FC
:100890003A2000F003FDF825062C0AD1312000F0A3
:1008A00003FD054005212943312000F0F7FC0C2110
:1008B00009E0312000F0F8FC0540032129433120F4
:1008C00000F0ECFC0A21372000F0E8FC07B0F0BD96
:1008D000F00500100000F03F0000204000408F4075
:1008E00080847E41F1B582B00F0016001D0068467D
:1008F000007A00F099FC380001F001FA6846008D9A
:10090000000A694608707B4A089C0F9810996B464C
:100910001B7A002B02D0012B5DD0F7BD103217706F
:100920005660956014616B461B8D93820BAB1B78F0
:1009300093750CAB1B7813765076D161300001F0C3
:1009400059FA00226C4B01F065FA01F0D9FA86B22F
:10095000310A042000F0A2FCF1B2052000F09EFC58
:10096000200001F047FA02000B000020634901F06B
:1009700051FA01F0C5FA84B2210A022000F08EFC7F
:10098000E1B2032000F08AFC68460178252000F0DF
:1009900085FC6846018DC9B2262000F07FFC30201E
:1009A00000F082FC0BA90978002901D0002200E0A8
:1009B00080226F2101400A430CA8007801011143F5
:1009C000C9B2302000F06AFC312000F06DFC4021FB
:1009D0000143312088E0443216003770032D00D3E4
:1009E000FEE7ED1D7560B460099F77736A46128D4E
:1009F000F2810BAA127832740D9AF2740E9A327543
:100A00000CAA1278B2747075B1610D2C01D30C244C
:100A100002E0062C00D20624072D02D10B2C02D1B5
:100A200003E0082D03D10C2C01D1012000E00020AF
:100A30003073F07C00280BD0442000F035FC80217E
:100A40000143442000F02AFC317D242000F026FCE4
:100A50001D2000F029FC28017A0002430BA8017830
:100A60001143C9B21D2000F019FC1E2000F01CFC2F
:100A70000B210140200108430CA90978890001439A
:100A8000C9B21E2000F00AFC262000F00DFCF7225F
:100A90000240307BC1001143C9B2262000F0FEFBAA
:100AA00068460178202000F0F9FB6846018DC9B244
:100AB000212000F0F3FBF825062C0AD1312000F0AC
:100AC000F3FB054005212943312000F0E7FB0C2111
:100AD00009E0312000F0E8FB0540032129433120E3
:100AE00000F0DCFB0A21372000F0D8FBF7BD000046
:100AF00041DD4A1FF005001080844E4080847E4115
:100B0000F2B588B001000020B74A00920024002509
:100B1000002902D0012956D0D8E0272000F0C4FBDC
:100B2000060000988079002802D004A830C002E0B6
:100B3000AE4904AA03C2302000F0B6FB06210842E9
:100B400004D00020A94902AA03C201E002A830C0D3
:100B50000098007A002801D08025ED050098808853
:100B6000F8218E438019401C01F03AF904AA0CCAFE
:100B700001F0B1FA02AA0CCA01F0ADFA06000F00AA
:100B800008A8007801F036F932003B0001F0A3FA22
:100B900000222B0001F09FFA0022954B01F0D9F9B9
:100BA00004000D000098006801F024F902000B0019
:100BB0002000290001F02EF900228E4B01F0C9F926
:100BC00001F05EFB80E000260027906A072804D031
:100BD00008D3092805D002D304E0874F02E0874FED
:100BE00000E0874FD06A039001200399884001F00C
:100BF000F7F802000B000020390001F00BF90200A9
:100C00000B000020794901F005F904AA03C27D48D0
:100C10000290408801F0EEF800227B4B01F05BFA75
:100C200004AA0CCA01F095F906AA03C20298007939
:100C3000002800D0142002990978002900D002264B
:100C400008A90978C900039A9200891A029A927930
:100C5000120189181C31081A01F0CCF8009001919A
:100C60000398801B800001F0C5F802000B0000987B
:100C7000019901F0CFF801F027FB06000F00029860
:100C80004078001D01F0ACF832003B0001F061F942
:100C90000022002301F044FB01D300200021544B2B
:100CA00001F019FA04AA0CCA01F053F906AA0CCAF9
:100CB00001F011FA00224F4B01F04BF953A20CCA7C
:100CC00001F009FA01F046FB01F02CF909B0F0BD82
:100CD00073B5050000204F4C210009310A78002A25
:100CE00002D0012A31D06DE026002C36B082684651
:100CF00000797082487F002804D1012101A800F00A
:100D000061FB04E068460179322000F0C7FA6846CA
:100D10000079002806D068460079412802DA684642
:100D2000007907E06846027929007034200001F05C
:100D30003DFB2020F075F17D280000F043FBB08AD8
:100D4000F17D4018B08230683CE05920205C0028DA
:100D500009D0332000F0A8FABE210140332000F072
:100D60009DFA19210AE0332000F09EFABF220240CA
:100D700001211143332000F091FA1D213B2000F0A6
:100D80008DFA5C3468460079207368460179222028
:100D900000F084FA00210E2000F080FA00210D20DE
:100DA00000F07CFA012000F07FFA400704D100F047
:100DB00033F80120C046C04668460179280000F09B
:100DC00001FB206800F03AF973BD10B5CF4CC2208A
:100DD0004000201800F036FEB8204000201800F037
:100DE00031FE002025E00000100600100000F03F5A
:100DF0000000204000408F408084FE4080840E41EF
:100E000080841E4140060010000011402B8716D937
:100E1000CEF7EF3FF005001010B5BC4CC2204000EB
:100E2000201800F00FFEB8204000201800F00AFE45
:100E3000012000F0E1F90020207210BDF1B582B070
:100E40000025B24C200030300090260008360127E3
:100E50007078002802D001282AD0C0E02A20205C27
:100E600069460871402000F01FFA0007000F0C21AE
:100E70000143402000F012FA412000F015FAC12190
:100E80000143412000F00AFA352000F00DFA8006F7
:100E9000800E009988741E210D2000F0FFF9009942
:100EA0000D7100994D7100990D820098C58194E0F3
:100EB00025005735A878002809D0332000F0F4F930
:100EC00041210143332000F0E9F9192109E03320E1
:100ED00000F0EAF9BF2101403943332000F0DEF988
:100EE0001D213B2000F0DAF900988069092848D2DA
:100EF000312000F0D9F94106490E312000F0CEF939
:100F00000021302000F0CAF900988069082840D8F4
:100F100001A1095C8F4400BF0A1826344250646462
:100F2000640048212F2000F0B9F97068AE4921E033
:100F300044212F2000F0B2F97068AC491AE0442136
:100F40002F2000F0ABF97068A94913E044212F204D
:100F500000F0A4F97068A7490CE044212F2000F0AC
:100F60009DF97068CB4905E044212F2000F096F9E7
:100F70007068C9494018FFF734FA0AE040212F2071
:100F800005E0312000F090F980210143312000F08C
:100F900085F9E878694608712878002809D01D216C
:100FA000112000F07BF9402000F07EF93321014050
:100FB00008E01F21112000F071F9402000F074F9C1
:100FC0008106890E402000F069F900210F2000F011
:100FD00065F900210D2000F061F9684605793902B4
:100FE0002000703001F016FA37700298002809D0FE
:100FF000C220400027180299380000F02CFD38006C
:1010000000F0DDFC7078002810D1052000F0F4F825
:10101000002D12D1CC204000241800980168200037
:1010200000F019FD200000F0CAFCF7BD002D01D032
:10103000052000E0062000F0DFF8F7BDF8B5334EDC
:10104000B8214900711800910100009800F003FDDB
:101050003700083742363F247878002802D001282C
:1010600018D033E0402000F01FF98007800F1021D6
:101070000143402000F012F9412000F015F93E2113
:101080000140412000F00AF9352000F00DF904403C
:1010900034701BE04025707D00280AD0F521112016
:1010A00000F0FCF8402000F0FFF8332101400D4330
:1010B00008E0F721112000F0F1F8402000F0F4F8EA
:1010C000044025432900402000F0E8F80220387051
:1010D000009800F074FC032000F08EF8F1BD10B50C
:1010E0000A4C607A012810D1FA21112000F0D6F8BC
:1010F000402000F0D9F8FC210140402000F0CEF85B
:1011000003202072072000F077F810BDF0050010D2
:1011100070B58AB00C00FA26B6005643FFF761F9A5
:1011200008960020079006900590049003900520F3
:1011300002900020019096204001009000230022A0
:1011400021000020FFF7CEFB312000F0ADF8BF21D9
:101150000140312000F0A2F8F021402000F09EF87C
:10116000A021412000F09AF8B04CB820400025188A
:101170003100280000F06FFC02202072280000F0EF
:101180001EFC032000F038F80AB070BD80B50028BE
:1011900002D0012806D014E0112000F085F84108A3
:1011A000484210E0A148C068A149884204D31B20EE
:1011B00000F07AF89D3806E01B2000F075F8A4389E
:1011C00001E00020C04300B202BD10B58024240419
:1011D000984804600120C046C046C9480460062003
:1011E000C046C04610BD0000821E0000B4280000AA
:1011F000043D00005E51000010B5040003D1012041
:1012000000F0C8FD05E0002000F0C4FD2000C0464D
:10121000C046012000F048F8F82101400C432100AD
:10122000012000F03BF810BD38B5050080240120F6
:1012300000F03AF82040010000D001217B484172C3
:10124000417AA94224D04572012D0FD0FFF7BDFD90
:10125000012000F029F84106490E012000F01EF897
:101260000021402000F01AF830210EE0FFF7ADFD1C
:10127000012000F019F804432100012000F00EF8CD
:101280000021402000F00AF80021412000F006F87B
:1012900031BD0000127A0000C6A2000002B5012292
:1012A000694600F009F801BD80B50122694600F0E9
:1012B00044F86846007802BDF2B506001700002524
:1012C000904C3C212000FFF721F880229203082156
:1012D0002000FFF71DF82000FFF714F88007FAD56B
:1012E000802131432000FFF719F801262000FFF785
:1012F00009F83040FAD02000FFF71BF80CE0082274
:101300002000FFF70DF82000FEF7FCFF3040FAD078
:101310002000FFF70EF86D1CBD420DDA2000FEF72D
:10132000F1FF8007FAD50098415D781E8542E6D02E
:101330002000FEF7F3FFE6E7F1BDF2B50600170067
:101340000025704C3C212000FEF7E0FF8022920334
:1013500008212000FEF7DCFF2000FEF7D3FF800706
:10136000FAD57106490E2000FEF7D8FF01262000AD
:10137000FEF7C8FF3040FAD02000FEF7DAFF0099F0
:1013800008700FE0082255212000FEF7C9FF200059
:10139000FEF7B8FF3040FAD02000FEF7CAFF0099F0
:1013A00048556D1CBD420CDA2000FEF7ABFF8007EC
:1013B000FAD5781E8542E5D055212000FEF7AEFF14
:1013C000E5E7F1BD80B50A0001000020FFF774FFDA
:1013D00001BD80B50A0001000020FFF7AEFF01BD8E
:1013E00038B505000C00FFF71FFF002D02D0012DBE
:1013F00007D031BD44480078002806D121003220B2
:1014000001E021002320FFF749FF31BD10B50400A2
:101410000120FFF709FF3D480470002C01D0342162
:1014200000E012213920FFF739FF10BDF005001050
:1014300041DD4A1F802200A0F8B5354D2F006037EE
:1014400028000830009000240078012802D00228EB
:1014500030D0F1BD00984078002823D12E002A36E4
:101460007481F482B4820B213E20FFF717FF102114
:101470003F20FFF713FFCC2040002D1830780028C4
:101480000BD00D20FFF710FF402101430D20FFF787
:1014900005FF280000F093FA04E00098047028008B
:1014A00000F0D0FAF868002829D0C068010026D0E2
:1014B0008047F1BDFFF789FEFEF7F1FF0020FFF73F
:1014C0009BFE002513A06900491946183078FFF7E4
:1014D000ABFEB1787078FFF7E1FE6D1C102DF1D3F3
:1014E0000020FFF7A1FE3878FFF790FF0098047006
:1014F000F868002803D04068010000D08047F1BDA3
:10150000002200A000C00540160600105006001082
:10151000F0050010000C23000D1E000ED2001A0171
:10152000001FAA0024070027120028C100299400E8
:101530002AC10030D800358F003B02004000004136
:1015400030012340FEB5002569460D720121BF48D8
:10155000FEF7D6FEBE4C270008373878012803D0A6
:10156000022800D1F4E0F7BDC2204000201801900D
:101570007878002802D001287CD0F7BDCC2040002C
:101580002018009026002836307800282ED03F20E2
:10159000FFF78AFE694608726846007A800725D4FC
:1015A0000B213E20FFF77AFE10213F20FFF776FE49
:1015B000019800F047FAB078002804D1009800F0B4
:1015C00041FA3D700AE00D20FFF76EFE4021014315
:1015D0000D20FFF763FE009800F0F1F9E06E00289F
:1015E00044D00069010041D080473FE0F08A0028E4
:1015F0000FD1308B00280CD1B87F002805D10121F4
:1016000020003E30FFF7E5FE03E03220FFF74CFEFE
:10161000F082308BF18A091AC9B220187030FFF7B6
:10162000D8FEF08A3083019800F00CFAB0780028D8
:1016300004D13D70009800F005FA0AE00D20FFF794
:1016400033FE402101430D20FFF728FE009800F0F3
:10165000B6F9E06E002809D08768380006D000236C
:101660000E203256F18A70342000B847B581358398
:10167000F582F7BD40211220FFF710FE1220FFF780
:1016800013FE6946087226005A366846007A8006BC
:1016900012D520211220FFF701FE3078002800D15A
:1016A0003D70019800F0CEF9E06E002864D000692A
:1016B000010061D08047F7BD1920FFF7F5FDB0723A
:1016C0000A2031563F200A0607D5CA43521C911002
:1016D0000840414249B2009102E089100840009060
:1016E0001A20FFF7E1FD010000090A187868AC49EB
:1016F000009B002B00D5D218884201D39D3A00E010
:10170000A43AB2811320FFF7CFFDB0731020FFF78A
:10171000CBFD01000D20FFF7C1FDB17B2000703033
:10172000FFF757FE3078002800D13D70019800F097
:1017300089F9E06E00281FD0856828001CD00A2097
:1017400033560C20325EB17B70342000A847F7BDC1
:10175000B8204000201800F075F97878012803D1EE
:1017600008211220FFF79AFD3D70E06E002803D09B
:101770000068010000D08047F7BD70B502213348F2
:10178000FEF7BEFD874C2600423625000835287836
:10179000012802D002283FD070BD6878002802D00E
:1017A000012826D070BDE88E00280FD1288F002890
:1017B0000CD1A87F002805D1012120003E30FFF781
:1017C00008FE03E03220FFF76FFDE8862A8FA0189D
:1017D000EB8E31789C1AA14205DA7030FFF7F9FDE3
:1017E000288F317827E0991AC9B27030FFF7F1FDE0
:1017F00028E0C2204000201800F024F980211220A7
:10180000FFF74CFD00202870E06E00281CD0C06857
:10181000010019D0804770BD6878002814D12A8F44
:10182000A018EB8E71789C1AA14206DA7030FFF78F
:10183000C9FD288F7178401805E0991AC9B2703037
:10184000FFF7C0FDE88E288770BD0000004000A0B3
:10185000F005001070B504215348FEF751FD514DBD
:10186000681D3F24C178012902D0022941D070BDF2
:101870000179002902D0012935D070BD2C00343403
:1018800001260078002801D1267002E02078012886
:1018900047D16078002844D1CC204000281800F0BF
:1018A000D1F866701120FFF7FFFC40084142A1709B
:1018B0001B20FFF7F9FC05021C20FFF7F5FC28436D
:1018C00000F08EFA00F01CFB00F08AFA0022374B81
:1018D00000F03FFB00F014FB60600C20FFF7E4FC1D
:1018E0004009207270BD5720285C002819D00221C1
:1018F00006E00079012814D15720285C002810D078
:101900001220FFF7CBFCE86E00280AD040690028BF
:1019100007D01C20FFF7C8FC04402000E96E49698D
:10192000884770BD10B508211F48FEF7E9FC1D4C23
:10193000607A01281CD11220FFF7B6FCC0070BD536
:1019400005211220FFF7AAFCE06E002810D0816963
:1019500008000DD001200AE004211220FFF79EFCB0
:10196000E06E002804D08169080001D0002088477B
:1019700010BD80B510210C48FEF7C2FC0948417A21
:10198000002906D13421415C002902D101213430E3
:10199000017001BD80B520210348FEF7B1FC01BDF7
:1019A00041DD4A1FF0050010004000A080844E4039
:1019B0000022026042600272C16002617047F8B5A5
:1019C0000400304D6E68370000F0FAFC002C14D093
:1019D0006068002811D0206029684018206001202C
:1019E00020726868010002E0A14206D0096900295E
:1019F000FAD12161002804D16C6000F0E7FCF1BD50
:101A000037003669002EFBD13C61F6E738B51D4C36
:101A1000656800F0D5FC2068401C20600DE0287A45
:101A2000002809D028682168884205D10020287242
:101A3000E868010000D080472D69002DEFD100F04B
:101A4000C5FC31BD10B5040000F0BAFC00202072C6
:101A500000F0BCFC10BD38B505000C00FFF7F2FF2C
:101A60002C606C6031BD0748006870470549096803
:101A7000814204D20022D243101A40187047081A3B
:101A800070470000940800100121C006C00E81407C
:101A9000C3480160704701218140BD480268C14BC5
:101AA0000B439A4302600268BF4B36E0BF4A800096
:101AB00011507047BE49012282400868C0B21043ED
:101AC00008607047BB49012282400868BA4B034056
:101AD00013430B6070470268FF23DB430B439A43B9
:101AE000026070478160704701239340890040186D
:101AF000902189014350704780B5002B07D0012306
:101B00009340890040188E218901435001BDFFF7A1
:101B1000EBFF01BD0268FF23BE3313400B4303609C
:101B2000704738B50720FFF7CDFF13210020FFF7DE
:101B3000BDFF0020FFF7BEFFA024240613220021D2
:101B40002000FFF7D1FF12210120FFF7AFFF012096
:101B5000FFF7B0FF122200212000FFF7C5FF11217F
:101B60000220FFF7A3FF0220FFF7A4FF11220021AC
:101B70002000FFF7B9FF15210320FFF797FF03208F
:101B8000FFF798FF152200212000FFF7ADFF142179
:101B90000420FFF78BFF0420FFF78CFF14220021A5
:101BA0002000FFF7A1FF0123172200212000FFF7EB
:101BB000A3FF824D02221921280000F02DFC0123F1
:101BC0000E2200212000FFF797FF02221221280099
:101BD00000F022FC0123192200212000FFF78CFFD6
:101BE00002221721280000F017FC00230722002101
:101BF0002000FFF781FF00220F21280000F00CFCDD
:101C00000123062200212000FFF776FF0222102187
:101C1000280000F001FC0E21612000F007FC1921D2
:101C2000522000F003FC0721602000F0FFFB06219A
:101C3000532000F0FBFB5F480168614A0A400260E4
:101C40000C20FFF73FFF0120FFF725FF5D4C2068C8
:101C5000FF2182310140216004212000FFF75AFF5B
:101C6000F020000320625849200000F00DFC002005
:101C700069460860200000F01FFC01212000FFF7EA
:101C800049FF0C20FFF71EFF31BD10B54F4C01215D
:101C90002000FFF720FF01212000FFF723FF18207D
:101CA000FFF7F2FE02212000FFF715FF02212000BE
:101CB000FFF718FF1920FFF7E7FE04212000FFF7C8
:101CC0000AFF04212000FFF70DFF1A20FFF7DCFEBA
:101CD00008212000FFF7FFFE08212000FFF702FF88
:101CE0001B20FFF7D1FE10212000FFF7F4FE10218A
:101CF0002000FFF7F7FE1C20FFF7C6FE10BD70B5F1
:101D000005000920FFF7D0FA4D20FFF7CDFA0400B7
:101D10002F48C0682F49884201D2F02000E070208F
:101D20000F2103061FD50723122D02DB26000724EF
:101D300002E0F8262640042434432340072B08D130
:101D4000052D01DA052502E0152D00DB14256A1F9B
:101D500007E0022D01DA022502E0122D00DB112539
:101D6000AA1E11400AE00023DB439D4201DA1D4612
:101D700002E00F2D00DB0E256D1C294001430920D8
:101D8000FFF78CFA21004D20FFF788FA70BD0000A4
:101D90000480044010490A78824200D008707047DD
:101DA00000E100E00020FEFFFFDF01007881044039
:101DB0000482044080800440FFFFEF25004004407F
:101DC0007FFFEF2500C0054040420F00004000A00B
:101DD000F005001040DD4A1FA808001001207047E0
:101DE000010009D5F446404200F006F80122D2076E
:101DF00011436047010000BF42221201D21E00427F
:101E000007D002D4521E0018FCD5C10A40051205A5
:101E100089187047F0B40E005E400125ED072E4092
:101E2000B446AE0ADF184C18F4423BD2F74241D216
:101E3000640D43D07F0D38D0E41BC902DB02294377
:101E40002B43CF0ADB0A0600B61A9F4104D2641E58
:101E5000B6197F41B6185F416812800D241800182A
:101E6000844222DAE80C0021B6197F41B61A9F415C
:101E700002D2B6185F413F1C40414941F4D3241CB3
:101E800021DD2405B6197F41B61A9F4105D337439A
:101E9000C60737430026012F704161416646314332
:101EA000F0BC7047FCD1F74205D20020C143490580
:101EB0004908F3E704D00020C143F1E77F0DFAD0D1
:101EC00000206146ECE72442FAD1401C61410F0337
:101ED000F6D30020E2E730B4012100220368001DA0
:101EE000002B0BD00468001D0C4202D04D466D1E25
:101EF00064192260241D1B1FF0D0FAE730BC704724
:101F0000F4464A1805D200F00FF801D580174008B2
:101F1000604700F009F80121C907884200D908008C
:101F2000404260474A1812D2400DC90208430121BD
:101F3000C9070843520D40210901521A521C06D408
:101F400052421F3201D4D0407047C0177047002062
:101F50007047F0B50E005E400125ED072E40B446F7
:101F6000AE0ADF184C18F44208D2F7420ED2640DC4
:101F700001D07F0D12D100206146F0BD05D1F7429E
:101F800001D87F0D05D10020C143F0BDFBD1640D08
:101F9000F9D00020C143490549088FE0E419C9027E
:101FA000DB0229432B43DB0A460DC00231438E4638
:101FB00030B487B295B27D432E0CADB2140C7C4385
:101FC000A419260C240425439CB27C43A419190CA3
:101FD0007943270CC919A4B20F043C43090C000C27
:101FE00097B247432E0CBE193543ADB2170C474389
:101FF000360CBF19A6B2BF193E043543240C3E0C63
:1020000036199FB24743BF19BCB23E0C89191F0C49
:1020100047437F183E043443390C704680B297B270
:1020200047432E0CBE193543ADB2170C4743360C4F
:10203000BF19A6B2BF193E043543240C3E0C361915
:102040009FB24743BF19BCB23E0C89191F0C4743CE
:102050007F183E043443390C77463F0C90B27843E6
:102060002E0C80190604ADB22E43050CA0B22D181B
:10207000120C7A435019020C80B2240CA4189AB2A4
:102080007A43121914042043120C89181B0C7B4349
:10209000C91830BCEF0A394203D1B6194041494151
:1020A000641E6F12BF0DE41B0BDBFF19BC4211DA7B
:1020B000240500274208AE4178416141664631431C
:1020C000F0BD641C05D1401C6141CF0201D3490819
:1020D000F4E750E75DE7F0B40125ED070F005F403E
:1020E0004FD48B4200D1824205D98446100062460B
:1020F0008C4619006346DF184C18640D7F0D3AD0EA
:10210000661C760537D0E61B352E34DCDB022B430C
:10211000DB0A0C0DC9022943C912202E0DDB170062
:10212000203E06D01F00F741F3405F400026012A01
:102130007741C01871410DD217E01700F741F24006
:102140005740F3415A40B340F3405A4000268018AC
:1021500059410AD3A21C52050FD0C207012F724168
:1021600017004008CB0718434908641C240542089F
:10217000AF4170416141F0BC7047641C21050020F3
:10218000F9E76B400AE06B40ABE7F742F3D1E94374
:10219000F1E72442EFD100200021ECE70C00871A80
:1021A0009C4105D2C01BA141D219634169406B40DB
:1021B000AE0ADF184C18F442E7D2640D7F0DE8D068
:1021C000E61B362ED7DCDB022B43DB0AA4460C0DC4
:1021D000C9022943C90A012E28DC04D1D6075208B6
:1021E000DF073A435B08EF0A76429041994114D0E9
:1021F00039423BD1B61940414941761C394204D19C
:10220000761C001849413942FAD0B9436746B742B3
:1022100008D9A41B24052143ADE70042EAD1364288
:10222000E8D1A8E7E40AE1070020A4E7202E0BDDAF
:10223000203E1F00F340F7415F40012A0022574132
:102240007E42984191410BE01700F741F240574020
:10225000F3415A40B340F3405A407E429041994185
:102260000A0303D2641EB619404149410027641E87
:1022700024054208AE4178416141F0BC7047FEE759
:1022800083B50121684600F02DF9401E012813D9BD
:102290000021684600F026F900280DD0019800289A
:1022A00068460CC802D50020054901E00020054918
:1022B000FFF711FF6A4603C2684603C803B000BDBA
:1022C0000000F0BF0000F03F4A00520DFF239B00CA
:1022D0009B1CD21A19DD35239B1A1EDD1300153BFA
:1022E00009DA9B41DB0AD340094201D4401E59411F
:1022F0000020994370470022D243DA40094202D4B9
:10230000002380185941904370470B0D5B0500D0A6
:10231000024901D30121C907002070470000F03FA6
:1023200030B4012464054D00EC420BD85D00EC4252
:1023300008D80C001C4364000443144304D28B42AD
:1023400000D1824230BC7047FCD09942FAD1904211
:10235000F8E7FEE74A00520DFF239B009B1CD21AB0
:1023600019DD35239B1A1DDD1300153B09DA9B414E
:10237000DB0AD340094201D5401E59410020994350
:1023800070470022D243DA40094202D50023801868
:102390005941904370474B00034300D0024900D29B
:1023A00000210020704700000000F0BF03E00B7820
:1023B0000370491C401C13005A1E1B04F7D17047C0
:1023C00072B607480178491C0170704704480178CB
:1023D000491E0170090600D162B670470000000076
:1023E000A9080010130030B414001500103902D3EE
:1023F00010393CC0FCD2490700D30CC000D504C042
:10240000890002D30280801C002900D5027030BCF4
:10241000704700000022E5E7890040180168182392
:102420009943D2000A4302607047FEE710B50207E5
:10243000520E00090D4B800018180368FF249440C9
:10244000A34391401943016010BD01228240084816
:102450000029016804D0FE231B061343994302E0C0
:10246000C901C909114301607047000000C0004064
:10247000C0C1004010B5040000F0CAF8616A89B21A
:10248000491C00F04FF910BD38B504000D0000F0F4
:10249000BFF8290000F046F9002801D1012003E02F
:1024A0000449884200D3481E401E60622000FFF7A6
:1024B000E1FF32BD0100010010B50F220B7813407F
:1024C0004C78144024011C438B7813401B02234397
:1024D000C978002904D01C00491E0A401303234375
:1024E000436010BD42685200520D1F4B9A4209D101
:1024F0004168090304D10068002801D10120704718
:102500000220704743685B0002D10368002B28D08B
:10251000164B9A1A521A012A23DB352A07DB416827
:1025200080221206114041600021016016E0012165
:10253000D306DB0E9940491E920608D542680A4030
:1025400041685140416003681343002103E0036880
:102550000B40016859400160002B02D00020C043AD
:1025600070470020704700BFFF07000033040000E1
:10257000504900E050490860002048600120486050
:102580007047000000B54D480068C105C90D00BF87
:1025900054A04A0992008058C906C90E491C490036
:1025A00000F0C0F800BD434800688007800F04D0E9
:1025B000012804D0032804D006E041487047414870
:1025C00000E04148006870470020704780B5FFF781
:1025D000EAFF3E490968C906C90E491C484302BDC5
:1025E00080B50020344909688907890F05D0022980
:1025F00008D004D3032908D002BD314802BDFFF73B
:10260000D2FF02BDFFF7BEFF02BDFFF7DFFF02BD35
:1026100080B5FFF7E5FF2E490968C9B200F082F8DE
:1026200002BD38B52B4C2068C5B2002D01D1002069
:1026300032BDFFF7D5FF290000F074F8E26DD2B289
:10264000FF2A08D1226E010E0002D2B2A30DD218C9
:10265000002300F0BEF832BDF8B505000C00FFF70E
:10266000BFFF0600290000F05DF8010000D1012144
:10267000184FC8B23860002C16D017480268174BA4
:10268000134003600268164B134004221A43026091
:10269000FF20F865300000F045F80002290000F046
:1026A00041F8C0B2386601E00020F865FFF7B9FFD5
:1026B000F2BD00004080044070800440248004404B
:1026C000001BB70064400000684000000880044020
:1026D000788004409480044004800440FBDF0100C3
:1026E000FFDF010000000000C02709009005100076
:1026F000C05C1500F0B31A00200B2000009F2400DE
:10270000E0322900C0C62D0050973100E067350047
:102710007038390000093D00401640008023430016
:10272000C03046000022030A8B420BD203098B42C1
:1027300019D243088B422ED2411A00D2014652418F
:1027400010467047FF2209023FD012068B4205D384
:10275000121209028B4201D31212090203098B42A1
:1027600019D300E0090AC3098B4201D3CB01C01A77
:10277000524183098B4201D38B01C01A5241430954
:102780008B4201D34B01C01A524103098B4201D342
:102790000B01C01A5241C3088B4201D3CB00C01AAF
:1027A000524183088B4201D38B00C01A5241430827
:1027B0008B4201D34B00C01A5241884200D3401AC9
:1027C0005241CFD201461046704708B5C046C046B8
:1027D00008BD124224D0994228D970B500251B4269
:1027E00002D00C00002109E00024012649186441B0
:1027F000944200D3A41A7641F8D33100012601E0B7
:10280000764109D2001864416D41A41A9D41F7D266
:10281000A4185D41B619F5D3300022002B0070BD1D
:102820001B42D8D108B5C046C04608BD01D1904270
:10283000D3D202000B0000210020704700B585B004
:1028400000F094FA684600F09CFAFFF7B9FD1F21EA
:102850001F2000F06DFA1F211F2000F083FA1F21B6
:102860001F2000F065FA40227049F820C00100F0F6
:1028700066FAFFF7ABFD6E48F821C90001606D49AB
:1028800041604168C90FFCD105B000BD80B56A4800
:1028900001E080B56948FFF7D5F80021002000F07D
:1028A000BCFA01BD70B5664C0025664E3078002834
:1028B00005D0022823D012D3032830D03EE02000D8
:1028C000FFF7C0F80121002000F0A7FA64212000E2
:1028D000FFF7C1F82000FFF772F801252EE0200075
:1028E000FFF7B0F80021002000F097FAC82120007F
:1028F000FFF7B1F82000FFF762F802251EE0200084
:10290000FFF7A0F80121002000F087FA64212000E1
:10291000FFF7A1F82000FFF752F803250EE0200092
:10292000FFF790F80021002000F077FAFA218900E3
:102930002000FFF790F82000FFF741F8357070BDD8
:1029400070B5564C0025564E3078002802D001282C
:1029500010D01EE02000FFF775F80121002000F0E4
:102960005CFA64212000FFF776F82000FFF727F8D3
:1029700001250EE02000FFF765F80021002000F09F
:102980004CFAFA2189002000FFF765F82000FFF7D4
:1029900016F8357070BDF8B50400424D982040001F
:1029A00028180090FFF74EF8A22040002F1838009A
:1029B000FFF748F8AC2040002E183000FFF742F82F
:1029C000B62040002D182800FFF73CF80021002019
:1029D00000F023FA002C03D0022C15D00AD3F1BD4D
:1029E0000121002000F019FA19210098FFF733F8AF
:1029F000009817E00121002000F00FFA3221380082
:102A0000FFF729F838000DE0FA24A4002100300077
:102A1000FFF721F83000FEF7D2FF21002800FFF772
:102A20001AF82800FEF7CBFFF1BD0000B00500103A
:102A300020000440000800807405001060050010AC
:102A40009C050010A608001010B5164C98214900EE
:102A50002000FFF7DFFC00F0EDFA00F0F9FA962213
:102A600052002100974800F041FB97499820400010
:102A70002018FEF79DFF9549A22040002018FEF780
:102A800097FF9349AC2040002018FEF791FF914931
:102A9000B62040002018FEF78BFF10BD88050010FF
:102AA000A708001030040010F0B59BB08A4C2078C5
:102AB00000F0E7FB83490A89D2B22500002A1BD027
:102AC0006678330090A176280DD1022A1ED13F2BC3
:102AD0001CD1200000F0DCFB251800BF7FA12800DE
:102AE00000F0D6FB9AE07A2807D1012A0ED1874858
:102AF000C06A804700F062FCD2E0262822D1022A78
:102B000004D1300000F0BDFB6628F5D07CA1200088
:102B100000F0BEFB25180D2028700A206870AD1C3F
:102B20002B1B9620400023529BB222007849644818
:102B300000F0CCFC962252002100624800F0D6FA48
:102B40001BB0F0BD734F2C2673283FD1022ADDDB6A
:102B50003F2B12D1022AD9D1200000F099FB251871
:102B6000B969280000F058FB2D182E706D1C6A48BA
:102B70004168280000F050FB50E03D2BC6D1132ADD
:102B8000C4D10822A11C684600F056FB0028BDD025
:102B9000A07A2C28BAD1082221000B316846001DEA
:102BA00000F04AFB0028B1D068460BA928310CC8B8
:102BB0000CC13C220BA9C0204000201800F0D4FC1E
:102BC000082269465448FFF739FE69E06A2859D15E
:102BD0000120022A6CDB3F2B22D1022A96D14F4AD8
:102BE0001268104092D0200000F052FB25180822F5
:102BF0004B49684600F037FB08226946280000F080
:102C0000F5FA2D182E706D1C08223900684600F068
:102C10002AFB08226946280000F0E8FA2D183FE058
:102C20003D2BDBD1442AD9D11022A11C03A800F0EE
:102C3000C1FA0828D2D1A07C2C28CFD103AE102213
:102C4000210013313000083000F0B4FA0828C5D153
:102C50002320205C2C2831D1202221002431300077
:102C6000103000F0A7FA102828D1082203A903A8E1
:102C700000F0F9FA0822310008310836300000F07F
:102C8000F2FA0DE0702819D0612817D1022A15DB5D
:102C9000521ED2B2611C02A800F0CEFA00280DD05C
:102CA000A54204D11FA1280000F0F2FA2D1832E746
:102CB000012A03D1194909680840F1D126E700002B
:102CC0000040064084080010932800008D28000072
:102CD00041290000A5280000300400105645525339
:102CE000494F4E20312E3220284465632020342065
:102CF000323031372030303A33353A33382900001A
:102D00004552524F520000004F4B2C00A43F000090
:102D10009C070010107C0000287C0000047C000050
:102D2000087C00004F4B000080B50C4A904701BD65
:102D300000B58BB0322200920190029146E000B5BE
:102D40008BB03323009301900291039204480068F2
:102D5000FA218900FFF7E6FC049037E0F11FFF1F1E
:102D6000A008001000B58BB0342221E000B58BB074
:102D700036200590694605A8FFF7D6FF01980BB0ED
:102D800000BD10B58AB004003A200590694605A838
:102D9000FFF7CAFF002081006A465218526862504D
:102DA000401C0428F7D300980AB010BD00000000B2
:102DB000009201900291014802E000BFA0080010BB
:102DC0000068FA218900FFF7ADFC039005A9684669
:102DD000FFF7AAFF0598C0B20BB000BD8D490122D4
:102DE000824008688C4B034013430B60704789494D
:102DF0000A68012383408948184382430A60704768
:102E00008749012282400868C001C0091043086058
:102E100070474901401883547047002800D070471C
:102E200080B501234B400B220021A0200006FFF7B4
:102E3000F0FF01BD80B50720FFF7D0FF01207949E1
:102E400008600020FFF7DCFF04210020FFF7EEFA06
:102E500000210120FFF7EAFA0720FFF7C8FF01BDB4
:102E600010B5714C002211212000FFF7D5FA002285
:102E70000B212000FFF7D0FA022204212000FFF7E7
:102E8000CBFA022210212000FFF7C6FA00220F2100
:102E90002000FFF7C1FA002208212000FFF7BCFA4A
:102EA000002207212000FFF7B7FA002202212000AC
:102EB000FFF7B2FA002201212000FFF7ADFA02224B
:102EC00012212000FFF7A8FA00220A212000FFF7B4
:102ED000A3FA002209212000FFF79EFA0222002116
:102EE0002000FFF799FA02221E212000FFF794FA32
:102EF00002221D212000FFF78FFA02221C21200050
:102F0000FFF78AFA02221B212000FFF785FA02222E
:102F10001A212000FFF780FA022219212000FFF772
:102F20007BFA002218212000FFF776FA02221721EF
:102F30002000FFF771FA002216212000FFF76CFA3B
:102F4000002215212000FFF767FA0022142120003B
:102F5000FFF762FA0720FFF741FF0020FFF750FF5D
:102F60000120FFF74DFF0220FFF74AFF0320FFF784
:102F700047FF0920FFF744FF0A20FFF741FF0B201E
:102F8000FFF73EFF0C20FFF73BFF0D20FFF738FF58
:102F90000E20FFF735FF0F20FFF732FF1020FFF75D
:102FA0002FFF1120FFF72CFF1220FFF729FF13201E
:102FB000FFF726FF1420FFF723FF1520FFF720FF60
:102FC0001620FFF71DFF1720FFF71AFF1820FFF745
:102FD00017FF0720FFF70BFF10BD000070B5A025FD
:102FE0002D06280000F0DAFAFFF73AFF002400BFB0
:102FF0000FA6325D012090400C490860012300219A
:103000002800FFF706FF641C012CF2DBFFF712FF1C
:1030100070BD000080800440FFFFEF25000010DA43
:10302000C0C100409480044000400440802300A0C0
:103030000B00FEE7054801000C31816001000C31F6
:10304000416001000C310160704700002400001055
:10305000F8B5FFF7B5F91F4D280000F0DBF9286837
:1030600004271D490140394329600121E120400323
:10307000FFF7F2FAE1214902280000F0F5F90126F4
:1030800028681649014031432960686814490140A5
:103090006960144C402301222100283120001430A3
:1030A00000F09FFA4023012221006831200000F047
:1030B00098FAEE602F6108200B490860FFF786F947
:1030C000F1BD80B507490A001431024800F01FFA2B
:1030D00001BD00000040064001DAFC007DDAFC0082
:1030E000060301009C07001000E100E000230370CC
:1030F0000373038141604281704710B50200B5231C
:103100002B490C78002C0AD0A12C16D0A22C1AD056
:10311000B12C2CD0B22C35D0B32C42D005E0612A92
:1031200001D0412A03D1A1200870012010BD422AFC
:10313000FBD1B1220A700873F7E7742A01D0542A30
:10314000F3D1A220F0E70D2A05D1A3200870FFF7E4
:10315000ABFC002010BD0A894B899A4201D1A42002
:10316000F4E74B6898540889401C0881DDE74C89D6
:10317000944201D20B70EAE74A810A7B50400873FF
:10318000B220D1E74A680B89D0540A89521C0A81BF
:103190000B7B58400873488992B28242C5D1B32054
:1031A000C2E7087B4240E5D1B423E3E7000000001A
:1031B0008408001030B503000020D40712D407E0C3
:1031C0001D782D012C431C70D40701D45B1C401CBE
:1031D0001400621E240407D038A40D786457491CDB
:1031E000002CEDD5002030BDC0B230BD30B513008D
:1031F0002DA40AE00D782D09655D05700D782D0769
:103200002D0F655D4570801C491C15006A1E2D063A
:10321000F0D15800C0B230BD80B56A460B0E1370B5
:103220000B0C53700B0A9370D17004226946FFF7A0
:10323000DDFF082002BD000030B50023036000BFA1
:103240001EA303E005682D012C4304601400621ED8
:10325000240606D00C781C57491C002CF2D50020FF
:1032600030BD012030BD30B5002305E0CC5C8D5C65
:10327000C55484545B1CDBB2521ED2B29342F5DBC0
:1032800030BD010041391A2900D22030C0B2704748
:103290000200002000E0401C0B78491C1370521CF7
:1032A000002BF8D1C0B27047303132333435363765
:1032B000383941424344454600000000FFFFFFFF0C
:1032C000FFFFFFFFFFFFFFFFFFFFFFFFFFFFFFFF0E
:1032D000FFFFFFFFFFFFFFFFFFFFFFFFFFFFFFFFFE
:1032E000FFFFFFFFFFFFFFFFFFFFFFFF00010203E4
:1032F000040506070809FFFFFFFFFFFFFF0A0B0C8D
:103300000D0E0FFFFFFFFFFFFFFFFFFFFFFFFFFFA0
:10331000FFFFFFFFFFFFFFFFFFFFFFFFFF0A0B0C99
:103320000D0E0FFFFFFFFFFFFFFFFFFFFFFFFFFF80
:10333000FFFFFFFFFFFFFFFFFFFFFFFFFFFFFFFF9D
:10334000FFFFFFFFFFFFFFFFFFFFFFFFFFFFFFFF8D
:10335000FFFFFFFFFFFFFFFFFFFFFFFFFFFFFFFF7D
:10336000FFFFFFFFFFFFFFFFFFFFFFFFFFFFFFFF6D
:10337000FFFFFFFFFFFFFFFFFFFFFFFFFFFFFFFF5D
:10338000FFFFFFFFFFFFFFFFFFFFFFFFFFFFFFFF4D
:10339000FFFFFFFFFFFFFFFFFFFFFFFFFFFFFFFF3D
:1033A000FFFFFFFFFFFFFFFFFFFFFFFFFFFFFFFF2D
:1033B000FFFFFFFFFFFFFFFFFFFFFFFFC046C0460D
:1033C000C046C04600F0DAF9012181401E4802687B
:1033D0001E4B0B439A43026002681D4B13400B4384
:1033E00003607047C16170474069C005C00D7047F8
:1033F0000161704781681748084070471649884244
:1034000001D10E2070471549884201D10F20704725
:103410001020704710B50400FFF7F0FF104901229B
:10342000824008680F4B034013430B600A488442F4
:1034300001D1032005E00948844201D1042000E0C5
:103440000520FFF7C1FF10BD048004400020FEFFEF
:10345000FFDF01007FFD01000040064000800640C4
:1034600080800440FFFFEF2538B504000D00FFF712
:10347000D8F82901FFF756F9401E206231BD38B552
:1034800004000D0007E02000FFF7AEFF694608705A
:10349000280000F0AEF82000FFF7ACFFC007F2D420
:1034A00031BD38B504000D0004E068460178200005
:1034B000FFF798FF2000FFF79DFF400705D56946FD
:1034C000280000F0FAF80028EFD131BDF2B5050070
:1034D00016001F000421FFF78BFF3A00310000980F
:1034E00000F0A0F8040000992800FFF7DAFF3A1B6B
:1034F0003119009800F096F80421E9602018F2BD17
:1035000080B5080011001A0000F0F0F802BD70B597
:1035100004000D001600FFF76DFF40070BD53100CA
:103520002000FFF7BEFFF0683169884203D1042113
:103530002000FFF75DFF29002000FFF7A0FF70BD0E
:10354000124207D08B0706D00B78491C0370401C31
:10355000521EF7D87047830706D00B78491C0370BA
:10356000401C521EF9D1704770B4103A03D378C989
:10357000103A78C0FBD2530701D318C918C001D53F
:1035800008C908C0D20704D30B880380891C801C9B
:10359000002A01D50B78037070BC7047034801689E
:1035A000034A0A4040211143016070478080044073
:1035B000FFFFEF25C1680069081A704710B50400C5
:1035C000FFF7F8FF6168884201DB012010BD002091
:1035D00010BDC1680069814201D1012070470020FF
:1035E000704701604360826000210161C160012079
:1035F000704770B504000E002568FFF7DFFF002854
:1036000001D0002070BDA2683100E06863685B1ED5
:1036100003405343E818FFF793FFE068401CE06065
:10362000012070BDF2B582B0040015002068019041
:103630002000FFF7C3FF002801D00020FEBD2000BE
:10364000FFF7B8FF01006068411A0E00421EE368F0
:1036500017001F4000971A409219824201D3009A26
:10366000861A881BAE4200DD2E00AD1BA84200DD8D
:1036700028000500A068320042430299019B009F88
:103680004743D819FFF75CFFE0688319E360A0683F
:103690002A004243029F3100414379188C46216839
:1036A00067687F1E1F404743C8196146FFF748FF00
:1036B000E0684019E0607019FEBD70B504000E00AE
:1036C0002568FFF786FF002801D0002070BDA268A2
:1036D00020696168491E0140514369183000FFF7B5
:1036E0002FFF2069401C2061012070BDF2B582B01F
:1036F00004001500206801902000FFF76AFF0028F1
:1037000001D00020FEBD2000FFF754FF01006268D9
:10371000531E26691F003740009733405B189342C1
:1037200001D30099511A401AA94200DD29000E0068
:10373000AD1BA84200DD28000500A068320042430E
:103740000199009B4343C9180298FFF7F9FE2069CD
:1037500081192161A0682A004243236867687F1E9F
:103760000F404743D919029B70431818FFF7E8FE32
:103770002069401920617019FEBD00000120C0467B
:10378000002801D000F008F80020C046C04600F034
:1037900017F800F073F9000010B5074979441831A3
:1037A000064C7C44163404E0081D0A6889188847D2
:1037B0000100A142F8D110BD78080000980800006F
:1037C000F0B58BB0012500F05DF9FFF707FCFFF7BE
:1037D0003BF900F057F992480168924A0A400121EA
:1037E0001143016090480068FA218900FEF79AFFB2
:1037F000401E290688420DD28C4948608C480268D8
:103800001202120AC0231B061343036000208860C3
:1038100007200860874E8848B06088483061884833
:10382000F060884870618848B0613000083087498E
:1038300009688847864C206886494843864940186D
:103840008249C968884785480890002007900690FB
:1038500005900495039008200290019560680090FF
:10386000002300220E210120784FFF69B8470995F7
:10387000002008900790069005950490039005207D
:10388000029008200190002000900123626800212E
:1038900001206E4CA469A0476C48406B0190FA204F
:1038A00080006A49496B88476D4C12E0381FE0552B
:1038B0007F1CFFB2684600888742F7DB0120C046C4
:1038C000C046B188C9B22000604A926A9047002081
:1038D000307001230AAA63496348FFF711FE0128EB
:1038E00003DB0AA80078FFF708FCB0886946088067
:1038F00004273078401E06D0401E01284BD9801E78
:10390000012826D9E5E7002DB08827D00028DED091
:10391000042200BF57A1200000F0BCF8002810D1FD
:1039200050202070492060704E20A0704720E07029
:10393000684600888742C1DA381FE0557F1CFFB215
:10394000F6E7042249A1200000F0A4F8002820D1C5
:103950000025FA20800001998847B8E70028B6D0F2
:10396000042200BF41A1200000F094F8002810D1EB
:10397000502020704F2060704E20A0704720E070D3
:1039800068460088874299DA381FE0557F1CFFB2ED
:10399000F6E70125DDE7002DDBD05020207049201F
:1039A00060704E20A0704720E07083E780B5002053
:1039B000FEF7F1FF2548C06A804704201D490870C2
:1039C00001BDF1B50E0015001C000120FEF7E3FF5C
:1039D0001E48C06A8047174FBE8032460099204873
:1039E000FFF7AEFD7D70BC7001203870F1BD80B571
:1039F0001648C06A804705200E49087001BD80B591
:103A00001248C06A804702200A49087001BD80B58B
:103A10000E48C06A804703200649087001BD0000B7
:103A200080800440FFFFEF25A008001010E000E0B8
:103A300020ED00E000000010AD390000C3390000A7
:103A4000EF390000FF3900000F3A0000A43F0000EA
:103A5000287C0000400D0300400ECF19B80B000079
:103A600044080010B00700100040064050494E477F
:103A700000000000504F4E470000000080B500F0ED
:103A80001FF801BD80B5FEF7C3FD0149086001BD07
:103A9000A008001010B402E0401C491C521E002A6D
:103AA0000BD00B7804789C4205D002D20020C04392
:103AB00004E0012002E0002CEED1002010BC704791
:103AC0000746384600F002F8FBE700002021090312
:103AD00026311820ABBEF9E728490A68086070470C
:103AE00070B50C00264E3100FEF71CFE85B220009A
:103AF0003100FEF717FE80B2002200241F2803DAEF
:103B0000612D00BF21A104DB002070BD521C472A9B
:103B100032D20C235343CB181E88B542F6D15B88B2
:103B20009842F3D117480280012400880C224243B6
:103B30008D18022000F0DEF90020FEF719FD0020AC
:103B4000FEF718FD0120FFF7C7FF802000F0C8F93D
:103B50000D4EA879C006C00E297A8907490E014387
:103B60003160802000F0C6F97068C007FCD5688914
:103B700030670320FEF7FEFC200070BD10000440FB
:103B800040420F00A4080010088004400C000C0004
:103B9000C0000000030001000C000600C00000008F
:103BA000030002000C000400C0000000030003003A
:103BB0000C000300C0000000030004000C00020021
:103BC000C0000000030006000C000100C00000005F
:103BD00003000C0018001800C000010002000100E2
:103BE00018000C00C00001000200020018000800CC
:103BF000C00001000200030018000600C000010020
:103C00000200040018000400C000010002000600C9
:103C100018000300C00001000200080018000200A4
:103C2000C000010002000C0018000100C0000100EB
:103C3000020018002400120020010200020002000D
:103C400024000C00200102000200030024000900EF
:103C500020010200020004002400060020010200EE
:103C600002000600240004002001020002000900F6
:103C7000240003002001020002000C0024000200C6
:103C800020010200020012002400010020010200B5
:103C90000200240030001800C000030001000200F0
:103CA00030001000C00003000100030030000C00D1
:103CB000C00003000100040030000800C000030041
:103CC0000100060030000600C000030001000800EB
:103CD00030000400C000030001000C0030000300AD
:103CE000C00003000100100030000200C00003000B
:103CF0000100180030000100C00003000100300086
:103D00003C001E00F0000400010002003C00140012
:103D1000F0000400010003003C000F00F00004006C
:103D2000010004003C000C00F0000400010005004C
:103D30003C000A00F0000400010006003C00060000
:103D4000F000040001000A003C000500F00004003F
:103D500001000C003C000400F000040001000F0012
:103D60003C000300F0000400010014003C000200CD
:103D7000F000040001001E003C000100F0000400FF
:103D800001003C004800180020010500010003006C
:103D900048001200200105000100040048000C004A
:103DA000200105000100060048000900200105006F
:103DB000010008004800080020010500010009007A
:103DC000480006002001050001000C004800040026
:103DD0002001050001001200480003002001050039
:103DE0000100180048000200200105000100240025
:103DF00048000100200105000100480054001C009B
:103E0000A80006000000030054001500A8000600EA
:103E10000000040054000E00A80006000000060088
:103E200054000C00A8000600000007005400070022
:103E3000A800060000000C0054000600A8000600C0
:103E400000000E0054000400A80006000000150049
:103E500054000300A800060000001C0054000200EB
:103E6000A800060000002A0054000100A800060077
:103E70000000540060001800C000070000000400AB
:103E800060001000C00007000000060060000C0089
:103E9000C00007000000080060000800C000070024
:103EA00000000C0060000600C000070000001000C9
:103EB00060000400C000070000001800600003005C
:103EC000C00007000000200060000200C0000700E2
:103ED0000000300060000100C0000700000060002A
:103EE0000B490A681043094A0240DA20C001104316
:103EF0000860704706490A68824304481040DA2285
:103F0000D20102430A60704700000000FF800000F9
:103F1000388204401649012282400868154B03404C
:103F200013430B60704710B500F032F80720FFF71D
:103F3000F1FF2020FFF7DEFF0F4C00220E212000B2
:103F4000FEF76AFA00220D212000FEF765FA012132
:103F50000620FEF77AFA01210720FEF776FA0448D8
:103F60000168064A0A400260FFF78CFD10BD0000A0
:103F700080800440FFFFEF25004004407FFFEF25D5
:103F800080B51220FFF7C6FFFFF7CDFF01BD00008F
:103F900080B5FFE702494800FFF7A2FD01BD000020
:103FA00080C3C90139030000DD03000029120000AD
:103FB000E30300001904000061040000190600007A
:103FC000E5080000DD1D0000010B0000D10C000021
:103FD000CB0D0000190E00003D0E0000DF100000A8
:103FE000111100008D1100009D120000A9120000A7
:103FF000B91200003B130000E11300000D14000093
:1040000030B401210268001D002A0FD00368C318D4
:10401000446808300C4202D04D466D1E64191D687C
:1040200025601B1D241D121FECD0F8E730BC704723
:10403000A7DEFFFF88080000240000100000000039
:10404000C1FFFFFF2400000078C0FFFF0000001048
:104050000000000001488047014800476D40000013
:10406000BD330000001BB7000000000080B5FFF763
:0840700087FF01BDFEE7FEE73A
:04000005000033BD07
:00000001FF
