:1000000020130010E94B00000B3E0000FF3F0000F2
:10001000000000000000000000000000ED22FFEFE3
:100020000000000000000000000000002F4400005D
:10003000000000000000000043440000C31E000058
:10004000174C0000174C000000000000174C000087
:10005000174C0000174C000000000000174C000077
:10006000174C0000174C0000174C0000174C000004
:10007000174C0000174C0000174C0000174C0000F4
:10008000174C0000174C0000174C0000174C0000E4
:10009000174C0000174C0000174C00000000000037
:1000A0005D5E0000936000006D6100003D62000035
:1000B0008B620000AD620000174C0000174C00007E
:1000C00000B524490868244A5043244A801808602F
:1000D000234900F062F8080000BD1E49086070471F
:1000E00038B504000D00FFF7EBFF291B491C00F099
:1000F00051F8081932BD03E00B780370491C401C0D
:1001000013005A1E1B04F7D17047801802E00B78C9
:100110000370491C401E13005A1E1B04F7D1704780
:10012000130000D1704780B50A00591E89B203F050
:1001300029FA01BD72B60B480178491C017070475D
:1001400008480178491E0170090600D162B670475F
:1001500000000000340400106D4EC641393000002C
:10016000FFFFFF7FF60E0010F446002804D449423A
:1001700000F013F8404260474042002905D45FD0A8
:1001800000F00BF8404249426047494200F005F850
:100190004942604703460B43E6D40022030A8B42E0
:1001A0000BD203098B4219D243088B422ED2411A3B
:1001B00000D20146524110467047FF2209023FD04B
:1001C00012068B4205D3121209028B4201D312127E
:1001D000090203098B4219D300E0090AC3098B42C3
:1001E00001D3CB01C01A524183098B4201D38B0149
:1001F000C01A524143098B4201D34B01C01A5241EC
:1002000003098B4201D30B01C01A5241C3088B4230
:1002100001D3CB00C01A524183088B4201D38B001B
:10022000C01A524143088B4201D34B00C01A5241BD
:10023000884200D3401A5241CFD20146104670473F
:1002400008B5C046C04608BD80B5012004F0D8FB03
:1002500001BD004981008100C700000181008100CB
:10026000D10001010181008F00011001F6001F2B58
:100270007E151628AED2A6ABF7158809CF4F3C2BBA
:100280007E151628AED2A6ABF7158809CF4F3C9B3A
:0D029000000001C6000001F1000001FD00AA
:0402FC00FFFFFFFF02
:10030000F0B585B001F042FE0190444C607B0228BC
:1003100003D04348C06A804701E000F0DDFC414F54
:100320000025414E707D00282DD02000BC3000906B
:10033000A16E01F023FE009801F071FD607B0228A0
:100340000ED02000D0300090E16E01F017FE009832
:1003500001F065FD607B022802D0A07C002822D03D
:1003600012206946087202A9207B01F01FFE2100BD
:10037000E4310091E16E0918009801F0FFFD00984A
:1003800001F04DFD0FE07D70042060702020205CA6
:10039000002802D10120202160542020205C10215F
:1003A0000143202021542020205C000704D521781F
:1003B000481E8041C00F00E000203076207E60762D
:1003C00003A90870207C487001980490207B01F0FC
:1003D000F8FD01982065A07C002803D17D70E07DA8
:1003E000401CE07505B0F0BD10B50C4CE06D40212F
:1003F0000143E165A07C002801D000F099FC202099
:10040000205C12210143202021549434012120003A
:1004100001F0B4FD200001F002FD10BD4C020010FF
:10042000084B0000E00E0010D4030010FBB594B0A0
:10043000002769460F730A970697C54D2800743048
:100440000C902800843002901090CF734F73C149F4
:100450000F71C14CE28116A800782074E87F6074A7
:1004600067806771A760A781A77467612770BB4821
:10047000C06A80472800D03001F047FD149800780A
:10048000694608706846007840090875B4480190CC
:1004900015A80088001FC882B24E6846007D01285A
:1004A00007D0032876D0052874D0072800D110E2A1
:1004B00025E2287C002800D085E0731C6A6B15A813
:1004C0000088411E89B21498401C01F0FFFE684666
:1004D000007830700AAB6A6B6846C18A300001F060
:1004E000CEFE15A800883018001F07240278417836
:1004F00009021143827812040A43C07800061043AF
:100500000A99884244D1029800902B007433AA8C37
:10051000711C686B01F0FCFE3079717909020143AE
:10052000B07900040843A863F079317A09020143E5
:10053000707A00040843B17A09060143E963F07A4E
:1005400001090C4001994C740007000F01990876CD
:10055000307B0007000F00D10120FA2189004843B9
:10056000019A10604018019948600D36119615A83F
:100570000088113811A90871287B01F03DFD6F70CA
:100580000120287401982930007877494870BAE131
:100590006C70B8E10198407F08A988702079487094
:1005A00009200870E87B002801D00A200870287B09
:1005B00001F0FCFC15A909880D3909B2002900D504
:1005C0000021884201D201207FE11498417880788F
:1005D000000208431499C97809040143149800796A
:1005E000000608430990E96B88421AD0286C01E0A4
:1005F0000698806A06900698002810D009980699F7
:1006000009688842F4D101206946C8730698001D24
:100610000C900698143010900698406A02E00B2067
:1006200053E1A86C0490149840790DA908700DA8A6
:1006300000780007000F694688736846807B0830A1
:10064000C0B20790149815A909884018001F0278B5
:10065000417809021143827812040A43C0780006E7
:1006600010430F90149880791499C97909020143B5
:100670000498081A80B20B908021090288420498DD
:100680000B9916DA401804900AA802900498019079
:1006900001200090099B0C9A6846C18A149801F0C9
:1006A0004BFD0F980A9988421FD101206946487373
:1006B0001BE009B240188021490240180E900AA898
:1006C00002900E98019001200090099B0C9A6846B8
:1006D000C18A149801F030FD0F980A99884204D11C
:1006E0000120694648730E980490112008A90870EB
:1006F000287B01F05BFC0B99814201D30A205CE06E
:100700006846407B002800D1DEE067706846C07B09
:10071000A0700DA80078C106C90F6171A76027738A
:10072000049860610B494F70EF64AF756846C07BF9
:1007300000281BD0022020700698406A0499884245
:1007400001D1002838D108460699486220E000BF50
:100750004C020010E00E0010C80E0010084B000004
:10076000680E0010640B0010580E0010A86C69464B
:10077000097D052919D10121E97421700499884264
:1007800004D1002802D00120694608730498A864A7
:100790000DA800788106C90F6846C1739648007895
:1007A00001280ED100290DD00BE0EF7427700499B9
:1007B0008842EBD10028E9D008206070049860617D
:1007C00084E06F7515A80088001F0799401A01285A
:1007D0004FDB1498405C491CC9B2079115A90988E0
:1007E000091F079A891A6A465173E0701499079A8B
:1007F0008918059100286846807B18D1002812D1FD
:1008000002960498019001200090099B0C9A68467A
:10081000417B059801F028FD16A803786846427BC5
:10082000002130002EE001206946087343E00028D3
:1008300008D016A803780798421ED2B2082114984F
:1008400000F012FB02960498019001200090099B91
:10085000109A6846417B059801F006FD6846007BCA
:10086000002811D1A6606846407B20730120607388
:100870000EE06846807B002806D016A80378CAB22E
:100880000821149800F0F0FA6846007B002812D185
:100890002800E4306946C97B002904D00121564A6A
:1008A0001171A17405E054490F71A97EEA7E91424D
:1008B00001D201F02AFB2020285CFB210140684680
:1008C000007B8000084315E00C206070FFF78CFD72
:1008D00027E015A802881499491C3000FFF70BFC8B
:1008E000032020706770A66015A80088401E207342
:1008F0002020285C022101432020295403E001200C
:100900006070FFF771FD2020285C1021014320203A
:10091000295494350121280001F030FB280001F012
:100920007EFA17B0F0BD10B5344C607B022803D0BE
:100930003348C06A804701E000F0CEF902202E4A19
:10094000507060702020205C102101432034217001
:1009500010BD38B5294C607B022803D02848C06AF6
:10096000804701E000F0B8F9A07C10252249E27F21
:10097000002A0BD10522002800D04A706270206D39
:100980000020C046E16E88420AD304E00622002817
:1009900000D04A7062702020205C0543203425700E
:1009A00031BD38B5154C607B022803D01448C06AAD
:1009B000804701E000F090F9A07C1025C549E27F56
:1009C000002A0BD10322002800D04A706270206DEB
:1009D0000020C046E16E88420DD307E004220028C3
:1009E00000D04A706270607B022804D02020205C16
:1009F00005432034257031BDE00E00104C0200107C
:100A0000084B0000F0B585B0002469460C72C64D55
:100A100028009430019001F078FA2020285CAD4E37
:100A2000C10678D5E96D4A0602D541229143E965B0
:100A3000BE4F791C0091092108422CD071780229FF
:100A400002D0697802290BD1E96D01229143E96551
:100A50006C75E97E71713471B46001216A4611725E
:100A6000A97C6A46127A0A4315D1010754D5297820
:100A7000002951D1697FA9726A78002A02D16C6479
:100A8000EC755FE0AA7F91425CD2EF21014020200B
:100A9000295400F0CAF8E97EAA7E2020285C80074D
:100AA00011D53079002801D18A420CD22C77AC7450
:100AB000307D002802D1686C401C68647171E86D5B
:100AC00001239843E865287F002861D05C20285CDA
:100AD000C0065DD42C77287B914247D2092945DA9C
:100AE000491CE976C9070CD503A920220A702C37C6
:100AF0003A788A70009A12784A7001F057FA009991
:100B0000087000F033FB002821D12020285CEF2161
:100B10000140202029543BE08107C90FEA7D009B5A
:100B2000DB7F9A4201D20029AFD0002903D16C7536
:100B3000E86C401CE864EC75307D002802D1686CDC
:100B4000401C6864E86D01218843E865A3E709203B
:100B500070706C75E86D01218843E865AC74347180
:100B6000E87E707100980078B0700BE0012101F010
:100B700030FAE86D01218843E8656C75AC74347116
:100B8000E87E7071307D002802D1686C401C68647A
:100B9000E86D810702D502218843E865E86D0028E9
:100BA00022D12020285CC00709D53000296E0968B1
:100BB00088472020285CFE21014020202954202045
:100BC000285C000709D52800296E896888472020FD
:100BD000285CF7210140202029542020285CEF21A7
:100BE00001402020295407E0FA218900019801F0F2
:100BF000C5F9019801F013F92020285C800712D56F
:100C0000687B022801D100F067F82020285C4007AB
:100C100003D48E48296E496888472020285CF92132
:100C200001402035297005B0F0BD1FB53E4C2000B5
:100C3000A83001F06AF9E06D10218843E0652020BA
:100C4000205C00071CD52078002819D100F024FB77
:100C5000607F401C6946888001A9207B01F040FA32
:100C600032494870002069460873607CC0010872F0
:100C7000002000900023002202A903A800F04EFBF0
:100C800000F074FA1FBD70B5274C2000BC3001F095
:100C90003CF90020E0776E4D217E297023490E003B
:100CA0000C36727DEA702D3109782974E17B697404
:100CB0006882607B022802D16648006B8047664AE2
:100CC0002900207B01F0C1F93168A87C00F049F8C7
:100CD00070BD0000E00E001070B5134C2000D03045
:100CE00001F013F95D4D207E2870104806000C3687
:100CF000B16969602D3000782874E07B6874012048
:100D0000E874617B022900D00020A874524A2900AF
:100D1000207B01F09AF9002805D03168A87C00F00A
:100D200020F8E87CE07770BD4C020010580E0010EF
:100D300010B54B4C2000E43001F0E7F8A07C00280F
:100D400005D001202077E06D04218843E065607BB9
:100D5000022805D12020205C10210143203421707D
:100D600010BD80B53B4A526B002801D1080000E05D
:100D70000020904701BD38B5040015006846394A87
:100D800012788270417009210170354AD17B0029A7
:100D900001D00A2101706946107B01F007F9611941
:100DA00080B289B2884203D3FF2901DC012032BD21
:100DB000002032BDF5B582B00120294A8023947D00
:100DC0001B1BDBB20093537DD64CE51801955D1CCF
:100DD0006E46367AB61E082E36D801A7BF5DBF44D0
:100DE00040364036083640405000009EB61EB342A2
:100DF00010DA0620019B18705575EDB261556D1C17
:100E000055756846007BEDB260556D1C5575002028
:100E10000121117504B0F0BD009E761EB342F9DACF
:100E20000AE000998B42F5DA6846007A0199087069
:100E3000ECE7009EB342EDDA6846007A019B187039
:100E40005575EDB26155E0E70220E3E7C80E0010EA
:100E5000D4030010084B0000CC0E0010F80E001058
:100E60004C020010840E0010FDB586B00C00BD4F82
:100E700009E00022BC4B5A70097819720699C0B279
:100E8000095C5972441C6846007FE4B2844200D376
:100E900045E12200641C0698E4B20119601C069B1F
:100EA0009A5C921E082AF2D801A352009B5E9F44CE
:100EB000C0FF1000A000BC002C014801A401CC011F
:100EC000280200206A469060491E03916846007F10
:100ED000001B401C03A90871A348407C88712C208A
:100EE000385C48717878C871387808722020385C8E
:100EF000487202A80190401C009002AB9B1C02AA01
:100F0000D21C9948007B01F0B7F805006807400F34
:100F1000072809D16846C07A78706846807A3870A8
:100F20006846407A20217854002605E000222900F6
:100F30000320FFF73FFF761C6846007A0521FFF784
:100F400029F9F6B28642F1DB6846007A401E241881
:100F500099E70978CF4A91750400012088408249B9
:100F60000885002200210420FFF724FF8BE70A7880
:100F70005206520F6B465A7009780907090F6A46E4
:100F800011700699C0B2095C0191401C069AC0B26A
:100F9000125C12020A430192401C0699C0B2095C1D
:100FA000090411430191441C6420414301916946A5
:100FB0006D48007B01F070F805006807400F0728B6
:100FC00009D16846007828217854019878626846EB
:100FD000407821217854002229000520C4E7FF2011
:100FE0006149496E002903D009680A0000D088478A
:100FF00008A90A7801000620B6E7097803AA11714A
:10100000694603910699C0B2095C0091401C069A9A
:10101000C0B2125C12020A430092401C1146069AAA
:10102000C0B2125C12040A430092401C11466422B2
:1010300051430091002101910699C0B2095C6A46B2
:101040001172441C03A94848007B01F02EF80022CD
:101050000100072088E709780907090F0400002923
:1010600000D10121FA208000414339610846FA216C
:1010700089004018786100220021082074E709786F
:10108000040000206A461080880601D501205070B7
:10109000C80601D5012010700807000F6946887046
:1010A0003148007B01F00AF80021C943884200D191
:1010B000E9E6684600782C217854684640782D216E
:1010C000785400BF18A069468978405C01F068F93F
:1010D000386300220021092046E709786A4611702A
:1010E0000699C0B2095C0191401C069AC0B2125C1C
:1010F00012020A430192401C0699C0B2095C09041D
:1011000011430191441C64204143019169461648F2
:10111000007B00F0DCFF002201000A2024E709B078
:10112000F0BD0000580D0010080A0C0D0E1012142E
:1011300015181A1B1D1E21247CB50B4C657CED0176
:101140006E463571009313000A0001A900F0E6F81D
:10115000002806D16C4800218180616CC16000F0DC
:1011600005F876BD580E00104C020010F0B589B09D
:1011700000200290474EB17DFF2901D1092087E070
:10118000624C002900D1606503AD207C2870F07DA1
:10119000A870607EE870A06D0020C0460490206FAB
:1011A0000590307E687003A9207B00F0A2FF206FBD
:1011B000616D228D42438918081A60650690544D6E
:1011C00006AF68783872F07DB872207C7872206D36
:1011D000079004E001981121405668703872280089
:1011E0002830019020005430009002AB22001832C9
:1011F00006A9207B00F085FF0028EBD02F1D7B7F08
:101200005BB201202A5601984179207B00F086FFCD
:1012100000963B683A7941B2207B00F00BFF3D48D5
:1012200000903B683A790198017849B2207B00F040
:1012300001FF207C002804D17869F1684018B96961
:101240000DE0627D01202956307DFFF794FD0028D6
:1012500001D108201CE0F868F168401839692D4A6E
:10126000D2688918E166A0660298002803D1207E22
:1012700000F0CAF90CE0E06D10210143E165A834EB
:101280000299200000F07AFE200000F0C8FD002046
:1012900009B0F0BDD403001030B500231B4C2374FB
:1012A0006364A364E364E3750120A076E0762377AA
:1012B00019498B7520856375A3754875144D3820C1
:1012C000285C28703920285C68705920285C21210E
:1012D0006854E86D296E2A00243203C26420285C19
:1012E0002C2168546520285C2D216854A86E286341
:1012F000E86E686363822375206C01E04362806A54
:101300000028FBD1238330BDE00E00104C020010FA
:10131000580E0010F80E0010D4030010F2B588B07B
:1013200000210391049369460A71B44C0021E184C1
:10133000A1740E99002B00D10021B14A1175B14D55
:10134000017829700078400907D0022848D0042885
:1013500044D0072800D142E14EE10120E084082278
:10136000216B681CFEF7D1FEE08C0830E084082277
:10137000E16A80B22818FEF7C8FEE08C0830E084ED
:10138000C14840698047A084E08CA18C2954401C4E
:10139000E084090A80B22954401CE08403AB626BEC
:1013A000C1B2280000F06BFFE08C03992954401C67
:1013B000E0840399090A80B22954401CE08403990F
:1013C000090C80B22954401CE0840399090E80B2B4
:1013D0002954401CE084002009B0F0BD0120A07415
:1013E000207C002801D10720F6E705A80121017023
:1013F00008990978C9094170E16C0691A34A5178AE
:101400000172117841722C21515C817220004C30A4
:1014100000901300521C05A9207B00F0FEFD0899E6
:101420000978BF220A408001104308990870E07CC7
:10143000002807D00020E07408980078202101439C
:1014400008980170E06B6870010AA970010CE970DE
:10145000000E2871089800786871606CA871000A05
:10146000E8710826A27D8A498A48637DC018FEF784
:1014700042FE607DA17D40186075217D049A002A9E
:1014800022D05F4A127D002A1ED0002928D0C0B287
:1014900010281EDA08990978F0220A40091809076D
:1014A000090F1143089A1170697169460880002874
:1014B00016D06846028877492800083000F094FF6B
:1014C0006846068808360BE0C0B2002808D000291C
:1014D00006D04B4908756F48049000206946087192
:1014E00000202075607D69460870002000210BE017
:1014F000029B1A70401C491C664AC0B2125C644BC5
:10150000C9B25A54491C401C6A461278C0B2904273
:1015100019D25F4AC9B2521802925E4A125C032A7B
:101520000AD0052AE4D0062A08D0072A04D0082ABF
:1015300006D00A2ADCD0E6E7401CE4E7801CE2E79C
:10154000029B1A70DEE7A175A07D002801D0012062
:1015500020750498002821D02948017D00291DD03C
:1015600068460079F6B2A855761CF6B2A819E36B66
:10157000626C6F463F79002F07D167750290019228
:10158000002000902200743205E0029001920020B9
:10159000009022008432049800F00DFEF6B2184844
:1015A000007D3118E18403A80290606C0190002056
:1015B0000090E36B2200743289B2280000F0BCFD79
:1015C000E08C2918039A0A70039A120A4A70039A47
:1015D000120C8A70039A120ECA70001DFAE6002BD4
:1015E00001D0127D002A00D1F5E61900681CFEF733
:1015F00082FD0348007DECE60220EDE64C0200107F
:10160000D4030010640A001070B586B000216A4649
:10161000117001A908701D4E70784870307888707C
:10162000306B0290706B0390994CE08C88812300A2
:101630007033207B00F014FD0125657095484570DE
:101640007178817069460978C170216F816061602D
:1016500026009436FA218900300000F08FFC30001B
:1016600000F0DDFB207C002802D1607F401C607709
:10167000E18CC9B28848B94A926A9047E06D054347
:10168000E565002006B070BD084B0000580E001044
:10169000D80D0010580D0010F0B583B005000F00F4
:1016A0001600002D08D02868002805D0686800289A
:1016B00002D0A868002801D10320FEBD300000F050
:1016C0006FFC002801D10A20FEBD714C25666766BB
:1016D000267300202022A0546073E065607701210A
:1016E000A177E073206560650B2069460870207B58
:1016F00000F05CFC002800D001209A4FF87508200B
:1017000069460870207B00F051FC954D2E0038365C
:101710003070052069460870207B00F047FC70702F
:101720000C2069460870207B00F040FCF0600D2022
:1017300069460870207B00F039FC30610E20694654
:101740000870207B00F032FC70610F206946087041
:10175000207B00F02BFCB061102069460870207BD4
:1017600000F024FCF061132069460870207B00F033
:101770001DFC2900583101914870142069460870F9
:10178000207B00F013FC0199486015206946087021
:10179000207B00F00BFC019908721A206946087042
:1017A000207B00F003FC019908731B206946087038
:1017B000207B00F0FBFB019948731C2069460870F0
:1017C000207B00F0F3FB019908611D206946087039
:1017D000207B00F0EBFB019948610021207B00F0A9
:1017E000F8FB0120019908700A207060062131720F
:1017F0002D1D28602971F068A8603069E860706963
:101800002861B0696861F069A8610198007828775B
:10181000FFF742FD250094358849280000F0F8FACA
:10182000FA218900280000F0A9FB85492000A83092
:1018300000F0EEFA83492000BC3000F0E9FA82495A
:101840002000D03000F0E4FA80492000E43000F0BD
:10185000DFFA00F09BFBA0657D48F8617D48786267
:101860007D48F8627D4838627D48B8623B4D1C3740
:1018700038002968884768698047FEF72EFC0120F8
:10188000A073A96D8847E86A80470020FEBD00006C
:101890004C020010E00E0010640A0010F1B586B092
:1018A0000F002F4D3920285C694648713820285C8C
:1018B00088716C4C6846617DA27D89180171002F8A
:1018C00001D1032048E0002603A80670617C417026
:1018D000E16C049169780172297841722C21695C6C
:1018E000817220004C30009001AB9B1C01AA521C5D
:1018F00003A9207B00F091FB02A82C352978817088
:1019000069464979417009210170E17B002901D0C4
:101910000A21017002A9207B00F048FB78707878DA
:1019200069460979884204D369460979401A3870B2
:1019300004E0387069460E716675A67568460279CE
:101940006946052009566846007EFFF714FA00280C
:1019500001D1082000E0002007B0F0BD084B0000D6
:10196000580E0010D403001038B505000024002DD7
:1019700001D1032032BD3B483B4A29781D2959D863
:1019800001A35B5C9F4400BF1E22262A2E32363AFA
:101990003E42464C5A566A6E72767A7E82868C8AAF
:1019A0009094989CA0A6407B3FE0007C3DE0407C6A
:1019B0003BE0806B3CE0C06B3AE0743038E0843050
:1019C00036E0807B31E0C07B2FE019210AE0243231
:1019D00003CA01E0D06D116E2D1D03C52BE0172148
:1019E00000E016216A4611706946007B00F0DEFABD
:1019F0001EE020320EE0D0681AE0106918E050694D
:101A000016E0906914E0D06912E0393202E05078B3
:101A10000BE03832107808E0406C09E0806C07E099
:101A2000006C05E0506803E0107A287103E0506B09
:101A3000686000E00224200032BD0000050A0000BA
:101A40002B0C0000870C0000D90C0000310D0000A9
:101A5000010300002D0400005309000027090000C5
:101A6000A30900004C020010580E0010F0B585B01C
:101A7000040000200027002C01D1032022E1924D18
:101A80005C21695CC90701D501201BE18F4E02A9C9
:101A900022781D2A00D913E101A352009B5A9F44CA
:101AA0003A0058005E0064006A0070007E009200F8
:101AB0009E001E02A4001C01480140015A01680159
:101AC0006E0174017A0180018601A201DA01BE0172
:101AD000FA0100021E0206020E0218022179697341
:101AE000002902D0022904D0EBE07948C06A80477F
:101AF000E7E0A874FFF7F0F8E3E020792874E0E06D
:101B000020796874DDE06068A863DAE06068E86303
:101B1000D7E0606800284AD010220146743505E0FD
:101B20006068002843D01022014684352800FEF763
:101B3000E2FAC6E02079A8736549896D8847C0E05C
:101B40002079E873BDE0207A694608712D20305C69
:101B500001A948700622287B00F043FA002826D00D
:101B6000241D03CC3200243203C2687B0228E9D151
:101B7000287C0028E6D0574C00947368327A2820DD
:101B8000315C49B2287B00F055FA287E2070706ADB
:101B900060602D20305C2074E87B60740120E0746C
:101BA000A0744D4A2100287B00F04FFA002873D022
:101BB000F168A07CFFF7D5F8E07CE87781E0207A37
:101BC000694608712D20305C01A948700622287BE7
:101BD00000F007FA00285FD0241D03CC5C3603C652
:101BE0006FE060680290012001E062680292087173
:101BF000287B00F009FA002863D14DE02079002805
:101C00004AD0102848DA203644E06068F06058E096
:101C10006068306155E06068706152E06068B06192
:101C20004FE06068F0614CE0207969460871052258
:101C300001A9287B00F0D5F900282DD0684600794D
:101C4000393627E0207969460871042201A9287BEA
:101C500000F0C7F900281FD068460079707030E0A6
:101C6000207969460871082201A9287B00F0B9F99A
:101C7000002811D06846007938360BE02079694693
:101C80000871072201A9287B00F0ABF9002803D0D6
:101C900068460079307014E0032712E060686864D9
:101CA0000FE06068A8640CE06068F063706008E0B2
:101CB000207940217054307203E06068706300E066
:101CC0000227380005B0F0BD4C020010580E00107D
:101CD000084B0000F80E0010CC0E0010F0B585B0D7
:101CE0000700022069464870002008700024002F79
:101CF00063D0434D5C20285C1121014001D00120BC
:101D00007CE069460C71142200213F48FEF708FA76
:101D100001203D494870E8763878002804D0012831
:101D20000AD003281CD02AE00124AC76684600794A
:101D3000C006C00E402107E00124F87BA876684663
:101D40000079C006C00E80210143684601713879D0
:101D500069460870B8680290B88948800E200DE086
:101D60000124AC7668460079E021014368460171A0
:101D7000786802903889694648800A203E5604A84F
:101D80000121017021490978817004A9287B00F0A4
:101D90000DF976B2B04200D30600002C2CD0687C3E
:101DA00000280ED103AC267018480078A0700422D9
:101DB00003A9287B00F015F9002819D020781149D3
:101DC000487068464388029A017801A8FFF7B4F981
:101DD000694648706846407800280BD138780A492F
:101DE00008702020285C012101432035297003E080
:101DF000032003E00020A8746846407805B0F0BDD9
:101E00004C020010580E0010E00E0010840E00105E
:101E10000022026042600272C16002617047F8B540
:101E20000400FEF787F9002C37D05C488268100068
:101E300002E0A04231D000690028FAD16168216037
:101E400000232372002A03D01068814204D20100CB
:101E5000200000F025F820E01569002D01D1081AB6
:101E600018E02E688619B14209D2081A2060002DA8
:101E700002D02968081A2860146125610DE02A0043
:101E80002D69002D05D030002F68F619002A04D0E6
:101E9000E9E7881B206014612361FEF751F9F1BD69
:101EA00010B53E4A9368002B04D00468091B1960E2
:101EB00000211972036101210172906000F069F83C
:101EC00010BD10B5FEF736F9344C6068401C6060F8
:101ED000FEF736F9A068002816D000210172A0682C
:101EE0000168002909D10169A160C068010000D022
:101EF0008047A068002807D0F1E7017A002903D1C4
:101F00000121017200F045F810BD38B50400FEF75C
:101F100011F9224A936818002DD0002C2BD00025EF
:101F2000A34218D1187A00280DD02168186900281A
:101F30000FD01D729060026851180160012101727A
:101F400000F027F817E01869002802D02168906097
:101F50000CE095600FE021680300006900280AD0BA
:101F6000A042F9D10069002804D018610268511814
:101F7000016000E01D61FEF7E3F831BD38B50500F2
:101F80000C00FFF7C2FF2C606C6031BD0348406855
:101F900070470021014B1970016070470C0F001051
:101FA000022801D1012070470020704780B5C0B2DF
:101FB000022803D1080000F07DFA02BD5DA0006890
:101FC00002BD022800D0704780B5080000F0C8FAB2
:101FD00001BD022800D0704780B5080000F0D0FA9B
:101FE00001BD80B50B001100022803D1180000F0DC
:101FF000ECFA02BD002002BD022800D0704780B577
:102000000800C046C04601BD80B5022803D10800C3
:1020100000F0FDFA02BD002002BD10B5040008006A
:1020200011001A00022C03D1029B00F005FB10BD29
:10203000002010BD10B50400080011001A00022C89
:1020400002D1029B00F034FB10BD80B50B001100E3
:10205000022803D1180000F06DFB02BD002002BD74
:1020600010B50400080011001A00022C02D100F083
:10207000C1FB10BD002010BD10B582B004000800E7
:1020800011001A00022C05D1059B0093049B00F05F
:1020900009FC16BD002016BD80B5022803D108003A
:1020A00000F0A2FC02BD002002BD80B5022803D1D1
:1020B00008000020C04602BD002002BD80B50228F5
:1020C00003D108000020C04302BD002002BD80B53E
:1020D000022803D108000020C04602BD002002BD36
:1020E00080B5022803D1080000F0B0FC02BD00203A
:1020F00002BD022800D0704780B5080000F0C6FC81
:1021000001BD10B50400080011001A00022C03D113
:10211000029B00F0D9FC10BD002010BD10B50400DA
:10212000080011001A00022C02D100F035FD10BD8C
:10213000C8B210BD00000000F8B506000D00170081
:10214000954C06986071A371180AE071180C207202
:10215000180E60720798A072010AE172010C2173D7
:10216000000E6073E5732000203000F01BFD390085
:102170002000203000F027FD102221002000203018
:1021800000F029FDEAB231002000203000F023FDEC
:10219000210020312000103000F07EFDE07C0006A0
:1021A000A17C09040143607C00020843217C0143B7
:1021B00008980160F1BDFDB50F0000260125774CA0
:1021C000F022002120002030FDF7AAFF220020325B
:1021D0001021019801F0A2F8089860710298A0718E
:1021E0000298000AE0710298000C20720298000E1A
:1021F00060720998A072010AE172010C2173000E4D
:10220000607317E0E5736D1C22002032210010314D
:10221000200001F00DF900217018009A135C62187B
:10222000127C5A400A9B1A54491C1029F4DB103FB7
:102230001036F6B2BFB2102FE4DA002F13D0E573D8
:102240002200203221001031200001F0F1F800219D
:102250007018009A125C63181B7C53400A9A13543E
:10226000491CB942F4DBF7BD10B584B0089C029458
:10227000079C0194069C0094FFF79DFF1FBDF8B5D5
:1022800006000D001700444C2000203000F08AFCAE
:1022900039002000203000F096FCEAB23100200026
:1022A000203000F098FC210020312000103000F098
:1022B000F3FCE07C0006A17C09040143607C000281
:1022C0000843217C014300980160F1BDF4B505008D
:1022D0000E001F00314CF022002120002030FDF7BD
:1022E0001FFF220020321021009801F017F8220071
:1022F00020323900280001F09BF8102E07DB203433
:102300002200103739001035280001F091F8F1BD96
:10231000F4B584B004000E001F00204DF02200210F
:1023200028002030FDF7FCFE2A002032102120007A
:1023300000F0F4FF102200216846FDF7F1FE6C4624
:102340000120207006223100601CFDF7D4FE02221D
:1023500004A9E01DFDF7CFFE2A00203239006846AF
:1023600001F066F8102200216846FDF7D9FE022030
:10237000207006223100601CFDF7BDFE022204A978
:10238000E01DFDF7B8FE20352A000A99684601F0E5
:102390004FF805B0F0BD000000000010380100103B
:1023A0009D2102000AD002D4491E9218FCD5C9050D
:1023B000100A1206524100D3012A4841704730B436
:1023C000012100220368001D002B0BD00468001DB2
:1023D0000C4202D04D466D1E64192260241D1B1F45
:1023E000F0D0FAE730BC704770B4103A03D378C924
:1023F000103A78C0FBD2530701D318C918C001D5D1
:1024000008C908C0D20704D30B880380891C801C2C
:10241000002A01D50B78037070BC704702000800D9
:10242000904200DA10007047FFB583B00026002507
:10243000009501950024049801994900405A012112
:10244000A140084223D00598009909190C22514354
:102450004718386800281AD0082039560A11090789
:1024600009176846007B40B201F0FBF800280ED047
:102470000698797A09014018C068002801D06D1CBF
:1024800005E0009800190C99F6B28855761C641C7A
:10249000102CD0DB0098103000900198401CC0B286
:1024A000019000986028C5DB0D980570F0B207B068
:1024B000F0BD0000F8B5010028A00068FA24E4008F
:1024C0006208934D0E78202E46D801A7BF5DBF4409
:1024D0007878868686788686782E32783C4044489E
:1024E0004C5056786278666A707478787C80848400
:1024F000200001200856002800D0401E40B2F2BD46
:10250000844800E0844801228956405CF2BDAC4812
:10251000F2BD1000F2BD2000F2BDAA48F2BDAA48EB
:10252000F2BD8020C001F2BD1100A848FDF7D8FD22
:102530000019F2BDA648F2BD2800F2BD28000C30FB
:10254000F2BD6020F2BDA348F2BD0020F2BDA2485A
:10255000F2BDA248F2BD3020F2BD00000000000034
:1025600038B542686A499B4B04780C256C431B19AB
:102570005B7A1B01C9181831407801F0A5F831BD0C
:1025800038B50100624802D0012918D031BD0021C0
:102590000022934D8F4B0C2454431B19BD4C5443C4
:1025A00064191C6050241C725972521C602AF1DBA1
:1025B000B9498181C181018241828182C182062221
:1025C00001000C3101F071F831BD80B5091F0129FE
:1025D00009D9891E09D0491E012908D9091F14D01B
:1025E00013390DD011E0052202E0052201E0072297
:1025F00000210023C05601F034F8002806D002E084
:102600000078302801DB012002BD002002BD80B52A
:1026100001003F480A79002A02D0012A06D009E0C9
:102620000622096801F041F8012002BD062209686E
:102630000C30F7E7002002BDF7B5070000240025A5
:102640000820385609217E56796819607978002962
:1026500026D0002801D11C6022E07968402901D3EE
:102660000125002660291BD3C906C90E012917D1EF
:10267000694620220A704870B87A88706846FFF769
:1026800019FF40B200280BD100253978002907D066
:102690001F49814A0A804A808A80CA800A814A8109
:1026A00001990870029806702800FEBD0000000025
:1026B00070B584B00D0016001C00052800DB052055
:1026C000607000BF15A00121615689004158C54ABC
:1026D000914204D05200914203D1022102E0012133
:1026E00000E00021A170012162569100415800BF15
:1026F0006AA0805C01F0B8F822000C320292083423
:1027000001940122009233002A0001F0CBF87FBD32
:102710000C040010EC270000E427000048E801004A
:1027200048E8010048E8010048E8010048E80100E5
:1027300048E80100F2B58AB0040001202656676817
:10274000C04D68688047002801D0002036E0E07C5A
:10275000002807D120783021FDF71CFD4D4841436A
:10276000B9480F183800E9688847A07C0990012013
:102770000890002007900690059004900390A068B0
:1027800080B202900820019000200090012300BF39
:1027900042A0825D52B2A1780120AF69B847607C47
:1027A000002801D00FA000E010A0815D0D31C9B25A
:1027B00001206A6D90470A98067001200BB0F0BDA9
:1027C000B80B0000881300007017000018FCFFFF12
:1027D00020441E1E38040010333399419A99094051
:1027E0006035081C33333373DEDE0000333333735C
:1027F000DEDE0000F6B58BB004000120225600BFDB
:1028000026A0805C09A90870AD4BAE4821780C2544
:1028100069434018407A000118181A2141560220D5
:102820002056FFF7FBFD0600A268616801F096F8EC
:102830000700844DA34821780C2251434058E96891
:102840008847CD4808900020079006900590012009
:102850000490002003900820029001200190694616
:102860002420085600900023002239000120EF693F
:10287000B847A189C9B201206A6D9047A189C9B240
:1028800001206A6A90470C9908600B980670012035
:102890000DB0F0BD400D0300FFFF00000C0B0A0956
:1028A00008070000FFB58FB007240020029005A89C
:1028B0000C2100F08FFE0622B14905A800F0F5FEBC
:1028C0000125AE4F05AE05E037807780B780F780F1
:1028D0003781778102980F990979884235DA6946FC
:1028E0000F980068029A801800F049FF00282CD049
:1028F00002990818C0B2029007246846C0780628DA
:10290000E2D0072801D10624E4E700216A46928834
:102910006B469A816A46938901228A4013420CD001
:10292000684A9446020153180C2253436246D25817
:10293000002A02D12200FE241440491C1029E9DBA0
:102940006946898940003152C4E704A805700F998F
:1029500049798170FFF7AEFD08A90C700F9A927942
:102960004A706A4652788A706A469278CA706A4695
:1029700012780A710F9AD2794A710F9A127A8A7173
:102980000F9A527ACA7160220A7205AA0B920874D1
:10299000052048744B480D900720087600204876A3
:1029A0006B466A46921C6946491C08A800F009FF5C
:1029B0000400072C04D1062205A9714800F075FE19
:1029C00068464078109908706846807811990870B8
:1029D00068460078129908700298189908702000CB
:1029E00013B0F0BD90D0030070B5050007246E68E9
:1029F00030001449096A8847002809D06148301816
:102A00006149884204D26149FDF7C7FB002900D023
:102A10000624052200210020285600F022FE00286E
:102A200002D12000FD240440032200210120285669
:102A300000F017FE002802D12000FB2404402000F3
:102A400070BD0000084B0000E0F8D11D30B5002536
:102A5000048820003021FDF79DFB002914D0E006FA
:102A600001D1012510E020001821FDF793FB00297A
:102A700001D1022508E0200701D1032504E0600709
:102A800001D1042500E00525280030BD00B585B042
:102A90000C4900913E490191694642780A720278D8
:102AA0004A7282788A72C278CA72416803918068D9
:102AB0000490684600F067FF05B000BD000000000C
:102AC0000C04001038040010F6B59BB006001F007F
:102AD000002569460D7203A8602100F07BFD284C9B
:102AE00006220021200000F0C4FD002806D1234862
:102AF00020806080A080E08020816081706800205C
:102B0000C046316888421CD33D6001232200183240
:102B1000B17A707A00F0DDFD070002A8019003A8E9
:102B20000090230018331B4A2100307AFFF77CFC09
:102B3000010011D16846007A00281C9818D007605F
:102B400014E06846007A401C6946087270680020EC
:102B5000C04631680F1AEDE7411E0020FDF7C0FAAC
:102B600003A9085C1B9908701C980560012001E00E
:102B7000056000201DB0F0BDB80B0000FFFF000095
:102B80000C04001020072EE2C16E8F00400D0300E0
:102B90002404001038040010881A010600D5002013
:102BA000C0B2704710B5040010220021F130FDF7CB
:102BB000B7FA00208A2149006050F022002120004D
:102BC000FDF7AEFA10BD80B50B0002001021180011
:102BD00000F0A4FB01BDF0B585B005000E001400A7
:102BE0008A2040002858002848D010210F1AA742F8
:102BF00000D92700BAB231002818FF239B1CC01847
:102C0000FDF779FA8A2040002858C0198A21490026
:102C1000685010283ED3BC423CD000202918F13126
:102C20000A780B7C53400B70401C1028F6DB2A00FE
:102C30002900F1312800F13000F0FAFBF619E41B0D
:102C40001CE000202918F1310A78335C53400B70E6
:102C5000401C1028F6DB10222900F1316846FDF7F0
:102C60004AFA2A006946684600F0E2FB10226946EB
:102C70002800F130FDF73FFA1036103C112CE0D25D
:102C8000A2B23100FF20801C2818FDF734FA8A20F8
:102C900040002C5005B0F0BDF1B588B00C001022FA
:102CA00000216846FDF73CFA22006946684600F0BC
:102CB000BFFB872100206A4613781B0603460DD50B
:102CC000D5182E7876006F78FF0937432F705B1C7C
:102CD0000F2BF5DBD37B5B004B400BE0D5182E7838
:102CE00076006F78FF0937432F705B1C0F2BF5DBE5
:102CF000D37B5B00D3738A235B00E358102B0CD18A
:102D000000216318FF25AD1C5B191D78565C6E40D1
:102D10001E70491C102940DAF3E713781B060ED504
:102D20000023D5182E7876006F78FF0937432F706F
:102D30005B1C0F2BF5DBD37B5B0059400CE00021C3
:102D400053181D786D005E78F6092E431E70491CDD
:102D50000F29F5DBD17B4900D17380218A235B00E9
:102D6000E358E318FF25AD1C595501E0611848559B
:102D70008A2149006158491C8A235B00E1501029CF
:102D8000F4D300216318FF25AD1C5B191D78565C38
:102D90006E401E70491C1029F4DB2118F1310A78AD
:102DA0000B7C53400B70401C1028F6DB10222100D6
:102DB000F13104A8FDF79FF92200089904A800F05A
:102DC00037FB102200216846FDF7AAF909B0F0BDD3
:102DD0000A7802704A7842708A788270CA78C27023
:102DE0000A7902714A7942718A798271CA79C2710B
:102DF0000A7A02724A7A42728A7A8272CA7AC272F3
:102E00000A7B02734A7B42738A7B8273C97BC173DC
:102E1000704702780B785340037042784B785340E8
:102E2000437082788B7853408370C278CB7853405C
:102E3000C37002790B795340037142794B79534047
:102E4000437182798B7953408371C279CB79534036
:102E5000C371027A0B7A53400372427A4B7A534021
:102E60004372827A8B7A53408372C27ACB7A534010
:102E7000C372027B0B7B53400373427B4B7B5340FB
:102E80004373827B8B7B53408373C27BC97B5140EE
:102E9000C173704710B50B7814785C4004704B78A0
:102EA00054785C4044708B7894785C408470CB7824
:102EB000D4785C40C4700B7914795C4004714B7910
:102EC00054795C4044718B7994795C408471CB79FE
:102ED000D4795C40C4710B7A147A5C4004724B7AEA
:102EE000547A5C4044728B7A947A5C408472CB7AD8
:102EF000D47A5C40C4720B7B147B5C4004734B7BC4
:102F0000547B5C4044738B7B947B5C408473C97BB3
:102F1000D27B4A40C27310BD7F4902788A5C02703E
:102F200002798A5C0271027A8A5C0272027B8A5C94
:102F3000027342784379CB5C4370437ACB5C437134
:102F4000437BCB5C43728A5C42738278837ACB5C2E
:102F500083708A5C82728279837BCB5C83718A5CAA
:102F60008273C27BC37ACB5CC373C379CB5CC372FD
:102F7000C378CB5CC371895CC17070477FB50400B6
:102F800021006846FFF724FF634800BF63A100BF2C
:102F9000A2A26B461D78565D5D794D5D75409E7AA7
:102FA000865D6E40DD7B455D754025701D78465D14
:102FB0005D79555D75409E7A8E5D6E40DD7B455D29
:102FC000754065701D78465D5D79455D75409E7AFA
:102FD000965D6E40DD7B4D5D7540A5701D784E5D44
:102FE0005D79455D75409E7A865D6E40DD7B555D01
:102FF0007540E5701D79565D5D7A4D5D75409E7B2F
:10300000865D6E40DD78455D754025711D79465DB4
:103010005D7A555D75409E7B8E5D6E40DD78455DC9
:10302000754065711D79465D5D7A455D75409E7B95
:10303000965D6E40DD784D5D7540A5711D794E5DE4
:103040005D7A455D75409E7B865D6E40DD78555DA1
:103050007540E5711D7A565D5D7B4D5D75409E78CE
:10306000865D6E40DD79455D754025721D7A465D51
:103070005D7B555D75409E788E5D6E40DD79455D6A
:10308000754065721D7A465D5D7B455D75409E7835
:10309000965D6E40DD794D5D7540A5721D7A4E5D81
:1030A0005D7B455D75409E78865D6E40DD79555D42
:1030B0007540E5721D7B565D5D784D5D75409E796E
:1030C000865D6E40DD7A455D754025731D7B465DEE
:1030D0005D78555D75409E798E5D6E40DD7A455D0B
:1030E000754065731D7B465D5D78455D75409E79D5
:1030F000965D6E40DD7A4D5D7540A5731D7B495D23
:103100005D78455D4D409979405C6840D97A515C65
:103110004140E1737FBD000084340000A584998D97
:103120000DBDB1545003A97D1962E69A459D4087B3
:1031300015EBC90BEC67FDEABFF7965BC21CAE6AE4
:103140005A41024F5CF434089373533F0C52655E4E
:1031500028A10FB509369B3D2669CD9F1B9E742E75
:103160002DB2EEFBF64D61CE7B3E7197F568002CDB
:10317000601FC8EDBE46D94BDED4E84A6B2AE5167F
:10318000C5D75594CF100681F044BAE3F3FEC08A48
:10319000ADBC4804DFC17563301A0E6D4C14352F79
:1031A000E1A2CC3957F28247ACE72B95A098D17FAA
:1031B000667EAB83CA29D33C79E21D763B564E1E10
:1031C000DB0A6CE45D6EEFA6A8A4378B324359B7D7
:1031D0008C64D2E0B4FA0725AF8EE918D5886F72F7
:1031E00024F1C751237C9C21DDDC86859042C4AA52
:1031F000D8050112A35FF9D0915827B93813B3331A
:10320000BB7089A7B622922049FF787A8FF8801781
:10321000DA31C6B8C3B07711CBFCD63AC6F8EEF6B1
:10322000FFD6DE916002CE56E7B54DEC8F1F89FACE
:10323000EFB28EFB41B35F452353E49B75E13D4CF8
:103240006C7EF5836851D1F9E2AB622A0895469D00
:1032500030370A2F0E241BDFCD4E7FEA121D583463
:1032600036DCB45BA476B77D52DD5E13A6B900C12F
:1032700040E379B6D48D67729498B085BBC54FEDA5
:10328000869A66118AE904FEA078254BA25D800526
:103290003F2170F16377AF4220E5FDBF811826C35F
:1032A000BE35882E9355FC7AC8BA32E6C0199EA363
:1032B00044543B0B8CC76B28A7BC16ADDB6474145D
:1032C000920C48B89FBD43C43931D3F2D58B6EDA26
:1032D00001B19C49D8ACF3CFCAF447106FF04A5CF7
:1032E00038577397CBA1E83E96610D0FE07C71CC07
:1032F0009006F71CC26AAE6917993A27D9EB2B22C0
:10330000D2A907332D3C15C987AA50A50359091A1C
:1033100065D784D082295A1E7BA86D2CF6B584B05F
:103320001146F0316A46147C102C03D0182C01D0C1
:10333000202C02D12246059B07E000200870FF20C8
:1033400074E005781D70401C5B1C15006A1E2D067C
:10335000F7D16846007C1C308006000E03900009FF
:10336000401E087001256846007C029045A62FE0AB
:10337000029819280FDB10290DD1F75D68466946C0
:103380008978715C817069464978715C41706946E1
:103390000978715C01706946097C601AC0B20599B0
:1033A000081801784F4001990F700199491C427823
:1033B0006B469B7853400B7082786B465B7853402A
:1033C0004B70C0786A46127842408A70241DE4B27D
:1033D0000398844229DA059800190190001F0778A4
:1033E000694642788A7082784A70C07808702000F6
:1033F0000299FCF7CFFE0029BAD1380069468978D6
:10340000715C2F004F4069466A465278B25C8A7000
:103410006A461278B25C4A70305C08706800ED0948
:103420001B214D434540EDB2B5E7002006B0F0BD8D
:10343000F0B585B00F001400F021615C00291DD0AB
:1034400001006846FFF726FD012506E0FFF796FD1F
:1034500031006846FFF7DDFC6D1CEDB2280126182F
:10346000F020205C85426846F0D3FFF755FD32001E
:1034700069463800FFF70EFD002000E0FF2005B090
:10348000F0BD0000637C777BF26B6FC53001672B6A
:10349000FED7AB76CA82C97DFA5947F0ADD4A2AF48
:1034A0009CA472C0B7FD9326363FF7CC34A5E5F156
:1034B00071D8311504C723C31896059A071280E204
:1034C000EB27B27509832C1A1B6E5AA0523BD6B358
:1034D00029E32F8453D100ED20FCB15B6ACBBE39C8
:1034E0004A4C58CFD0EFAAFB434D338545F9027FB4
:1034F000503C9FA851A3408F929D38F5BCB6DA216D
:1035000010FFF3D2CD0C13EC5F974417C4A77E3D98
:10351000645D197360814FDC222A908846EEB814EE
:10352000DE5E0BDBE0323A0A4906245CC2D3AC62B1
:103530009195E479E7C8376D8DD54EA96C56F4EABC
:10354000657AAE08BA78252E1CA6B4C6E8DD741FCD
:103550004BBD8B8A703EB5664803F60E613557B990
:1035600086C11D9EE1F8981169D98E949B1E87E94A
:10357000CE5528DF8CA1890DBFE6426841992D0FF9
:10358000B054BB161206130A1A43130C1A4300BF99
:10359000094205D0830705D00270401C491EF9D1AD
:1035A00070470000130030B414001500103902D326
:1035B00010393CC0FCD2490700D30CC000D504C070
:1035C000890002D30280801C002900D5027030BC23
:1035D000704700000022E5E7AF49884201D264202D
:1035E0007047AE49884202D2FA2080007047AC484A
:1035F0007047F7B5694620200A5619006B46082027
:10360000185600F02EF8002829D0002500260F2794
:1036100007E0641CE4B2102C08DB1035EDB2761C18
:10362000F6B268460078854219DA002401987100E4
:10363000405A0121A1400842EBD0099829190C22D7
:1036400051434018082141560A113A4039406B460F
:103650000820185600F005F80128DAD1FEBD002038
:10366000FEBD884203DB824201DB0120704700205F
:103670007047F5B50020009B002B11D1F6BD009BD3
:103680004C001B5B002400250126AE4037001F4084
:10369000B74200D1641C6D1C102DF5DB0019491CCC
:1036A000C9B29142EBD3C0B2F6BD002800D1704739
:1036B00030B5002907D0002303E05C000D5B055303
:1036C0005B1C9342F9DB30BD00288A6000D14A6060
:1036D0007047FFB581B00024E4430027002602E0D4
:1036E0000024EF60761C6846007C864244DA03982A
:1036F000310145186846007900286846007A22D1D1
:10370000002804D0A8680020C046009000E0009780
:1037100068680020C0460099814201D2686804E0D0
:103720006846007A002802D0A8680020C046E968F0
:10373000884200D3EF60E9680029D3D0081AA0427C
:10374000D0D20400CEE70028CAD0A8680020C04626
:10375000E968884200D3EF60E8680028C2D0A86812
:103760000020C046E968081AA042BBD2A868002021
:10377000C046E9680C1AB5E7200005B0F0BD0200AC
:1037800000201378032B00D0704710B55078487094
:103790000F204B7803408B700123CB561B11034045
:1037A0004B7093788B80D47824021C438C801279E0
:1037B0000A705206520FCA700A781040087005202D
:1037C00010BDFEB584B0040025780220205669465D
:1037D0000872032166562779617800290BD10F28DA
:1037E00001D10F2E02D000250720275668466179A7
:1037F000017206202656002D24D060690190112008
:103800002056009010202356694608200A56E16889
:10381000207AFFF7EEFE002802D12800FD250540A2
:1038200018202256192021563000FFF71AFF0028D1
:1038300008D119202056864201DA060002E028004D
:10384000FB250540072D04D17FB2002F01D10720B1
:1038500027566846007A04990870059806700698FD
:103860000770280007B0F0BD70B50E00012181403F
:10387000080000F0B3F804000D00300000F0B8F8C4
:1038800002000B002000290000F0C2F80022304B9B
:1038900000F01FF970BD000080EE3600803F5C0232
:1038A00010270000FBB514001D006000083800F070
:1038B00095F86A460CCA00F00CF906000F00680083
:1038C00000F096F832003B0000F0C5F96A460CCAD9
:1038D00000F09EF806000F0000F098FA00F0D4FA0D
:1038E000844206D23000390000F090FA00F0CCFAA1
:1038F00000E02000099E306068460CC80020154991
:1039000000F0E7F804000D00306800F071F86A4636
:103910000CCA00F0DEF800220F4B00F0DAF80200CB
:103920000B002000290000F0F9F904000D000898B0
:1039300000F05EF802000B002000290000F0EEF914
:1039400000F064FA00F08EFA0A990860F7BD0000F2
:1039500000408F40000010400000E03F38B50C00F0
:1039600015004000FEF71CFD0100200000F0D6FA13
:10397000290000F0D3FA00F029FB00F041FB00F031
:1039800071FA40B232BDF8B504002068E17A0C2229
:1039900051434018407A07016068C0190588002625
:1039A000C660607A00280FD1E068FFF715FEA842D4
:1039B00000D30500A07A002809D1207A002806D17A
:1039C0006068C019C660F1BDA07A0028F8D02069EF
:1039D0004543281A6168C919C860F1BD010009D5BD
:1039E000F446404200F006F80122D2071143604736
:1039F000010000BF42221201D21E004207D002D4B1
:103A0000521E0018FCD5C10A4005120589187047DE
:103A1000F0B40E005E400125ED072E40B446AE0A1C
:103A2000DF184C18F4423BD2F74241D2640D43D028
:103A30007F0D38D0E41BC902DB0229432B43CF0A98
:103A4000DB0A0600B61A9F4104D2641EB6197F41F4
:103A5000B6185F416812800D24180018844222DADB
:103A6000E80C0021B6197F41B61A9F4102D2B61860
:103A70005F413F1C40414941F4D3241C21DD240512
:103A8000B6197F41B61A9F4105D33743C60737435E
:103A90000026012F7041614166463143F0BC7047FA
:103AA000FCD1F74205D20020C14349054908F3E79C
:103AB00004D00020C143F1E77F0DFAD00020614619
:103AC000ECE72442FAD1401C61410F03F6D30020F9
:103AD000E2E7F0B50E005E400125ED072E40B4464A
:103AE000AE0ADF184C18F44208D2F7420ED2640D29
:103AF00001D07F0D12D100206146F0BD05D1F74203
:103B000001D87F0D05D10020C143F0BDFBD1640D6C
:103B1000F9D00020C143490549088FE0E419C902E2
:103B2000DB0229432B43DB0A460DC00231438E469C
:103B300030B487B295B27D432E0CADB2140C7C43E9
:103B4000A419260C240425439CB27C43A419190C07
:103B50007943270CC919A4B20F043C43090C000C8B
:103B600097B247432E0CBE193543ADB2170C4743ED
:103B7000360CBF19A6B2BF193E043543240C3E0CC7
:103B800036199FB24743BF19BCB23E0C89191F0CAE
:103B900047437F183E043443390C704680B297B2D5
:103BA00047432E0CBE193543ADB2170C4743360CB4
:103BB000BF19A6B2BF193E043543240C3E0C36197A
:103BC0009FB24743BF19BCB23E0C89191F0C474333
:103BD0007F183E043443390C77463F0C90B278434B
:103BE0002E0C80190604ADB22E43050CA0B22D1880
:103BF000120C7A435019020C80B2240CA4189AB209
:103C00007A43121914042043120C89181B0C7B43AD
:103C1000C91830BCEF0A394203D1B61940414941B5
:103C2000641E6F12BF0DE41B0BDBFF19BC4211DADF
:103C3000240500274208AE41784161416646314380
:103C4000F0BD641C05D1401C6141CF0201D349087D
:103C5000F4E750E75DE7F0B40125ED070F005F40A2
:103C60004FD48B4200D1824205D98446100062466F
:103C70008C4619006346DF184C18640D7F0D3AD04E
:103C8000661C760537D0E61B352E34DCDB022B4371
:103C9000DB0A0C0DC9022943C912202E0DDB1700C7
:103CA000203E06D01F00F741F3405F400026012A66
:103CB0007741C01871410DD217E01700F741F2406B
:103CC0005740F3415A40B340F3405A400026801811
:103CD00059410AD3A21C52050FD0C207012F7241CD
:103CE00017004008CB0718434908641C2405420804
:103CF000AF4170416141F0BC7047641C2105002058
:103D0000F9E76B4010E06B40ABE7F742F3D1E943D2
:103D1000F1E72442EFD100200021ECE7F0B40125C7
:103D2000ED070F005F40EED40C00871A9C4105D2CE
:103D3000C01BA141D219634169406B40AE0ADF1834
:103D40004C18F442E1D2640D7F0DE2D0E61B362E12
:103D5000D1DCDB022B43DB0AA4460C0DC90229434C
:103D6000C90A012E28DC04D1D6075208DF073A43DE
:103D70005B08EF0A76429041994114D039423BD119
:103D8000B61940414941761C394204D1761C0018CD
:103D900049413942FAD0B9436746B74208D9A41B12
:103DA00024052143A7E70042EAD13642E8D1A2E741
:103DB000E40AE10700209EE7202E0BDD203E1F00D5
:103DC000F340F7415F40012A002257417E4298416B
:103DD00091410BE01700F741F2405740F3415A4040
:103DE000B340F3405A407E42904199410A0303D2C6
:103DF000641EB619404149410027641E240542084B
:103E0000AE4178416141F0BC7047FEE74A00520D77
:103E1000FF239B009B1CD21A19DD35239B1A1EDD44
:103E20001300153B09DA9B41DB0AD340094201D458
:103E3000401E59410020994370470022D243DA4086
:103E4000094202D4002380185941904370470B0D5A
:103E50005B0500D0024901D30121C907002070474A
:103E60000000F03FF4464A1805D200F00FF801D5E3
:103E700080174008604700F009F80121C90788420F
:103E800000D90800404260474A1812D2400DC902CA
:103E900008430121C9070843520D40210901521A64
:103EA000521C06D452421F3201D4D0407047C01772
:103EB000704700207047431A01D2C01AC91830B4A5
:103EC0004B180418240E1B0E22D0FF2C20D0E31A0E
:103ED000182B1DDC09021143C40D641E000210439F
:103EE00094461925ED1A0A00AA40D940451801D375
:103EF0006D08A41CE405D209280A2D062A4365464C
:103F0000AA41604103181B0EFF2B01D3C00DC00551
:103F100030BC7047514006E05140CCE70122D20747
:103F200003004B40F8D4431A03D2C01AC9185040BA
:103F3000514030B44B18090211430418240E1B0ED3
:103F400040D0FF2C3AD025009D410BD31ED8C50D83
:103F50004002401A0BD3ED050100400AC90591410A
:103F60006841D5E7C50D40024918401AD0D001215B
:103F70004008491C0018FCD58C4204D36D1A000A75
:103F8000ED054019C4E7E8051040C1E7182DBFDC76
:103F9000AC1C0D00E140E5414D40012D4941C40DEF
:103FA00000021043451A01D46D199543641EE405BF
:103FB000280A2D069541604130BC7047FF2BA7D1E0
:103FC000D843A5E72442A3D10020A1E7012212068D
:103FD0000118CA420AD28A420DD8382212060909AB
:103FE0008918C20FD20711434007704700D0490813
:103FF0000909014301E0C10FC90700207047FEE72E
:104000004A00520DFF239B009B1CD21A19DD352359
:104010009B1A1DDD1300153B09DA9B41DB0AD340D7
:10402000094201D5401E59410020994370470022A2
:10403000D243DA40094202D5002380185941904307
:1040400070474B00034300D0024900D200210020FA
:10405000704700000000F0BF0121C006C00E814083
:10406000C5480160704701218140BF480268C34BC9
:104070000B439A4302600268C14B36E0C14A80009C
:1040800011507047C049012282400868C0B21043F5
:1040900008607047BD49012282400868BC4B03405C
:1040A00013430B6070470268FF23DB430B439A43C3
:1040B00002607047416170470123934089004018B6
:1040C000902189014350704780B5002B07D0012310
:1040D0009340890040188E218901435001BDFFF7AC
:1040E000EBFF01BD0268FF23BE3313400B430360A7
:1040F000704738B511210020FFF7C0FF0020FFF7FF
:10410000C1FFA0242406112200212000FFF7D4FFC4
:1041100012210120FFF7B2FF0120FFF7B3FF1222A7
:1041200000212000FFF7C8FF13210220FFF7A6FFA0
:104130000220FFF7A7FF132200212000FFF7BCFF9A
:1041400015210320FFF79AFF0320FFF79BFF15229D
:1041500000212000FFF7B0FF16210420FFF78EFF9B
:104160000420FFF78FFF162200212000FFF7A4FF95
:1041700001230F2200212000FFF7A6FF854D032217
:104180000A21280000F054F9012318220021200000
:10419000FFF79AFF03221821280000F049F90123B4
:1041A000192200212000FFF78FFF0322172128008A
:1041B00000F03EF900231B2200212000FFF784FFBE
:1041C00000221521280000F033F901231A220021D2
:1041D0002000FFF779FF03221621280000F028F9BC
:1041E0000720FFF757FF1821612000F02BF9192154
:1041F000522000F027F91B21602000F023F91A213A
:10420000532000F01FF961480168634A0A400260C8
:104210000C20FFF73FFF0120FFF725FF5F4C2068D0
:10422000FF2182310140216004212000FFF75AFF65
:10423000F02000032062002069460860200000F0A2
:1042400025F901212000FFF74DFF31BD10B5544C79
:1042500001212000FFF727FF01212000FFF72AFF9F
:104260001820FFF7F9FE02212000FFF71CFF0221B2
:104270002000FFF71FFF1920FFF7EEFE04212000AA
:10428000FFF711FF04212000FFF714FF1A20FFF7AA
:10429000E3FE08212000FFF706FF08212000FFF7BA
:1042A00009FF1B20FFF7D8FE10212000FFF7FBFEBF
:1042B00010212000FFF7FEFE1C20FFF7CDFE20217D
:1042C0002000FFF7F0FE20212000FFF7F3FE1D2065
:1042D000FFF7C2FE10BD70B50500092001F070FCAB
:1042E0004D2001F06DFC04002E48C0682E49884224
:1042F00001D2F02000E070200F2103061FD5072314
:10430000122D02DB2600072402E0F82626400424B2
:1043100034432340072B08D1052D01DA052502E09F
:10432000152D00DB14256A1F07E0022D01DA022596
:1043300002E0122D00DB1125AA1E11400AE0002325
:10434000DB439D4201DA1D4602E00F2D00DB0E2506
:104350006D1C29400143092001F02CFC21004D2057
:1043600001F028FC70BD0000048004400F490A7869
:10437000824200D00870704700E100E00020FEFF9C
:10438000FFDF010078810440048204408080044003
:10439000FFFFEF25004004407FFFEF2500C00540F0
:1043A000004000A0B808001040DD4A1FF50E0010C4
:1043B0000120704783B50121684600F07DF8401E5A
:1043C000012813D90021684600F076F800280DD0A6
:1043D0000198002868460CC802D50020054901E074
:1043E00000200549FFF737FC6A4603C2684603C848
:1043F00003B000BD0000F0BF0000F03F30B4012466
:1044000064054D00EC420BD85D00EC4208D80C006E
:104410001C4364000443144304D28B4200D1824203
:1044200030BC7047FCD09942FAD19042F8E7FEE7E1
:1044300089004018016818239943D2000A4302609A
:104440007047FEE710B50207520E00090D4B8000C1
:1044500018180368FF249440A34391401943016056
:1044600010BD0122824008480029016804D0FE23C3
:104470001B061343994302E0C901C90911430160B6
:104480007047000000C00040C0C1004010B50F22BE
:104490000B7813404C78144024011C438B78134054
:1044A0001B022343C978002904D01C00491E0A407E
:1044B00013032343436010BD42685200520D1F4B4B
:1044C0009A4209D14168090304D10068002801D14A
:1044D000012070470220704743685B0002D10368E7
:1044E000002B28D0164B9A1A521A012A23DB352AA0
:1044F00007DB416880221206114041600021016003
:1045000016E00121D306DB0E9940491E920608D51C
:1045100042680A40416851404160036813430021EA
:1045200003E003680B40016859400160002B02D092
:104530000020C04370470020704700BFFF07000005
:104540003304000010B500229549022802D0E0286B
:104550000AD010BD0A604A600A818872CA728A81D4
:10456000FF208873C87310BD01208E4B9C7B002CEC
:1045700009D09A7303221A7505220A70DA7B4A70F1
:104580001A7C8A7004E05A78012A03D0042A08D1E0
:10459000587010BD022018759889000A0870988913
:1045A000487010BD70B584B07E4C20004030FDF7DF
:1045B000ACFC01256E4635706846FDF7D5F900283C
:1045C00007D13079002803D00220A07565757FBD22
:1045D000A5757FBD80B57448FDF797FC01BD80B51A
:1045E0007248FDF792FC01BD80B57148FDF78DFC66
:1045F00001BDF0B58DB000F0F7F86E4801686E4A65
:104600000A400121114301606C480068FA218900C9
:10461000FBF7C3FD401E00268021490488420CD2CE
:1046200067494860674802681202120AC0231B06E5
:10463000134303608E60072008605A4CA67505ADD1
:1046400004271BE0FA2189005F48FBF749FD5F4919
:104650004018E061A775E16920004030FDF78EFC4D
:1046600020004030FDF7DBFBA07D002806D00228AB
:1046700072D03DD30428F7D0ECD3A675022204A94A
:1046800009A8FDF709F8524920004030FDF7C0FBAA
:10469000504920005430FDF7BBFB19212000543055
:1046A000FDF76CFC4C4920006830FDF7B1FB192187
:1046B00020006830FDF762FC484920007C30FDF79F
:1046C000A7FB192120007C30FDF758FC0220694629
:1046D0000870012008716846FDF7C8F9072069468F
:1046E0000870012008716846FDF7C0F90120A07527
:1046F000A069002807D13A48FBF7EFFC39490020B0
:10470000FBF7EEFCA061032069460870019668463D
:10471000FDF7ACF969460F70A06901906846FDF796
:10472000A5F90520694608702000203001906846F0
:10473000FDF79CF906206946087020003030019092
:104740006846FDF793F901206946087008716846CC
:10475000FDF78CF90220A075607D00281AD0022098
:10476000FFF7F0FE03A9207DFDF798F800282E70D2
:1047700002D00796AE8105E0022028710848079014
:10478000207DA881AE7305A8FDF7A8FA002800D007
:10479000012060752078002800D153E70B4858E7C6
:1047A000640C00104403001098030010AC030010C8
:1047B000C003001080800440FFFFEF251C0F001095
:1047C00010E000E020ED00E018FCFFFF881300007F
:1047D000A5450000D5450000DF450000E945000083
:1047E000AA550000FFFFFF0180B500F061F8014904
:1047F000086001BD1C0F001032490CE000220028A7
:1048000000D00122002902D01000022202432E48CB
:10481000026070472D490860002048600120486010
:104820007047000000B52A480068C105C90D00BFE7
:104830002DA04A0992008058C906C90E491C49009A
:10484000FBF7ABFC00BD1F4800688007800F04D059
:10485000012804D0032804D006E01E4870471E48F3
:1048600000E01E48006870470020704780B5FFF7E1
:10487000EAFF1B490968C906C90E491C484302BD25
:1048800080B50020114909688907890F05D00229E0
:1048900008D004D3032908D002BD0E4802BDFFF79B
:1048A000D2FF02BDFFF7BEFF02BDFFF7DFFF02BD73
:1048B00080B5FFF7E5FF0B490968C9B2FBF76DFC4E
:1048C00002BD00004080044020800440708004400D
:1048D00024800440001BB700044C0000084C00007A
:1048E000088004407880044000000000C0270900D0
:1048F00090051000C05C1500F0B31A00200B2000DA
:10490000009F2400E0322900C0C62D0050973100DE
:10491000E06735007038390000093D00401640005E
:1049200080234300C0304600816807E002681168B8
:1049300051185368CB18C36008320260C2689142B4
:10494000F4D04A1C826008787047F0B587B0010047
:104950000831029102685208D2008918039100259B
:104960000495059501684908C90044180834406851
:104970006946C307DB0F4B704008C0002018019048
:10498000002735E002A8FFF7CFFF46B20AE0029801
:1049900001684018049002994968401805900298EF
:1049A00008300290049805998842F0D0411C049187
:1049B000007869460870BD4210D10198844201D147
:1049C000FBF742FC256868464078002801D048463D
:1049D0002D1860682F180834BD42EED06846007864
:1049E00028706D1C002E08D5761CE4D1BD42C9D1BB
:1049F00001988442C6D107B0F0BD761ED2D5F5E746
:104A00002021090326311820ABBEF9E716490122FF
:104A100082400868154B034013430B60704710B584
:104A20000720FFF7F3FF202000F038F8104C002299
:104A30000E212000FFF7FCFC00220D212000FFF7D3
:104A4000F7FC01210620FFF70CFD01210720FFF7ED
:104A500008FD05480168074A0A40026000F02EF888
:104A6000FFF7C2FE10BD000080800440FFFFEF256D
:104A7000004004407FFFEF2580B51220FFF7C6FFFE
:104A8000FFF7CDFF01BD00000B490A681043094A3A
:104A90000240DA20C00110430860704706490A68E6
:104AA000824304481040DA22D20102430A60704770
:104AB00000000000FF8000003882044010B5002193
:104AC0000020FFF79BFE2020FFF7E8FF0120FFF703
:104AD00093FE0B480168012101608020FFF7D4FF9D
:104AE000084C242020608020FFF7D8FF6068C007B2
:104AF000FCD5022020670320FFF78CFE10BD0000CC
:104B00001000044008800440514C0000F54C0000A7
:104B1000415B0000FB4C0000314D0000794D00006E
:104B2000314F0000FD510000B14300001954000056
:104B3000E9550000E35600003157000055570000CA
:104B4000F7590000295A0000A55A0000B55B000083
:104B5000C15B0000D15B0000535C0000F95C000009
:104B6000255D000010B5074979441831064C7C4496
:104B7000163404E0081D0A68891888470100A1421C
:104B8000F8D110BD080000003000000033D8FFFF4E
:104B9000E80A00003804001000000000AFFDFFFF2D
:104BA0000200000002000000AAB6FFFF4B00000058
:104BB00000000010380400000120C046002801D089
:104BC000FFF7D0FF0020C046C046FFF712FD00F0FF
:104BD00000F880B500F002F801BD00000746384635
:104BE000FFF70EFFFBE70000014880470148004740
:104BF0000D4C0000F94B0000C046C046C046C04600
:104C0000FFF7DAFF001BB7000000000080B5FFF7D8
:104C100033FF01BDFEE7FEE7416270478068C005D3
:104C2000C00D704781607047491E0907090911438B
:104C300001627047C1617047521E120712090A4390
:104C4000C0218903114381617047406980B2704778
:104C5000F8B57C4FF8667C4C2100B820400038182D
:104C6000FDF7D6F82100C22040003818FDF7D0F833
:104C70002100CC2040003818FDF7CAF8FFF739FAB8
:104C800000F02FFF714C03222100612000F0E1FFB2
:104C900001202070022060700320A07003222100F8
:104CA000612000F095FF00262680A67003222100D7
:104CB000612000F0CEFF422000F082FF207000F063
:104CC0007AF8002000F024FFFFF7C0FA00246048C3
:104CD000610009194518287800F032FFA978687832
:104CE00000F068FF641C102CF1D3002000F028FFB6
:104CF0003E72F1BD5348007A704710B55149C86003
:104D0000FEF776FE0022534BFEF782FEFFF7BCF85B
:104D100004002102090E062000F04CFF2104090EB8
:104D2000072000F047FFE1B2082000F043FF10BD6C
:104D3000F4B504000E001F00012500F001FF300053
:104D4000FFF7DBFF052000F0E3FE0120C046C04670
:104D5000FDF71CF9060030000020C046B84207D21B
:104D6000200000F09FFE009909B28142F3DA00258D
:104D700000F0B7FC2800F2BD38B500240025012062
:104D800000F0DEFEFF21112000F014FF052000F0EE
:104D9000BFFE0120C046C0462C2000F011FFC10715
:104DA000C90FA14029430D00641C202CF1DB00F049
:104DB00098FC280032BDF8B5092000F001FF07007B
:104DC000062000F0FDFE0400072000F0F9FE21049B
:104DD00004020C43082000F0F3FE2043FEF708FE17
:104DE00000221C4BFEF775FEFFF74EF8060000216F
:104DF000092000F0DFFE3B2000F0E2FE010040242D
:104E000021433B2000F0D6FE20253B2000F0D8FEB9
:104E10002842FAD11048FFF770FF3B2000F0D0FE87
:104E2000044321003B2000F0C5FE3B2000F0C8FEFB
:104E30002842FAD13900092000F0BCFE3000FFF70B
:104E40005CFFF1BDB8080010515D0000180F0010A4
:104E50002C5E000080844E4000A1BC33002100BFC6
:104E600007A2CB00D2181368984204D393689842E3
:104E700001D210797047491CC9B21529EFD3FEE75A
:104E8000280A0000170000001C0C00000F000000A2
:104E90003C0F000007000000501400001600000046
:104EA0009C1800000E000000781E000006000000A4
:104EB000A028000015000000D43000000D00000004
:104EC000F03C00000500000040510000140000000C
:104ED000A86100000C000000447A000004000000FB
:104EE000E4A200001300000050C300000B0000000B
:104EF00024F40000030000008545010012000000BA
:104F0000A08601000A00000048E80100020000003D
:104F10002C8B020011000000400D0300090000006E
:104F200090D0030001000000E093040000000000A6
:104F3000F9B585B00E0014006846007D00F000FE53
:104F40006846808E000A69460873A74D28000C3019
:104F500002900F9F149815996A46127D002A03D07B
:104F6000012A00D187E03DE1029AD660029A54619D
:104F70000C9A029B1A61029A977610AA1278029BE9
:104F8000DA7611AA1278029B1A77029A5077029861
:104F900081776846808E029908832000FEF728FDFD
:104FA00004000D006846008FFEF722FD009001917D
:104FB00000208E4922002B00FEF72AFD00228C4B98
:104FC000FEF787FD009A019BFEF783FD0022894BC7
:104FD000FEF77FFDFEF758FF0299486200208649E0
:104FE00022002B00FEF714FDFEF73CFF84B2210ADD
:104FF000022000F0DFFDE1B2032000F0DBFD300015
:10500000FFF72CFF0100122000F0D4FD0C98FFF7F1
:1050100025FF0100132000F0CDFD6846017B25200F
:1050200000F0C8FD6846818EC9B2262000F0C2FD9E
:10503000002F02D010A8017800E0FF21322000F0FC
:10504000B9FD302000F0BCFD002F01D0002200E0AF
:1050500080226F2101400A4311A800780101114309
:10506000C9B2302000F0A6FD312000F0A9FD40219A
:1050700001433120B4E0032E00D3FEE7F61D029A6F
:10508000D663029A146450356A46127E6A706A4684
:10509000928E6A802F7110AA12786A7111AA127802
:1050A000AA71129AEA71139A2A726872A9720D2C67
:1050B00001D30C2402E0062C00D20624072E02D1D4
:1050C0000B2C02D103E0082E03D10C2C01D10120BE
:1050D00000E0002028701D2000F072FD30016946BC
:1050E000097E490001433943C9B21D2000F062FD29
:1050F0001E2000F065FD082108402101014311A890
:105100000078800008436946098F8905890F0143AB
:10511000C9B21E2000F04EFD262000F051FDF722FE
:1051200002402878C1001143C9B2262000F042FD98
:105130006846018FC9B21F2000F03CFD6846017B24
:10514000202000F037FD6846818EC9B2212000F092
:1051500031FD002F04D010A80178222000F02AFD94
:10516000E87900280BD0442000F02AFD802101437B
:10517000442000F01FFD297A242000F01BFD092E99
:105180000AD102980068A049884208D3022136203B
:1051900000F010FD642107E00321362005E0022124
:1051A000362000F007FD7F213A2000F003FDF825AE
:1051B000062C0AD1312000F003FD054005212943CA
:1051C000312000F0F7FC0C2109E0312000F0F8FC60
:1051D000054003212943312000F0ECFC0A2137204F
:1051E00000F0E8FC07B0F0BDB80800100000F03F88
:1051F0000000204000408F4080847E41F1B582B0A5
:105200000F0016001D006846007A00F099FC380077
:10521000FFF761F86846008D000A694608707B4A0E
:10522000089C0F9810996B461B7A002B02D0012B1B
:105230005DD0F7BD103217705660956014616B46F3
:105240001B8D93820BAB1B7893750CAB1B7813767D
:105250005076D1613000FEF7CBFB00226C4BFEF79D
:10526000D7FBFEF7FFFD86B2310A042000F0A2FC56
:10527000F1B2052000F09EFC2000FEF7B9FB020011
:105280000B0000206349FEF7C3FBFEF7EBFD84B281
:10529000210A022000F08EFCE1B2032000F08AFC1B
:1052A00068460178252000F085FC6846018DC9B26A
:1052B000262000F07FFC302000F082FC0BA909784A
:1052C000002901D0002200E080226F2101400A4322
:1052D0000CA8007801011143C9B2302000F06AFC2B
:1052E000312000F06DFC40210143312088E0443240
:1052F00016003770032D00D3FEE7ED1D7560B46016
:10530000099F77736A46128DF2810BAA1278327464
:105310000D9AF2740E9A32750CAA1278B2747075E6
:10532000B1610D2C01D30C2402E0062C00D206241E
:10533000072D02D10B2C02D103E0082D03D10C2C38
:1053400001D1012000E000203073F07C00280BD058
:10535000442000F035FC80210143442000F02AFC69
:10536000317D242000F026FC1D2000F029FC2801BE
:105370007A0002430BA801781143C9B21D2000F046
:1053800019FC1E2000F01CFC0B21014020010843E9
:105390000CA9097889000143C9B21E2000F00AFC5B
:1053A000262000F00DFCF7220240307BC1001143A3
:1053B000C9B2262000F0FEFB68460178202000F0EC
:1053C000F9FB6846018DC9B2212000F0F3FBF825F6
:1053D000062C0AD1312000F0F3FB054005212943BA
:1053E000312000F0E7FB0C2109E0312000F0E8FB60
:1053F000054003212943312000F0DCFB0A2137203E
:1054000000F0D8FBF7BD000041DD4A1FB8080010CE
:1054100080844E4080847E41F2B588B00100002037
:10542000B74A009200240025002902D0012956D055
:10543000D8E0272000F0C4FB0600009880790028FF
:1054400002D004A830C002E0AE4904AA03C2302052
:1054500000F0B6FB0621084204D00020A94902AAA8
:1054600003C201E002A830C00098007A002801D0F1
:105470008025ED0500988088F8218E438019401C16
:10548000FEF7ACFA04AA0CCAFEF7E5FB02AA0CCAA6
:10549000FEF7E1FB06000F0008A80078FEF7A8FA67
:1054A00032003B00FEF7D7FB00222B00FEF7D3FBB8
:1054B0000022954BFEF70DFB04000D0000980068DC
:1054C000FEF796FA02000B0020002900FEF7A0FA72
:1054D00000228E4BFEF7FDFAFEF76CFF80E00026FF
:1054E0000027906A072804D008D3092805D002D3E2
:1054F00004E0874F02E0874F00E0874FD06A0390B7
:10550000012003998840FEF769FA02000B00002091
:105510003900FEF77DFA02000B0000207949FEF702
:1055200077FA04AA03C27D4802904088FEF760FA29
:1055300000227B4BFEF78FFB04AA0CCAFEF7C9FAC8
:1055400006AA03C202980079002800D0142002990C
:105550000978002900D0022608A90978C900039A11
:105560009200891A029A9279120189181C31081A3C
:10557000FEF73EFA009001910398801B8000FEF731
:1055800037FA02000B0000980199FEF741FAFEF786
:105590003DFC06000F0002984078001DFEF71EFA41
:1055A00032003B00FEF795FA00220023FEF726FFAB
:1055B00001D300200021544BFEF74DFB04AA0CCA76
:1055C000FEF787FA06AA0CCAFEF745FB00224F4BEE
:1055D000FEF77FFA53A20CCAFEF73DFBFEF710FD63
:1055E000FEF752FC09B0F0BD73B5050000204F4C2A
:1055F000210009310A78002A02D0012A31D06DE059
:1056000026002C36B082684600797082487F0028D8
:1056100004D1012101A800F061FB04E06846017992
:10562000322000F0C7FA68460079002806D06846A4
:105630000079412802DA6846007907E06846027975
:10564000290070342000FAF756FD2020F075F17D16
:10565000280000F043FBB08AF17D4018B08230682A
:105660003CE05920205C002809D0332000F0A8FA43
:10567000BE210140332000F09DFA19210AE03320B9
:1056800000F09EFABF22024001211143332000F0B6
:1056900091FA1D213B2000F08DFA5C3468460079B8
:1056A000207368460179222000F084FA00210E2040
:1056B00000F080FA00210D2000F07CFA012000F0BB
:1056C0007FFA400704D100F033F80120C046C046FD
:1056D00068460179280000F001FB206800F03AF9E3
:1056E00073BD10B5CF4CC22040002018FCF70DFC54
:1056F000B82040002018FCF708FC002025E000003E
:10570000D80800100000F03F0000204000408F400B
:105710008084FE4080840E4180841E410809001070
:10572000000011402B8716D9CEF7EF3FB8080010C4
:1057300010B5BC4CC22040002018FCF7E6FBB82096
:1057400040002018FCF7E1FB012000F0E1F9002007
:10575000207210BDF1B582B00025B24C200030306F
:1057600000902600083601277078002802D0012812
:105770002AD0C0E02A20205C69460871402000F051
:105780001FFA0007000F0C210143402000F012FA1D
:10579000412000F015FAC1210143412000F00AFA2E
:1057A000352000F00DFA8006800E009988741E21C5
:1057B0000D2000F0FFF900990D7100994D710099CD
:1057C0000D820098C58194E025005735A8780028FF
:1057D00009D0332000F0F4F941210143332000F0D7
:1057E000E9F9192109E0332000F0EAF9BF2101406D
:1057F0003943332000F0DEF91D213B2000F0DAF9B7
:1058000000988069092848D2312000F0D9F9410672
:10581000490E312000F0CEF90021302000F0CAF905
:1058200000988069082840D801A1095C8F4400BF16
:105830000A18263442506464640048212F2000F086
:10584000B9F97068AE4921E044212F2000F0B2F987
:105850007068AC491AE044212F2000F0ABF9706861
:10586000A94913E044212F2000F0A4F97068A7494A
:105870000CE044212F2000F09DF97068CB4905E031
:1058800044212F2000F096F97068C9494018FFF7AD
:1058900034FA0AE040212F2005E0312000F090F991
:1058A00080210143312000F085F9E87869460871CC
:1058B0002878002809D01D21112000F07BF9402014
:1058C00000F07EF93321014008E01F21112000F093
:1058D00071F9402000F074F98106890E402000F033
:1058E00069F900210F2000F065F900210D2000F07A
:1058F00061F968460579390220007030FDF76AFECB
:1059000037700298002809D0C22040002718029959
:105910003800FCF733FB3800FCF781FA7078002878
:1059200010D1052000F0F4F8002D12D1CC20400059
:105930002418009801682000FCF720FB2000FCF7E9
:105940006EFAF7BD002D01D0052000E0062000F022
:10595000DFF8F7BDF8B5334EB82149007118009152
:1059600001000098FCF70AFB3700083742363F2455
:105970007878002802D0012818D033E0402000F0C9
:105980001FF98007800F10210143402000F012F919
:10599000412000F015F93E210140412000F00AF9B4
:1059A000352000F00DF9044034701BE04025707D77
:1059B00000280AD0F521112000F0FCF8402000F06A
:1059C000FFF8332101400D4308E0F721112000F0DA
:1059D000F1F8402000F0F4F804402543290040206D
:1059E00000F0E8F8022038700098FCF718FA03205D
:1059F00000F08EF8F1BD10B50A4C607A012810D184
:105A0000FA21112000F0D6F8402000F0D9F8FC214E
:105A10000140402000F0CEF803202072072000F063
:105A200077F810BDB808001070B58AB00C00FA26DF
:105A3000B6005643FFF761F90896002007900690DC
:105A4000059004900390052002900020019096207C
:105A5000400100900023002221000020FFF7CEFB30
:105A6000312000F0ADF8BF210140312000F0A2F854
:105A7000F021402000F09EF8A021412000F09AF88B
:105A8000B04CB8204000251831002800FCF776FA09
:105A9000022020722800FCF7C2F9032000F038F839
:105AA0000AB070BD80B5002802D0012806D014E0ED
:105AB000112000F085F84108484210E0A148C06874
:105AC000A149884204D31B2000F07AF89D3806E0F3
:105AD0001B2000F075F8A43801E00020C04300B29C
:105AE00002BD10B580242402984804600120C046FD
:105AF000C046C94804600620C046C04610BD00002C
:105B0000821E0000B4280000043D00005E51000029
:105B100010B5040003D10120FEF728FC05E00020A9
:105B2000FEF724FC2000C046C046012000F048F8E3
:105B3000F82101400C432100012000F03BF810BD8A
