:10000000601C0010ED6000002F360000410200006F
:10001000000000000000000000000000434AFFEF65
:100020000000000000000000000000005537000044
:10003000000000000000000017370000D936000063
:100040001B6100001B610000000000004B4F00001E
:100050001B6100001B610000000000001B6100002C
:100060001B6100001B6100001B6100001B610000A0
:100070001B6100001B6100001B6100001B61000090
:100080001B6100001B6100001B6100001B61000080
:100090001B6100001B6100001B61000000000000EC
:1000A0001B6100001B6100001B6100001B61000060
:1000B0001B6100001B6100001B6100001B61000050
:1000C00001A00068704700000000000000B507496B
:1000D0000868074A5043074A80180860064900F03C
:1000E00050F8080000BD0149086070476C0A001014
:1000F0006D4EC64139300000FFFFFF7F38B5040068
:100100000D00FFF7E3FF291B491C00F037F8081921
:1001100032BD03E00B780370491C401C13005A1ECB
:100120001B04F7D17047801802E00B780370491C5C
:10013000401E13005A1E1B04F7D17047130000D154
:10014000704780B50A00591E89B203F0F9FD01BD60
:10015000F446002804D4494200F013F840426047B6
:100160004042002905D45FD000F00BF840424942DC
:100170006047494200F005F84942604703460B4397
:10018000E6D40022030A8B420BD203098B4219D218
:1001900043088B422ED2411A00D2014652411046EA
:1001A0007047FF2209023FD012068B4205D312127C
:1001B00009028B4201D31212090203098B4219D39F
:1001C00000E0090AC3098B4201D3CB01C01A524196
:1001D00083098B4201D38B01C01A524143098B42E0
:1001E00001D34B01C01A524103098B4201D30B01C9
:1001F000C01A5241C3088B4201D3CB00C01A5241EE
:1002000083088B4201D38B00C01A524143088B42B2
:1002100001D34B00C01A5241884200D3401A5241C8
:10022000CFD201461046704708B5C046C04608BD4B
:1002300080B505F041F80149086001BD581800106B
:10024000FEE70000F8B507000024002603F02CFAB2
:100250000C4D2878C0002818416800290ED002896A
:10026000380004F0DDFD2878C10069184C60401C9E
:10027000C0B2052800D100202870012603F020FA22
:100280003000F2BDA417001030B4012464054D0005
:10029000EC420BD85D00EC4208D80C001C43640013
:1002A0000443144304D28B4200D1824230BC7047D5
:0A02B000FCD09942FAD19042F8E721
:0402FC00FFFFFFFF02
:10030000F0B587B00020C0460290584C607B0228B0
:1003100003D05748C06A804702E0002000F028FD63
:1003200001270025534E707D002846D000950023FC
:10033000A26F0421206F01F050FF02F05AFA0095DD
:10034000002302000121206F01F047FF607B02289B
:1003500015D000950023E26F0421606F01F03DFF8E
:1003600002F047FA0200009500230121606F01F0BE
:1003700034FF607B022802D0A07C00282DD0122000
:100380006946087303A9207BFFF79AFE210080319C
:10039000019100950023E16F0A180421019800687B
:1003A00001F01BFF02F025FA009500230200012155
:1003B0000198006801F011FF0FE02F494D700420F3
:1003C00060702020205C002801D12021675420206B
:1003D000205C10210143202021542020205CC008F3
:1003E000384204D02178481E8041C00F00E0002030
:1003F0003076207E607604A90870207C48700298D0
:100400000590207BC046C04602982065A07C00284D
:1004100004D119484570E07D401CE07507B0F0BD7F
:1004200010B582B0114CE06D40210143E165A07C24
:10043000002802D0002000F0CBFC2020205C1221FC
:100440000143202021540020009000230122042198
:10045000206E01F0C2FE02F0CCF9002100910023D1
:1004600002000121206E01F0B8FE13BD64080010E7
:10047000605F0000300A001000180010FBB594B057
:10048000002769460F730A970697C64D28008430E7
:1004900004900C902800943002901090CF734F730A
:1004A000C1490F71C14CE28116A800782074E87F21
:1004B000607467806771A760A781A7746761277000
:1004C000BB48C06A80470097002300220321686F61
:1004D00001F083FE14980078694608706846007839
:1004E00040090875B348019015A80088001FC8820C
:1004F000B14E6846007D012807D0032875D0052835
:1005000073D0072800D113E228E2287C002800D00D
:1005100084E0731C6A6B15A80088411E89B2149888
:10052000401C02F095FC6846007830700AAB6A6B9C
:100530006846C18A300002F064FC15A800883018B3
:10054000001F0724027841780902114382781204BF
:100550000A43C078000610430A99884243D10298A2
:100560000090049BAA8C711C686B02F093FC30799C
:10057000717909020143B07900040843A863F07956
:10058000317A09020143707A00040843B17A0906FE
:100590000143E963F07A01090C4001994C740007AA
:1005A000000F01990876307B0007000F00D1012071
:1005B000FA2189004843019A106040180199486067
:1005C0000D36119615A80088113811A90871287BDD
:1005D000C046C0466F700120287401982930007809
:1005E00076494870BEE16C70BCE10198407F08A973
:1005F00088702079487009200870E87B002801D0B5
:100600000A200870287BFFF75BFD15A909880D39C2
:1006100009B2002900D50021884201D2012083E1DE
:10062000149841788078000208431499C978090425
:10063000014314980079000608430990E96B884249
:100640001AD0286C01E00698806A06900698002867
:1006500010D00998069909688842F4D101206946AA
:10066000C8730698001D0C900698143010900698D8
:10067000406A02E00B2057E1A86C0490149840797E
:100680000DA908700DA800780007000F694688734F
:100690006846807B0830C0B20790149815A9098875
:1006A0004018001F02784178090211438278120431
:1006B0000A43C078000610430F901498807914996B
:1006C000C979090201430498081A80B20B9080216D
:1006D0000902884204980B9916DA401804900AA877
:1006E00002900498019001200090099B0C9A6846A2
:1006F000C18A149802F0E2FA0F980A9988421FD131
:100700000120694648731BE009B240188021490264
:1007100040180E900AA802900E98019001200090B7
:10072000099B0C9A6846C18A149802F0C7FA0F9880
:100730000A99884204D10120694648730E980490B2
:10074000112008A90870287BFFF7BAFC0B99814299
:1007500001D30A205BE06846407B002800D1E2E03C
:1007600067706846C07BA0700DA80078C106C90FED
:100770006171A7602773049860610B494F70EF6443
:10078000AF756846C07B00281AD0022020700698FA
:10079000406A0499884201D1002837D10846069959
:1007A00048621FE06408001000180010D017001005
:1007B000605F0000CC16001028120010BC1600105C
:1007C000A86C6946097D052919D10121E9742170B8
:1007D0000499884204D1002802D001206946087398
:1007E0000498A8640DA800788106C90F6846C173F3
:1007F0009E48007801280ED100290DD00BE0EF743F
:10080000277004998842EBD10028E9D00820607055
:100810000498606189E06F7515A80088001F07992A
:10082000401A01284FDB1498405C491CC9B207915B
:1008300015A90988091F079A891A6A465173E07039
:100840001499079A8918059100286846807B18D169
:10085000002812D102960498019001200090099B73
:100860000C9A6846417B059802F0C0FA16A80378F6
:100870006846427B002130002EE001206946087363
:1008800048E0002808D016A803780798421ED2B284
:100890000821149800F044FB02960498019001206E
:1008A0000090099B109A6846417B059802F09EFAD9
:1008B0006846007B002811D1A6606846407B207303
:1008C000012060730EE06846807B002806D016A8E1
:1008D0000378CAB20821149800F022FB6846007B16
:1008E000002817D1280080306946C97B002904D030
:1008F00001215E4A1171A17405E05C490F71A97E66
:10090000EA7E914206D2009700230022032100686C
:1009100001F063FC2020285CFB2101406846007B3D
:100920008000084315E00C206070FFF779FD2FE090
:1009300015A802881499491C3000FFF7EAFB032030
:1009400020706770A66015A80088401E20732020C4
:10095000285C022101432020295403E0012060701B
:10096000FFF75EFD2020285C102101432020295440
:100970000097002301220421286E01F02EFC01F0D3
:1009800038FF0097002302000121286E01F025FCAA
:1009900017B0F0BD10B5364C607B022803D0354847
:1009A000C06A804702E0002000F0E2F902202F4AEE
:1009B000507060702020205C102101432034217091
:1009C00010BD38B52A4C607B022803D02948C06A84
:1009D000804702E0002000F0CBF9A07C10252349DD
:1009E000E27F002A0BD10522002800D04A706270F5
:1009F000206D0020C046E16F88420AD304E0062241
:100A0000002800D04A7062702020205C054320340A
:100A1000257031BD38B5164C607B022803D01548CF
:100A2000C06A804702E0002000F0A2F9A07C1025F7
:100A30000E49E27F002A0BD10322002800D04A7021
:100A40006270206D0020C046E16F88420DD307E040
:100A50000422002800D04A706270607B022804D013
:100A60002020205C05432034257031BD0018001083
:100A700064080010605F0000FEB5002569460D7136
:100A8000C34C0095002300220321206E01F0A5FB3A
:100A90002020205CB44EC10678D5E16D4A0602D50F
:100AA00041229143E165B14900910127FF430921AA
:100AB00008422CD07178022902D0617802290AD12B
:100AC000E16D3940E1656575E17E71713571B56043
:100AD00001216A461171A17C6A4612790A4316D136
:100AE000010754D52178002951D1617FA172627824
:100AF000002A02D16564E5755FE0A27F91425CD275
:100B0000EF21014020202154002000F0CFF8E17EA9
:100B1000A27E2020205C800710D53079002801D1EA
:100B20008A420BD22577A574307D002802D1606CF3
:100B3000401C60647171E06D3840E065207F0028E2
:100B40005ED05C20205CC0065AD42577207B914281
:100B500045D2092943DA491CE176C9070CD502A917
:100B600020220A70AF4A12788A70009A12784A706E
:100B7000FFF7A6FA0099087000F054FB002820D176
:100B80002020205CEF2101402020215438E0810703
:100B9000C90FE27D009BDB7F9A4201D20029AFD0D2
:100BA000002903D16575E06C401CE064E575307D7B
:100BB000002802D1606C401C6064E06D3840E06544
:100BC000A5E7092070706575E06D0740E765A574BD
:100BD0003571E07E707100980078B0700AE00121F4
:100BE000C046C046E06D0740E7656575A574357180
:100BF000E07E7071307D002802D1606C401C606422
:100C0000E06D810702D502218843E065E06D002890
:100C100022D12020205CC00709D53000616E096810
:100C200088472020205CFE210140202021542020E4
:100C3000205C000709D52000616E89688847202064
:100C4000205CF7210140202021542020205CEF214E
:100C500001402020215410E000950023FA22920048
:100C60000421206E01F0B9FA01F0C3FD02000095E5
:100C700000230121206E01F0B0FA2020205C8007C3
:100C800013D5607B022802D1002000F071F82020EB
:100C9000205C400703D49A48616E49688847202049
:100CA000205CF921014020342170F7BD1FB5384C7C
:100CB00000200090002300220321E06E01F08DFA55
:100CC000E06D10218843E0652020205C00071CD5E2
:100CD0002078002819D100F047FB607F401C69464E
:100CE000888001A9207B0020C046864948700020EA
:100CF00069460873607CC0010872002000900023E0
:100D0000002202A903A800F071FB00F08BFA1FBDBE
:100D100070B582B07C4D002000900023002203219A
:100D2000286F01F05AFA0020E877784C297E21706C
:100D300074490E000C36727DE2702D3109782174F1
:100D4000E97B61746082687B022802D17048006B85
:100D50008047704A2100287B0020C0463168A07C73
:100D600000F055F873BD000000180010BD1600100B
:100D700070B582B0064D00200090002300220321B0
:100D8000686F01F02AFA644C287E20705D4801E00B
:100D90006408001006000C36B16961602D300078DF
:100DA0002074E87B60740120E074697B022900D024
:100DB0000020A074574A2100287B0020C04600284C
:100DC00005D03168A07C00F022F8E07CE87773BDA4
:100DD00010B582B04C4C002000900023002203216B
:100DE0008020205801F0F9F9A07C002805D00120CE
:100DF0002077E06D04218843E065607B022805D1FF
:100E00002020205C102101432034217013BD80B5C7
:100E10003F4A526B002801D1080000E000209047B3
:100E200001BD0000E816001038B504001500684642
:100E30003A4A12788270417009210170324AD17B9E
:100E4000002901D00A2101706946107BFFF738F9AB
:100E5000611980B289B2884203D3FF2901DC0120E5
:100E600032BD002032BD0000F5B582B00120264A17
:100E70008023947D1B1BDBB20093537DD74CE51878
:100E800001955D1C6E46367AB61E082E36D801A72F
:100E9000BF5DBF4440364036083640405000009E9B
:100EA000B61EB34210DA0620019B18705575EDB2DC
:100EB00061556D1C55756846007BEDB260556D1C23
:100EC000557500200121117504B0F0BD009E761EFD
:100ED000B342F9DA0AE000998B42F5DA6846007A03
:100EE00001990870ECE7009EB342EDDA6846007A9B
:100EF000019B18705575EDB26155E0E70220E3E7FC
:100F0000D0170010BC16001064080010300A001042
:100F1000605F0000D417001018180010E8160010C9
:100F2000FDB586B00C00BD4F09E00022BC4B5A70E5
:100F3000097819720699C0B2095C5972441C684656
:100F4000007FE4B2844200D345E12200641C06988D
:100F5000E4B20119601C069B9A5C921E082AF2D822
:100F600001A352009B5E9F44C0FF1000A000BC0084
:100F70002C014801A401CC01280200206A4690609F
:100F8000491E03916846007F001B401C03A908719D
:100F9000A348407C88712C20385C48717878C871EF
:100FA000387808722020385C487202A80190401CF2
:100FB000009002AB9B1C02AAD21C9948007B002027
:100FC000C04605006807400F072809D16846C07A67
:100FD00078706846807A38706846407A2021785464
:100FE000002605E0002229000320FFF73DFF761CC4
:100FF0006846007A0521FFF7C1F8F6B28642F1DBB8
:101000006846007A401E241899E70978D54A9175F8
:101010000400012088408249088500220021042024
:10102000FFF722FF8BE70A785206520F6B465A7081
:1010300009780907090F6A4611700699C0B2095C60
:101040000191401C069AC0B2125C12020A4301923E
:10105000401C0699C0B2095C090411430191441C6B
:1010600064204143019169466D48007B0020C046E1
:1010700005006807400F072809D168460078282135
:10108000785401987862684640782121785400228B
:1010900029000520C4E7FF206149896E002903D09B
:1010A00009680A0000D0884708A90A7801000620CC
:1010B000B6E7097803AA1171694603910699C0B28F
:1010C000095C0091401C069AC0B2125C12020A43ED
:1010D0000092401C1146069AC0B2125C12040A43E8
:1010E0000092401C1146642251430091002101915D
:1010F0000699C0B2095C6A461172441C03A94848AB
:10110000007B0020C04600220100072088E7097804
:101110000907090F0400002900D10121FA208000ED
:10112000414339610846FA2189004018786100225C
:101130000021082074E70978040000206A46108026
:10114000880601D501205070C80601D50120107015
:101150000807000F694688703148007B0020C046B0
:101160000021C943884200D1E9E6684600782C2175
:101170007854684640782D21785400BF18A06946FD
:101180008978405C01F0CEFE3863002200210920FE
:1011900046E709786A4611700699C0B2095C019168
:1011A000401C069AC0B2125C12020A430192401C13
:1011B0000699C0B2095C090411430191441C6420E2
:1011C0004143019169461648007B0020C046002239
:1011D00001000A2024E709B0F0BD0000BC15001092
:1011E000080A0C0D0E10121415181A1B1D1E2124AE
:1011F0007CB50B4C657CED016E4635710093130098
:101200000A0001A900F0F2F8002806D17248002176
:101210008180616CC16000F005F876BDBC160010DD
:1012200064080010F0B589B0002002904D4FB97DE0
:10123000FF2901D1092092E0684C002900D16065A6
:1012400003AE207C3070F87DB070607EF070A06DD1
:101250000020C0460490624D280028300190806C28
:101260000590387E707003A9207BC046C046019867
:10127000806C616D228D42438918081A6065069062
:1012800006AE68783072F87DB072207C7072206D86
:10129000079004E0019811214056687030722000D8
:1012A0005430009002AB2200183206A9207B0020A7
:1012B000C0460028EED02E1D737F5BB201202A5657
:1012C00001984179207BD0B2C046009733683279CB
:1012D00041B2207BC046C046424800903368327914
:1012E0000198017849B2207BC046C046207C002886
:1012F00004D17069F9684018B1690DE0627D012080
:101300002956387DFFF790FD002801D1082026E0FE
:10131000F068F96840183169324AD2688918E16783
:10132000A0670298002803D1207E00F0D7F916E0CC
:10133000E06D10210143E165002000900023029A36
:101340000421E06E00F049FF01F053FA0200002092
:10135000009000230121E06E00F03FFF002009B063
:10136000F0BD0000300A001030B500231B4C237480
:101370006364A364E364E3750120A076E0762377D9
:1013800019498B7520856375A3754875144D3820F0
:10139000285C28703920285C68705920285C21213D
:1013A0006854E86D296E2A00243203C26420285C48
:1013B0002C2168546520285C2D216854A86E286370
:1013C000E86E686363822375206C01E04362806A83
:1013D0000028FBD1238330BD0018001064080010E2
:1013E000BC16001018180010300A0010F2B58AB0B0
:1013F00000210391049369460A71B54C0021E184F0
:10140000A1741099002B00D10021B24A1175B24D80
:10141000017829700078400907D0022848D00428B4
:1014200044D0072800D143E14FE10120E0840822A5
:10143000216B681CFEF777FEE08C0830E084082200
:10144000E16A80B22818FEF76EFEE08C0830E08476
:10145000C74840698047A084E08CA18C2954401C77
:10146000E084090A80B22954401CE08403AB626B1B
:10147000C1B2280001F0C5FCE08C03992954401C3E
:10148000E0840399090A80B22954401CE08403993E
:10149000090C80B22954401CE0840399090E80B2E3
:1014A0002954401CE08400200BB0F0BD0120A07442
:1014B000207C002801D10720F6E706A80121017051
:1014C0000A990978C9094170E16C0791C04A5178BD
:1014D0000172117841722C21515C817220004C30D4
:1014E00000901300521C06A9207B0020C0460A99D8
:1014F0000978BF220A40800110430A990870E07CF5
:10150000002807D00020E0740A98007820210143C9
:101510000A980170E06B6870010AA970010CE9700B
:10152000000E28710A9800786871606CA871000A32
:10153000E8710826A27DB949B948637DC018FEF755
:10154000E8FD607DA17D40186075217D049A002A28
:1015500022D0604A127D002A1ED0002928D0C0B2B5
:1015600010281EDA0A990978F0220A40091809079A
:10157000090F11430A9A11706971694608800028A1
:1015800016D068460288A6492800083001F002FDFE
:101590006846068808360BE0C0B2002808D000294B
:1015A00006D04C4908759E48049000206946087191
:1015B00000202075607D69460870002000210BE046
:1015C000029B1A70401C491C954AC0B2125C934B96
:1015D000C9B25A54491C401C6A461278C0B29042A3
:1015E00019D28E4AC9B2521802928D4A125C032A4D
:1015F0000AD0052AE4D0062A08D0072A04D0082AEF
:1016000006D00A2ADCD0E6E7401CE4E7801CE2E7CB
:10161000029B1A70DEE7A175A07D002801D0012091
:1016200020752000843005900498002820D0294897
:10163000017D00291CD068460079F6B2A855761CB9
:10164000F6B2A819E36B626C6F463F79002F06D1A2
:1016500067750290019200200090059A05E00290C3
:1016600001920020009022009432049801F065FB62
:10167000F6B21848007D3118E18403A80290606C2E
:10168000019000200090E36B059A89B2280001F0D8
:1016900015FBE08C2918039A0A70039A120A4A7003
:1016A000039A120C8A70039A120ECA70001DF9E692
:1016B000002B01D0127D002A00D1F4E61900681C2D
:1016C000FEF727FD0348007DEBE60220ECE6000074
:1016D00064080010300A00102811001070B586B0A0
:1016E00000216A46117102A90870394D6878487066
:1016F00028788870286B0390686B0490494CE08CC4
:1017000088812B00703301AA207B0020C04601266F
:101710006670454846706978817069460979C1707C
:10172000296F81606160002000900023FA229200FE
:101730000421206E00F051FD01F05BF800210091C2
:10174000002302000121206E00F047FD207C0028CC
:1017500002D1607F401C6077E18CC9B23348C74A30
:10176000926A9047E06D0643E665002006B070BDC2
:10177000605F000010B586B02A4C01A9227E0A7075
:10178000134A53784B7013788B70136B0293526B20
:1017900003928881207BC046C04600200090002331
:1017A000FA2292000421206E00F017FD01F021F8CA
:1017B00000210091002302000121206E00F00DFDA8
:1017C000E06D01210143E165002006B010BD00007D
:1017D000BC16001010B582B00300080011001A00FA
:1017E00049B2A64BDB6B9847A54C00200090002324
:1017F000FA2292000421206E00F0EFFC00F0F9FFC5
:1018000002000020009000230121206E00F0E5FC82
:10181000E06D01210143E165002016BD3C1600107A
:10182000BC150010640800100018001028110010EA
:10183000F0B583B005000F001600002D08D0286811
:10184000002805D06868002802D0A868002801D1C7
:101850000320FEBD30000020C046002801D10A2030
:10186000FEBD874C6566A766267300202022A05423
:101870006073E06560770121A177E07320656065A2
:101880000B206946087101A9207BFEF719FC00288E
:1018900000D00120C04FF87508206946087101A9E1
:1018A000207BFEF70DFCBD4D2E0038363070052034
:1018B0006946087101A9207BFEF702FC70700C20BC
:1018C0006946087101A9207BFEF7FAFBF0600D2044
:1018D0006946087101A9207BFEF7F2FB30610E20FA
:1018E0006946087101A9207BFEF7EAFB70610F20B1
:1018F0006946087101A9207BFEF7E2FBB061102068
:101900006946087101A9207BFEF7DAFBF06113201C
:101910006946087101A9207BFEF7D2FB29005831E6
:101920000091487014206946087101A9207BFEF7D8
:10193000C7FB0099486015206946087101A9207B02
:10194000FEF7BEFB009908721A206946087101A9CA
:10195000207BFEF7B5FB009908731B2069460871D0
:1019600001A9207BFEF7ACFB009948731C20694657
:10197000087101A9207BFEF7A3FB009908611D20D7
:101980006946087101A9207BFEF79AFB009948611E
:101990000021207BC046C0460120009908700A2023
:1019A0007060062131722D1D28602971F068A860D1
:1019B0003069E86070692861B0696861F069A861A0
:1019C000009800782877FFF7CFFCFA25AD00A948EA
:1019D00000900023002229002AA000F0E3FB2066EB
:1019E0000021009100232A00042100F0F6FBA24808
:1019F000009000230022290027A000F0D3FBE0661E
:101A00009E48009000230022290000BF26A000F07D
:101A1000C9FB20679A48009000230022290000BFDC
:101A200025A000F0BFFB60679648009000230022CD
:101A3000290000BF24A000F0B5FB802160500020E9
:101A4000C046A0659048F861904878629048F86276
:101A5000904838629048B862084D1C3738002968B1
:101A6000884768698047FEF73EFB0120A073A96D97
:101A70008847E86A80470020FEBD0000605F0000E4
:101A8000640800104D616353746174654368656355
:101A90006B54696D65720000547844656C617965BA
:101AA0006454696D65720000527857696E646F778F
:101AB00054696D6572310000527857696E646F77B2
:101AC00054696D657232000041636B54696D656FD6
:101AD000757454696D657200F1B586B00F002F4DB5
:101AE0003920285C694648713820285C88716B4C25
:101AF0006846617DA27D89180171002F01D1032004
:101B000048E0002603A80670617C4170E16C0491F6
:101B100069780172297841722C21695C81722000F8
:101B20004C30009001AB9B1C01AA521C03A9207BE6
:101B30000020C04602A82C35297881706946497971
:101B4000417009210170E17B002901D00A21017057
:101B500002A9207BFEF7B4FA787078786946097993
:101B6000884204D369460979401A387004E0387015
:101B700069460E716675A675684602796946052044
:101B800009566846007EFFF74FF9002801D108206A
:101B900000E0002007B0F0BD300A0010BC160010B5
:101BA00038B505000024002D01D1032032BD3B488B
:101BB0003B4A29781D2959D801A35B5C9F4400BF8B
:101BC0001E22262A2E32363A3E42464C5A566A6E1B
:101BD00072767A7E82868C8A9094989CA0A6407BAE
:101BE0003FE0007C3DE0407C3BE0806B3CE0C06B34
:101BF0003AE0843038E0943036E0807B31E0C07BDE
:101C00002FE019210AE0243203CA01E0D06D116EE1
:101C10002D1D03C52BE0172100E016216A46117027
:101C20006946007BFEF74CFA1EE020320EE0D068D9
:101C30001AE0106918E0506916E0906914E0D06964
:101C400012E0393202E050780BE03832107808E0C8
:101C5000406C09E0806C07E0006C05E0506803E030
:101C6000107A287103E0506B686000E002242000C5
:101C700032BD0000790A0000AD0C0000110D00001B
:101C8000710D0000D10D0000010300007D04000073
:101C9000C309000095090000150A0000640800103F
:101CA000BC160010F0B585B0040000200027002C01
:101CB00001D1032022E1924D5C21695CC90701D565
:101CC00001201BE18F4E02A922781D2A00D913E1C1
:101CD00001A352009B5A9F443A0058005E006400E2
:101CE0006A0070007E0092009E001E02A4001C018B
:101CF000480140015A0168016E0174017A018001B6
:101D00008601A201DA01BE01FA0100021E020602EA
:101D10000E02180221796973002902D0022904D029
:101D2000EBE07948C06A8047E7E0A874FFF720F845
:101D3000E3E020792874E0E020796874DDE06068F1
:101D4000A863DAE06068E863D7E0606800284AD0FA
:101D500010220146843505E06068002843D0102237
:101D6000014694352800FEF7D4F9C6E02079A8731F
:101D70006549896D8847C0E02079E873BDE0207A25
:101D8000694608712D20305C01A948700622287B25
:101D90000020C046002826D0241D03CC3200243267
:101DA00003C2687B0228E9D1287C0028E6D0574C82
:101DB00000947368327A2820315C49B2287BC0468F
:101DC000C046287E2070706A60602D20305C2074D0
:101DD000E87B60740120E074A0744D4A2100287BE8
:101DE0000020C046002873D0F168A07CFFF70FF8F0
:101DF000E07CE87781E0207A694608712D20305C2C
:101E000001A948700622287B0020C04600285FD028
:101E1000241D03CC5C3603C66FE06068029001208D
:101E200001E0626802920871287B0020C046002809
:101E300063D14DE0207900284AD0102848DA2036B6
:101E400044E06068F06058E06068306155E06068C8
:101E5000706152E06068B0614FE06068F0614CE032
:101E6000207969460871052201A9287B0020C04617
:101E700000282DD068460079393627E02079694658
:101E80000871042201A9287B0020C04600281FD029
:101E900068460079707030E0207969460871082240
:101EA00001A9287B0020C046002811D0684600798F
:101EB00038360BE0207969460871072201A9287B92
:101EC0000020C046002803D068460079307014E036
:101ED000032712E0606868640FE06068A8640CE0A3
:101EE0006068F063706008E02079402170543072BF
:101EF00003E06068706300E00227380005B0F0BDC1
:101F000064080010BC160010605F00001818001074
:101F1000D4170010F0B585B004000225002C2AD09B
:101F200001278D4EF06D384017D10C220021300072
:101F3000FEF704F9777008272020315C0820084359
:101F40002178002905D0022957D04CD303295BD032
:101F500063E05C20305CC00601D5012068E0606869
:101F6000002808D0A068002805D0E068002802D02A
:101F7000207C002801D103205AE0694608711E2206
:101F800001A9307B0020C046002806D11F206946E9
:101F90000870307BFEF794F820742020305C0743F3
:101FA00020203754207830706068F062A068306379
:101FB000E0687063207CB077002070776946087312
:101FC000FFF7D2F9707F401C6946088102A9307B77
:101FD0000020C0466149487000230022002103A868
:101FE000FFF706F918E020217054207830700022A5
:101FF00000210220FEF738FF0EE0317020217054DE
:10200000A088FFF7B7FB07E0317020217054227BD6
:10201000A168A088FFF7DEFB0500002D07D0002097
:10202000B0742020305CF721014020363170280048
:1020300005B0F0BDF0B585B00700022069464870D4
:10204000002008700024002F63D0434D5C20285CE2
:102050001121014001D001207CE069460C7114225D
:1020600000213F48FEF76AF801203D494870E876B4
:102070003878002804D001280AD003281CD02AE090
:102080000124AC7668460079C006C00E402107E006
:102090000124F87BA87668460079C006C00E80212E
:1020A000014368460171387969460870B868029042
:1020B000B88948800E200DE00124AC76684600798E
:1020C000E0210143684601717868029038896946C9
:1020D00048800A203E5604A8012101702149097850
:1020E000817004A9287BFDF7EBFF76B2B04200D3E4
:1020F0000600002C2CD0687C00280ED103AC267082
:1021000018480078A070042203A9287B0020C0464C
:10211000002819D020781149487068464388029AEF
:10212000017801A8FFF764F869464870684640786E
:1021300000280BD138780A4908702020285C01213A
:1021400001432035297003E0032003E00020A87438
:102150006846407805B0F0BD64080010BC16001059
:1021600000180010E816001000B585B000F064F902
:10217000AF48806800280DD00020039002900190A5
:1021800000900023802200BF04A1AA4800F082F939
:10219000002801D172B6FEE705B000BD546D722073
:1021A00053766300F2B5040017001D00002901D129
:1021B00072B6FEE72C2000F007FF06000BD000F0FF
:1021C0003BF934600098B061F7613562069870623F
:1021D000301D002101613000F2BDFEB505001F0079
:1021E0000020934CA668002E18D000910192029511
:1021F00006290DDA00F000FD022802D10023089A1A
:1022000001E0002300226946A06800F0AFFFFEBD98
:1022100000233A006946300001F034F8FEBD0000AA
:1022200070B582B005000E0081480068C068C468BF
:10223000201D01F0EAF9E069012814D12B003200D9
:10224000A0692918200000F054F801280BD10020C3
:10225000009000232A0000212000FFF7BEFF002885
:1022600001D172B6FEE72000616A884773BDF8B5F8
:102270006F4F03E000F070FA00F056F83868002560
:102280000168002901D1012602E00026C068056826
:1022900000F04EFA684600F01AF804000098002892
:1022A000E8D1002E08D1AC4206D300F055FA210047
:1022B0002800FFF7B5FFDFE7291BB86801F052F9E6
:1022C00000F04AFA0028D7D101F0E8F9D4E770B558
:1022D000040000F08EFA05006A4E3068854203D291
:1022E00000F078F8012000E0002020603560280030
:1022F00070BD38B50024416000614D4D8A4206D35F
:10230000D11A8269914206D2011D686807E09A429B
:1023100003D2994201D3012403E0011D286801F092
:102320005AF9200032BD000010B586B004E0130059
:1023300011182000FFF7DDFF0023002201A93C480F
:10234000806800F0E1FF002841D001980028F3D414
:10235000039C6069002802D0201D01F056F904A8F2
:10236000FFF7B5FF02000198022809D9001F24D009
:10237000401E28D0401E012802D9C01E1DD0DBE718
:1023800002980300A16941182000FFF7B2FF01285D
:10239000D2D12000616A8847E0690128CCD10020B1
:1023A000009000230298A169421800212000FFF745
:1023B00014FF0028C0D172B6FEE70298A061002881
:1023C000B5D172B6FEE7200000F056FEB4E706B0C5
:1023D00010BD000070B582B0154E05E0606024614C
:1023E000211D306801F0F7F83068016800291BD022
:1023F000C0680568C468201D01F007F92000616A03
:102400008847E0690128EFD1A06928188542E5D303
:102410000020009000232A0000212000FFF7DDFEAD
:102420000028E1D172B6FEE771683160706073BD5B
:10243000701700106F22000010B501F035F9124C32
:10244000A06800281BD120000C3001F0A9F8200062
:10245000203001F0A5F820000C3020602000203052
:10246000606000220C210F2000F05AFEA0600028BE
:1024700001D172B6FEE700BF04A101F061F801F0DE
:102480001FF910BD5418001070170010546D7251D0
:1024900000000000F7B506001F00002801D172B649
:1024A000FEE70898082801D372B6FEE70A9910469D
:1024B00000F073FB040072D0206B69460989890023
:1024C00045182D1F072085436846008900900B9B07
:1024D000089A0199200000F023FB3A0031002800FF
:1024E00001F0A6F820600998002800D0046001F0EF
:1024F000DBF8564DE86C401CE864554FA86A00288C
:1025000025D1AC62E86C01282AD100261420704342
:10251000381801F045F8761C082EF7D328007430DF
:1025200001F03EF82E008836300001F039F828001E
:1025300001F036F82800143001F032F82800383065
:1025400001F02EF828007430E8622E6308E0A86DD0
:10255000002805D10898A96AC96A884200D3AC62EC
:10256000A86E401CA8662064E06A696D814200D2B2
:102570006865211DE06A14225043381801F01FF8E5
:10258000012401F09DF8A86D002806D0A86AC06A51
:102590000899884201D201F081F82000FEBD002494
:1025A000E443FAE770B5040013D0284D286F0028E3
:1025B00001D072B6FEE700F0BBF82E6DA86A001DD0
:1025C00001F023F8301900F0D1FA00F0C5F8002826
:1025D00001D101F063F870BD38B5050001F064F871
:1025E0001A4C002D00D1A56A281D01F00EF8A86A2A
:1025F000002803D02800183001F007F8291D20001A
:10260000383000F0DCFF01F05BF8A06A8542A06D75
:1026100013D1002807D0206F002801D072B6FEE742
:1026200001F03CF831BDA06BE16C884202D1002082
:10263000A06231BD00F04CF931BD002805D001F099
:1026400033F800F0C8FA01F03BF831BD080900107A
:102650001C15001010B502000021002A01D172B62D
:10266000FEE7684B546918003830844205D1906AFF
:10267000984202D0002800D10121080010BD0000BE
:10268000F8B506000024002E01D172B6FEE701F075
:102690006FF807003000FFF7DDFF01281CD1594D0E
:1026A000286F002813D1F06AA96AC96A884200D34A
:1026B0000124301D00F0A9FFF06A696D814200D24B
:1026C0006865311D504A14235843101802E018362B
:1026D0003100280000F073FF380080F310882000DC
:1026E000F2BD000000B585B000200390029001907B
:1026F00000900023402200BF0BA17448FFF7CAFEE0
:10270000012801D1FFF730FD012809D172B63D48FB
:10271000012181650021016500F0A2FF05B000BD27
:102720000028FBD172B6FEE749444C45000000008A
:102730003448016F491C01677047002031498A6A9B
:10274000D26A002A06D1304A1268022A02D2C86E22
:10275000096D401A70470000F8B50027294C206F1A
:10276000002801D172B6FEE700F09EFF206F401EE8
:102770002067206F002838D1E06C00281CD134E09D
:10278000E068C5682800183000F03FFF281D00F001
:102790003CFFE86A616D814200D26065291D1A48DC
:1027A000EA6A14235A43801800F009FFE86AA16A14
:1027B000C96A884200D32666012620680028DFD136
:1027C000E06D002808D10AE000F020F8002800D0D1
:1027D0002666E06D401EE065E06D0028F4D1206EB5
:1027E000012802D1012700F059FF00F069FF3800ED
:1027F000F2BD10B500F058FF0248046D00F060FF14
:10280000200010BD080900101C150010F8B50026A6
:102810008A4C206F00284FD1206D401C2065206D10
:10282000009000280ED1E06A0068002801D072B63E
:10283000FEE7E06A216BE1622063606E401C606627
:1028400000F0C9F9944F0098E16E88422BD31BE049
:10285000281D00F0DAFEA86A002803D028001830EE
:1028600000F0D3FEE86A616D814200D26065291DE7
:10287000E86A14225043381800F0A1FEE86AA16A01
:10288000C96A884200D30126E06A0068002802D1A4
:102890000020C04306E0E06AC068C5686868009927
:1028A0008142D5D2E066A06AC06A142148433858F4
:1028B000022804D3012602E0E06D401CE065206E92
:1028C000002800D001263000F2BD0000A52A00003B
:1028D00010B55A4C206F002802D00120206610BD90
:1028E0002066A06A006BA16A0968884204D3A16AC5
:1028F0003431A06A01F0CCF9142200BF15A1A06AFE
:10290000006B01F003FA002808D0A16A3431A06AF4
:1029100001F0BEF902E0606D401E60655E48616DC9
:10292000142251434158002904D1606D0028F2D18E
:1029300072B6FEE7616D51434118486842684A60CB
:1029400008000830824201D1506848604868C06879
:10295000A06210BDA5A5A5A5A5A5A5A5A5A5A5A5EC
:10296000A5A5A5A5A5A5A5A538B50C00002801D14C
:1029700072B6FEE7314DA96A183100F02CFEA86A44
:10298000001D00F042FE0020C043844200D106E05A
:1029900000E00000286D001900F0E8F831BDA96AD8
:1029A000091D3835280000F00AFE31BD38B50C008D
:1029B000002801D172B6FEE7204DA96A183100F057
:1029C000FEFDA86A001D00F020FEE3E738B5C068F0
:1029D000C468002C01D172B6FEE72000183000F068
:1029E00014FE164D286F00280ED1201D00F00DFE9C
:1029F000E06A696D814200D26865211D2648E26A5D
:102A000014235A43801802E021001831280000F0F6
:102A1000D6FDA86AC06AE16A884202D2012028660F
:102A200032BD002032BD0000002801D172B6FEE7A1
:102A300002494A6E0260096D416070470809001042
:102A4000F2B50500002D01D172B6FEE7002901D1D3
:102A500072B6FEE700F028FE85490A6D009803680B
:102A600000240020C043834212D06E68496E2F6854
:102A7000B94201D0B2420AD2911B994207D2981AA8
:102A80008019009908602800FFF7CEFF00E00124BC
:102A900000F016FE2000F2BD1C1500100120854933
:102AA0000866704770B5844C824D1EE0FFF740FE0B
:102AB0006869461EB641F60FFFF74EFE002E14D190
:102AC00000F0F2FD286AC668301D00F09EFDE86C3B
:102AD000401EE864686B401E686300F0F1FD306BD7
:102AE00000F0CAFA300000F0C7FA686B0028DDD1A8
:102AF0002068022801D300F0D1FD01F01EF9FFF794
:102B00001CFE0228F1D3FFF713FEE86E296D884200
:102B100001D272B6FEE7FFF710FEFFF71DFEE4E7F5
:102B2000F8B504001500002000228B181E78A718A5
:102B300034373E701B78002B02D0521C0A2AF4D383
:102B40003D216054082D00D3072526001036F5617D
:102B5000A564201D002101612000183000210161C1
:102B600034600820401BB0607461F1BD38B50400CA
:102B7000504DA86A4460286D8442A96A04D2091D98
:102B8000286B00F028FD31BD091DE86A00F023FD27
:102B9000E86E844200D2EC6631BD70B505000E00CF
:102BA0004C2000F011FA040013D0AD00002E03D128
:102BB000280000F009FA00E030002063002804D16A
:102BC000200000F059FA002403E0A522290001F0BA
:102BD000C7F8200070BD3748C16A0968002902D1D2
:102BE0000021C94303E0C16AC968C9684968C16670
:102BF00070473048806A70472E48816D002901D1A6
:102C000001207047006F002801D10220704700208A
:102C1000704770B5040029D0154EE06AB16AC96AE0
:102C2000884223D2A069002804D40820B16AC96A66
:102C3000401AA061204D6069E16A1422514369186D
:102C4000884210D1201D00F0E0FCB06AC06AE0624A
:102C5000716D814200D27065211D142250432818E5
:102C600000F0ADFC70BDB06AC06AE06270BD0000EB
:102C70000809001010B504001BD0E06AA16C88425E
:102C800017D0201D00F0C1FCA06CE062A1690029F2
:102C900002D40821081AA061E06A06494A6D8242FE
:102CA00000D24865211D044A14235843101800F02F
:102CB00086FC10BD080900101C150010F8B50600B0
:102CC0000D001700954C06986071A371180AE07109
:102CD000180C2072180E60720798A072010AE17237
:102CE000010C2173000E6073E5732000203001F0A9
:102CF00057F839002000203001F063F8102221003D
:102D00002000203001F065F8EAB2310020002030C8
:102D100001F05FF8210020312000103001F0BAF8F6
:102D2000E07C0006A17C09040143607C00020843AA
:102D3000217C014308980160F1BDFDB50F0000261C
:102D40000125774CF022002120002030FDF7F6F914
:102D5000220020321021019801F0DEFB08986071FA
:102D60000298A0710298000AE0710298000C20728B
:102D70000298000E60720998A072010AE172010CBB
:102D80002173000E607317E0E5736D1C2200203282
:102D900021001031200001F049FC00217018009A38
:102DA000135C6218127C5A400A9B1A54491C102961
:102DB000F4DB103F1036F6B2BFB2102FE4DA002F6A
:102DC00013D0E5732200203221001031200001F0E1
:102DD0002DFC00217018009A125C63181B7C534074
:102DE0000A9A1354491CB942F4DBF7BD10B584B0FC
:102DF000089C0294079C0194069C0094FFF79DFF99
:102E00001FBDF8B506000D001700444C200020300F
:102E100000F0C6FF39002000203000F0D2FFEAB2F7
:102E200031002000203000F0D4FF210020312000AC
:102E3000103001F02FF8E07C0006A17C090401436A
:102E4000607C00020843217C014300980160F1BDD1
:102E5000F4B505000E001F00314CF02200212000C7
:102E60002030FDF76BF9220020321021009801F08C
:102E700053FB220020323900280001F0D7FB102E2E
:102E800007DB20342200103739001035280001F00C
:102E9000CDFBF1BDF4B584B004000E001F00204D41
:102EA000F022002128002030FDF748F92A002032C6
:102EB0001021200001F030FB102200216846FDF7B0
:102EC0003DF96C460120207006223100601CFDF7A0
:102ED00020F9022204A9E01DFDF71BF92A00203287
:102EE0003900684601F0A2FB102200216846FDF778
:102EF00025F90220207006223100601CFDF709F937
:102F0000022204A9E01DFDF704F920352A000A99E0
:102F1000684601F08BFB05B0F0BD000018060010FC
:102F2000500700109D2102000AD002D4491E9218B9
:102F3000FCD5C905100A1206524100D3012A4841A6
:102F4000704730B4012100220368001D002B0BD014
:102F50000468001D0C4202D04D466D1E64192260AB
:102F6000241D1B1FF0D0FAE730BC7047124207D077
:102F70008B0706D00B78491C0370401C521EF7D8F3
:102F80007047830706D00B78491C0370401C521E03
:102F9000F9D1704770B4103A03D378C9103A78C0A9
:102FA000FBD2530701D318C918C001D508C908C0FE
:102FB000D20704D30B880380891C801C002A01D50A
:102FC0000B78037070BC7047F8B50400002600252C
:102FD000FFF7AEFBBF20C00034494A69002A0DD17B
:102FE0000A00203207239A430A604E60C8608E6050
:102FF00050600B000833136001224A61002C33D06B
:1030000008340722144203D02300083322409C1ABC
:10301000002C29D0844227D20B000A6801E013005B
:1030200002005068A04202D210680028F7D10800C0
:103030000830824218D01D68083510681860506842
:10304000031B112B0CD310194360546044680B0010
:1030500000E033001E687768A742FAD30660186064
:1030600008695268801A0861FFF776FB002D01D1CC
:1030700000F060FE2800F2BD002800D1704770B556
:1030800008380400FFF754FB606808490B0000E0B3
:103090002B001D686E688642FAD325601C600A69A1
:1030A00010180861FFF758FB70BD00000000001009
:1030B00038B505000C00002D01D172B6FEE700F016
:1030C000F3FA2868E96B2A6C5143401868600020C5
:1030D000A8632868A8602868E96B491E2A6C5143D8
:1030E0004018E8600020C0436864A864002C0BD13D
:1030F0002869002810D010352800FFF767FC012848
:103100000AD100F0CBFA07E02800103000F048FAAE
:103110002435280000F044FA00F0D2FA012032BD34
:10312000F4B504000E00002C1DD05420FFF74CFF16
:103130000500002D17D020007043401CFFF744FF0E
:10314000286000280CD02F003C373C607E600121B5
:103150002800FFF7ADFF6846007838752800F2BDFB
:103160002800FFF789FF72B6FEE70000FCB583B0C8
:1031700004000F0000260096002C01D172B6FEE775
:10318000002F02D1206C00280ED10498022802D111
:10319000E06B01280AD1FFF72FFD00280DD103981D
:1031A00000280AD072B6FEE772B6FEE772B6FEE7F6
:1031B000200000F091F9FFF7CFFA00F075FAA06B4C
:1031C000E16B884202D30498022813D1049A390093
:1031D000200000F037F9606A002807D0243420006E
:1031E000FFF7F4FB012801D100F058FA00F068FA6B
:1031F000012045E00398002802D100F061FA3EE08A
:1032000001250098002803D101A8FFF70DFC0095C7
:1032100000F056FAFFF78CFA00F046FA0020C0439F
:10322000616C814200D16664A16C814200D1A664C8
:1032300000F046FA03A901A8FFF702FC002819D103
:1032400000F032FAA06BE16B884200D0002500F05C
:1032500037FA002DACD0039920001030FFF784FB23
:10326000200000F039F9FFF777FA0028A5D100F027
:1032700015FAA2E7200000F02FF9FFF76DFA002001
:1032800005B0F0BDF2B5040017001E00002C01D1FE
:1032900072B6FEE7002902D1206C002825D1022E4B
:1032A00002D1E06B012822D100F062FA0500A06B88
:1032B000E16B884201D3022E1FD132000099200019
:1032C00000F0C0F80126A06C0021C943884210D14B
:1032D000606A002812D024342000FFF777FB002812
:1032E0000CD0002F0AD03E6008E072B6FEE772B63E
:1032F000FEE7A06C401CA06400E00026280080F3DC
:1033000010883000F2BD0000FEB582B00400002736
:103310000025002C01D172B6FEE7002902D1206CF5
:10332000002808D1FFF768FC00280BD1039800287B
:1033300008D072B6FEE772B6FEE7200000F0CCF8C7
:10334000FFF70AFA00F0B0F9A06B00282AD0E56870
:103350000299200000F0AEF80498002812D1A06B6A
:10336000401EA0632068002802D1FFF742FC606085
:103370002069002812D010342000FFF727FB012815
:103380000CD109E0E560606A002807D024342000F1
:10339000FFF71CFB002801D000F080F900F090F945
:1033A00001204CE00398002802D100F089F945E0A3
:1033B000002D03D16846FFF737FB012500F080F9A7
:1033C000FFF7B6F900F070F90020C043616C81424C
:1033D00000D16764A16C814200D1A76400F070F94C
:1033E00003A96846FFF72CFB002822D100F05CF906
:1033F000A06B461EB641F60F00F062F9002E9CD07D
:103400002068002806D100F04FF96068FFF701FC42
:1034100000F056F9039920002430FFF7A5FA2000A8
:1034200000F05AF8FFF798F900288BD100F036F930
:1034300088E7200000F050F8FFF78EF9002005B073
:10344000F0BD000038B504001500226C002A08D138
:10345000206800282AD16068FFF70CFC002060601B
:1034600024E0002D0CD1A068FFF780FDA068216C3E
:103470004018A0606168884218D32068A06015E0F9
:10348000E068FFF773FD216C4842E1680918E160CC
:103490002268914202D261680818E060022D05D1CD
:1034A000A06B002802D0A06B401EA063A06B401C44
:1034B000A06331BD38B503000800196800290AD09F
:1034C0001A6CDC68A418DC605D68AC4200D3D9607B
:1034D000D968FFF74BFD31BD38B5040000F0E4F8C2
:1034E0000AE020002430FFF771FA002801D0FFF72E
:1034F000D5FAA06C401EA064A06C012802DB606AB3
:103500000028EED10025ED43A56400F0D9F800F0C5
:10351000CBF80AE020001030FFF758FA002801D05D
:10352000FFF7BCFA606C401E6064606C012802DB2F
:1035300020690028EED1656400F0C2F831BD0000BA
:1035400010B50022064BD4001B191C68002C02D1B8
:103550001960586010BD521C082AF3D310BD00003A
:103560003017001038B505000C0000F09DF8002061
:103570000021C9436A6C8A4200D16864AA6C8A42FD
:1035800000D1A86400F09CF8A86B002804D12100A9
:1035900028002430FFF70AFA2800FFF79DFF31BD0D
:1035A0000100083141600021C943816001000831F8
:1035B000C16001000831016100210160704742686B
:1035C0004A6093688B6093685960916008610168F4
:1035D000491C0160704730B50A680023DB439A42FA
:1035E00001D1036907E00300083300E023005C68B1
:1035F0002568AA42FAD25A684A6091608B60596085
:1036000008610168491C016030BD01698268436836
:103610009A60426883685A604A68824201D182682F
:103620004A60002202610868401E08607047FEE799
:10363000001F80235B040360001F0160001F2E49F0
:103640000160143802602038704700002B48006881
:103650000021C943884201D072B6FEE772B6FEE788
:1036600010B527480168FF2212040A43026001686E
:10367000FF2212060A430260224C23480068FA2106
:103680008900FCF77EFD401E60600720206000205E
:103690001A49086000F05FF8002010BD8020400546
:1036A0001A49086006E0000072B614480168491C17
:1036B000016000BFBFF34F8FBFF36F8F70470000F3
:1036C0000E480168002901D172B6FEE7491E01606B
:1036D000002900D162B6704710B500F049F8040027
:1036E000FFF794F8002803D08020400507490860C0
:1036F000200080F3108810BD4D360000680A0010CD
:1037000020ED00E010E000E05818001004ED00E0AB
:1037100080F308887047EFF30980194B1A68203846
:103720001060F0C044464D4656465F46F0C008B5AE
:1037300072B6FFF7CDF862B60CBC1168086810309D
:10374000F0C8A046A946B246BB4680F30988203897
:10375000F0C8184770470A4B19680868203080F392
:103760000988022080F314883FBCAE4662B600BDD3
:10377000EFF3108072B6704780F310887047000036
:103780003009001010B50022AB49AC4B022802D022
:10379000E0280DD010BDDB7D0B704A704A804A6076
:1037A0000A818872CA728A81FF208873C87310BD2B
:1037B00001209C7B002C09D09A7303225A750522A4
:1037C0000A70DA7B4A701A7C8A7004E05A78012AFF
:1037D00003D0042A08D1587010BD0220587598896A
:1037E000000A08709889487010BD7FB5934C00207E
:1037F0000090002300220321206AFEF7EEFC012541
:1038000001AE357001A8FEF7CBF9002807D1307959
:10381000002803D00220607625767FBD65767FBDC7
:1038200080B5002000900023002203218348406AD5
:10383000FEF7D3FC01BD80B50020009000230022DC
:1038400003217E48806AFEF7C8FC01BD10B582B036
:103850007A4C4078002809D1FEF7CBFF0200002007
:10386000009000230121606AFEF7B7FC012020765A
:1038700013BD00004178002900D07047F0B58BB02F
:103880006E4C2278002A02D0A189491CA181417B7B
:10389000002905D0C178491E012902D9DF3909D094
:1038A000A1E0017B0129FBD180680078C107C90F25
:1038B000E17598E0002502210126002A19D1027B3A
:1038C000042AF6D1826810780128F2D150780128B4
:1038D000EFD190780128ECD1D0780128E9D1A575F5
:1038E000E02020756175E560257426706670684675
:1038F00014E082681278627010226378072B72D805
:1039000001A7FF5CBF4400BF081E22262A4E589024
:10391000A57521756275A581257008A801700671CD
:10392000FEF7C0F95FE061755DE0A6755AE0A57528
:1039300058E0027B6275404904230B70F223F22A9F
:1039400000DC13009E424EDA83689B5D5B1C8B5546
:10395000761CF6B2F2E768460670FEF7DBFA42E044
:10396000A57521756275A58125706846017006717F
:10397000FEF798F903A8057021002C31049121006D
:103980003431059121003C31069103210174FEF789
:10399000C1FA0420607626E0027B032A08D16A4639
:1039A000117080684178090280780143918016E0A7
:1039B000072A17D1694603220A70806842781202EA
:1039C00083781A438A80C278120403791B02134356
:1039D00042791A4364235A430292807908736846F5
:1039E000FEF798FA6670FEF704FF002100910023AD
:1039F00002000121A06AFEF7F0FB0BB0F0BD964972
:103A000001220378002B02D0012B08D012E040786D
:103A1000002802D1022048760CE04A760AE043787A
:103A2000002B07D10B78002B04D08A73037ACB7359
:103A3000407A08740A76704728140010A409001010
:103A4000F0B591B0844C0020607605AF01250426C6
:103A500048E08248099082480A9082480B900222EE
:103A600004A909A8FDF7E4FE7F4800900023002286
:103A7000FA2189008BA0FEF795FB20627B4800901D
:103A800000230022FA2189008BA0FEF78BFB6062E5
:103A900000210091002319220421FEF79EFB7448A7
:103AA000009000230022FA21890000BF85A0FEF7C4
:103AB00079FBA06200210091002319220421FEF766
:103AC0008CFB02206946087101A90D7101A8FEF75F
:103AD000E9F807206946087101A90D7101A8FEF7F0
:103AE000E1F865760A20FEF75DFD207E617E002903
:103AF000AFD0022919D003D30429F3D052D365E003
:103B000000210CAA117021002C310D9121003431BB
:103B10000E9121003C310F9103211174002802D035
:103B20000CA8FEF7F7F96676DCE700282AD0207D9E
:103B3000FFF728FE6946607DFDF7CEFF002804D020
:103B4000002038700790B88114E0A07D002807D1CC
:103B50003870207D387147480790607DB88108E053
:103B60003D70207D387143480790607DB881082002
:103B7000F8730020B87305A8FEF75CFA002800D09F
:103B8000012020762078002801D03B4806E0FA2169
:103B900089003A48FCF7B2FA37494018E06103203F
:103BA00060769FE76676002000900023E26904219A
:103BB000206AFEF712FBFEF71CFE020000200090B8
:103BC00000230121206AFEF708FB8BE70020E7E7CE
:103BD00010B500F0F5FD2A4C2068FEF7FDFC00F062
:103BE00009FEF9E780B526484068FEF7F5FC00F0CD
:103BF0005DFFF8E71FB5FCF71BFB01F0DDF8204C7B
:103C000000200390029001940120009000234022A4
:103C10002FA11C48FEF73EFC002003900290241DBB
:103C20000194012000900023402200BF2BA11648E0
:103C3000FEF730FC002003900290019001200090DC
:103C40000023402228A11148FEF724FCFEF74AFD7C
:103C5000012004B010BD0000A40900104D38000080
:103C600075380000FF390000EB37000021380000F4
:103C700037380000281400108813000018FCFFFFDC
:103C80004C180010D13B0000E53B0000413A000019
:103C900010B50C0017A000F060FF200000F05DFFE1
:103CA00072B6FEE754784E6578745061636B657444
:103CB00054696D65720000004C65643154696D652E
:103CC000720000004C65643254696D65720000003A
:103CD000765461736B4C65643100000076546173F7
:103CE0006B4C656432000000765461736B4C656404
:103CF00030000000537461636B204F76657220665C
:103D00006C6F7720696E203A0000000010B402E06A
:103D1000401C491C521E002A09D00B7804789C4292
:103D2000F6D002D20020C04302E0012000E00020D3
:103D300010BC704772B601BEFEE730BF704700008E
:103D40001206130A1A43130C1A4300BF094205D086
:103D500083070BD00270401C491EF9D17047000048
:103D60001206130A1A43130C1A4300BF130030B48F
:103D700014001500103902D310393CC0FCD2490799
:103D800000D30CC000D504C0890002D30280801C7F
:103D9000002900D5027030BC704700000022E5E722
:103DA00010B5040010220021F130FCF7C7F9002003
:103DB0008A2149006050F02200212000FCF7BEF962
:103DC00010BD80B50B0002001021180000F0A4FB0C
:103DD00001BDF0B585B005000E0014008A2040003A
:103DE0002858002848D010210F1AA74200D92700D0
:103DF000BAB231002818FF239B1CC018FCF789F9C0
:103E00008A2040002858C0198A214900685010288B
:103E10003ED3BC423CD000202918F1310A780B7CFB
:103E200053400B70401C1028F6DB2A002900F131AA
:103E30002800F13000F0FAFBF619E41B1CE000202A
:103E40002918F1310A78335C53400B70401C10285C
:103E5000F6DB10222900F1316846FCF75AF92A00F6
:103E60006946684600F0E2FB102269462800F130FE
:103E7000FCF74FF91036103C112CE0D2A2B2310001
:103E8000FF20801C2818FCF744F98A2040002C50A1
:103E900005B0F0BDF1B588B00C00102200216846D5
:103EA000FCF74CF922006946684600F0BFFB872109
:103EB00000206A4613781B0603460DD5D5182E78C8
:103EC00076006F78FF0937432F705B1C0F2BF5DBF3
:103ED000D37B5B004B400BE0D5182E7876006F78D3
:103EE000FF0937432F705B1C0F2BF5DBD37B5B0087
:103EF000D3738A235B00E358102B0CD10021631885
:103F0000FF25AD1C5B191D78565C6E401E70491C68
:103F1000102940DAF3E713781B060ED50023D518D5
:103F20002E7876006F78FF0937432F705B1C0F2BBC
:103F3000F5DBD37B5B0059400CE0002153181D7862
:103F40006D005E78F6092E431E70491C0F29F5DBC3
:103F5000D17B4900D17380218A235B00E358E318A9
:103F6000FF25AD1C595501E0611848558A214900CB
:103F70006158491C8A235B00E1501029F4D30021C9
:103F80006318FF25AD1C5B191D78565C6E401E70D2
:103F9000491C1029F4DB2118F1310A780B7C5340BD
:103FA0000B70401C1028F6DB10222100F13104A810
:103FB000FCF7AFF82200089904A800F037FB1022A4
:103FC00000216846FCF7BAF809B0F0BD0A78027023
:103FD0004A7842708A788270CA78C2700A7902710F
:103FE0004A7942718A798271CA79C2710A7A0272F7
:103FF0004A7A42728A7A8272CA7AC2720A7B0273DF
:104000004A7B42738A7B8273C97BC1737047027893
:104010000B785340037042784B785340437082785A
:104020008B7853408370C278CB785340C370027949
:104030000B795340037142794B7953404371827934
:104040008B7953408371C279CB795340C371027A23
:104050000B7A53400372427A4B7A53404372827A0E
:104060008B7A53408372C27ACB7A5340C372027BFD
:104070000B7B53400373427B4B7B53404373827BE8
:104080008B7B53408373C27BC97B5140C1737047A4
:1040900010B50B7814785C4004704B7854785C4011
:1040A00044708B7894785C408470CB78D4785C4092
:1040B000C4700B7914795C4004714B7954795C407D
:1040C00044718B7994795C408471CB79D4795C406C
:1040D000C4710B7A147A5C4004724B7A547A5C4057
:1040E00044728B7A947A5C408472CB7AD47A5C4046
:1040F000C4720B7B147B5C4004734B7B547B5C4031
:1041000044738B7B947B5C408473C97BD27B4A4035
:10411000C27310BD7F4902788A5C027002798A5CA2
:104120000271027A8A5C0272027B8A5C02734278B4
:104130004379CB5C4370437ACB5C4371437BCB5C6C
:1041400043728A5C42738278837ACB5C83708A5C28
:1041500082728279837BCB5C83718A5C8273C27B3F
:10416000C37ACB5CC373C379CB5CC372C378CB5CBB
:10417000C371895CC17070477FB504002100684637
:10418000FFF724FF634800BF63A100BFA2A26B46F4
:104190001D78565D5D794D5D75409E7A865D6E40F9
:1041A000DD7B455D754025701D78465D5D79555D0B
:1041B00075409E7A8E5D6E40DD7B455D7540657015
:1041C0001D78465D5D79455D75409E7A965D6E40D1
:1041D000DD7B4D5D7540A5701D784E5D5D79455D5B
:1041E00075409E7A865D6E40DD7B555D7540E5705D
:1041F0001D79565D5D7A4D5D75409E7B865D6E4096
:10420000DD78455D754025711D79465D5D7A555DAA
:1042100075409E7B8E5D6E40DD78455D75406571B5
:104220001D79465D5D7A455D75409E7B965D6E406D
:10423000DD784D5D7540A5711D794E5D5D7A455DFA
:1042400075409E7B865D6E40DD78555D7540E571FD
:104250001D7A565D5D7B4D5D75409E78865D6E4036
:10426000DD79455D754025721D7A465D5D7B555D46
:1042700075409E788E5D6E40DD79455D7540657256
:104280001D7A465D5D7B455D75409E78965D6E400E
:10429000DD794D5D7540A5721D7A4E5D5D7B455D96
:1042A00075409E78865D6E40DD79555D7540E5729E
:1042B0001D7B565D5D784D5D75409E79865D6E40D7
:1042C000DD7A455D754025731D7B465D5D78555DE6
:1042D00075409E798E5D6E40DD7A455D75406573F3
:1042E0001D7B465D5D78455D75409E79965D6E40AF
:1042F000DD7A4D5D7540A5731D7B495D5D78455D3B
:104300004D409979405C6840D97A515C4140E173F5
:104310007FBD000080460000A584998D0DBDB1547D
:104320005003A97D1962E69A459D408715EBC90B9C
:10433000EC67FDEABFF7965BC21CAE6A5A41024FBA
:104340005CF434089373533F0C52655E28A10FB59B
:1043500009369B3D2669CD9F1B9E742E2DB2EEFB28
:10436000F64D61CE7B3E7197F568002C601FC8ED5D
:10437000BE46D94BDED4E84A6B2AE516C5D755941C
:10438000CF100681F044BAE3F3FEC08AADBC480406
:10439000DFC17563301A0E6D4C14352FE1A2CC3994
:1043A00057F28247ACE72B95A098D17F667EAB830E
:1043B000CA29D33C79E21D763B564E1EDB0A6CE4DB
:1043C0005D6EEFA6A8A4378B324359B78C64D2E058
:1043D000B4FA0725AF8EE918D5886F7224F1C7515A
:1043E000237C9C21DDDC86859042C4AAD80501127D
:1043F000A35FF9D0915827B93813B333BB7089A79D
:10440000B622922049FF787A8FF88017DA31C6B841
:10441000C3B07711CBFCD63AC6F8EEF6FFD6DE91E4
:104420006002CE56E7B54DEC8F1F89FAEFB28EFBD6
:1044300041B35F452353E49B75E13D4C6C7EF583AE
:104440006851D1F9E2AB622A0895469D30370A2FB0
:104450000E241BDFCD4E7FEA121D583436DCB45BD0
:10446000A476B77D52DD5E13A6B900C140E379B6EC
:10447000D48D67729498B085BBC54FED869A66114E
:104480008AE904FEA078254BA25D80053F2170F1EA
:104490006377AF4220E5FDBF811826C3BE35882E65
:1044A0009355FC7AC8BA32E6C0199EA344543B0B1C
:1044B0008CC76B28A7BC16ADDB647414920C48B88B
:1044C0009FBD43C43931D3F2D58B6EDA01B19C491B
:1044D000D8ACF3CFCAF447106FF04A5C38577397E3
:1044E000CBA1E83E96610D0FE07C71CC9006F71CE5
:1044F000C26AAE6917993A27D9EB2B22D2A90733A2
:104500002D3C15C987AA50A50359091A65D784D02F
:1045100082295A1E7BA86D2CF6B584B01146F03165
:104520006A46147C102C03D0182C01D0202C02D108
:104530002246059B07E000200870FF2074E0057804
:104540001D70401C5B1C15006A1E2D06F7D16846C5
:10455000007C1C308006000E03900009401E08708D
:1045600001256846007C029045A62FE00298192894
:104570000FDB10290DD1F75D684669468978715CBB
:10458000817069464978715C417069460978715C4F
:1045900001706946097C601AC0B205990818017853
:1045A0004F4001990F700199491C42786B469B78E6
:1045B00053400B7082786B465B7853404B70C078E9
:1045C0006A46127842408A70241DE4B203988442FD
:1045D00029DA059800190190001F0778694642788A
:1045E0008A7082784A70C078087020000299FBF7C0
:1045F000C5FD0029BAD1380069468978715C2F0061
:104600004F4069466A465278B25C8A706A461278B0
:10461000B25C4A70305C08706800ED091B214D43A4
:104620004540EDB2B5E7002006B0F0BDF0B585B06D
:104630000F001400F021615C00291DD001006846C4
:10464000FFF726FD012506E0FFF796FD31006846DD
:10465000FFF7DDFC6D1CEDB228012618F020205C70
:1046600085426846F0D3FFF755FD320069463800B1
:10467000FFF70EFD002000E0FF2005B0F0BD0000B8
:10468000637C777BF26B6FC53001672BFED7AB760F
:10469000CA82C97DFA5947F0ADD4A2AF9CA472C0BA
:1046A000B7FD9326363FF7CC34A5E5F171D8311527
:1046B00004C723C31896059A071280E2EB27B27548
:1046C00009832C1A1B6E5AA0523BD6B329E32F84C0
:1046D00053D100ED20FCB15B6ACBBE394A4C58CFB8
:1046E000D0EFAAFB434D338545F9027F503C9FA88C
:1046F00051A3408F929D38F5BCB6DA2110FFF3D25A
:10470000CD0C13EC5F974417C4A77E3D645D19730D
:1047100060814FDC222A908846EEB814DE5E0BDB07
:10472000E0323A0A4906245CC2D3AC629195E4793E
:10473000E7C8376D8DD54EA96C56F4EA657AAE0898
:10474000BA78252E1CA6B4C6E8DD741F4BBD8B8A33
:10475000703EB5664803F60E613557B986C11D9E99
:10476000E1F8981169D98E949B1E87E9CE5528DF10
:104770008CA1890DBFE6426841992D0FB054BB163C
:10478000F8B5FEF791FF194E962040003518A8782D
:10479000002812D10124164F3800FBF753FD0028E2
:1047A00008D12A88002A08D03100380000F038FBF0
:1047B0000020288000F0C0FBAC70FEF781FFF1BD47
:1047C00010B50A4C982149002000FFF7E7FA00F0E5
:1047D000E7FBC046C046962252002100A54800F0E3
:1047E0001FFB00F0ACFB10BD00000000F80F001034
:1047F0003C180010F0B59BB09F4F387800F04BFC90
:1048000002009C480489E4B2002C009741D07878DB
:104810009AA1762A0ED1022C10D13F280ED1380051
:1048200000F047FC3C1800BF95A1200000F041FCBF
:1048300020182DE07A2A16D1012C2AD099A138000F
:1048400000F037FC381800900D200099087000988F
:104850000A214170801CC01B962149007852FFF745
:104860008FFF1BB0F0BD262A05D1022CE6D100F047
:1048700012FC6628A7E0652A70D1022CDEDB0390CB
:104880003F2807D1022CD9D1380000F012FC38188B
:104890000090E5E03D2803D02B2801D02D28CDD174
:1048A000002005900220029023E06D1CEDB26846C6
:1048B000007F854209DA02983818405D00F0F2FB6B
:1048C00006990968495D8842EFD06846007F8542B5
:1048D00005D104980121019A914001430491019866
:1048E000401C0190102818D30598049901430591A4
:1048F00002960298A0421ADAC0B200E03000461CCC
:10490000F6B2A04202DA395C7C29F7D16946029AF4
:10491000801A08770020049001907148019989005D
:104920004018069000680028D9D00025BFE70598F8
:104930000028AED103983D280FD1A41E69A2E1B290
:10494000B81C00F0C2FB00283ED100BF6AA2E1B251
:10495000B81C00F0BAFB002836D16FE7732A34D1B7
:10496000022CFADB3F28F8D03D28F6D1552CF4D1A3
:104970000822B91C10A800F069FB0028EDD0B87A15
:104980002C28EAD110AC082239000B31201D00F090
:104990005DFB0028E1D0F87C2C28DED120223900F4
:1049A00014312000083000F035FB1028D5D1342018
:1049B000385C2C28D1D12022390035311834200020
:1049C00000F028FB1028C8D14AE06A2A35D1022C11
:1049D000C3DB3F28C1D03D28BFD1442CBDD110221C
:1049E000B91C08A800F016FB0828B6D1B87C2C2802
:1049F000B3D108AC1022390013312000083000F088
:104A000009FB0828A9D12320385C2C28A5D1202215
:104A1000390024312000103000F0FCFA10289CD11D
:104A2000082208A908A800F028FB08222100083164
:104A30000834200000F021FB12E0742A0ED0702A06
:104A40000CD0612A00D0F9E6022C00DAF6E6621EEC
:104A5000D2B2791C01A800F0F9FA002800D1EDE6E5
:104A60000098B84200D0EFE61FA100F022FB0099A9
:104A70000818E8E62C180010F80F00104F4B2C0017
:104A800056455253494F4E20312E3220284F6374E1
:104A900020203520323031372031353A35333A3124
:104AA000372900004552524F5200000038B50F4CD4
:104AB00000209721490060540D4D2989686800F055
:104AC0007AFA6868A04207D196225200210009486C
:104AD00000F0A6F900F033FAFFF752FE31BD0000F6
:104AE000F0090010414C4C004F4B0000F80F001033
:104AF0003C1800102C1800104E4F4E4500000000CE
:104B00003549012282400868344B034013430B604F
:104B1000704731490A6801238340314805E0314933
:104B20000A6801238340FE200006184382430A607E
:104B300070472C49012282400868C001C009104317
:104B400008607047490140188354704701B501223D
:104B50006946A74800F09BFC01BD10B5040002E0C7
:104B6000FFF7F4FF641C20780028F9D110BD38B598
:104B70000720FFF7C5FF01249E4804600020FFF7CF
:104B8000D8FF0421002000F09FFC0021012000F04C
:104B90009BFC0720FFF7BDFF954D280000F038FC77
:104BA0002868954901400420084328600121E1203C
:104BB000400300F0A5FBE1214902280000F079FC48
:104BC00028688E4901402143296068688C4901406A
:104BD0006960EC6031BD000080800440FFFFEF257C
:104BE000000010DAC0C1004010B5864C002211212F
:104BF000200000F07BFC00220B21200000F076FC5E
:104C000002220421200000F071FC0022102120006B
:104C100000F06CFC00220F21200000F067FC002255
:104C20000E21200000F062FC00220D21200000F087
:104C30005DFC00220821200000F058FC0022072122
:104C4000200000F053FC00220221200000F04EFC66
:104C500000220121200000F049FC00221221200046
:104C600000F044FC00220A21200000F03FFC00225A
:104C70000921200000F03AFC00220021200000F071
:104C800035FC00221E21200000F030FC00221D21F6
:104C9000200000F02BFC00221C21200000F026FC4C
:104CA00000221B21200000F021FC00221A212000FC
:104CB00000F01CFC00221921200000F017FC00224B
:104CC0001821200000F012FC03221721200000F020
:104CD0000DFC00221621200000F008FC0022152106
:104CE000200000F003FC00221421200000F0FEFB55
:104CF0000720FFF705FF0020FFF71BFF0120FFF74C
:104D000018FF0220FFF715FF0320FFF712FF042012
:104D1000FFF705FF0520FFF702FF0620FFF7FFFE64
:104D20000720FFF7FCFE0920FFF703FF0A20FFF72B
:104D300000FF0B20FFF7FDFE0C20FFF7FAFE0D2011
:104D4000FFF7F7FE0E20FFF7F4FE0F20FFF7F1FE4E
:104D50001020FFF7EEFE1120FFF7EBFE1220FFF709
:104D6000E8FE1320FFF7E5FE1420FFF7E2FE152012
:104D7000FFF7DFFE1620FFF7DCFE1720FFF7D9FE56
:104D80001820FFF7D6FE20480168BF220A400260C3
:104D9000402141611D4804220260426FD2B211439A
:104DA000416710201A49086080061A4908600720E8
:104DB000FFF7AFFE10BD000070B5A0252D0628003E
:104DC00000F09EFBFFF710FF002400BF13A6325D2A
:104DD0000120904010490860012300212800FFF7BE
:104DE000B1FE641C022CF2DBFFF7C1FE70BD0000B7
:104DF000004006409480044001DAFC007DDAFC00AB
:104E00000603010000400440004000A090810440DF
:104E1000002400A000E100E0802300A006070000BD
:104E2000002303700373038141604281704780B5A2
:104E300000280CD0384801894289914204D24A1C8A
:104E400002814068405C02BD8020400002BD042019
:104E50003249086032480068FDF712FC002002BDAC
:104E600038B501002F4800680C00B5232E4A15788C
:104E7000002D0AD0A12D16D0A22D1AD0B12D2CD0E4
:104E8000B22D35D0B32D42D005E0612C01D0412C9C
:104E900003D1A1201070012032BD422CFBD1B120E2
:104EA00010701173F7E7742C01D0542CF3D1A220A9
:104EB000F0E70D2C05D1A3211170FDF7E1FB0020D7
:104EC00032BD13895489A34201D1A421F4E750686B
:104ED000C1541089401C1081DDE75589A54201D2DB
:104EE0001370EAE75481107B41401173B220D1E77F
:104EF00050681389C1541089401C1081137B59409C
:104F00001173518980B28842C5D1B320C2E7117BA9
:104F10004C40E5D1B423E3E73C18001010400640B4
:104F2000501800104C1800102C180010C160704769
:104F3000816819480840704780B5042101E080B5B8
:104F400001211648FFF7F2FF01BD38B5FEF7ACFBB3
:104F5000124C2000FFF7ECFF40070CD50120FFF7B3
:104F600066FFFF210902084202D1C0B2E06102E0FF
:104F70000020FFF75CFF01252000FFF7D9FF284044
:104F800006D06069C0B2FFF76BFF002800D1256131
:104F9000FEF796FB31BD00007FFD0100004006409A
:104FA0001A4801000C31816001000C3141600100A0
:104FB0000C310160704770B505000C00134E3000D5
:104FC0000C30854221D328191149711888421CD20E
:104FD000FEF76AFB30688542FDD101197268824292
:104FE0000AD391420ED130000C30B06030000C304A
:104FF000706031000C3105E0B068814202D13100AF
:105000000C31B2603160FEF75BFB70BD700A0010BE
:105010000C04000030B503000020D40712D407E0D0
:105020001D782D012C431C70D40701D45B1C401C3F
:105030001400621E240407D031A40D786457491C63
:10504000002CEDD5002030BDC0B230BD30B50023FE
:10505000036000BF2AA303E005682D012C43046010
:105060001400621E240606D00C781C57491C002C24
:10507000F2D5002030BD012030BD30B5002305E061
:10508000CC5C8D5CC55484545B1CDBB2521ED2B226
:105090009342F5DB30BD010041391A2900D220309E
:1050A000C0B27047010061391A2900D22038C0B25D
:1050B00070470200002000E0401C0B78491C137070
:1050C000521C002BF8D1C0B27047F8B504000F0095
:1050D00015003800471E00060CD02078FFF7DBFFD4
:1050E0000600641C2878FFF7D6FF6D1C8642F0D0BE
:1050F0000020F2BD2978481E8041C00FF2BD00009B
:10510000FFFFFFFFFFFFFFFFFFFFFFFFFFFFFFFFAF
:10511000FFFFFFFFFFFFFFFFFFFFFFFFFFFFFFFF9F
:10512000FFFFFFFFFFFFFFFFFFFFFFFFFFFFFFFF8F
:1051300000010203040506070809FFFFFFFFFFFF48
:10514000FF0A0B0C0D0E0FFFFFFFFFFFFFFFFFFF1E
:10515000FFFFFFFFFFFFFFFFFFFFFFFFFFFFFFFF5F
:10516000FF0A0B0C0D0E0FFFFFFFFFFFFFFFFFFFFE
:10517000FFFFFFFFFFFFFFFFFFFFFFFFFFFFFFFF3F
:10518000FFFFFFFFFFFFFFFFFFFFFFFFFFFFFFFF2F
:10519000FFFFFFFFFFFFFFFFFFFFFFFFFFFFFFFF1F
:1051A000FFFFFFFFFFFFFFFFFFFFFFFFFFFFFFFF0F
:1051B000FFFFFFFFFFFFFFFFFFFFFFFFFFFFFFFFFF
:1051C000FFFFFFFFFFFFFFFFFFFFFFFFFFFFFFFFEF
:1051D000FFFFFFFFFFFFFFFFFFFFFFFFFFFFFFFFDF
:1051E000FFFFFFFFFFFFFFFFFFFFFFFFFFFFFFFFCF
:1051F000FFFFFFFFFFFFFFFFFFFFFFFFFFFFFFFFBF
:1052000056490CE00022002800D00122002902D0DB
:105210001000022202435248026070475149086060
:1052200000204860012048607047000000B54E48EB
:105230000068C105C90D00BF55A04A0992008058F9
:10524000C906C90E491C4900FAF79BFF00BD434837
:1052500000688007800F04D0012804D0032804D000
:1052600006E042487047424800E042480068704704
:105270000020704780B5FFF7EAFF3F490968C9067B
:10528000C90E491C484302BD80B500203549096854
:105290008907890F05D0022908D004D3032908D033
:1052A00002BD324802BDFFF7D2FF02BDFFF7BEFFCD
:1052B00002BDFFF7DFFF02BD80B5FFF7E5FF2F4915
:1052C0000968C9B2FAF75DFF02BD38B52C4C2068F9
:1052D000C5B2002D01D1002032BDFFF7D5FF290056
:1052E000FAF74FFFE26DD2B2FF2A08D1226E010E0B
:1052F0000002D2B2A30DD218002300F00DF932BD86
:10530000F8B505000C00FFF7BFFF06002900FAF70B
:1053100038FF010000D10121194FC8B23860002CBC
:1053200016D018480268184B134003600268174BE8
:10533000134004221A430260FF20F8653000FAF798
:1053400020FF00022900FAF71CFFC0B2386601E016
:105350000020F865FFF7B9FFF2BD0000408004406F
:10536000208004407080044024800440001BB7006B
:10537000086100000C61000008800440788004404F
:105380009480044004800440FBDF0100FFDF010043
:1053900000000000C027090090051000C05C150047
:1053A000F0B31A00200B2000009F2400E0322900F7
:1053B000C0C62D0050973100E067350070383900C5
:1053C00000093D004016400080234300C0304600E5
:1053D000012181401B4802681B4B0B439A4302602A
:1053E00002681A4B13400B4303607047C16170475A
:1053F00081681748084070471649884201D10E203D
:1054000070471549884201D10F207047102070471E
:1054100010B50400FFF7F0FF104901228240086830
:105420000F4B034013430B600A48844201D1032011
:1054300005E00948844201D1042000E00520FFF77F
:10544000C7FF10BD048004400020FEFFFFDF010005
:105450007FFD01000040064000800640808004403F
:10546000FFFFEF25F8B50600170000240D0005E04A
:1054700029783000FFF7BAFF6D1C641CBC4204DAC7
:105480003000FFF7B5FF4007F2D42000F2BDF8B5B9
:105490000700150000240E0007E02A003100380044
:1054A000FFF7E0FF2D1A24183618012DF5DA200039
:1054B000F2BD38B504000D00FFF707FF2901FAF728
:1054C00060FE401E206231BD10B50207520E000979
:1054D000054B800018180368FF249440A3439140B3
:1054E0001943016010BD000000C000408900401851
:1054F000016818239943D2000A43026070470000F4
:1055000003480168034A0A40402111430160704783
:1055100080800440FFFFEF25124224D0994228D911
:1055200070B500251B4202D00C00002109E00024C8
:10553000012649186441944200D3A41A7641F8D355
:105540003100012601E0764109D2001864416D4125
:10555000A41A9D41F7D2A4185D41B619F5D33000C5
:1055600022002B0070BD1B42D8D108B5C046C046F2
:1055700008BD01D19042D3D202000B0000210020CF
:10558000704700000121C006C00E81404C480160F8
:1055900070470268FF23DB430B439A430260704766
:1055A0004161704710B54A4C01212000FFF7F1FF1F
:1055B00001212000FFF7F4FF1820FFF7E3FF02218D
:1055C0002000FFF7E6FF02212000FFF7E9FF192086
:1055D000FFF7D8FF04212000FFF7DBFF04212000A4
:1055E000FFF7DEFF1A20FFF7CDFF08212000FFF7AD
:1055F000D0FF08212000FFF7D3FF1B20FFF7C2FFD9
:1056000010212000FFF7C5FF10212000FFF7C8FF81
:105610001C20FFF7B7FF20212000FFF7BAFF202151
:105620002000FFF7BDFF1D20FFF7ACFF10BD70B5D8
:105630000500092001F04BFD4D2001F048FD04005C
:105640002448C0682449884201D2F02000E070203C
:105650000F2103061FD50723122D02DB2600072486
:1056600002E0F8262640042434432340072B08D1C7
:10567000052D01DA052502E0152D00DB14256A1F32
:1056800007E0022D01DA022502E0122D00DB1125D0
:10569000AA1E11400AE00023DB439D4201DA1D46A9
:1056A00002E00F2D00DB0E256D1C2940014309206F
:1056B00001F007FD21004D2001F003FD70BD000049
:1056C00000E100E005490A78824200D00870704786
:1056D000004000A07C0E001040DD4A1F151800108D
:1056E00001207047010009D5F446404200F006F859
:1056F0000122D20711436047010000BF422212017C
:10570000D21E004207D002D4521E0018FCD5C10A96
:105710004005120589187047F0B40E005E4001255F
:10572000ED072E40B446AE0ADF184C18F4423BD2C7
:10573000F74241D2640D43D07F0D38D0E41BC9023B
:10574000DB0229432B43CF0ADB0A0600B61A9F412E
:1057500004D2641EB6197F41B6185F416812800DED
:1057600024180018844222DAE80C0021B6197F417F
:10577000B61A9F4102D2B6185F413F1C40414941D1
:10578000F4D3241C21DD2405B6197F41B61A9F41AC
:1057900005D33743C60737430026012F70416141C7
:1057A00066463143F0BC7047FCD1F74205D2002079
:1057B000C14349054908F3E704D00020C143F1E79C
:1057C0007F0DFAD000206146ECE72442FAD1401C5C
:1057D00061410F03F6D30020E2E70000F4464A18C7
:1057E00005D200F00FF801D580174008604700F09F
:1057F00009F80121C907884200D9080040426047E2
:105800004A1812D2400DC90208430121C9070843B2
:10581000520D40210901521A521C06D452421F3225
:1058200001D4D0407047C017704700207047F0B5D2
:105830000E005E400125ED072E40B446AE0ADF188B
:105840004C18F44208D2F7420ED2640D01D07F0DFD
:1058500012D100206146F0BD05D1F74201D87F0D7D
:1058600005D10020C143F0BDFBD1640DF9D000206B
:10587000C143490549088FE0E419C902DB02294305
:105880002B43DB0A460DC00231438E4630B487B24B
:1058900095B27D432E0CADB2140C7C43A419260C9A
:1058A000240425439CB27C43A419190C7943270C8A
:1058B000C919A4B20F043C43090C000C97B247432A
:1058C0002E0CBE193543ADB2170C4743360CBF1929
:1058D000A6B2BF193E043543240C3E0C36199FB2C4
:1058E0004743BF19BCB23E0C89191F0C47437F18B0
:1058F0003E043443390C704680B297B247432E0CB5
:10590000BE193543ADB2170C4743360CBF19A6B2CA
:10591000BF193E043543240C3E0C36199FB2474351
:10592000BF19BCB23E0C89191F0C47437F183E04B7
:105930003443390C77463F0C90B278432E0C8019D3
:105940000604ADB22E43050CA0B22D18120C7A43FA
:105950005019020C80B2240CA4189AB27A4312197E
:1059600014042043120C89181B0C7B43C91830BC4B
:10597000EF0A394203D1B61940414941641E6F1202
:10598000BF0DE41B0BDBFF19BC4211DA2405002715
:105990004208AE417841614166463143F0BD641C26
:1059A00005D1401C6141CF0201D34908F4E750E71B
:1059B0005DE7F0B40125ED070F005F404FD48B4247
:1059C00000D1824205D98446100062468C461900F7
:1059D0006346DF184C18640D7F0D3AD0661C7605BF
:1059E00037D0E61B352E34DCDB022B43DB0A0C0DF3
:1059F000C9022943C912202E0DDB1700203E06D014
:105A00001F00F741F3405F400026012A7741C0188C
:105A100071410DD217E01700F741F2405740F341B2
:105A20005A40B340F3405A400026801859410AD3E7
:105A3000A21C52050FD0C207012F72411700400867
:105A4000CB0718434908641C24054208AF41704144
:105A50006141F0BC7047641C21050020F9E76B40F0
:105A60000AE06B40ABE7F742F3D1E943F1E72442A8
:105A7000EFD100200021ECE70C00871A9C4105D2F1
:105A8000C01BA141D219634169406B40AE0ADF18C7
:105A90004C18F442E7D2640D7F0DE8D0E61B362E99
:105AA000D7DCDB022B43DB0AA4460C0DC9022943D9
:105AB000C90A012E28DC04D1D6075208DF073A4371
:105AC0005B08EF0A76429041994114D039423BD1AC
:105AD000B61940414941761C394204D1761C001860
:105AE00049413942FAD0B9436746B74208D9A41BA5
:105AF00024052143ADE70042EAD13642E8D1A8E7C8
:105B0000E40AE1070020A4E7202E0BDD203E1F0061
:105B1000F340F7415F40012A002257417E429841FD
