:1000000020130010915800003F3300003F3F0000D4
:10001000000000000000000000000000D121FFEF00
:10002000000000000000000000000000AF430000DE
:100030000000000000000000A345000027010000B0
:10004000BF580000BF58000000000000BF5800006B
:10005000BF580000BF58000000000000BF5800005B
:10006000BF580000BF580000BF580000BF58000034
:10007000BF580000BF580000BF580000BF58000024
:10008000BF580000BF580000BF580000BF58000014
:10009000BF580000BF580000BF580000000000001B
:1000A000016C0000716E00004B6F00003F7000009B
:1000B0008F700000B1700000BF580000BF580000F2
:1000C00000220260426013000372C1600261704747
:1000D000F8B50400324D6E68370002F049FB002C81
:1000E0000DD0606800280AD0206029684018206080
:1000F00001202072200000F03BF8002802D002F01E
:100100003DFBF1BD6868002803D16C6002F036FB4E
:10011000F1BD366901E037003669002EFBD13C6144
:1001200002F02CFBF1BD38B51D4C656802F020FBD8
:100130002068401C20600DE0287A002809D028683B
:100140002168884205D100202872E868010000D0AB
:1001500080472D69002DEFD102F010FB31BD10B5A5
:10016000040002F005FB0020207202F007FB10BD26
:100170000B49496800E00969002903D08142FAD19E
:10018000012070470020704738B505000C00FFF7CC
:10019000E6FF2C606C6031BD0148006870470000CC
:1001A0000C0F00109D2102000AD002D4491E9218A3
:1001B000FCD5C905100A1206524100D3012A484154
:1001C000704730B4012464054D00EC420BD85D004B
:1001D000EC4208D80C001C4364000443144304D2CE
:1001E0008B4200D1824230BC7047FCD09942FAD198
:1001F0009042F8E789004018016818239943D2001B
:100200000A4302607047E60001010181008100A2FB
:1002100000004981008100C700000181008100D7F2
:1002200000040210000001E9000F2B7E151628AE15
:10023000D2A6ABF7158809CF4F3C9B000001C60042
:080240000001F1000001FD00C6
:0402FC00FFFFFFFF02
:10030000FEB5FFF749FF0600454C607B022803D08D
:100310004448C06A804701E000F062FD424D687DBC
:1003200000282ED09E2040002718A16E3800FFF72D
:100330002BFF3800FFF7CCFE607B022809D0A820F5
:1003400040002718E16E3800FFF71EFF3800FFF766
:10035000BFFE607B022802D0A07C002823D01220A0
:1003600069460870207B01F0B3FFB221490067188D
:10037000E16E09183800FFF707FF3800FFF7A8FE05
:1003800011E0002029494870042060702020205C82
:10039000002802D10120202160542020205C10215F
:1003A0000143202021542020205C000705D520781F
:1003B000411E8941C90F297601E000202876207E60
:1003C000607601A90870207C48700296207B01F0BD
:1003D0008AFF2665A07C002805D1002013494870BB
:1003E000E07D401CE075F7BD10B50D4CE06D40217F
:1003F0000143E165A07C002801D000F01CFD202015
:10040000205C1221014320202154F43024180121C2
:100410002000FFF7B9FE2000FFF75AFE10BD0000D4
:1004200000000010B057000054040010E00E00104F
:10043000FBB592B000273800694608730997049706
:100440003D00D74E300074300C9030008430019065
:100450000F9038004873C873D2490871D24CE281BA
:1004600014A800782074F07F607438006080607198
:10047000A760A081A07467612070CC48C06A8047E3
:10048000A82040003018FFF76AFE129800786946ED
:10049000087068460078400908756846007D0128A4
:1004A00009D0032800D18AE0052800D187E0072879
:1004B00000D14CE262E2307C002800D09AE0BC4DD2
:1004C0002B005B1C726B13A80088411E89B2129826
:1004D000401C02F0A3F868460078287009AB726BE4
:1004E00013A80088011F89B2280002F070F813A831
:1004F00000882818001F0178427812020A43817888
:1005000009041143C078000608430999884253D171
:100510000198009033007433B28C2900491C706B31
:1005200002F09EF82879697909020143A87900044C
:100530000843B063E879297A09020143687A000424
:100540000843A97A09060143F163E87A994C21002E
:1005500010310091010009094907490F009A5174AF
:100560000F210A00024000980276287B0140009883
:10057000016000980068002802D1012000990860FD
:10058000FA208000009909684143009A1160081818
:10059000009948600D35109513A80088113810A9EE
:1005A0000871307B01F0BAFE77700120307400983A
:1005B000293000786070E5E107207070E2E17E4844
:1005C000407F07A98870207948700920694608771C
:1005D000F07B002801D00A20087707A9307B01F0C2
:1005E00077FE13A909880D3909B2002900D5390011
:1005F000884204D201206070FFF7F6FED1E1129824
:1006000041788078000208431299C97809040143AF
:1006100012980079000608430890F16B88421BD0BD
:10062000356C00E0AD6A002D0DD029688842F9D103
:100630000120694648732800001D0C9028001430E2
:100640000F90686A04906846407B002806D10B2012
:100650006070FFF7C9FEA4E1B06C04901298407975
:100660000BA908700F210BA8007801406846817320
:1006700008460830C0B20690129813A9098840189D
:10068000001F0278417809021143827812040A435C
:10069000C078000610430E90129880791299C9799B
:1006A000090201430498081A80B20A9013A800882E
:1006B000001F6946C8820A9880210902884204986E
:1006C0000A9916DA4018049009A80290049801903B
:1006D00001200090089B0C9A6846C18A129801F08C
:1006E000C7FE0E98099988421FD101206946C87338
:1006F0001BE009B240188021490240180D9009A85A
:1007000002900D98019001200090089B0C9A684679
:10071000C18A129801F0ACFE0E980999884204D162
:1007200001206946C8730D98049011206946087726
:1007300007A9307B01F0CCFD0A99814206D30A203B
:10074000607004986061FFF74FFE2AE16846C07B45
:10075000002800D1F6E0380060706846407BA07049
:100760000BA800780100C906C90F6171A7603800A5
:1007700020730498606138000A494870F764B075C6
:100780006846407B012819D102202070686A0499CC
:10079000884201D1002837D10846686220E000BFB6
:1007A00000000010E00E0010C80E0010B05700004E
:1007B000E40B0010580E0010680E00106846007D13
:1007C000052818D10120F0742070B06C049988427B
:1007D00004D1002802D00120694608730498B0644F
:1007E000AD480078012816D10BA80078800614D5F2
:1007F0003800707511E03800F0742070B06C049906
:100800008842EBD10028E9D008206070049860612C
:10081000FFF7EAFDC5E03800707513A80088001FD7
:100820000699401A012857DB1298405C491CC9B24E
:10083000069113A90988091F069A891A6A465173F5
:10084000E07000286846807B1FD1002819D1934DA5
:1008500002950498019001200090089B0C9A68462C
:10086000417B8C46129906980818614601F0A4FE57
:1008700014A803786846427B3946280000F0B2FB92
:1008800036E001206946087332E0002808D014A839
:1008900003780698421ED2B20821129800F0A2FBFB
:1008A0007E4D02950498019001200090089B0F9ABC
:1008B0006846417B8C46129906980818614601F0FB
:1008C0007BFE6846007B002812D1A5606846407B0D
:1008D0002073012060730BE06846807B002807D0FE
:1008E00014A803780A46D2B20821129800F07AFBC5
:1008F0006846007B002818D10BA80078800609D52F
:10090000012065490871A074B22040003018FFF73B
:1009100026FC0AE060480771B07EF17E884204D26E
:10092000B22040003018FFF71AFC2020305CFB2179
:1009300001406846007B80000843022101432020DB
:1009400031541FE00C206070FFF74EFD29E0534D3D
:1009500013A802881299491C280001F0E8FE032020
:1009600020706770A56013A80088401E20732020A7
:10097000305C022101432020315403E001206070EB
:10098000FFF732FD2020305C10210143202031543C
:10099000F430341801212000FFF7F6FB2000FFF7A8
:1009A00097FB15B0F0BD10B53D4C607B022803D01D
:1009B0003C48C06A804701E000F012FA02200100C2
:1009C000354A517060702020205C10210143203492
:1009D000217010BD10B5324C607B022803D0314825
:1009E000C06A804701E000F0FBF9A07CE17F0029AC
:1009F00012D10521002801D0274841706170206D77
:100A00000020C046E16E884212D32020205C1021D5
:100A100001432034217010BD0621002801D01E485A
:100A2000417061702020205C10210143203421702E
:100A300010BD10B51A4C607B022803D01948C06A5B
:100A4000804701E000F0CCF9A07CE17F002912D1C1
:100A50000321002801D0104841706170206D0020F2
:100A6000C046E16E884215D32020205C102101434E
:100A70002034217010BD0421002801D006484170A7
:100A80006170607B022805D02020205C102101438A
:100A90002034217010BD0000E00E0010E40B0010A7
:100AA00000000010B0570000F0B585B00024200011
:100AB00069460872B44D8A20400028180090FFF75C
:100AC0004EFB2020285C0127010009093A00114251
:100AD00000D1D7E0E96D4A0602D541229143E9658C
:100AE00009210140BD4E13D07278022A02D06A78E3
:100AF000022A0DD1EA6D3B469A43EA6522006A75E7
:100B0000EA7E727122003271B4603A006B461A724A
:100B1000AA7C6B461B7A13431FD100291DD001000C
:100B2000C9083A00114263D02978002960D1697F51
:100B3000A9726A78002A07D16C642000E875E86D14
:100B400039468843E86508E0AA7F91426AD2EF21DE
:100B500001402020295400F0E8F82020285C4008BB
:100B60003900084215D03079002803D1A87EE97EEB
:100B700088420ED220002877A874307D002802D148
:100B8000686C401C6864E87E7071E86D3946884383
:100B9000E865287F002875D05C20285CC00671D4E9
:100BA00020002877E87EA97E884257D2092855DAA6
:100BB000401CE876C00710D503A820210170C04969
:100BC0002C228A5C8270491C01910978417003A92A
:100BD000287B01F07DFB0199087000F0A3FB002841
:100BE00025D12020285CEF2101402020295449E014
:100BF0000200520839001140EA7DB24BDB7F9A4275
:100C000001D20029A3D0002904D120006875E86C26
:100C1000401CE8642000E875307D002802D1686C33
:100C2000401C6864E86D39468843E86595E709200B
:100C3000707020006875E86D39468843E8652000CB
:100C4000A8743471E87E70719D484078B070307D32
:100C5000002817D1686C401C686413E03946287B73
:100C600001F049FBE86D39468843E8652000687566
:100C7000A8743471E87E7071307D002802D1686CF0
:100C8000401C6864E86D810702D502218843E8654D
:100C9000E86D002825D12020285C3900084209D0C1
:100CA0004E48296E096888472020285CFE210140B3
:100CB000202029542020285CC0083900084209D08F
:100CC0002800296E896888472020285CF721014088
:100CD000202029542020285CEF2101402020295485
:100CE00007E0FA2189000098FFF74EFA0098FFF715
:100CF000EFF92020285C40083900084213D0687BB7
:100D0000022801D100F06CF82020285C80083842CD
:100D100003D19448296E496888472020285CF9212E
:100D200001402035297005B0F0BD1FB5164C942048
:100D300040002018FFF713FAE06D10218843E065AA
:100D40002020205C00071CD52078002819D100F055
:100D500091FB607F401C6946888001A9207B01F0DF
:100D600051FB57494870002069460873607CC001F8
:100D70000872002000900346024602A903A800F072
:100D8000C3FB00F0CFFA1FBD0000001070B5764D18
:100D90009E2040002818FFF7E2F90020E877734C06
:100DA000297E217046490E000C36727DE2702D318D
:100DB00009782174E97B61746082687B022802D122
:100DC0006B48006B80476B4A2100287B01F0CFFA0B
:100DD0003168A07C00F049F870BD0000E00E001002
:100DE00070B5614DA82040002818FFF7B8F9624C93
:100DF000287E2070324806000C36B16961602D30C3
:100E000000782074E87B60740120E074697B02291B
:100E100002D00020A07400E0A074564A2100287B74
:100E200001F0A5FA002805D03168A07C00F01DF87B
:100E3000E07CE87770BD10B54B4CB2204000201824
:100E4000FFF78DF9A07C002805D001202077E06D08
:100E500004218843E065607B022805D12020205CC6
:100E6000102101432034217010BD80B5404A526BDF
:100E7000002802D10800904701BD0020904701BD25
:100E800038B50400150068463C4A127882704170FB
:100E900009210170344AD17B002901D00A21017057
:100EA0006946107B01F014FA611980B289B2884258
:100EB00003D3FF2901DC012032BD002032BD000038
:100EC000580E0010590E0010F4B401242200264DD3
:100ED0008023AE7D9F1BFFB203009B1E082B3FD8D3
:100EE00001A6F65CB74400BF4A404A400A404A4A5D
:100EF0005E006B7D1E00BF1EBE420FDA204A062038
:100F000090555B1C6B75DBB2D1545B1C6B756846EE
:100F10000078DBB2D0545B1C6B750022002A00D134
:100F20002C751000F2BC70476B7D7F1EBB42F5DA5A
:100F30000CE06B7D1E00BE42F0DA114988555B1C47
:100F40006B750022EAE76B7DBB42E7DA0C4AD054AE
:100F50005B1C6B75DBB2D1545B1C6B750022DDE74B
:100F60000220DFE7C80E001000000010540400103B
:100F7000B0570000CC0E0010F80E0010840E0010C8
:100F8000D80D001070B4030000242000002B26D0E0
:100F9000002A02D123E0641C641CE4B28C421DD2FE
:100FA0001D5D2E00032EF6D0052E07D0062E13D081
:100FB000072EF0D0082E0BD00A2EEDD1C0B215545A
:100FC000641C401CE4B21D5DC0B21554401CE3E734
:100FD000C0B21554401CDFE7A41CDDE7C0B270BCF2
:100FE00070470000FDB586B00C000CE0CB48002136
:100FF00041700699E4B2095D0172641C0699E4B27D
:10100000095D4172641C6846007FE4B2844200D3EB
:1010100064E12000641C0699085C801E082800D941
:101020005CE102A14000095E8F4400BFC0FF1200D6
:10103000AA00CC0046016601CE01FA016002002739
:101040003800694688600698E4B20019401E039093
:1010500003A96846007F001B401C0871AF48427C12
:101060008A71AF4D2C22AA5C4A716A78CA712A78BB
:101070000A722022AA5C4A7202A90191491C0091BD
:1010800002AB9B1C02AAD21C03A9007B01F086F9CB
:1010900006007007400F072810D16846C07A6870B4
:1010A0006846807A28706846407A2035287005E0C6
:1010B000002231000320FFF707FF7F1C6846007AFB
:1010C000052101F085FBFFB28742F1DB6846007A1B
:1010D000401E241897E70698E4B200190078D54915
:1010E0008875641C012181408C48018500221146CD
:1010F0000420FFF7E9FE86E70698E4B20019072509
:101100006F46017809092A000A407A7000780007C2
:10111000000F3870641C0698E4B2015D0191641CF4
:101120000698E4B2005D000208430190641C069931
:10113000E4B2095D090401430191641C6420414348
:10114000019169467548007B01F038F90600354089
:10115000072D08D1724D38782821685401986862AB
:10116000787821352870002231000520FFF7ACFE89
:1011700049E7FF216948406E002804D0006802005A
:1011800001D08047010008A802780620FFF79CFEE6
:1011900039E70698E4B2005D03A90871641C68464B
:1011A00003900698E4B2005D0090641C0699E4B2D6
:1011B000095D090201430091641C08460699E4B2E6
:1011C000095D090401430091641C084664214843F9
:1011D0000090002001900698E4B2005D6946087214
:1011E000641C03A94D48007B01F0F1F806000022C1
:1011F00031000720FFF768FE05E70698E4B2005DBE
:101200000007000F641C002800D10120FA2189008A
:10121000434D484328614018686100221146082068
:10122000FFF752FEEFE60698E4B2005D641C00276B
:101230006E46390031800100890601D501217170A7
:101240000100C90601D5012131700007000FB070FF
:1012500069463248007B01F0C3F80021C943884247
:1012600000D1D0E62E4D30782C21685470782D2195
:10127000685400BF1AA0B178405CFEF793FF286362
:101280003A4611460920FFF71FFEBCE60698E4B275
:10129000005D69460870641C0698E4B2005D019028
:1012A000641C0699E4B2095D090201430191641CC2
:1012B0000698E4B2005D000408430190641C6421B8
:1012C0004843019069461548007B01F092F80600FA
:1012D000002231000A20FFF7F7FD94E609B0F0BDC7
:1012E000080A0C0D0E10121415181A1B1D1E2124AD
:1012F0007CB50A4C657CED016E4635710093130098
:101300000A0001A900F000F9002806D17A4800215E
:101310008180616CC16000F005F876BD00000010AE
:10132000580E0010F0B587B000200290414EB17DFC
:10133000FF2901D109207AE0704C002900D16065B5
:10134000607E00F079F8606D03906D4D03AF6878B2
:101350003872F07DB872207C7872206D049004E0C1
:101360000198112140566870387228002830019089
:1013700020005430009002AB2200183203A9207BD9
:1013800001F051F80028EBD02F003F1D7B7F5BB2AE
:1013900001202A5601984179207B01F059F80096E6
:1013A0003B683A79010049B2207B00F0D5FF5548EF
:1013B00000903B683A790198017849B2207B00F0AF
:1013C000CBFF207C002809D17869F1684018A0661D
:1013D000B8694C49C9684018E06612E0627D012096
:1013E0002956307DFFF74CFD002801D108201EE072
:1013F000F868F1684018A06638694249C968401821
:10140000E0660298002803D1207E00F0D1F90EE0BA
:10141000E06D10210143E1659420400024180299F9
:101420002000FEF7B1FE2000FEF752FE002007B0BC
:10143000F0BD00005404001070B584B02F4C6D4610
:10144000217C2970D94EF17DA970E870A06D002033
:10145000C0460190206F0290307E68706946207B04
:1014600000F0D9FF206F616D228D42438918081A60
:1014700060657FBD30B40023204C18002074636485
:10148000A364E364E07501200100A176E176190010
:101490002177C6491A008A75020022851A006275F2
:1014A000A2754875164D3820285C28703920285CB4
:1014B00068705920285C21216854E86D296E2A0043
:1014C000243203C26420285C2C2168546520285CE7
:1014D0002D216854A86E2863E86E68631800608246
:1014E0002075206C01E04362806A0028FBD118005F
:1014F000208330BC70470000E00E00100000001098
:10150000580E0010F80E0010F2B588B000210391BB
:10151000049369460A71C84C0021E184A1740E99B4
:10152000002B00D10021A14F3975C44D01782970DD
:101530000078400907D002284AD0042846D007285E
:1015400000D120E12FE10120E0840822216B280056
:10155000401C01F0F7F8E08C0830E0840822E16AD2
:1015600080B2281801F0EEF8E08C0830E084C7481B
:1015700040698047A084E08CA18C0A002A54401C5A
:10158000E084090A80B22954401CE08403AB626BFA
:10159000C1B2280001F01BF8E08C03992954401CCB
:1015A000E0840399090A80B22954401CE08403991D
:1015B000090C80B22954401CE0840399090E80B2C2
:1015C0002954401CE084002009B0F0BD0120A07423
:1015D000207C002801D10720F6E705A80121017031
:1015E00008990978C9094A1E9241D243D20F427024
:1015F000E16C0691B44A51780172117841722C2144
:10160000515C817220004C3000901300521C05A9DF
:10161000207B00F094FE08990978BF220A408001DF
:10162000104308990870E17C002905D00021E1747D
:101630002021014308980170E06B01006970090ADC
:10164000A9700100090CE970000E28710898007853
:101650006871606C0100A971000AE8710826200019
:1016600094300090A27D01469848637DC01801F037
:101670005EF8607DA17D41186175049800281FD037
:10168000387D00281CD0207D002825D0C9B2102923
:101690001CDA08980278F020104052181207120F36
:1016A0000243089802706A7100200A0080B29042DA
:1016B00012D2864A125CF6B2AA55761C401CF4E798
:1016C000C9B2002908D0207D002805D039757F488F
:1016D000049000206A46107100202075009AC9B25B
:1016E0007A48FFF74FFCA075002801D00120207533
:1016F0000498002826D0387D002823D06846007939
:10170000F6B2A855761CF6B2A819E36B616C6A466E
:101710001279002A0CD100226275029001911046C4
:10172000009022007432397D049800F0E6FE09E052
:10173000029001910020009022008432397D0498AB
:1017400000F0DBFEF6B2387D3118E18403A8029088
:10175000606C019000200090E36B2200743289B22B
:10176000280000F085FEE08C2918039A0A70039A7D
:10177000120A4A70039A120C8A70039A120ECA70E7
:10178000001DE0841FE7002B00D11CE73A7D002AF2
:1017900000D118E719006D1C280000F0C8FF387D43
:1017A000401CE0840FE702200EE700005404001004
:1017B00070B586B000216A46117001A90870424ECA
:1017C0007078487030788870306B0290706B03903E
:1017D000194CE08C888123007033207B00F0D2FD0F
:1017E000012528006070BC48290041707178817023
:1017F00069460978C170216F816061608A2040006C
:101800002618FA2189003000FEF7BEFC3000FEF7F2
:101810005FFC207C002802D1607F401C6077E18C57
:10182000C9B20648DF4A926A9047E06D0543E56514
:10183000002006B070BD000000000010E40A001097
:1018400030B585B0A54C6946227E0A70D64A5378D9
:101850004B7013788B70136B0193526B02928881DB
:10186000207B00F0EDFD8A2040002518FA21890038
:101870002800FEF789FC2800FEF72AFCE06D012114
:101880000143E165002005B030BD0000B057000005
:1018900038B50300080011001A0049B2C14BDB6BD8
:1018A00098478E4C8A2040002518FA21890028008C
:1018B000FEF76AFC2800FEF70BFCE06D01210143F6
:1018C000E165002032BD0000580E0010D80D001058
:1018D000F0B583B005000F001600002D08D0286871
:1018E000002805D06868002802D0A868002801D127
:1018F0000320FEBD300000F0E5FC002801D10A20E5
:10190000FEBD764C25666766267300200100202206
:10191000A1546173E06561770121A1770100E17352
:10192000206560650B2069460870207B00F0D0FCC4
:10193000401E8041C043C00F9C4FF8750820694687
:101940000870207B00F0C4FC974D2E0038363070B4
:10195000052069460870207B00F0BAFC70700C20EE
:1019600069460870207B00F0B3FCF0600D206946EA
:101970000870207B00F0ACFC30610E2069460870D6
:10198000207B00F0A5FC70610F2069460870207B69
:1019900000F09EFCB061102069460870207B00F0CA
:1019A00097FCF061132069460870207B00F090FCE2
:1019B0002900583101914870142069460870207B35
:1019C00000F086FC01994860152069460870207B6C
:1019D00000F07EFC019908721A2069460870207B8D
:1019E00000F076FC019908731B2069460870207B83
:1019F00000F06EFC019948731C2069460870207B3A
:101A000000F066FC019908611D2069460870207B82
:101A100000F05EFC019948610021207B00F06BFC26
:101A20000120019908700A207060062131722D1D75
:101A3000286008462871F068A8603069E86070691D
:101A40002861B0696861F069A86101980078287719
:101A5000FFF710FD8A2040002518AA492800FEF74C
:101A60002FFBFA2189002800FEF78EFBA64994205F
:101A700040002018FEF724FBA4499E2040002018B7
:101A8000FEF71EFBA249A82040002018FEF718FB15
:101A9000A049B22040002018FEF712FBFEF77CFBA5
:101AA000A0659D48F8619D4878629D48F8629D4810
:101AB00038629D48B8623B4D1C373800296888471A
:101AC0006869804700F025FE0120A073A96D884752
:101AD000E86A80470020FEBDE00E00100000001004
:101AE000F1B586B00F00304D3920285C6946487149
:101AF0003820285C88718D4C6846617DA27D8918EC
:101B00000171002F01D103204AE0002603A8310013
:101B10000170617C4170E16C0491697801722978EF
:101B200041722C21695C817220004C30009001AB25
:101B30009B1C01AA521C03A9207B00F000FC02A8F8
:101B40002C352978817069464979417009210170E5
:101B5000E17B002901D00A21017002A9207B00F05D
:101B6000B7FB7870787869460979884204D369466A
:101B70000979401A387005E03870300069460871FC
:101B80006075A6756846027969460520095668465B
:101B9000007EFFF775F9002801D1082000E03046EB
:101BA00007B0F0BDB0570000580E001054040010EC
:101BB00038B505000024002D01D1032032BD28785E
:101BC0001D2800D99BE002A1095C49008F4400BF99
:101BD0000F13171B1F2326292D313A3F4E45575B04
:101BE0005F63676B6F737B777F83878B8F934F48C0
:101BF000407B287184E04D48007C287180E04B4890
:101C0000407C28717CE04948806B686078E04748F8
:101C1000C06B686074E04648686071E04548686081
:101C20006EE04248807B28716AE04048C07B2871A2
:101C300066E01920694608703C48007B00F048FBCC
:101C400068605DE03C4803C82D1D03C558E03B4A71
:101C5000D06D116E2D1D03C552E017206946087026
:101C60003248007B00F034FB686049E0162069468A
:101C700008702E48007B00F02BFB686040E0304885
:101C8000007828713CE02D48C068686038E02B4837
:101C90000069686034E029484069686030E027489E
:101CA000806968602CE02548C069686028E02548A4
:101CB0000078287124E021484078287120E02248EB
:101CC000007828711CE01D480078287118E017483A
:101CD000406C686014E01548806C686010E0134840
:101CE000006C68600CE015484068686008E01348C4
:101CF000007A287104E01148406B686000E002241B
:101D0000200032BDA90A00002B0D00008D0D00003F
:101D1000E10D0000370E0000010300003104000057
:101D2000D5090000A7090000330A000000000010D8
:101D300074000010840000107C0E0010580E00107B
:101D4000780E0010910E0010900E0010F0B585B0C6
:101D5000040000200600002C01D103204BE1A74D18
:101D60005C21695CC90701D5012044E121781D2966
:101D700000D93EE101A24900525A97443A00580066
:101D80005E0064006A00700086009C00A800740277
:101D9000AE00360178015E018E01A201AA01B201F6
:101DA000BA01C201CA01EA012A020A024A02500229
:101DB0007402560260026C0221796973002902D014
:101DC000022904D016E18E48C06A804712E1A87447
:101DD000FFF706F80EE1207928740BE1207968748A
:101DE00008E16068A86305E16068E86302E1616892
:101DF000002905D010227435280000F098FCF9E085
:101E00000326F7E06168002905D0102284352800F8
:101E100000F08DFCEEE00326ECE02079A873784911
:101E2000896D8847E6E02079E873E3E001AF207A26
:101E30003870744800787870062201A9287B00F079
:101E400062FA002834D0241D03CC6F4A03C2687B99
:101E5000022800D0CEE0287C002800D1CAE06B4CDC
:101E600000946B484368027A6A48017849B2287B3B
:101E700000F072FA287E20706548406A6060614810
:101E800000782074E87B60740120E074A074624ADA
:101E90002100287B00F06BFA002807D05C48C1685D
:101EA000A07CFEF7E2FFE07CE877A3E00326A1E058
:101EB00003269FE001AF207A38705248007878708E
:101EC000062201A9287B00F01EFA002804D0241D58
:101ED00003CC524A03C28DE003268BE06068029077
:101EE000012002A90871287B00F020FA002800D008
:101EF00080E003267EE06168029102A90871287BD8
:101F000000F014FA002875D1032673E02079002828
:101F100004D0102802DA424908706BE0032669E019
:101F200060683B49C86065E060683949086161E004
:101F30006068374948615DE060683549886159E00B
:101F400060683349C86155E001AF207938700522D7
:101F500001A9287B00F0D7F9002803D038787F4901
:101F6000087047E0032645E001AF2079387004226D
:101F700001A9287B00F0C7F9002803D0387824494C
:101F8000487037E0032635E001AF20793870082229
:101F900001A9287B00F0B7F9002803D038787049F0
:101FA000087027E0032625E001AF2079387007226A
:101FB00001A9287B00F0A7F9002803D0387814493C
:101FC000087017E0032615E06068686412E0606836
:101FD000A8640FE060680E49C86348600AE0207991
:101FE000604908700A49087204E06068084948635B
:101FF00000E00226300005B0F0BD00000000001037
:10200000B0570000850E00107C0E0010F80E001076
:10201000580E0010800E0010CC0E0010B40E0010F0
:10202000780E0010F0B585B004000225002C25D0F4
:1020300001274D4EF06D384012D10C2200213000A6
:1020400000F08DFB77702078002805D002285FD043
:102050004FD3032868D074E05C20305CC00601D503
:10206000384679E06068002808D0A068002805D0CC
:10207000E068002802D0207C002801D103206BE01A
:10208000694608711E2201A9307B00F03CF9002846
:1020900006D11F2069460870307B00F019F92074C2
:1020A0002020305C082101432020315420783070FA
:1020B0006068F062A0683063E0687063207CB0778D
:1020C00000200100717769460873FFF7D3F9707F2C
:1020D000401C6946088102A9307B00F093F97649DB
:1020E000487000231A46114603A8FFF701F90500BE
:1020F00027E02020305C0821014320203154207843
:102100003070002211462846FEF7DEFE050018E07A
:1021100030702020305C0821014320203154A088F9
:10212000FFF78EFB05000CE030702020305C0821AA
:10213000014320203154227BA168A088FFF7A8FB2F
:102140000500002D07D00020B0742020305CF7215E
:10215000014020363170280005B0F0BD910E00100E
:10216000900E0010980E001000000010F0B585B021
:102170000700022069464870002008700446002FBE
:1021800000D18EE04B4D5C20285C1121014001D034
:1021900001208CE020466946087114220146474818
:1021A00000F0DDFA012045494870E87638780028CB
:1021B00004D0012817D003282AD039E00124204672
:1021C000A87668460079C006C00E402101436846E3
:1021D0000171387969460870B8680290B8894880FA
:1021E0000E203E5624E00124F87BA876684600794C
:1021F000C006C00E802101436846017138796946E6
:102200000870B8680290B88948800E203E560FE0EA
:1022100001242046A87668460079E02101436846FB
:102220000171786802903889694648800A203E56D4
:1022300004A80121017022490978817004A9287B32
:1022400000F046F876B2B04200D30600002C2CD045
:10225000687C00280ED103AC267019480078A07065
:10226000042203A9287B00F04EF8002819D020781A
:102270001149487068464388029A017801A8FFF71F
:1022800037F8694648706846407800280BD138789E
:102290000A4908702020285C01210143203529705B
:1022A00003E0032003E00020A8746846407805B0EE
:1022B000F0BD000000000010580E0010E00E0010ED
:1022C000840E0010022801D10120704700207047C1
:1022D00080B5C0B2022803D1080000F055FB02BD52
:1022E00062A0006802BD022800D0704780B50800D7
:1022F00000F0A4FB01BD022800D0704780B50800A3
:1023000000F0ADFB01BD80B50B001100022803D128
:10231000180000F0D3FB02BD002002BD022800D04F
:10232000704780B50800C046C04601BD80B5022890
:1023300003D1080000F0FCFB02BD002002BD10B577
:102340000400080011001A00022C03D1029B00F0C7
:102350000BFC10BD002010BD10B5040008001100DA
:102360001A00022C02D1029B00F048FC10BD80B57F
:102370000B001100022803D1180000F06FFC02BD11
:10238000002002BD10B50400080011001A00022C44
:1023900002D100F0C1FC10BD002010BD10B582B00C
:1023A0000400080011001A00022C05D1059B0093BF
:1023B000049B00F007FD16BD002016BD80B5022865
:1023C00003D1080000F088FD02BD002002BD80B5E9
:1023D000022803D108000020C04602BD002002BD33
:1023E00080B5022803D108000020C04302BD0020B0
:1023F00002BD80B5022803D108000020C04602BDFE
:10240000002002BD80B5022803D1080000F094FD31
:1024100002BD002002BD022800D0704780B5080030
:1024200000F0ABFD01BD10B50400080011001A005A
:10243000022C03D1029B00F0BFFD10BD002010BD97
:10244000022800D0704780B5080000F017FE01BDDB
:1024500010B50400080011001A00022C02D100F08F
:1024600041FE10BD0800C0B210BD00000000000019
:10247000F8B506000D0017009D4C06986071180015
:10248000A071000AE0711800000C20721800000E04
:10249000607207980100A172090AE1720100090C3B
:1024A0002173000E60732800E0732000203000F0DC
:1024B00021FE39002000203000F02DFE10222100E6
:1024C0002000203000F02FFEEAB231002000203042
:1024D00000F029FE210020312000103000F088FE9D
:1024E000E07C0006A17C09040143607C00020843F3
:1024F000217C014308980160F1BDFDB50F00002665
:1025000001257C4CF02231462000203000F027F9D4
:10251000220020321021019801F0C8F9089860715A
:102520000298A0710298000AE0710298000C2072D3
:102530000298000E607209980100A172090AE17206
:102540000100090C2173000E60730DE07018009AF1
:10255000135C6218127C5A400A9B1A54491C1029B9
:10256000F4DB103F1036F6B2BFB2102F0BDB2800A1
:10257000E0736D1C2200203221001031200001F098
:1025800016FA0021EBE7002F15D0E5732200203268
:1025900021001031200001F00AFA002109E0701832
:1025A000009A125C63181B7C53400A9A1354491C0E
:1025B00089B2B942F3DBF7BD10B584B0089C029430
:1025C000079C0194069C0094FFF797FF1FBDF8B588
:1025D00006000D001700464C2000203000F08AFD58
:1025E00039002000203000F096FDEAB231002000D2
:1025F000203000F098FD210020312000103000F044
:10260000F7FDE07C0006A17C09040143607C000228
:102610000843217C014300980160F1BDF4B5050039
:102620000E001F00334CF02200212000203000F06B
:1026300096F8220020321021009801F037F922008C
:1026400020323900280001F0B2F9102E07DB2034C7
:102650002200103739001035280001F0A8F9F1BD2B
:10266000F4B584B004000E001F00224DF0220021BA
:102670002800203000F073F82A00203210212000BA
:1026800001F014F910220021684600F068F86C4649
:1026900001202070062231002000401C00F047F885
:1026A000022204A92000C01D00F041F82A002032B7
:1026B0003900684601F07BF910220021684600F0DD
:1026C0004EF802202070062231002000401C00F04D
:1026D0002EF8022204A9E41D200000F028F820357D
:1026E0002A000A99684601F062F905B0F0BD0000C1
:1026F00078010010B002001000B525490868254A8D
:102700005043254A80180860244900F064F8080006
:1027100000BD1F490860704738B504000D00FFF781
:10272000EBFF291B491C00F053F8081932BD03E0E8
:102730000B780370491C401C13005A1E9BB2002BDF
:10274000F6D170478018401E03E00B780370491CD7
:10275000401E13005A1E9BB2002BF6D1704701E0B9
:102760000170401C13005A1E9BB2002BF8D1704719
:1027700072B60B480178491C01707047084801780F
:10278000491E0170C9B2002900D162B6704700002D
:10279000B40400106D4EC64139300000FFFFFF7FCA
:1027A0001D0F0010F446002804D4494200F013F82D
:1027B000404260474042002905D45FD000F00BF84A
:1027C000404249426047494200F005F849426047AB
:1027D00003460B43E6D40022030A8B420BD20309C3
:1027E0008B4219D243088B422ED2411A00D20146A5
:1027F000524110467047FF2209023FD012068B4219
:1028000005D3121209028B4201D3121209020309E5
:102810008B4219D300E0090AC3098B4201D3CB01D3
:10282000C01A524183098B4201D38B01C01A524115
:1028300043098B4201D34B01C01A524103098B4219
:1028400001D30B01C01A5241C3088B4201D3CB0004
:10285000C01A524183088B4201D38B00C01A5241E7
:1028600043088B4201D34B00C01A5241884200D327
:10287000401A5241CFD201461046704708B5C046B3
:10288000C04608BD30B4012100220368001D002BA2
:102890000BD00468001D0C4202D04D466D1E641919
:1028A0002260241D1B1FF0D0FAE730BC70470000E7
:1028B00002000800824201D1C0B201E0501EC0B245
:1028C00040B27047A64980000858A649884204D003
:1028D0004900884203D00020704701207047022041
:1028E00070470200914200DB08007047FFB583B0DB
:1028F0000026354628460090019007E000981030E9
:10290000C0B200900198401CC0B2019000986028AD
:1029100033DA002407E00098210040180C99F6B241
:102920008855761C641C102CE8DA0498019949003B
:10293000405A0121A1400842F4D005980099091994
:102940004A0051188900471838680028EAD0082042
:1029500039560A001211090709176846007B40B270
:1029600001F02BF90028DDD00698797A090140188A
:10297000C0680028CFD06D1CD4E70D9805703000DA
:10298000C0B207B0F0BD000080B500BF2AA1096841
:102990000278202A4DD801A39B5C9F44868694949C
:1029A00094869494862E388642464C52565A6086B7
:1029B0007286767A7E8286868A8E929220000021A6
:1029C00001228056FFF774FF010032E083490122A3
:1029D0008056095C2DE0824901228056095C28E07E
:1029E000804926E0FA21890023E0FA21C90020E08D
:1029F0007D491EE07D491CE08021C90119E0FA21D2
:102A000089007B48FFF788FEFA21C900411810E0D1
:102A100078490EE078490CE0B4490AE0602108E00A
:102A2000B34906E0002104E0B24902E0B24900E007
:102A30003021080002BD00000000000038B54268E7
:102A40006D49AB4B047865002C19A4001B195B7A07
:102A50001B01C9181831407801F0DFF831BD10B5FD
:102A6000002802D0012822D010BD00200100A34C74
:102A70000DE09F4A4B005B189B00D218A04B4B43C4
:102A80001B1913605023137203005372491C6029F1
:102A9000EFDB9C4958488181C1810182418281825A
:102AA000C182062201000C3101F0A6F810BD524887
:102AB000062201000C3101F09FF810BD80B5091FFE
:102AC000012909D9891E12D0491E01291AD9091FC5
:102AD00023D0133923D029E0052200210023C0563A
:102AE00001F06BF8401E8041C043C00F02BD0522BB
:102AF00000210023C05601F060F8401E8041C04311
:102B0000C00F02BD072200210023C05601F055F876
:102B1000401E8041C043C00F02BD002002BD0078AE
:102B2000302801DA002002BD012002BD002002BDD4
:102B300080B50179002902D0012907D00CE00622D6
:102B400001682D4801F058F8012002BD06220168F5
:102B5000664801F051F8F7E7002002BD00000000D0
:102B6000442C000090D00300F7B507000024250096
:102B70000820385609217E5679681960797800292D
:102B800026D0002801D11C6022E07968402901D3B9
:102B90000125260060291BD3C906C90E012917D1BA
:102BA000694620220A704870B87A88706846FFF734
:102BB000EBFE40B200280BD125003978002907D060
:102BC0000D49504A0A804A808A80CA800A814A8117
:102BD00001990870029806702800FEBD102D0000B3
:102BE000082D0000B80B00008813000070170000CB
:102BF00018FCFFFF20441E1E8C04001070B584B02A
:102C00000D0016001C00052800DB05206070012067
:102C10002056FFF757FEA0700120205609A1820020
:102C2000895800BF65A2105C01F0CEF822000C327A
:102C30000292083401940122009233002A0001F02C
:102C4000E1F87FBD48E8010048E8010048E80100DC
:102C500048E8010048E8010048E80100F2B58AB000
:102C60000400012026566768B24D68688047002836
:102C700001D0002038E0E07C002807D12078302106
:102C8000FFF7A6FD1E484143C8480F183800E96801
:102C90008847A07C099001200890002007900690AA
:102CA000059004900390A06880B2029008200190E3
:102CB00000200090012300BF40A0825D52B2A178A5
:102CC0001846AF69B847607C002802D00EA0815D2D
:102CD00002E000BF0EA0815D0D31C9B201206A6D16
:102CE00090470A98067001200BB0F0BD98040010C0
:102CF000B8040010333399419A9909406035081C93
:102D0000400D0300FFFF000033333373DEDE0000AD
:102D100033333373DEDE0000F6B58BB004000120E0
:102D2000225600BF25A0805C09A90870A04BA148CD
:102D300021784D00691889004018407A0001181860
:102D40001A21415602202056FFF7CBFD0600A2684B
:102D5000616801F0B3F80700764D964821784A0083
:102D6000511889004058E9688847C34808900020F6
:102D70000790069005900120049000200390082001
:102D800002900120019069462420085600900023FB
:102D90001A4639000120EF69B847A189C9B201205C
:102DA0006A6D9047A189C9B201206A6A90470C995F
:102DB00008600B98067001200DB0F0BD0C0B0A09DD
:102DC00008070000FEB58EB007000724002603A800
:102DD0000C2101F0D3F80622BA4903A800F00CFF39
:102DE00001AD07E0B84803A9088048808880C88002
:102DF00008814881387986422CDA01A9386880191F
:102E000000F06BFF002825D03618F6B20724E878CA
:102E10000628E7D0072801D10624EBE7002112E0BD
:102E200001228A4013420DD0624B9C460201521887
:102E300053009A18920063469A58002A02D1220041
:102E4000FE241440491CAB881029E9DB03A940008B
:102E50000B52CFE768460121017079798170FFF745
:102E600093FD06A90C70BA794A706A788A70AA78BC
:102E7000CA702A780A71FA794A713A7A8A717A7A2A
:102E8000CA7160220A7203AA099208740520487464
:102E900048480B90072008760020487601AB2A00AE
:102EA000921C2900491C06A800F03BFF0400072CD7
:102EB00004D1062203A9834800F09EFE68780E998B
:102EC0000870A8780F9908702878109908701698DB
:102ED0000670200011B0F0BD70B5050007246E68C3
:102EE00030001449096A8847002809D0774830180B
:102EF0007749884204D27749FFF76DFC002900D05A
:102F00000624052200210020285600F056FE002845
:102F100002D12000FD240440032200210120285674
:102F200000F04BFE002802D12000FB2404402000CA
:102F300070BD0000B057000070B500250488260061
:102F400030003021FFF744FC002914D0E00601D105
:102F5000012510E030001821FFF73AFC002901D1CB
:102F6000022508E0200701D1032504E0600701D114
:102F7000042500E00525280070BD00B585B00D4989
:102F8000009155490191694642780A7202784A7265
:102F900082788A72C278CA7241680391806804900C
:102FA000684600F0A0FF05B000BD0000E0F8D11DAC
:102FB0008C040010B8040010FEB59CB0070000257A
:102FC0002C0028006946087204A8602100F0D6FF92
:102FD0003C4E06222146300000F0F7FD002806D1C5
:102FE000394830807080B080F0803081708178689E
:102FF0000020C0463968884216D31E980560012318
:1030000032001832B97A787A00F00CFE039002A8E8
:10301000019004A8009033001833304A3100387A08
:10302000FFF764FC04000AE06846007A401C694629
:10303000087278680020C0463968081A0390002C8E
:103040000CD0641E21002846FFF766FB04A9085C2B
:103050001C9908701D98056001200BE06846007AF5
:10306000002804D003981D990860012002E01D98F3
:10307000056028461FB0F0BDB80B000038B504004D
:10308000164D104B01202256207841000818800070
:103090002818407A000118181A214156022020569B
:1030A000FFF71FFC21784A00511889006D58A2686B
:1030B000616800F003FF0100A2892800084BDB6B68
:1030C000984731BD8C040010FFFF000020072EE25E
:1030D000C16E8F00400D0300A4040010B80400105E
:1030E000B0570000881A010049B2002900D500201D
:1030F000C0B2704710B5040010220021F130FFF774
:103100002EFB00208A2149006050F0220146200059
:10311000FFF725FB10BD80B50B0002001021180041
:1031200000F0C4FB01BDF0B585B005000E00140031
:103130008A2040002858002849D010210F1AA742A1
:1031400000D927003A0092B231002818FF239B1CB7
:10315000C018FFF7ECFA8A2040002858C0198A21CD
:1031600049006850102841D3BC423FD0002006E0FF
:103170002918F1310A780B7C53400B70401C102841
:10318000F6DB2A002900F1312800F13000F00FFCB5
:10319000F619E41B1BE06818F1300278735C5340A9
:1031A0000370491C1029F6DB10222900F131684612
:1031B000FFF7BDFA2A006946684600F0F8FB1022C6
:1031C00069462800F130FFF7B2FA1036103C112C96
:1031D00001D30021E6E7220092B23100FF20801CDB
:1031E0002818FFF7A4FA8A2040002C5005B0F0BD43
:1031F000F1B588B00C00102200216846FFF7AFFA45
:1032000022006946684600F0D2FB802100206A4611
:1032100013780B4211D0030007E0D5182E78760002
:103220006F78FF0937432F705B1C0F2BF5DBD37BC7
:103230005B0087255D40D5730EE0030007E0D518DD
:103240002E7876006F78FF0937432F705B1C0F2BA9
:10325000F5DBD37B5B00D3738A235B00E358102B31
:103260000CD10100102956DA6318FF25AD1C5B193B
:103270001D78565C6E401E70491CF3E713780B42B4
:1032800011D0030007E0D5182E7876006F78FF097B
:1032900037432F705B1C0F2BF5DBD37B5B0087253F
:1032A0005D40D5730EE0030007E0D5182E78760058
:1032B0006F78FF0937432F705B1C0F2BF5DBD37B37
:1032C0005B00D3738A235B00E358E318FF25AD1C32
:1032D000595502E0030061184B558A214900615895
:1032E000491C8A235B00E1501029F3D3010008E058
:1032F0006318FF25AD1C5B191D78565C6E401E706F
:10330000491C1029F4DB06E02118F1310A780B7C06
:1033100053400B70401C1028F6DB10222100F131C5
:1033200004A8FFF704FA2200089904A800F03FFB64
:10333000102200216846FFF712FA09B0F0BDFEE73F
:103340000A7802704A7842708A788270CA78C270AD
:103350000A7902714A7942718A798271CA79C27195
:103360000A7A02724A7A42728A7A8272CA7AC2727D
:103370000A7B02734A7B42738A7B8273C97BC17367
:10338000704703E00B780370491C401C13005A1E61
:10339000DBB2002BF6D1704702780B7853400370F4
:1033A00042784B785340437082788B7853408370D7
:1033B000C278CB785340C37002790B7953400371C4
:1033C00042794B795340437182798B7953408371B1
:1033D000C279CB795340C371027A0B7A534003729E
:1033E000427A4B7A53404372827A8B7A534083728B
:1033F000C27ACB7A5340C372027B0B7B5340037378
:10340000427B4B7B53404373827B8B7B5340837364
:10341000C27BC97B5140C173704710B40B781478DC
:103420005C4004704B7854785C4044708B7894789E
:103430005C408470CB78D4785C40C4700B7914798C
:103440005C4004714B7954795C4044718B79947978
:103450005C408471CB79D4795C40C4710B7A147A66
:103460005C4004724B7A547A5C4044728B7A947A52
:103470005C408472CB7AD47A5C40C4720B7B147B40
:103480005C4004734B7B547B5C4044738B7B947B2C
:103490005C408473C97BD27B4A40C27310BC7047C6
:1034A00080B5FFF779FF01BD7F4902788A5C027021
:1034B00002798A5C0271027A8A5C0272027B8A5CFF
:1034C000027342784379CB5C4370437ACB5C43719F
:1034D000437BCB5C43728A5C42738278837ACB5C99
:1034E00083708A5C82728279837BCB5C83718A5C15
:1034F0008273C27BC37ACB5CC373C379CB5CC37268
:10350000C378CB5CC371895CC17070477FB5040020
:1035100021006846FFF714FF634800BF63A100BFA6
:10352000A2A26B461D78565D5D794D5D75409E7A11
:10353000865D6E40DD7B455D754025701D78465D7E
:103540005D79555D75409E7A8E5D6E40DD7B455D93
:10355000754065701D78465D5D79455D75409E7A64
:10356000965D6E40DD7B4D5D7540A5701D784E5DAE
:103570005D79455D75409E7A865D6E40DD7B555D6B
:103580007540E5701D79565D5D7A4D5D75409E7B99
:10359000865D6E40DD78455D754025711D79465D1F
:1035A0005D7A555D75409E7B8E5D6E40DD78455D34
:1035B000754065711D79465D5D7A455D75409E7B00
:1035C000965D6E40DD784D5D7540A5711D794E5D4F
:1035D0005D7A455D75409E7B865D6E40DD78555D0C
:1035E0007540E5711D7A565D5D7B4D5D75409E7839
:1035F000865D6E40DD79455D754025721D7A465DBC
:103600005D7B555D75409E788E5D6E40DD79455DD4
:10361000754065721D7A465D5D7B455D75409E789F
:10362000965D6E40DD794D5D7540A5721D7A4E5DEB
:103630005D7B455D75409E78865D6E40DD79555DAC
:103640007540E5721D7B565D5D784D5D75409E79D8
:10365000865D6E40DD7A455D754025731D7B465D58
:103660005D78555D75409E798E5D6E40DD7A455D75
:10367000754065731D7B465D5D78455D75409E793F
:10368000965D6E40DD7A4D5D7540A5731D7B495D8D
:103690005D78455D4D409979405C6840D97A515CD0
:1036A0004140E1737FBD0000003A0000A584998D80
:1036B0000DBDB1545003A97D1962E69A459D40871E
:1036C00015EBC90BEC67FDEABFF7965BC21CAE6A4F
:1036D0005A41024F5CF434089373533F0C52655EB9
:1036E00028A10FB509369B3D2669CD9F1B9E742EE0
:1036F0002DB2EEFBF64D61CE7B3E7197F568002C46
:10370000601FC8EDBE46D94BDED4E84A6B2AE516E9
:10371000C5D75594CF100681F044BAE3F3FEC08AB2
:10372000ADBC4804DFC17563301A0E6D4C14352FE3
:10373000E1A2CC3957F28247ACE72B95A098D17F14
:10374000667EAB83CA29D33C79E21D763B564E1E7A
:10375000DB0A6CE45D6EEFA6A8A4378B324359B741
:103760008C64D2E0B4FA0725AF8EE918D5886F7261
:1037700024F1C751237C9C21DDDC86859042C4AABC
:10378000D8050112A35FF9D0915827B93813B33384
:10379000BB7089A7B622922049FF787A8FF88017EC
:1037A000DA31C6B8C3B07711CBFCD63AC6F8EEF61C
:1037B000FFD6DE916002CE56E7B54DEC8F1F89FA39
:1037C000EFB28EFB41B35F452353E49B75E13D4C63
:1037D0006C7EF5836851D1F9E2AB622A0895469D6B
:1037E00030370A2F0E241BDFCD4E7FEA121D5834CE
:1037F00036DCB45BA476B77D52DD5E13A6B900C19A
:1038000040E379B6D48D67729498B085BBC54FED0F
:10381000869A66118AE904FEA078254BA25D800590
:103820003F2170F16377AF4220E5FDBF811826C3C9
:10383000BE35882E9355FC7AC8BA32E6C0199EA3CD
:1038400044543B0B8CC76B28A7BC16ADDB647414C7
:10385000920C48B89FBD43C43931D3F2D58B6EDA90
:1038600001B19C49D8ACF3CFCAF447106FF04A5C61
:1038700038577397CBA1E83E96610D0FE07C71CC71
:103880009006F71CC26AAE6917993A27D9EB2B222A
:10389000D2A907332D3C15C987AA50A50359091A87
:1038A00065D784D082295A1E7BA86D2CF6B585B0C9
:1038B00069460C7D2100102903D0182901D0202948
:1038C00011D1224601000698FFF75BFD6846007D96
:1038D0001C308000C0B203900011401E0699F031E8
:1038E0000870012532E000201146F0310870FF20F9
:1038F0005BE0029819280DDB10290BD140A0865DF2
:1039000069466A465278825C4A706A461278825CDE
:103910000A70C75D20006946097D411AC9B2069840
:10392000401801784E4001990E700199491C427867
:103930006B465B7853400B7082786B461B78534024
:103940004B70C07847408F70241DE4B203988442C6
:103950002ADA069800190190001F06786946427815
:103960004A7082780A70C7786846007D029020000D
:103970000299FEF72DFF0029BBD1310020A06A4635
:103980005278825C2E0056406A466B461B78C35CB8
:103990005370C35D1370475C28004000ED091B2184
:1039A0004D434540EDB2B5E7002007B0F0BDF0B59E
:1039B00085B00F001400F021615C00291DD00100CA
:1039C0006846FFF72AFD012506E0FFF79FFD31005D
:1039D0006846FFF765FD6D1CEDB228012618F02042
:1039E000205C85426846F0D3FFF75EFD32006946F1
:1039F0003800FFF712FD002000E0FF2005B0F0BD09
:103A0000637C777BF26B6FC53001672BFED7AB769B
:103A1000CA82C97DFA5947F0ADD4A2AF9CA472C046
:103A2000B7FD9326363FF7CC34A5E5F171D83115B3
:103A300004C723C31896059A071280E2EB27B275D4
:103A400009832C1A1B6E5AA0523BD6B329E32F844C
:103A500053D100ED20FCB15B6ACBBE394A4C58CF44
:103A6000D0EFAAFB434D338545F9027F503C9FA818
:103A700051A3408F929D38F5BCB6DA2110FFF3D2E6
:103A8000CD0C13EC5F974417C4A77E3D645D19739A
:103A900060814FDC222A908846EEB814DE5E0BDB94
:103AA000E0323A0A4906245CC2D3AC629195E479CB
:103AB000E7C8376D8DD54EA96C56F4EA657AAE0825
:103AC000BA78252E1CA6B4C6E8DD741F4BBD8B8AC0
:103AD000703EB5664803F60E613557B986C11D9E26
:103AE000E1F8981169D98E949B1E87E9CE5528DF9D
:103AF0008CA1890DBFE6426841992D0FB054BB16C9
:103B000030B402000023180008E001249C40250086
:103B10001540A54200D1401C5B1CDBB28B42F4DB9C
:103B2000C0B230BC7047B449884201D264207047AB
:103B3000B249884202D2FA2080007047B0487047EC
:103B4000F7B519006A46202012566B460820185611
:103B500000F033F800282ED000273D003E0003E09F
:103B60001035EDB2761CF6B268460078854222DA4E
:103B70003C0001E0641CE4B2102CF1DA0198710001
:103B8000405A0121A1400842F4D0099829194A005D
:103B9000511889004018082140560F2102001211C7
:103BA0000A4001406B460820185600F006F801282C
:103BB000E0D10120FEBD0020FEBD884203DB824231
:103BC00001DB0120704700207047F8B504001600A3
:103BD0000020002C0FD00D000AE007001021680023
:103BE000205AFFF78DFF010038004018C0B26D1C4D
:103BF000EDB2B542F1D3F2BD002800D1704730B428
:103C0000002908D0002304E05C000D5B05535B1C19
:103C1000DBB29342F8DB30BC704700288A6000D1E9
:103C20004A607047FFB581B00024E44300273E009E
:103C300003E03C00EF60761CF6B26846007C8642EA
:103C400048DA03983101451868460079002868462B
:103C5000007A26D1002804D0A8680020C046009031
:103C600000E0009768680020C0460099814203D2B6
:103C700068680020C04608E06846007A002803D043
:103C8000A8680020C04600E03800E968884200D3F8
:103C9000EF60E9680029CED0081AA042CBD2040018
:103CA000C9E70028C5D0A8680020C046E968884256
:103CB00000D3EF60E8680028BDD0A8680020C046A7
:103CC000E968081AA042B6D2A8680020C046E96890
:103CD0000C1AB0E7200005B0F0BD020000201378F8
:103CE000032B00D0704710B4507848700F204B78E9
:103CF00003408B700123CB561B1103404B7093780C
:103D00008B80D47824021C438C8012790A701209AB
:103D10005207520FCA700A7810400870052010BC74
:103D20007047FEB584B0040025780220205669460D
:103D30000872032166562779617800290BD10F2874
:103D400001D10F2E02D00025072027566846617941
:103D5000017206202656002D24D0606901901120A2
:103D60002056009010202356694608200A56E16824
:103D7000207AFFF7E5FE002802D12800FD25054046
:103D800018202256192021563000FFF716FF002870
:103D900008D119202056864201DA060002E02800E8
:103DA000FB250540072D04D17FB2002F01D107204C
:103DB00027566846007A0499087005980670069898
:103DC0000770280007B0F0BD70B50E0001218140DA
:103DD000080000F0D5F804000D00300000F0DAF81B
:103DE00002000B002000290000F0E4F80022304B14
:103DF00000F041F970BD000080EE3600803F5C02AB
:103E000010270000FBB514001D006000083800F00A
:103E1000B7F86A460CCA00F02EF906000F006800D9
:103E200000F0B8F832003B0000F0E7F96A460CCA2F
:103E300000F0C0F806000F0000F0BAFA00F0F6FA41
:103E4000844206D23000390000F0B2FA00F0EEFAF7
:103E500000E02000099E306068460CC8002015492B
:103E600000F009F904000D00306800F093F86A468C
:103E70000CCA00F000F900220F4B00F0FCF8020021
:103E80000B002000290000F01BFA04000D00089828
:103E900000F080F802000B002000290000F010FA6A
:103EA00000F086FA00F0B0FA0A990860F7BD000049
:103EB00000408F40000010400000E03F38B50C008B
:103EC00015004000FCF76EF90100200000F0F8FA40
:103ED000290000F0F5FA00F04BFB00F063FB00F066
:103EE00093FA40B232BDF8B504002068E17A4A0086
:103EF000511889004018407A07016068C019058888
:103F00000026C660607A00280FD1E068FFF70BFE3C
:103F1000A84200D30500A07A002809D1207A002801
:103F200006D16068C019C660F1BDA07A0028F8D03B
:103F300020694543281A6168C919C860F1BDFEE7C8
:103F40001206130A1A43130C1A4300BF130030B4AD
:103F500014001500103902D310393CC0FCD24907B7
:103F600000D30CC000D504C0890002D30280801C9D
:103F7000002900D5027030BC704700000022E5E740
:103F8000010009D5F446404200F006F80122D207AC
:103F900011436047010000BF42221201D21E0042BD
:103FA00007D002D4521E0018FCD5C10A40051205E4
:103FB00089187047F0B40E005E400125ED072E40D1
:103FC000B446AE0ADF184C18F4423BD2F74241D255
:103FD000640D43D07F0D38D0E41BC902DB022943B6
:103FE0002B43CF0ADB0A0600B61A9F4104D2641E97
:103FF000B6197F41B6185F416812800D2418001869
:10400000844222DAE80C0021B6197F41B61A9F419A
:1040100002D2B6185F413F1C40414941F4D3241CF1
:1040200021DD2405B6197F41B61A9F4105D33743D8
:10403000C60737430026012F704161416646314370
:10404000F0BC7047FCD1F74205D20020C1434905BE
:104050004908F3E704D00020C143F1E77F0DFAD00F
:1040600000206146ECE72442FAD1401C61410F0375
:10407000F6D30020E2E7F0B50E005E400125ED0723
:104080002E40B446AE0ADF184C18F44208D2F7426C
:104090000ED2640D01D07F0D12D100206146F0BD1B
:1040A00005D1F74201D87F0D05D10020C143F0BDF5
:1040B000FBD1640DF9D00020C143490549088FE0C8
:1040C000E419C902DB0229432B43DB0A460DC00277
:1040D00031438E4630B487B295B27D432E0CADB2DB
:1040E000140C7C43A419260C240425439CB27C4365
:1040F000A419190C7943270CC919A4B20F043C4325
:10410000090C000C97B247432E0CBE193543ADB2D3
:10411000170C4743360CBF19A6B2BF193E043543EE
:10412000240C3E0C36199FB24743BF19BCB23E0C5B
:1041300089191F0C47437F183E043443390C7046DD
:1041400080B297B247432E0CBE193543ADB2170C5F
:104150004743360CBF19A6B2BF193E043543240CA1
:104160003E0C36199FB24743BF19BCB23E0C8919A9
:104170001F0C47437F183E043443390C77463F0CED
:1041800090B278432E0C80190604ADB22E43050C74
:10419000A0B22D18120C7A435019020C80B2240CD4
:1041A000A4189AB27A43121914042043120C8918E5
:1041B0001B0C7B43C91830BCEF0A394203D1B61936
:1041C00040414941641E6F12BF0DE41B0BDBFF1918
:1041D000BC4211DA240500274208AE417841614112
:1041E00066463143F0BD641C05D1401C6141CF02DD
:1041F00001D34908F4E750E75DE7F0B40125ED0786
:104200000F005F404FD48B4200D1824205D98446D3
:10421000100062468C4619006346DF184C18640D86
:104220007F0D3AD0661C760537D0E61B352E34DC80
:10423000DB022B43DB0A0C0DC9022943C912202ED5
:104240000DDB1700203E06D01F00F741F3405F4012
:104250000026012A7741C01871410DD217E01700DE
:10426000F741F2405740F3415A40B340F3405A40BF
:104270000026801859410AD3A21C52050FD0C2074C
:10428000012F724117004008CB0718434908641CEE
:1042900024054208AF4170416141F0BC7047641C85
:1042A00021050020F9E76B4010E06B40ABE7F742D7
:1042B000F3D1E943F1E72442EFD100200021ECE7FC
:1042C000F0B40125ED070F005F40EED40C00871A13
:1042D0009C4105D2C01BA141D219634169406B408A
:1042E000AE0ADF184C18F442E1D2640D7F0DE2D023
:1042F000E61B362ED1DCDB022B43DB0AA4460C0D79
:10430000C9022943C90A012E28DC04D1D607520864
:10431000DF073A435B08EF0A76429041994114D097
:1043200039423BD1B61940414941761C394204D14A
:10433000761C001849413942FAD0B9436746B74262
:1043400008D9A41B24052143A7E70042EAD136423D
:10435000E8D1A2E7E40AE10700209EE7202E0BDD6A
:10436000203E1F00F340F7415F40012A00225741E1
:104370007E42984191410BE01700F741F2405740CF
:10438000F3415A40B340F3405A407E429041994134
:104390000A0303D2641EB619404149410027641E36
:1043A00024054208AE4178416141F0BC7047FEE708
:1043B0004A00520DFF239B009B1CD21A19DD3523A6
:1043C0009B1A1EDD1300153B09DA9B41DB0AD34023
:1043D000094201D4401E59410020994370470022F0
:1043E000D243DA40094202D4002380185941904355
:1043F00070470B0D5B0500D0024901D30121C907AD
:10440000002070470000F03FF4464A1805D200F043
:104410000FF801D580174008604700F009F8012126
:10442000C907884200D90800404260474A1812D2A2
:10443000400DC90208430121C9070843520D40211C
:104440000901521A521C06D452421F3201D4D040E4
:104450007047C017704700207047431A01D2C01A36
:10446000C91830B44B180418240E1B0E22D0FF2C90
:1044700020D0E31A182B1DDC09021143C40D641E61
:104480000002104394461925ED1A0A00AA40D940AB
:10449000451801D36D08A41CE405D209280A2D068D
:1044A0002A436546AA41604103181B0EFF2B01D326
:1044B000C00DC00530BC7047514006E05140CCE70C
:1044C0000122D20703004B40F8D4431A03D2C01A8A
:1044D000C9185040514030B44B1809021143041818
:1044E000240E1B0E40D0FF2C3AD025009D410BD34B
:1044F0001ED8C50D4002401A0BD3ED050100400A3D
:10450000C90591416841D5E7C50D40024918401AD7
:10451000D0D001214008491C0018FCD58C4204D39E
:104520006D1A000AED054019C4E7E8051040C1E71F
:10453000182DBFDCAC1C0D00E140E5414D40012DC4
:104540004941C40D00021043451A01D46D19954329
:10455000641EE405280A2D069541604130BC704771
:10456000FF2BA7D1D843A5E72442A3D10020A1E780
:10457000012212060118CA420AD28A420DD83822F4
:10458000120609098918C20FD20711434007704764
:1045900000D049080909014301E0C10FC907002003
:1045A0007047FEE74A00520DFF239B009B1CD21A66
:1045B00019DD35239B1A1DDD1300153B09DA9B41DC
:1045C000DB0AD340094201D5401E594100209943DE
:1045D00070470022D243DA40094202D500238018F6
:1045E0005941904370474B00034300D0024900D229
:1045F00000210020704700000000F0BF0121C0062C
:10460000C00E8140BA4801607047BA490A68012368
:104610008340B948184382430A607047B549012274
:1046200082400868B54B034013430B60704710B5D8
:104630000400FFF7EAFF2000FFF7F0FF10BDB04ACB
:10464000800011507047DA49012282400868C0B2E8
:10465000104308607047D749012282400868DA4B4E
:10466000034013430B607047D2490A68012383401B
:10467000D648184382430A6070470268FF23DB4331
:104680000B439A4302607047416170470123934096
:10469000890040188E2189014350704701239340BF
:1046A00089004018902189014350704780B5002B44
:1046B00002D0FFF7EBFF01BDFFF7F0FF01BD02687D
:1046C000FF23BE3313400B43036070470268FF2390
:1046D000BE338B4313400360704780B5C4498842A2
:1046E00006D10C20FFF7B7FF0120FFF7A0FF01BDA7
:1046F0000B20FFF7B0FF0020FFF799FF01BD80B549
:104700000121FFF7DCFF01BD38B504000D003C219D
:10471000FFF7DCFF29002000FFF7D1FFF0200003A6
:10472000206231BD38B511210020FFF788FF00203D
:10473000FFF789FFA0242406112200212000FFF7A3
:10474000ADFF12210120FFF77AFF0120FFF77BFF69
:10475000122200212000FFF7A1FF13210220FFF702
:104760006EFF0220FFF76FFF132200212000FFF7EA
:1047700095FF15210320FFF762FF0320FFF763FF7A
:10478000152200212000FFF789FF16210420FFF7E2
:1047900056FF0420FFF757FF162200212000FFF7E5
:1047A0007DFF01230F2200212000FFF77FFF914DA5
:1047B00003220A212800FBF71DFD012318220021F6
:1047C0002000FFF773FF032218212800FBF712FDDA
:1047D0000123192200212000FFF768FF032217217F
:1047E0002800FBF707FD00231B2219462000FFF7D6
:1047F0005DFF002215212800FBF7FCFC01231A2293
:1048000000212000FFF752FF032216212800FBF7AA
:10481000F1FC0720FFF71FFF1821612000F01AF9B3
:104820001921522000F016F91B21602000F012F926
:104830001A21532000F00EF90720FFF715FF6C4CEA
:104840002000FFF74AFF04212000FFF75DFF002052
:10485000694602000A60200000F020F92000FFF7FE
:104860004EFF31BD10B5644C01212000FFF705FF5C
:1048700001212000FFF708FF1820FFF7BFFE0221EB
:104880002000FFF7FAFE02212000FFF7FDFE1920AD
:10489000FFF7B4FE04212000FFF7EFFE0421200003
:1048A000FFF7F2FE1A20FFF7A9FE08212000FFF70C
:1048B000E4FE08212000FFF7E7FE1B20FFF79EFE25
:1048C00010212000FFF7D9FE10212000FFF7DCFEA9
:1048D0001C20FFF793FE20212000FFF7CEFE2021B1
:1048E0002000FFF7D1FE1D20FFF788FE10BD00005D
:1048F00000E100E0048004400020FEFFFFDF010033
:104900007881044070B50500092002F021F8060006
:104910004D2002F01DF804007606760E3748C06878
:1049200000F04AF830437021014328000A001206C3
:1049300027D50722122803DB230014001C4303E0C1
:10494000F823234004241C432240072A0CD10528C5
:1049500000DA0525152D00DB1425F0200840691F1D
:104960000907090F01431AE0022800DA0225122D77
:1049700000DB1125F0200840A91E0907090F01439B
:104980000DE00022D243904200DA15460F2D00DBE5
:104990000E25F02008406D1C2907090F014309204E
:1049A00001F0D0FF21004D2001F0CCFF70BD0000D0
:1049B00004820440808004401149884201D2802052
:1049C0007047002070470000FFFFEF25000010DA5D
:1049D0000C490A78824200D1704780B508700028DF
:1049E00002D1C046C04601BDC046C04601BD000060
:1049F00000C0054000400440004000A038090010FD
:104A000040DD4A1F1C0F00100120704783B50121B3
:104A1000684600F059F8401E012813D90021684665
:104A200000F052F800280DD00198002868460CC804
:104A300002D50020054901E000200549FFF7DDFB14
:104A40006A4603C2684603C803B000BD0000F0BF59
:104A50000000F03F10B50207520E00090D4B800018
:104A600018180368FF249440A34391401943016040
:104A700010BD0122824008480029016804D0FE23AD
:104A80001B061343994302E0C901C90911430160A0
:104A90007047000000C00040C0C1004010B50F22A8
:104AA0000B7813404C78144024011C438B7813403E
:104AB0001B022343C978002904D01C00491E0A4068
:104AC00013032343436010BD42685200520D1F4B35
:104AD0009A4209D14168090304D10068002801D134
:104AE000012070470220704743685B0002D10368D1
:104AF000002B28D0164B9A1A521A012A23DB352A8A
:104B000007DB4168802212061140416000210160EC
:104B100016E00121D306DB0E9940491E920608D506
:104B200042680A40416851404160036813430021D4
:104B300003E003680B40016859400160002B02D07C
:104B40000020C04370470020704700BFFF070000EF
:104B50003304000010B48207920FD300FF249C405E
:104B6000E2438901C9B2994003000BD56A481B078B
:104B70001B0F083B9B089B00C01803681A40114399
:104B8000016007E065489B089B00C01803681A4055
:104B90001143016010BC704710B5401E80214904CC
:104BA000884201D3012010BD5D4C606003210020CC
:104BB000C043FFF7CFFF0020A06007202060002047
:104BC00010BD5849012282400868574B03401343E7
:104BD0000B607047022802D0E02815D07047534878
:104BE000CB4AD27D027000224270428042600B00AC
:104BF0001B1403720B001B1243728172C2728281FA
:104C0000FF218173C1737047C149887B00280DD093
:104C10000020887303204875444805220270CA7B2F
:104C200042700A7C827001204870704748780128E1
:104C300004D004280AD1012048707047022048752A
:104C40003A488A89120A027089894170704770B5A2
:104C500086B00024AE4E01AD6946707DFCF740FF82
:104C6000002805D0200028700394A881AC7316E0BA
:104C70002E48B17D002908D121002970317D29718C
:104C80000390707DA881AC7309E001212970317D0A
:104C900029710390707DA8810820E873AC7301A886
:104CA000FDF764FA002801D1204600E0012006B09B
:104CB00070BD70B584B0964C20004030FBF74FFAC1
:104CC00001256E4635706846FCF772FF002807D153
:104CD0003079002803D00220607625767FBD657686
:104CE0007FBD80B59C48FBF73AFA01BD80B59B4873
:104CF000FBF735FA01BD80B59948FBF730FA01BDE5
:104D000010B5834C4078002803D120005430FBF7C5
:104D1000DFF90120207610BD1CED00E000E400E08A
:104D200010E000E080800440FFFFEF25E40C00105D
:104D30004178002900D0704730B58BB0744C217891
:104D4000002902D0A289521CA281427B002A00D1F4
:104D5000D7E0C278521E012A02D9DF3A0BD0D0E048
:104D6000017B012900D0CCE0806800780100C907F0
:104D7000C90FE175C5E0002929D1017B042900D0C4
:104D8000BFE080680178012900D0BAE041780129AC
:104D900000D0B6E08178012900D0B2E0C0780128C7
:104DA00000D0AEE000252800A075E020207502208C
:104DB00001006175E560257401210A0022706270AE
:104DC00005AA1070117105A8FCF7C0FF99E0816871
:104DD00009786170072900D993E002A2525C520061
:104DE000974400BF0416191E23363D610025280094
:104DF000A07502200100217510216175A581257023
:104E000008A908700120087108A8FCF79FFF78E046
:104E10000220607575E001210800A075617070E0E6
:104E20000020A075012060706BE0017B61759B4ADA
:104E3000042313700123F225F22900DC0D00AB429C
:104E40005FDA8568ED5C6D1CD5545B1CDBB2F2E764
:104E50000120694608706846FDF7E4F851E0002536
:104E60002800A07502200100217510216175A5811F
:104E70002900217005A908700120087105A8FCF718
:104E800065FF68460570210020310191210028311D
:104E9000029121003031039103210174FDF7C2F822
:104EA000042060762DE0017B03290CD169460222A3
:104EB0000A70806842781202807802438A806846CD
:104EC000FDF7B0F81BE0072919D1694603220A70E3
:104ED000826853781B02927813438B808268D37860
:104EE0001B0415792D021D4352792A4364235A432A
:104EF00002928068807908736846FDF793F8012074
:104F0000607068342000FBF7E3F80BB030BD0000A0
:104F1000C40300100178002902D001290AD016E04C
:104F20005F494078002802D1022048760FE0012036
:104F300048760CE04178002909D159490A78002ABD
:104F400005D001228A73027ACA73407A087401205C
:104F50005349087670470000180400102C04001014
:104F60004004001000207047F0B58DB000F0B0F89C
:104F70000020FFF726FE4B480068FA218900FDF764
:104F80002AFCFFF709FE464C0027677601263DE024
:104F90004548019045480290454803904548009097
:104FA0000222694601A8FCF793FC434920004030E7
:104FB000FBF786F8414920005430FBF781F81921AE
:104FC00020005430FBF7E0F83D4920006830FBF743
:104FD00077F8192120006830FBF7D6F8394920000E
:104FE0007C30FBF76DF8192120007C30FBF7CCF802
:104FF00009AD022028702E7109A8FCF7A7FE072032
:1050000028702E7109A8FCF7A1FE6676607E002844
:10501000BED002281AD003D30428F7D02FD33AE009
:1050200004A8077021002031059121002831069144
:1050300021003031079103210174207E002802D025
:1050400004A8FCF7EFFF04206076DFE7207E00284D
:1050500005D0207DFFF7BEFDFFF7F9FD20761A4D44
:105060002078002801D0E56106E0FA218900174880
:10507000FDF752FB4019E06103206076C6E704208B
:105080006076E16920004030FBF77EF82000403078
:10509000FBF71EF8BAE76776B8E70000E40C0010EB
:1050A000C4030010180F0010014D0000314D000026
:1050B000154F0000654F0000B34C0000E34C0000AA
:1050C000ED4C0000F74C00008813000018FCFFFFB7
:1050D00080B500F055F80149086001BD180F0010B7
:1050E0002C4900E02C4908600020486001204860FD
:1050F0007047000000B529480068C105C90D00BF10
:105100002CA04A0992008058C906C90E491C4900C2
:10511000FDF761FB00BD1F4800688007800F04D0C9
:10512000012804D0032804D006E01D4870471D481C
:1051300000E01D48006870470020704780B5FFF709
:10514000EAFF1A490968C906C90E491C484302BD4D
:1051500080B50020104909688907890F05D0022908
:1051600008D004D3032908D002BD0D4802BDFFF7C3
:10517000D2FF02BDFFF7BEFF02BDFFF7DFFF02BD9A
:1051800080B5FFF7E5FF0A490968C9B2FDF723FBBF
:1051900002BD000040800440708004402480044030
:1051A000001BB700AC580000B05800000880044055
:1051B0007880044000000000C0270900900510001E
:1051C000C05C1500F0B31A00200B2000009F2400E3
:1051D000E0322900C0C62D0050973100E06735004D
:1051E0007038390000093D0040164000802343001C
:1051F000C030460028490A680860704770B50C0046
:10520000264E3100FDF7E7FA85B220003100FDF7A8
:10521000E2FA80B2002200241F2803DA612D00BFC9
:1052200021A104DB002070BD521C472A32D20C237E
:105230005343CB181E88B542F6D15B889842F3D110
:1052400017480280012400880C2242438D18022056
:1052500000F0DEF90020FFF743FF0020FFF742FFD8
:105260000120FFF7C7FF802000F0C8F90D4EA87994
:10527000C006C00E297A8907490E0143316080209B
:1052800000F0C6F97068C007FCD568893067032054
:10529000FFF728FF200070BD1000044040420F00BF
:1052A000F60E0010088004400C000C00C000000046
:1052B000030001000C000600C00000000300020013
:1052C0000C000400C0000000030003000C000300F9
:1052D000C0000000030004000C000200C000000039
:1052E000030006000C000100C000000003000C00D9
:1052F00018001800C00001000200010018000C0096
:10530000C00001000200020018000800C0000100F7
:105310000200030018000600C000010002000400A3
:1053200018000400C000010002000600180003007D
:10533000C00001000200080018000200C0000100C7
:1053400002000C0018000100C0000100020018005B
:1053500024001200200102000200020024000C00C0
:1053600020010200020003002400090020010200C5
:1053700002000400240006002001020002000600D2
:1053800024000400200102000200090024000300A0
:105390002001020002000C00240002002001020093
:1053A000020012002400010020010200020024007B
:1053B00030001800C000030001000200300010009F
:1053C000C00003000100030030000C00C000030017
:1053D0000100040030000800C000030001000600C6
:1053E00030000600C0000300010008003000040087
:1053F000C000030001000C0030000300C0000300E7
:105400000100100030000200C0000300010018007D
:1054100030000100C0000300010030003C001E000D
:10542000F0000400010002003C001400F000040041
:10543000010003003C000F00F00004000100040024
:105440003C000C00F0000400010005003C000A00D4
:10545000F0000400010006003C000600F00004001B
:1054600001000A003C000500F000040001000C00EF
:105470003C000400F000040001000F003C000300A9
:10548000F0000400010014003C000200F0000400E1
:1054900001001E003C000100F000040001003C007F
:1054A0004800180020010500010003004800120018
:1054B000200105000100040048000C002001050047
:1054C0000100060048000900200105000100080055
:1054D00048000800200105000100090048000600FE
:1054E0002001050001000C00480004002001050017
:1054F000010012004800030020010500010018000F
:1055000048000200200105000100240048000100BD
:10551000200105000100480054001C00A8000600FE
:105520000000030054001500A8000600000004005D
:1055300054000E00A80006000000060054000C00F5
:10554000A80006000000070054000700A80006009D
:1055500000000C0054000600A800060000000E0029
:1055600054000400A80006000000150054000300C9
:10557000A800060000001C0054000200A80006005D
:1055800000002A0054000100A8000600000054009A
:1055900060001800C0000700000004006000100058
:1055A000C00007000000060060000C00C0000700FB
:1055B0000000080060000800C000070000000C00A8
:1055C00060000600C000070000001000600004003A
:1055D000C00007000000180060000300C0000700C2
:1055E0000000200060000200C00007000000300042
:1055F00060000100C0000700000060000B490A685D
:105600001043094A0240DA20C00110430860704785
:1056100006490A68824304481040DA22D201024354
:105620000A60704700000000FF80000038820440DC
:10563000816807E00268116851185368CB18C3608D
:1056400008320260C2689142F4D04A1C8260087835
:105650007047F0B587B00100083102910268520826
:10566000D200891803910025049505950168490821
:10567000C9004418083440686946C307DB0F4B7003
:105680004008C00020180190002735E002A8FFF76D
:10569000CFFF46B20AE002980168401804900299D0
:1056A00049684018059002980830029004980599BE
:1056B0008842F0D0411C0491007869460870BD42D0
:1056C00010D10198844201D100F01EF82568684687
:1056D0004078002801D048462D1860682F180834FB
:1056E000BD42EED06846007828706D1C002E08D5AB
:1056F000761CE4D1BD42C9D101988442C6D107B01D
:10570000F0BD761ED2D5F5E780B5012000F002F895
:1057100001BD00002021090326311820ABBEF9E7A6
:105720001649012282400868154B034013430B6061
:10573000704710B500F032F80720FFF7F1FF202086
:10574000FFF766FF0F4C00220E212000FAF752FDF2
:1057500000220D212000FAF74DFD01210620FFF760
:1057600088F901210720FFF784F904480168064AF7
:105770000A400260FFF7ACFC10BD000080800440CE
:10578000FFFFEF25004004407FFFEF2580B512208A
:10579000FFF7C6FFFFF7CDFF01BD000080B5FFE7B3
:1057A00002494800FFF72AFD01BD000080C3C9017E
:1057B0001D590000C5590000C9680000CB59000000
:1057C000075A00004F5A00000D5C0000055F000002
:1057D000094A0000396100001D6300001F640000D9
:1057E00043640000916400006D670000A167000041
:1057F0001D680000456900005169000061690000F2
:10580000E7690000916A0000C16A000010B507490D
:1058100079441831064C7C44163404E0081D0A68AB
:10582000891888470100A142F8D110BD0800000086
:105830003000000051D0FFFF680A0000B8040010DB
:10584000000000000FFEFFFF020000000200000049
:10585000B6A9FFFF4200000000000010B8040000DD
:105860000120C046002801D0FFF7D0FF0020C0462D
:10587000C046FFF779FB00F000F880B500F002F8B1
:1058800001BD000007463846FFF744FFFBE7000074
:105890000148804701480047B5580000A158000062
:1058A000C046C046C046C046FFF7DAFF001BB7003F
:1058B0000000000080B5FFF769FF01BDFEE7FEE7CD
:1058C0004162704701239340890040188821890173
:1058D0004350704701239340890040188A21890171
:1058E000435070478068C005C00D704781607047A5
:1058F000491E0907090F0906114301627047C1617A
:105900007047521E1207120F12060A43C021890364
:10591000114381617047406980B27047F8B5804F8C
:10592000F866804C2100B82040003818FAF7C8FB10
:105930002100C22040003818FAF7C2FB2100CC2019
:1059400040003818FAF7BCFBFEF7ECFE00F090FFC1
:10595000754C03222100612001F045F801202070E0
:10596000022060700320A07002462100612000F038
:10597000F7FF002630002080A07003222100612064
:1059800001F031F8422000F0E3FF207000F080F8D1
:10599000304600F081FFFEF765FF34000BE06348FE
:1059A000610009194518287800F08EFFA9786878F9
:1059B00000F0C8FF641C102CF1D3304600F084FFC7
:1059C0003E72F1BD5648007A704710B55449C86020
:1059D000FEF7E0FA0022564BFEF7ECFAFEF726FD42
:1059E00004002100090CC9B2062000F0ABFF210021
:1059F000090AC9B2072000F0A5FF2100C9B208209A
:105A000000F0A0FF10BDF4B504000E001F0001253A
:105A100000F05AFF3000FFF7D8FF052000F03CFFF0
:105A20002846C046C046FAF7B7FB06003000002003
:105A3000C046B84207D2200000F0F0FE009909B23B
:105A40008142F3DA002500F0EAFC2800F2BD38B507
:105A500000242500012000F037FFFF21112000F075
:105A600071FF052000F018FF0CE00120C046C04681
:105A70002C2000F06DFF0100C907C90FA140294388
:105A80000D00641C202CF0DB00F0C9FC280032BDA6
:105A9000F8B5092000F05CFF0700062000F058FF71
:105AA0000400072000F054FF210404020C430820E6
:105AB00000F04EFF2043FEF76DFA00221C4BFEF76C
:105AC000DAFAFEF7B3FC06000021092000F03AFFE5
:105AD0003B2000F03DFF0100402421433B2000F02B
:105AE00031FF20253B2000F033FF2842FAD1114836
:105AF000FFF76BFF3B2000F02BFF044321003B200E
:105B000000F020FF3B2000F023FF2842FAD13900AB
:105B1000092000F017FF3000FFF757FFF1BD00002C
:105B200038090010F16A0000140F0010D06B00005B
:105B300080844E4000A1BC33002101E0491CC9B261
:105B400015290AD205A2CB00D21813689842F5D3C2
:105B500093689842F2D210797047FEE7280A000055
:105B6000170000001C0C00000F0000003C0F00009C
:105B70000700000050140000160000009C180000F0
:105B80000E000000781E000006000000A0280000A3
