:1000000028060010A532000073210000CB25000057
:10001000000000000000000000000000F57FFFEF7E
:100020000000000000000000000000007726000033
:1000300000000000000000002F2C0000731B0000D7
:10004000D3320000D332000000000000D3320000A1
:10005000D3320000D332000000000000D332000091
:10006000D3320000D3320000D3320000D33200007C
:10007000D3320000D3320000D3320000D33200006C
:10008000D3320000D3320000D3320000D33200005C
:10009000D3320000D3320000D33200000000000051
:1000A00041160000B11800008B1900007F1A0000F3
:1000B000CF1A0000F11A0000D3320000D332000042
:1000C00000000000400000000000000000000000F0
:1000D0000000000000000000000000000000000020
:0400E000000000001C
:0402FC00FFFFFFFF02
:100300004162704701239340890040188821890188
:100310004350704701239340890040188A21890186
:10032000435070478068C005C00D704781607047BA
:10033000491E0907090F0906114301627047C1618F
:100340007047521E1207120F12060A43C02189037A
:10035000114381617047406980B27047F8B5804FA2
:10036000F866804C2100B8204000381801F0CEFB20
:100370002100C2204000381801F0C8FB2100CC2029
:100380004000381801F0C2FB01F0C6FC00F090FFFD
:10039000754C03222100612001F045F801202070F6
:1003A000022060700320A07002462100612000F04E
:1003B000F7FF002630002080A0700322210061207A
:1003C00001F031F8422000F0E3FF207000F080F8E7
:1003D000304600F081FF01F03FFD34000BE0634840
:1003E000610009194518287800F08EFFA97868780F
:1003F00000F0C8FF641C102CF1D3304600F084FFDD
:100400003E72F1BD5648007A704710B55449C86035
:1004100001F000FE0022564B01F00CFE01F092FEAE
:1004200004002100090CC9B2062000F0ABFF210036
:10043000090AC9B2072000F0A5FF2100C9B20820AF
:1004400000F0A0FF10BDF4B504000E001F00012550
:1004500000F05AFF3000FFF7D8FF052000F03CFF06
:10046000284601F092FE01F0BDFB0600300000209E
:10047000C046B84207D2200000F0F0FE009909B251
:100480008142F3DA002500F0EAFC2800F2BD38B51D
:1004900000242500012000F037FFFF21112000F08B
:1004A00071FF052000F018FF0CE0012001F06DFE47
:1004B0002C2000F06DFF0100C907C90FA14029439E
:1004C0000D00641C202CF0DB00F0C9FC280032BDBC
:1004D000F8B5092000F05CFF0700062000F058FF87
:1004E0000400072000F054FF210404020C430820FC
:1004F00000F04EFF204301F08DFD00221C4B01F067
:1005000065FE01F01FFE06000021092000F03AFF01
:100510003B2000F03DFF0100402421433B2000F040
:1005200031FF20253B2000F033FF2842FAD111484B
:10053000FFF76BFF3B2000F02BFF044321003B2023
:1005400000F020FF3B2000F023FF2842FAD13900C1
:10055000092000F017FF3000FFF757FFF1BD000042
:1005600024000010311500001802001010160000C1
:1005700080844E4000A1BC33002101E0491CC9B277
:1005800015290AD205A2CB00D21813689842F5D3D8
:1005900093689842F2D210797047FEE7280A00006B
:1005A000170000001C0C00000F0000003C0F0000B2
:1005B0000700000050140000160000009C18000006
:1005C0000E000000781E000006000000A0280000B9
:1005D00015000000D43000000D000000F03C0000C9
:1005E000050000004051000014000000A861000058
:1005F0000C000000447A000004000000E4A20000A7
:100600001300000050C300000B00000024F40000A1
:10061000030000008545010012000000A0860100D3
:100620000A00000048E80100020000002C8B0200D4
:1006300011000000400D03000900000090D00300ED
:1006400001000000E093040000000000F8B584B051
:1006500005000E00140000F057FE0D9F129813992C
:10066000002D03D0012D00D194E05EE1B04D0C359A
:1006700002952A46D660029A54610A9A029B1A6130
:10068000029A97760EAA1278029BDA760FAA12784F
:10069000029B1A77029A5077029881776846808D7C
:1006A00002990883200001F0B5FC04000D006846A3
:1006B000008E01F0AFFC0090019100209D492200C6
:1006C0002B0001F0B7FC00229B4B01F07FFD009A4C
:1006D000019B01F07BFD0022984B01F077FD01F0BA
:1006E00031FD029948620020954922002B0001F05B
:1006F000A1FC01F015FD0400A4B22100090A0220AA
:1007000000F040FE2100C9B2032000F03BFE3000A3
:10071000FFF732FF0100122000F034FE0A98FFF7C5
:100720002BFF0100132000F02DFE6846808D010094
:10073000090A252000F026FE6846818DC9B22620D0
:1007400000F020FE002F05D00EA80178322000F026
:1007500019FE03E0FF21322000F014FE302000F0EB
:1007600017FE002F01D0002200E080226F210140FF
:100770000A430FA8007801011143C9B2302000F0EC
:1007800001FE312000F004FE40210143312000F041
:10079000F9FDCAE0032E00D3FEE7F61D644D2A00E2
:1007A0000C320292D663029A146450356A46127C67
:1007B0006A706A46928D6A802F710EAA12786A71E9
:1007C0000FAA1278AA71109AEA71119A2A726872A5
:1007D000A9720D2C01D30C2402E0062C00D20624B1
:1007E000072E03D10B2C05D00C2C03D0082E04D1DE
:1007F0000C2C02D10120287001E0002028701D205F
:1008000000F0C6FD300000016946097C4900014343
:100810003943C9B21D2000F0B5FD1E2000F0B8FD1F
:10082000082108402100090101430FA80078800039
:1008300008436946098E090A8907890F0143C9B22D
:100840001E2000F09FFD262000F0A2FDF7220240AE
:100850002878C1001143C9B2262000F093FD6846F4
:10086000018EC9B21F2000F08DFD6846808D010009
:10087000090A202000F086FD6846818DC9B221203A
:1008800000F080FD002F04D00EA80178222000F097
:1008900079FDE87900280BD0442000F079FD802113
:1008A0000143442000F06EFD297A242000F06AFD07
:1008B000092E0DD102980068AB49884208D3022165
:1008C000362000F05FFD64213A2000F05BFD0EE071
:1008D000092E08D10221362000F054FD7F213A2054
:1008E00000F050FD03E00321362000F04BFDF82519
:1008F000062C0DD1312000F04BFD05400521294388
:10090000312000F03FFD0C21372000F03BFD0CE0D2
:10091000312000F03DFD054003212943312000F046
:1009200031FD0A21372000F02DFD05B0F0BD00009B
:10093000240000100000F03F0000204000408F40E5
:1009400080847E41F1B50F0016001D0068460078D6
:1009500000F0DAFC380001F0CFFA069C0D980E99F1
:100960006A461278002A02D0012A68D0F1BD7F4A77
:10097000103217705660956014616B461B8C938221
:1009800009AB1B7893750AAB1B7813765076D1614F
:10099000300001F03FFB0022754B01F04BFB01F0F2
:1009A000BFFB0600B6B23100090A042000F0EAFCE1
:1009B0003100C9B2052000F0E5FC200001F02AFB5F
:1009C00002000B0000206B4901F034FB01F0A8FB92
:1009D0000400A4B22100090A022000F0D3FC210087
:1009E000C9B2032000F0CEFC6846008C0100090A61
:1009F000252000F0C7FC6846018CC9B2262000F013
:100A0000C1FC302000F0C4FC09A90978002901D0FC
:100A1000002200E080226F2101400A430AA80078EA
:100A200001011143C9B2302000F0ACFC312000F0CC
:100A3000AFFC40210143312000F0A4FCF1BD4B4A42
:100A4000443216003770032D00D3FEE7ED1D7560AC
:100A5000B460079F77736A46128CF28109AA1278F4
:100A600032740B9AF2740C9A32750AAA1278B27424
:100A70007075B1610D2C01D30C2402E0062C00D25C
:100A80000624072D03D10B2C05D00C2C03D0082DE8
:100A900004D10C2C02D10120307301E0002030730E
:100AA000F07C00280BD0442000F072FC8021014330
:100AB000442000F067FC317D242000F063FC1D2001
:100AC00000F066FC28017A00024309A8017811436E
:100AD000C9B21D2000F056FC1E2000F059FC0B216D
:100AE00001402000000108430AA909788900014358
:100AF000C9B21E2000F046FC262000F049FCF72277
:100B00000240307BC1001143C9B2262000F03AFCFC
:100B10006846008C0100090A202000F033FC68467A
:100B2000018CC9B2212000F02DFCF825062C0DD136
:100B3000312000F02DFC054005212943312000F033
:100B400021FC0C21372000F01DFCF1BD312000F00C
:100B50001FFC054003212943312000F013FC0A212A
:100B6000372000F00FFCF1BD41DD4A1F24000010CA
:100B700080844E4080847E41F2B588B0010000251B
:100B80002800002902D001295ED0E5E0272000F0EE
:100B9000FFFB69460871C44C2034009420468079DC
:100BA0000028284603D0014602AA03C202E0BF493A
:100BB00002AA03C2302000F0EBFB062108422E46B9
:100BC00001D0BA4F00E02F460098007A00282C464A
:100BD00001D08025ED050098808869460979F822C2
:100BE00091434018401C01F00BFA02AA0CCA01F014
:100BF000AFFB32003B0001F0ABFB06000F0008A882
:100C0000007801F007FA32003B0001F0A1FB22005E
:100C10002B0001F09DFB2246A54B01F0D7FA040002
:100C20000D000098006801F0F5F902000B002000AB
:100C3000290001F0FFF900229E4B01F0C7FA01F0F4
:100C40005BFC01F07FFA87E006460746964C2000E1
:100C500020300090806A072804D008D3092805D0E6
:100C600002D304E0944F02E0944F00E0944F0098C8
:100C7000C06A029001200299884001F0C1F9020087
:100C80000B003000390001F0D5F902000B002846B6
:100C9000864901F0CFF904AA03C2503426007088B7
:100CA00001F0B8F92A46874B01F052FB04AA0CCA9E
:100CB00001F08CFA06AA03C23079002801D0142072
:100CC00000E028003178002900D0022508A9097821
:100CD000C900029A9200891AB279120189181C314E
:100CE000081A01F097F9009001910298401B8000CA
:100CF00001F090F902000B000098019901F09AF9B7
:100D000001F01EFC04000D007078001D01F078F960
:100D100022002B0001F05AFA0022134601F03CFC9D
:100D200001D310460146624B01F012FB02000B009A
:100D300004A803C801F04AFA06AA0CCA01F008FB8D
:100D400000225C4B01F042FA5FA20CCA01F000FBEA
:100D500001F03CFC01F0F6F909B0F0BD73B50600F6
:100D60000020514C210009310A78002A02D0012AC2
:100D700032D071E025002C35A8826846007968825F
:100D8000487F002804D1012101A800F093FB04E072
:100D900068460179322000F0F5FA684600790028AB
:100DA00007D068460079412803DA68460079E8757B
:100DB00008E06846027931007034200001F0DAF969
:100DC0002020E875E97D300000F074FBA88AE97DF9
:100DD0004018A88228683FE05920205C00280CD0E9
:100DE000332000F0D5FABE210140332000F0CAFACA
:100DF00019213B2000F0C6FA0DE0332000F0C8FABC
:100E0000BF22024001211143332000F0BBFA1D2113
:100E10003B2000F0B7FA5C346846007920736846DE
:100E20000179222000F0AEFA00210E2000F0AAFA8B
:100E300000210D2000F0A6FA012000F0A9FA4007D9
:100E400004D100F01EF8012001F09FF968460179F5
:100E5000300000F02FFB206800F052F973BD10B590
:100E6000114CC2204000201800F09FFEB820400026
:100E7000201800F09AFE002000F02EFA00202072C8
:100E800010BD10B5084CC2204000201800F08DFEA7
:100E9000B8204000201800F088FE012000F01CFA65
:100EA0000020207210BD0000240000100000F03F60
:100EB0000000204000408F408084FE4080840E412E
:100EC00080841E41000011402B8716D9CEF7EF3FDA
:100ED000F1B582B000273E00C04C200008300090E1
:100EE0004078002802D0012825D0D4E02A20265CB2
:100EF000402000F04DFA0007000F0C210143402074
:100F000000F040FA412000F043FAC12101434120A2
:100F100000F038FA25003035352000F039FA800627
:100F2000800EA8741E210D2000F02CFA3800A88035
:100F30002882EF81AFE027005737B87800280CD01F
:100F4000332000F025FA41210143332000F01AFA42
:100F500019213B2000F016FA0DE0332000F018FABA
:100F6000BF22024001211143332000F00BFA1D2162
:100F70003B2000F007FA25003035A86909285DD22A
:100F8000312000F005FA4106490E312000F0FAF94F
:100F90003146302000F0F6F9A869082856D801A19A
:100FA000095C8F44081E344A60768C8C8C00482182
:100FB0002F2000F0E7F900984068B8494018FFF783
:100FC00024FA43E044212F2000F0DCF90098406827
:100FD000B3494018FFF719FA38E044212F2000F0F8
:100FE000D1F900984068AF494018FFF70EFA2DE09C
:100FF00044212F2000F0C6F900984068AA49401803
:10100000FFF703FA22E044212F2000F0BBF90098FB
:101010004068A6494018FFF7F8F917E044212F204F
:1010200000F0B0F900984068D5494018FFF7EDF995
:101030000CE040212F2000F0A5F907E0312000F05E
:10104000A7F980210143312000F09CF9FE7838781F
:1010500000280CD01D21112000F094F9402000F050
:1010600097F933210140402000F08CF90BE01F215B
:10107000112000F087F9402000F08AF98106890EDE
:10108000402000F07FF900210F2000F07BF90021C3
:101090000D2000F077F900228021490020007030F7
:1010A00001F0C0FA0120009908700298002809D0C8
:1010B000C220400025180299280000F08BFD28006E
:1010C00000F02CFD0098407800280FD1052000F09A
:1010D00003F9002E13D1CC2040002518216B2800E5
:1010E00000F078FD280000F019FDF7BD002E03D0B8
:1010F000052000F0F1F8F7BD062000F0EDF8F7BD8F
:10110000F8B5364DB82149006F180100380000F0DD
:1011100061FD2E0008367078002802D001281AD010
:101120003BE0402000F034F98007800F102101439C
:10113000402000F027F9412000F02AF93E2101402B
:10114000412000F01FF9352000F022F98006800EC2
:101150004235287021E040244235687D00280ED0B9
:10116000F521112000F00EF9204600F011F933218D
:1011700001400C432100402000F004F90DE0F7216C
:10118000112000F0FFF8204600F002F98006800EE2
:1011900004432100402000F0F5F8022030703800B0
:1011A00000F0BCFC032000F097F8F1BD10B50B4C2B
:1011B000607A012810D1FA21112000F0E3F84020D4
:1011C00000F0E6F8FC210140402000F0DBF80320AD
:1011D0002072072000F080F810BD000024000010ED
:1011E00070B58AB00C00FA26B6005643FFF70DF929
:1011F0000896002007900690059004900390052023
:1012000002900020019096204001009000231A4691
:1012100021001046FFF796FB312000F0B9F8BF21FE
:101220000140312000F0AEF8F021402000F0AAF893
:10123000A021412000F0A6F8BB4CB82040002518A2
:101240003100280000F0C6FC02202072280000F0C7
:1012500065FC032000F040F80AB070BD80B500289E
:1012600002D0012807D015E0112000F091F801000C
:101270004908484210E0AC48C068AC49884204D3F1
:101280001B2000F085F89D3806E01B2000F080F858
:10129000A43801E00020C04300B202BD821E00005D
:1012A000B4280000043D00005E510000127A0000E6
:1012B00010B5A02424060F2200212000FFF72AF8F1
:1012C000012000F062FF0F2200212000FFF71AF832
:1012D000062000F05AFF10BD10B5040003D1012014
:1012E00000F070FE05E0002000F06CFE2000C0461B
:1012F000C046012000F04CF8F82101400C432100C9
:10130000012000F03FF810BD70B50500864E802426
:10131000012000F03DF820400100491E8941C943E9
:10132000C90F7172707AA84228D0757228460128B8
:1013300012D0FFF794FD012000F02AF84106490E73
:10134000012000F01FF80021402000F01BF83021A0
:10135000412000F017F870BDFFF781FD012000F07B
:1013600017F804432100012000F00CF80021402070
:1013700000F008F80021412000F004F870BD0000E2
:10138000C6A2000002B50122694600F009F801BDBD
:1013900080B50122694600F046F86846007802BD33
:1013A000F7B506000025964C3C212000FEF7BEFF55
:1013B0008022920308212000FEF7BAFF2000FEF7EA
:1013C000B1FF8007FAD5802131432000FEF7B7FF37
:1013D00001272000FEF7A6FF3840FAD02000FEF7D4
:1013E000BAFF0DE008222000FEF7ABFF2000FEF759
:1013F00099FF3840FAD02000FEF7ADFF6D1CADB26A
:101400006846067AB5420DDA2000FEF78BFF8007AA
:10141000FAD50198415D761EB542E3D02000FEF773
:101420008EFFE3E7F7BDF7B506000025744C3C21BD
:101430002000FEF77BFF8022920308212000FEF7A8
:1014400077FF2000FEF76EFF8007FAD57106490E80
:101450002000FEF774FF01272000FEF763FF3840ED
:10146000FAD02000FEF777FF0199087010E00822FB
:1014700055212000FEF765FF2000FEF753FF38409E
:10148000FAD02000FEF767FF019948556D1CADB2F8
:101490006846067AB5420CDA2000FEF743FF800763
:1014A000FAD5761EB542E2D055212000FEF747FF5F
:1014B000E2E7F7BD80B50A0001000020FFF770FFEA
:1014C00001BD80B50A0001000020FFF7ACFF01BD9F
:1014D00038B505000C00FFF717FF002D02D0012DD5
:1014E00009D031BD47480078002808D121003220BA
:1014F000FFF748FF31BD21002320FFF743FF31BD37
:1015000010B504000120FFF7FFFE3F480470002CD7
:1015100004D034213920FFF735FF10BD12213920C6
:10152000FFF730FF10BD00002400001041DD4A1F0E
:10153000F8B5364E3000083000900078012802D00F
:10154000022833D0F1BD00984078002825D135001D
:101550002A35002420006881E882A8820B213E20E1
:10156000FFF710FF10213F20FFF70CFFCC204000B9
:101570003718287800280BD00D20FFF709FF4021ED
:1015800001430D20FFF7FEFE380000F0C7FA04E02B
:1015900000980470380000F008FB6036F0680028FE
:1015A0002CD0C068010029D08047F1BDFFF780FE34
:1015B000FEF78EFF0020FFF78FFE002425000BE0D2
:1015C00013A06900491947183878FFF79DFEB978CC
:1015D0007878FFF7D7FE6D1C102DF1D32046FFF76A
:1015E00093FE60363078FFF78BFF00980470F06848
:1015F000002803D04068010000D08047F1BD000002
:1016000000C005404A0000108400001024000010B3
:10161000000C23000D1E000ED2001A01001FAA00AC
:1016200024070027120028C1002994002AC1003095
:10163000D800358F003B02004000004130012340BC
:10164000F0B583B00025280069460871012196484D
:10165000FEF756FE954C270008373878012803D04E
:10166000022800D10BE1F7BD7878002803D00128CB
:1016700000D188E0F7BD260028363078002835D024
:101680003F20FFF785FE69460871684600798007AC
:101690002CD40B213E20FFF775FE10213F20FFF7D1
:1016A00071FEC2204000201800F07FFACC204000DC
:1016B00020180090B078002805D1009800F075FA45
:1016C000280038700AE00D20FFF762FE4021014338
:1016D0000D20FFF757FE009800F020FAE06E00287A
:1016E0004CD00069010049D0804747E0F08A0028CB
:1016F0000FD1308B00280CD1B87F002805D10121F3
:1017000020003E30FFF7DDFE03E03220FFF740FE11
:10171000F082308BF18A0200891AC9B22018703029
:10172000FFF7CFFEF08A3083C2204000201800F07F
:101730003CFACC20400020180090B078002805D159
:1017400028003870009800F030FA0AE00D20FFF70A
:101750001FFE402101430D20FFF714FE009800F00A
:10176000DDF9E06E002809D08768380006D02B46E6
:101770000E203256F18A70342000B8472800B0811C
:101780003083F582F7BD40211220FFF7FBFD1220C8
:10179000FFF7FEFD6946087126005A366846007953
:1017A000800614D520211220FFF7ECFD30780028A8
:1017B00000D13D70C2204000201800F0F6F9E06E24
:1017C000002870D0006901006DD08047F7BD192056
:1017D000FFF7DEFDB0720A2031563F200A0608D519
:1017E000CA43521C110089100840414249B200917D
:1017F00002E08910084000901A20FFF7C9FD01009F
:1018000000110A187868BD49009B002B08D5D21832
:10181000884202D39D3AB28109E0A43AB28106E03F
:10182000884202D39D3AB28101E0A43AB2811320EA
:10183000FFF7AEFDB0731020FFF7AAFD01000D20E9
:10184000FFF7A0FDB17B20007030FFF73AFE307843
:10185000002800D13D70C2204000201800F0A5F9FA
:10186000E06E00281FD0856828001CD00A2033565F
:101870000C20325EB17B70342000A847F7BDB82041
:101880004000201800F091F97878012803D1082150
:101890001220FFF777FD3D70E06E002803D000684E
:1018A000010000D08047F7BD004000A024000010D8
:1018B00070B502219248FEF723FD924D2C000834AA
:1018C0002078012802D0022844D070BD607800281A
:1018D00002D001282BD070BDE08E00280FD1208FC0
:1018E00000280CD1A07F002805D1012128003E301E
:1018F000FFF7E7FD03E03220FFF74AFDE086228F85
:10190000A818E38E423529789E1AB14207DA703062
:10191000FFF7D7FD208F29784018208770BD991ACE
:10192000C9B27030FFF7CDFDE08E208770BDC220B8
:101930004000281800F039F980211220FFF722FD1D
:1019400000202070E86E00281ED0C06801001BD067
:10195000804770BD6078002816D1228FA818E38ECA
:10196000423569789E1AB14207DA7030FFF7A2FD5E
:10197000208F69784018208770BD991AC9B27030DD
:10198000FFF798FDE08E208770BD38B504215C48D4
:10199000FEF7B6FC5B4D2800401DC178012902D03E
:1019A000022952D031BD0179002902D0012935D058
:1019B00031BD2C0034340078002801D10120207082
:1019C000207801285AD16078002857D1CC204000D7
:1019D000281800F0EAF8012060701120FFF7D8FC09
:1019E00040084142A1701B20FFF7D2FC05021C20D9
:1019F000FFF7CEFC284300F003FB00F091FB00F062
:101A0000FFFA0022404B00F0E1FB00F089FB606030
:101A10000C20FFF7BDFC4009207231BD5720285C27
:101A200000282BD002211220FFF7ACFCE86E002822
:101A300024D04069002821D01C20FFF7A9FC800693
:101A4000800EE96E4969884731BD0079012815D1BA
:101A50005720285C002811D002211220FFF792FCA9
:101A6000E86E00280AD04069002807D01C20FFF744
:101A70008FFC8006800EE96E4969884731BD10B53C
:101A800008211F48FEF73CFC1E4C607A01281DD13E
:101A90001220FFF77DFCC0070CD505211220FFF7AF
:101AA00071FCE06E002811D0816908000ED0012081
:101AB000884710BD04211220FFF764FCE06E002867
:101AC00004D08169080001D00020884710BD80B58E
:101AD00010210B48FEF714FC0A48417A002906D170
:101AE0003421415C002902D101213430017001BD53
:101AF00080B520210248FEF703FC01BD41DD4A1FED
:101B0000004000A02400001080844E4000220260AB
:101B1000426013000372C16002617047F8B50400AF
:101B2000324D6E68370000F03EFB002C0DD060682F
:101B300000280AD020602968401820600120207207
:101B4000200000F03BF8002802D000F032FBF1BD8D
:101B50006868002803D16C6000F02BFBF1BD36698A
:101B600001E037003669002EFBD13C6100F021FB1B
:101B7000F1BD38B51D4C656800F015FB2068401CB0
:101B800020600DE0287A002809D028682168884262
:101B900005D100202872E868010000D080472D6937
:101BA000002DEFD100F005FB31BD10B5040000F0B1
:101BB000FAFA0020207200F0FCFA10BD0B494968C7
:101BC00000E00969002903D08142FAD10120704761
:101BD0000020704738B505000C00FFF7E6FF2C60C9
:101BE0006C6031BD014800687047000010020010B1
:101BF0000121C006C00E8140BA4801607047BA4951
:101C00000A6801238340B948184382430A60704739
:101C1000B549012282400868B54B034013430B606D
:101C2000704710B50400FFF7EAFF2000FFF7F0FF50
:101C300010BDB04A800011507047DA49012282403D
:101C40000868C0B2104308607047D749012282403B
:101C50000868DA4B034013430B607047D2490A68A7
:101C600001238340D648184382430A6070470268C4
:101C7000FF23DB430B439A43026070478160704748
:101C800001239340890040188E21890143507047F9
:101C900001239340890040189021890143507047E7
:101CA00080B5002B02D0FFF7EBFF01BDFFF7F0FF7F
:101CB00001BD0268FF23BE3313400B43036070472E
:101CC0000268FF23BE338B4313400360704780B527
:101CD000C449884206D10C20FFF7B7FF0120FFF767
:101CE000A0FF01BD0B20FFF7B0FF0020FFF799FF19
:101CF00001BD80B50121FFF7DCFF01BD38B504004F
:101D00000D003C21FFF7DCFF29002000FFF7D1FF89
:101D1000F0200003206231BD38B511210020FFF70B
:101D200088FF0020FFF789FFA0242406112200214C
:101D30002000FFF7ADFF12210120FFF77AFF0120FD
:101D4000FFF77BFF122200212000FFF7A1FF1321E4
:101D50000220FFF76EFF0220FFF76FFF1322002122
:101D60002000FFF795FF15210320FFF762FF0320F6
:101D7000FFF763FF152200212000FFF789FF1621DE
:101D80000420FFF756FF0420FFF757FF162200211B
:101D90002000FFF77DFF01230F2200212000FFF725
:101DA0007FFF914D03220A21280000F05BFC0123F4
:101DB000182200212000FFF773FF032218212800BA
:101DC00000F050FC0123192200212000FFF768FFDA
:101DD00003221721280000F045FC00231B2219468E
:101DE0002000FFF75DFF00221521280000F03AFCDB
:101DF00001231A2200212000FFF752FF032216219F
:101E0000280000F02FFC0720FFF71FFF182161209A
:101E100000F032FC1921522000F02EFC1B21602022
:101E200000F02AFC1A21532000F026FC0720FFF7BF
:101E300015FF6C4C2000FFF74AFF04212000FFF73C
:101E40005DFF0020694602000A60200000F038FCB7
:101E50002000FFF74EFF31BD10B5644C012120007A
:101E6000FFF705FF01212000FFF708FF1820FFF70B
:101E7000BFFE02212000FFF7FAFE02212000FFF73B
:101E8000FDFE1920FFF7B4FE04212000FFF7EFFE4E
:101E900004212000FFF7F2FE1A20FFF7A9FE082117
:101EA0002000FFF7E4FE08212000FFF7E7FE1B20DB
:101EB000FFF79EFE10212000FFF7D9FE1021200021
:101EC000FFF7DCFE1C20FFF793FE20212000FFF728
:101ED000CEFE20212000FFF7D1FE1D20FFF788FE57
:101EE00010BD000000E100E0048004400020FEFF7F
:101EF000FFDF01007881044070B505000920FFF77D
:101F000047FA06004D20FFF743FA04007606760EE6
:101F10003748C06800F04AF8304370210143280078
:101F20000A00120627D50722122803DB230014001B
:101F30001C4303E0F823234004241C432240072AC7
:101F40000CD1052800DA0525152D00DB1425F0201D
:101F50000840691F0907090F01431AE0022800DA47
:101F60000225122D00DB1125F0200840A91E0907CB
:101F7000090F01430DE00022D243904200DA1546DA
:101F80000F2D00DB0E25F02008406D1C2907090FDE
:101F900001430920FFF7F6F921004D20FFF7F2F980
:101FA00070BD0000048204408080044011498842D2
:101FB00001D280207047002070470000FFFFEF250E
:101FC000000010DA0C490A78824200D1704780B5CF
:101FD0000870002802D1C046C04601BDC046C046B8
:101FE00001BD000000C0054000400440004000A0CA
:101FF0002400001040DD4A1F22020010012070471B
:10200000010009D5F446404200F006F80122D2074B
:1020100011436047010000BF42221201D21E00425C
:1020200007D002D4521E0018FCD5C10A4005120583
:1020300089187047F0B40E005E400125ED072E4070
:10204000B446AE0ADF184C18F4423BD2F74241D2F4
:10205000640D43D07F0D38D0E41BC902DB02294355
:102060002B43CF0ADB0A0600B61A9F4104D2641E36
:10207000B6197F41B6185F416812800D2418001808
:10208000844222DAE80C0021B6197F41B61A9F413A
:1020900002D2B6185F413F1C40414941F4D3241C91
:1020A00021DD2405B6197F41B61A9F4105D3374378
:1020B000C60737430026012F704161416646314310
:1020C000F0BC7047FCD1F74205D20020C14349055E
:1020D0004908F3E704D00020C143F1E77F0DFAD0AF
:1020E00000206146ECE72442FAD1401C61410F0315
:1020F000F6D30020E2E730B4012100220368001D7E
:10210000002B0BD00468001D0C4202D04D466D1E02
:1021100064192260241D1B1FF0D0FAE730BC704701
:10212000F4464A1805D200F00FF801D58017400890
:10213000604700F009F80121C907884200D908006A
:10214000404260474A1812D2400DC902084301219B
:10215000C9070843520D40210901521A521C06D4E6
:1021600052421F3201D4D0407047C0177047002040
:102170007047FEE703E00B780370491C401C130016
:102180005A1E9BB2002BF6D170470020010003E0DD
:10219000521C052AFCD3491CFA229200914201D21A
:1021A0000200F6E7704772B607480178491C0170D3
:1021B000704705480178491E0170C9B2002900D155
:1021C00062B670470000000023020010F0B50E0058
:1021D0005E400125ED072E40B446AE0ADF184C18CC
:1021E000F44208D2F7420ED2640D01D07F0D12D115
:1021F00000206146F0BD05D1F74201D87F0D05D121
:102200000020C143F0BDFBD1640DF9D00020C143D3
:10221000490549088FE0E419C902DB0229432B4331
:10222000DB0A460DC00231438E4630B487B295B208
:102230007D432E0CADB2140C7C43A419260C24044F
:1022400025439CB27C43A419190C7943270CC91966
:10225000A4B20F043C43090C000C97B247432E0C68
:10226000BE193543ADB2170C4743360CBF19A6B2A1
:10227000BF193E043543240C3E0C36199FB2474328
:10228000BF19BCB23E0C89191F0C47437F183E048E
:102290003443390C704680B297B247432E0CBE19B6
:1022A0003543ADB2170C4743360CBF19A6B2BF1960
:1022B0003E043543240C3E0C36199FB24743BF19E8
:1022C000BCB23E0C89191F0C47437F183E043443AF
:1022D000390C77463F0C90B278432E0C80190604D7
:1022E000ADB22E43050CA0B22D18120C7A43501932
:1022F000020C80B2240CA4189AB27A431219140466
:102300002043120C89181B0C7B43C91830BCEF0A00
:10231000394203D1B61940414941641E6F12BF0DC5
:10232000E41B0BDBFF19BC4211DA2405002742082D
:10233000AE417841614166463143F0BD641C05D130
:10234000401C6141CF0201D34908F4E750E75DE743
:10235000F0B40125ED070F005F404FD48B4200D150
:10236000824205D98446100062468C4619006346B5
:10237000DF184C18640D7F0D3AD0661C760537D0F7
:10238000E61B352E34DCDB022B43DB0A0C0DC902C5
:102390002943C912202E0DDB1700203E06D01F0056
:1023A000F741F3405F400026012A7741C018714190
:1023B0000DD217E01700F741F2405740F3415A4061
:1023C000B340F3405A400026801859410AD3A21C5A
:1023D00052050FD0C207012F724117004008CB07EA
:1023E00018434908641C24054208AF41704161410B
:1023F000F0BC7047641C21050020F9E76B400AE03F
:102400006B40ABE7F742F3D1E943F1E72442EFD168
:1024100000200021ECE70C00871A9C4105D2C01B6C
:10242000A141D219634169406B40AE0ADF184C18D4
:10243000F442E7D2640D7F0DE8D0E61B362ED7DCE0
:10244000DB022B43DB0AA4460C0DC9022943C90A4F
:10245000012E28DC04D1D6075208DF073A435B0877
:10246000EF0A76429041994114D039423BD1B619D6
:1024700040414941761C394204D1761C001849413B
:102480003942FAD0B9436746B74208D9A41B24059C
:102490002143ADE70042EAD13642E8D1A8E7E40A99
:1024A000E1070020A4E7202E0BDD203E1F00F340B3
:1024B000F7415F40012A002257417E4298419141F5
:1024C0000BE01700F741F2405740F3415A40B34048
:1024D000F3405A407E42904199410A0303D2641E60
:1024E000B619404149410027641E24054208AE4107
:1024F00078416141F0BC704783B50121684600F026
:10250000F5F8401E012813D90021684600F0EEF8C6
:1025100000280DD00198002868460CC802D500207C
:10252000054901E000200549FFF712FF6A4603C292
:10253000684603C803B000BD0000F0BF0000F03FD4
:102540004A00520DFF239B009B1CD21A19DD352334
:102550009B1A1EDD1300153B09DA9B41DB0AD340B1
:10256000094201D4401E594100209943704700227E
:10257000D243DA40094202D40023801859419043E3
:1025800070470B0D5B0500D0024901D30121C9073B
:10259000002070470000F03F30B4012464054D0076
:1025A000EC420BD85D00EC4208D80C001C436400E0
:1025B0000443144304D28B4200D1824230BC7047A2
:1025C000FCD09942FAD19042F8E7FEE74A00520D5A
:1025D000FF239B009B1CD21A19DD35239B1A1DDD9E
:1025E0001300153B09DA9B41DB0AD340094201D5B0
:1025F000401E59410020994370470022D243DA40DF
:10260000094202D5002380185941904370474B007E
:10261000034300D0024900D200210020704700008F
:102620000000F0BF1206130A1A43130C1A4300BF2E
:10263000130030B414001500103902D310393CC017
:10264000FCD2490700D30CC000D504C0890002D3D6
:102650000280801C002900D5027030BC7047000049
:102660000022E5E789004018016818239943D20049
:102670000A4302607047FEE710B50207520E0009D8
:102680000D4B800018180368FF249440A343914029
:102690001943016010BD01228240084800290168E9
:1026A00004D0FE231B061343994302E0C901C90964
:1026B000114301607047000000C00040C0C10040ED
:1026C00010B50F220B7813404C78144024011C43A2
:1026D0008B7813401B022343C978002904D01C00C7
:1026E000491E0A4013032343436010BD4268520051
:1026F000520D1F4B9A4209D14168090304D1006869
:10270000002801D1012070470220704743685B0018
:1027100002D10368002B28D0164B9A1A521A012AAC
:1027200023DB352A07DB4168802212061140416015
:102730000021016016E00121D306DB0E9940491EFD
:10274000920608D542680A404168514041600368DA
:102750001343002103E003680B4001685940016006
:10276000002B02D00020C04370470020704700BFFC
:10277000FF0700003304000028490A68086070471A
:1027800070B50C00264E310000F0FAF985B2200039
:10279000310000F0F5F980B2002200241F2803DA8E
:1027A000612D00BF21A104DB002070BD521C472A0F
:1027B00032D20C235343CB181E88B542F6D15B8826
:1027C0009842F3D117480280012400880C2242432A
:1027D0008D18022000F036FA002000F043FA0020A5
:1027E00000F042FA0120FFF7C7FF802000F020FA36
:1027F0000D4EA879C006C00E297A8907490E0143FB
:102800003160802000F01EFA7068C007FCD568892E
:102810003067032000F028FA200070BD100004404B
:1028200040420F0020020010088004400C000C0001
:10283000C0000000030001000C000600C000000002
:10284000030002000C000400C000000003000300AD
:102850000C000300C0000000030004000C00020094
:10286000C0000000030006000C000100C0000000D2
:1028700003000C0018001800C00001000200010055
:1028800018000C00C000010002000200180008003F
:10289000C00001000200030018000600C000010093
:1028A0000200040018000400C0000100020006003D
:1028B00018000300C0000100020008001800020018
:1028C000C000010002000C0018000100C00001005F
:1028D0000200180024001200200102000200020081
:1028E00024000C0020010200020003002400090063
:1028F0002001020002000400240006002001020062
:102900000200060024000400200102000200090069
:10291000240003002001020002000C002400020039
:102920002001020002001200240001002001020028
:102930000200240030001800C00003000100020063
:1029400030001000C00003000100030030000C0044
:10295000C00003000100040030000800C0000300B4
:102960000100060030000600C0000300010008005E
:1029700030000400C000030001000C003000030020
:10298000C00003000100100030000200C00003007E
:102990000100180030000100C000030001003000F9
:1029A0003C001E00F0000400010002003C00140086
:1029B000F0000400010003003C000F00F0000400E0
:1029C000010004003C000C00F000040001000500C0
:1029D0003C000A00F0000400010006003C00060074
:1029E000F000040001000A003C000500F0000400B3
:1029F00001000C003C000400F000040001000F0086
:102A00003C000300F0000400010014003C00020040
:102A1000F000040001001E003C000100F000040072
:102A200001003C00480018002001050001000300DF
:102A300048001200200105000100040048000C00BD
:102A400020010500010006004800090020010500E2
:102A500001000800480008002001050001000900ED
:102A6000480006002001050001000C004800040099
:102A700020010500010012004800030020010500AC
:102A80000100180048000200200105000100240098
:102A900048000100200105000100480054001C000E
:102AA000A80006000000030054001500A80006005E
:102AB0000000040054000E00A800060000000600FC
:102AC00054000C00A8000600000007005400070096
:102AD000A800060000000C0054000600A800060034
:102AE00000000E0054000400A800060000001500BD
:102AF00054000300A800060000001C00540002005F
:102B0000A800060000002A0054000100A8000600EA
:102B10000000540060001800C0000700000004001E
:102B200060001000C00007000000060060000C00FC
:102B3000C00007000000080060000800C000070097
:102B400000000C0060000600C0000700000010003C
:102B500060000400C00007000000180060000300CF
:102B6000C00007000000200060000200C000070055
:102B70000000300060000100C0000700000060009D
:102B80000022030A8B420BD203098B4219D243085D
:102B90008B422ED2411A00D2014652411046704754
:102BA000FF2209023FD012068B4205D312120902FE
:102BB0008B4201D31212090203098B4219D300E0A0
:102BC000090AC3098B4201D3CB01C01A52418309C0
:102BD0008B4201D38B01C01A524143098B4201D36E
:102BE0004B01C01A524103098B4201D30B01C01A99
:102BF0005241C3088B4201D3CB00C01A5241830813
:102C00008B4201D38B00C01A524143088B4201D33F
:102C10004B00C01A5241884200D3401A5241CFD2D1
:102C200001461046704708B5C046C04608BDFEE7DD
:102C30000B490A681043094A0240DA20C0011043D8
:102C40000860704706490A68824304481040DA2247
:102C5000D20102430A60704700000000FF800000BC
:102C6000388204402C4900E02C490860002048606C
:102C7000012048607047000000B529480068C10580
:102C8000C90D00BF2CA04A0992008058C906C90E80
:102C9000491C4900FFF774FF00BD1F48006880070A
:102CA000800F04D0012804D0032804D006E01D487A
:102CB00070471D4800E01D480068704700207047BD
:102CC00080B5FFF7EAFF1A490968C906C90E491C11
:102CD000484302BD80B50020104909688907890F63
:102CE00005D0022908D004D3032908D002BD0D481D
:102CF00002BDFFF7D2FF02BDFFF7BEFF02BDFFF727
:102D0000DFFF02BD80B5FFF7E5FF0A490968C9B2D8
:102D1000FFF736FF02BD0000408004407080044091
:102D200024800440001BB700C0320000C432000001
:102D3000088004407880044000000000C02709009B
:102D400090051000C05C1500F0B31A00200B2000A5
:102D5000009F2400E0322900C0C62D0050973100AA
:102D6000E06735007038390000093D00401640002A
:102D700080234300C030460010B48207920FD30076
:102D8000FF249C40E2438901C9B2994003000BD55E
:102D9000A1481B071B0F083B9B089B00C01803683A
:102DA0001A401143016007E09C489B089B00C01833
:102DB00003681A401143016010BC704710B5401EF3
:102DC00080214904884201D3012010BD944C6060E9
:102DD00003210020C043FFF7CFFF0020A0600720A1
:102DE0002060002010BD8F490122824008688E4B70
:102DF000034013430B607047F0B58BB0012600F021
:102E000033F90020FFF7EFFF88480068FA218900B6
:102E1000FFF7B6FEFFF7D2FF854D8648A8608648CB
:102E200028618648E860864868618648A86128006D
:102E3000083085490968884784488349C9688847B4
:102E40008348089000200790069005903046049033
:102E50000020039008200290304601900720009047
:102E600000231A4614213046774CE469A0473046C7
:102E700009900020089007900690304605900020A9
:102E800004900390052002900820019000200090FB
:102E900033460722014618466B4CA469A0476A488E
:102EA000476BFA208000B84704E0FA208000B8475A
:102EB000002028702878401E06D0401E012852D9D4
:102EC000801E01286ED9F5E7002EA88829D0002899
:102ED000EED0604C042200BF61A1200000F0CCF8CD
:102EE000002811D150202070492060704E20A07021
:102EF0004720E0700420A988884249DA0100091FB0
:102F00002154401CC0B2F6E7042200BF52A12000A9
:102F100000F0B2F8002821D10026FA208000B8473E
:102F2000C6E70028C4D04B4C042200BF4AA12000B1
:102F300000F0A2F8002811D1502020704F206070BE
:102F40004E20A0704720E0700420A98888421FDA34
:102F50000100091F2154401CC0B2F6E70126FA20E7
:102F60008000B847A4E7002E9FD03A4C5020207034
:102F7000492060704E20A0704720E070042004E0DB
:102F80000100091F2154401CC0B2A9888842F7DB08
:102F90000120FFF7FAF8A988C9B220462A4A926AA6
:102FA000904785E7FA208000B8470020287081E725
:102FB00080B52548C06A804704201D49087001BDBE
:102FC000F1B50E0015001C001F48C06A8047184F5D
:102FD000BE80324600991F4800F064F87D70BC70D6
:102FE00001203870F1BD80B51748C06A80470520C0
:102FF0000F49087001BD80B51348C06A80470220A0
:103000000B49087001BD80B50F48C06A8047032096
:103010000749087001BD00001CED00E000E400E07D
:1030200010E000E080800440FFFFEF251C0200104C
:1030300000000010B12F0000C12F0000E72F00009A
:10304000F72F00000730000090310000400ECF192C
:10305000B80B0000D001001050494E47000000009E
:10306000504F4E470000000080B5FFF74BFE01496E
:10307000086001BD1C02001010B402E0401C491C95
:10308000521E002A0BD00B7804789C4205D002D245
:103090000020C04304E0012002E0002CEED100201B
:1030A00010BC7047124207D08B0706D00B78491C22
:1030B0000370401C521EF7D87047830706D00B7868
:1030C000491C0370401C521EF9D1704770B4103A6D
:1030D00003D378C9103A78C0FBD2530701D318C97B
:1030E00018C001D508C908C0D20704D30B880380D3
:1030F000891C801C002A01D50B78037070BC7047B6
:103100001649012282400868154B034013430B60A7
:10311000704710B500F032F80720FFF7F1FF2020CC
:10312000FFF790FD0F4C00220E212000FFF79AFAC6
:1031300000220D212000FFF795FA01210620FFF75C
:10314000AAFA01210720FFF7A6FA04480168064AF7
:103150000A400260FFF788FF10BD00008080044035
:10316000FFFFEF25004004407FFFEF2580B51220D0
:10317000FFF7C6FFFFF7CDFF01BD000080B5FFE7F9
:1031800002494800FFF7FCFA01BD000080C3C901F5
:103190005D03000005040000091300000B0400009B
:1031A000470400008F0400004D06000045090000A0
:1031B000FD1F0000790B00005D0D00005F0E000098
:1031C000830E0000D10E0000AD110000E1110000DF
:1031D0005D1200008513000091130000A113000090
:1031E00027140000D11400000115000030B40121A3
:1031F0000268001D002A0FD00368C3184468083015
:103200000C4202D04D466D1E64191D6825601B1DC1
:10321000241D121FECD0F8E730BC704710B50749E9
:1032200079441831064C7C44163404E0081D0A68C1
:10323000891888470100A142F8D110BD080000009C
:1032400028000000B3EEFFFF000200002400001081
:103250000000000099FFFFFF2400000064CEFFFF84
:1032600000000010000000000120C046002801D02E
:10327000FFF7D4FF0020C046C046FFF7BDFD00F0B9
:1032800000F880B500F002F801BD0000074638469E
:1032900000F002F8FBE70000202109032631182086
:1032A000ABBEF9E70148804701480047C93200003A
:1032B000B5320000C046C046C046C046FFF7D4FF46
:1032C000001BB7000000000080B5FFF74FFF01BDF5
:0432D000FEE7FEE730
:04000005000032B510
:00000001FF
