:10000000801F00107962000059020000B702000052
:10001000000000000000000000000000F778FFEF83
:10002000000000000000000000000000B52D0000EE
:100030000000000000000000772D00000D2D0000E2
:10004000A7620000A762000000000000A16100009C
:10005000A7620000A762000000000000A762000085
:10006000A7620000A7620000A7620000A76200006C
:10007000A7620000A7620000A7620000A76200005C
:10008000A7620000A7620000A7620000A76200004C
:10009000A7620000A7620000A76200000000000045
:1000A000B5750000457800001F790000EB7900006D
:1000B000397A00005B7A0000A7620000A7620000A6
:1000C00000B507490868074A5043074A8018086086
:1000D000064904F078FC080000BD0149086070473B
:1000E000540F00106D4EC64139300000FFFFFF7FF6
:1000F00038B504000D00FFF7E3FF291B491C04F08D
:100100005FFC081932BD03E00B780370491C401CEA
:1001100013005A1E1B04F7D17047801802E00B78B9
:100120000370491C401E13005A1E1B04F7D1704770
:10013000130000D1704780B50A00591E89B203F040
:100140007DF901BD10B5040001D1002010BD01F002
:10015000B0FFA04200D2401E001B10BD124207D0CB
:100160008B0706D00B78491C0370401C521EF7D831
:100170007047830706D00B78491C0370401C521E41
:10018000F9D1704770B4103A03D378C9103A78C0E7
:10019000FBD2530701D318C918C001D508C908C03C
:1001A000D20704D30B880380891C801C002A01D548
:1001B0000B78037070BC704701000831416000216A
:1001C000C943816001000831C1600100083101614B
:1001D00000210160704742684A6093688B609368B1
:1001E0005960916008610168491C0160704730B531
:1001F0000A680023DB439A4201D1036907E0030048
:10020000083300E023005C682568AA42FAD25A68E5
:100210004A6091608B60596008610168491C016007
:1002200030BD0169826843689A60426883685A6099
:100230004A68824201D182684A60002202610868ED
:10024000401E08607047000080B504F027FF014998
:10025000086001BD7C1B0010FEE7000010B502071E
:10026000520E00090D4B800018180368FF249440BB
:10027000A34391401943016010BD01228240084808
:100280000029016804D0FE231B061343994302E0B2
:10029000C901C909114301607047000000C0004056
:1002A000C0C1004089004018016818239943D2005A
:1002B0000A4302607047FEE780B5012005F0BAFEF0
:0202C00001BD7E
:0402FC00FFFFFFFF02
:10030000F0B585B001F0DEFE0190554C607B02280F
:1003100003D05448C06A804702E0002000F004FD8A
:10032000514F01260025207C002841D00095002354
:10033000626F0421E06E02F064F901F0BAFE0095EC
:10034000002302000121E06E02F05BF9607B0228CD
:1003500015D000950023A26F0421206F02F051F9FF
:1003600001F0A7FE0200009500230121206F02F09A
:1003700048F9607B022802D0E07C002827D01220B8
:100380006946087202A9207B02F09EFA00950023BC
:10039000A16F0A180421E06F02F033F901F089FE21
:1003A0000095002302000121E06F02F02AF90EE01F
:1003B0007D70042060702020205C002801D1202165
:1003C00066542020205C102101432020215420204D
:1003D000205CC008304204D02178481E8041C00F04
:1003E00000E0002021490876207E607603A908708D
:1003F000607C487001980490207B02F070FA0198AC
:100400002065E07C002803D17D70E07D401CE07514
:1004100005B0F0BD10B582B0114CE06D4021014334
:10042000E165E07C002802D0002000F0ADFC202037
:10043000205C122101432020215400200090002341
:1004400001220421206E02F0DCF801F032FE0021CE
:100450000091002302000121206E02F0D2F813BDAA
:100460009C0D00103C6100001C1B0010981A00102D
:10047000F3B593B0002669460E730A960696C74DEB
:100480002800843004900C90280094300290109042
:100490008E734E73C2490E71C24CE2812374E87FA1
:1004A000607466806671A660A681A6746661267017
:1004B000BD48C06A80470096002300220321286FB0
:1004C00002F09FF813980078694608706846007833
:1004D00040090875B548019014A80088001FC8821B
:1004E000B34F6846007D012807D0032875D0052842
:1004F00073D0072800D1F6E10BE2687C002800D019
:1005000086E07B1C6A6B14A80088411E89B2139890
:10051000401C02F03DFB6846007838700AAB6A6BFD
:100520006846C18A380002F00CFB14A8008838180D
:10053000001F0724027841780902114382781204CF
:100540000A43C078000610430A99884243D10298B2
:100550000090049BAA8C791C686B02F03BFB3879F5
:10056000797909020143B87900040843A863F8794E
:10057000397A09020143787A00040843B97A0906F6
:100580000143E963F87A01090C4001994C740007B2
:10059000000F01990876387B0007000F00D1012079
:1005A000FA2189004843019A106040180199486077
:1005B0000D37119714A80088113811A90871287BEC
:1005C00002F0A8F96E700120687401982930007853
:1005D00078494870A1E16C709FE10198407F07A9BC
:1005E000887020794870092069460877E87B0028E0
:1005F00001D00A20087707A9287B02F065F914A921
:1006000009880D3909B2002900D50021884201D29C
:10061000012064E11398417880780002084313991F
:10062000C97809040143139800790006084309902A
:10063000E96B88421AD0286C01E00698806A06901F
:100640000698002810D00998069909688842F4D1C4
:100650000120694688730698001D0C900698143096
:1006600010900698406A02E00B2038E1A86C0490D4
:10067000139840790DA908700DA800780007000FA5
:100680006946C8736846C07B0830C0B208901398AA
:1006900014A909884018001F027841780902114303
:1006A000827812040A43C078000610430F90139812
:1006B00080791399C979090201430498081A80B214
:1006C0000B9080210902884204980B9916DA401891
:1006D00004900AA802900498019001200090099BC0
:1006E0000C9A6846C18A139802F088F90F980A9903
:1006F00088421FD10120694648731BE009B24018A7
:100700008021490240180E900AA802900E9801908C
:1007100001200090099B0C9A6846C18A139802F048
:100720006DF90F980A99884204D1012069464873EF
:100730000E98049011206946087707A9287B02F0DB
:10074000C3F80B99814201D30A205CE06846407BE4
:10075000002800D1C2E066706846807BA0700DA8BA
:100760000078C106C90F6171A660267304986061A4
:100770000B494E70EE64AE756846807B00281BD036
:10078000022020700698406A0499884201D100280E
:1007900038D108460699486220E000BF9C0D001041
:1007A0001C1B0010041B00103C610000F819001015
:1007B00054160010E8190010A86C6946097D052937
:1007C00019D10121297521700499884204D100288A
:1007D00002D00120694608730498A8640DA8007827
:1007E0008106C90F684681738E48007801280ED1B2
:1007F00000290DD00BE02E75267004998842EBD1AC
:100800000028E9D0082060700498606168E06E7587
:1008100014A80088001F0899401A012822DB1398A9
:10082000405C491CC9B2089114A90988091F089A9B
:10083000891A6A465173E0701399089A89180591CC
:100840006946497B00281ED16846C07B002816D126
:1008500002970498019001200090099B0C9A05983A
:1008600002F064F96846007B00282ED16846807B40
:1008700000281DD001206B490871A0741EE00120E2
:100880006946087321E002970498019001200090C6
:10089000099B109A059802F049F96846007B0028E8
:1008A000E0D1A7606846407B207301206073DDE7DC
:1008B0005C480671A87EE97E884206D20096002335
:1008C00000220321E86F01F09CFE2020285CFB2120
:1008D00001406846007B8000084315E00C206070F2
:1008E000FFF798FD2FE014A802881399491C3800DF
:1008F000FFF709FC032020706670A76014A8008829
:10090000401E20732020285C02210143202029540E
:1009100003E001206070FFF77DFD2020285C10219E
:100920000143202029540096002301220421286E2F
:1009300001F067FE01F0BDFB0200009600230121DB
:10094000286E01F05EFE15B0F0BD10B5364C607B30
:10095000022803D03548C06A804702E0002000F03A
:10096000E3F902202F4A507060702020205C102193
:1009700001432034217010BD38B52B4C607B022818
:1009800003D02A48C06A804702E0002000F0CCF97A
:10099000E07C10252349E27F002A0BD105220028A4
:1009A00000D04A706270206DFFF7CCFBA16F8842C7
:1009B0000AD304E00622002800D04A70627020208A
:1009C000205C05432034257031BD38B5164C607B62
:1009D000022803D01548C06A804702E0002000F0DA
:1009E000A3F9E07C10250F49E27F002A0BD10322F6
:1009F000002800D04A706270206DFFF7A3FBA16F42
:100A000088420DD307E00422002800D04A706270AB
:100A1000607B022804D02020205C05432034257010
:100A200031BD00001C1B00109C0D00103C6100003B
:100A3000FEB5002569460D71C34C009500230022C8
:100A40000321206E01F0DDFD2020205CB44EC106A4
:100A500078D5E16D4A0602D541229143E165B1495D
:100A600000910127FF43092108422CD07178022907
:100A700002D0617802290AD1E16D3940E1656575DE
:100A8000E17E71713571B56001216A461171E17CB9
:100A90006A4612790A4316D1010754D521780029F4
:100AA00051D1617FA1726278002A02D16564E57537
:100AB0005FE0A27F91425CD2EF21014020202154CF
:100AC000002000F0CFF8E17EA27E2020205C80078D
:100AD00010D53079002801D18A420BD22577E574F0
:100AE000307D002802D1606C401C60647171E06D43
:100AF0003840E065207F00285ED05C20205CC00686
:100B00005AD42577207B914245D2092943DA491CE2
:100B1000E176C9070CD502A920220A70AE4A1278E4
:100B20008A70009A12784A7001F0CEFE009908701F
:100B300000F089F9002820D12020205CEF2101401D
:100B40002020215438E08107C90FE27D009BDB7F24
:100B50009A4201D20029AFD0002903D16575E06C1B
:100B6000401CE064E575307D002802D1606C401CBB
:100B70006064E06D3840E065A5E709207070657538
:100B8000E06D0740E765E5743571E07E70710098AF
:100B90000078B0700AE0012101F0A9FEE06D074085
:100BA000E7656575E5743571E07E7071307D00280C
:100BB00002D1606C401C6064E06D810702D50221A7
:100BC0008843E065E06D002822D12020205CC0072A
:100BD00009D53000616E096888472020205CFE211D
:100BE0000140202021542020205C000709D520004E
:100BF000616E896888472020205CF7210140202011
:100C000021542020205CEF2101402020215410E0BD
:100C100000950023FA2292000421206E01F0F1FCDD
:100C200001F047FA0200009500230121206E01F037
:100C3000E8FC2020205C800713D5607B022802D1CD
:100C4000002000F071F82020205C400703D4CE483B
:100C5000616E496888472020205CF92101402034DA
:100C60002170F7BD1FB5384C0020009000230022F2
:100C70000321A06E01F0C5FCE06D10218843E06502
:100C80002020205C00071CD52078002819D100F016
:100C900083F9607F401C6946888001A9207B01F0B0
:100CA00079FEBA494870002069460873A07CC001EB
:100CB0000872002000900023002202A903A800F07F
:100CC000B5F900F0C0F81FBD70B582B0B04D00207E
:100CD0000090002300220321E86E01F092FC002026
:100CE000E877AC4C297E2170A8490E000C36727D45
:100CF000E2702D3109782174E97B61746082687B30
:100D0000022802D1C148006B8047C14A2100287BDC
:100D100001F029FE3168A07C00F054F873BD00009A
:100D20001C1B0010E919001070B582B0064D0020A0
:100D30000090002300220321286F01F062FCB54CD3
:100D4000287E2070914801E09C0D001006000C36B2
:100D5000B16961602D3000782074E87B60740120F7
:100D6000E074697B022900D00020A074A84A210009
:100D7000287B01F0F8FD002805D03168A07C00F048
:100D800021F8E07CE87773BD10B582B0A24C00205A
:100D90000090002300220321E06F01F032FCE07C90
:100DA000002805D001202077E06D04218843E0650C
:100DB000607B022805D12020205C102101432034D3
:100DC000217013BD80B5914A526B002801D10800F3
:100DD00000E00020904701BD141A001038B504004F
:100DE000150068468D4A12788270417009210170A1
:100DF000894AD17B002901D00A2101706946107B04
:100E000001F062FD611980B289B2884203D3FF29E3
:100E100001DC012032BD002032BD7CB55C4CA57CDC
:100E2000ED016E463571009313000A0001A900F030
:100E3000FDF8002806D17A4800218180616CC160EC
:100E400000F001F876BDF0B589B000200290514E57
:100E5000B17DFF2901D1092093E04D4C002900D13B
:100E6000606503AD607C2870F07DA870607EE870DE
:100E7000A06DFFF767F90490270080373868059068
:100E8000307E687003A9207B01F08DFD3868616DAC
:100E9000228D42438918081A606506903B4D06AFC3
:100EA00068783872F07DB872607C7872206D079037
:100EB00004E00198112140566870387228002830EB
:100EC000019020005430009002AB2200183206A995
:100ED000207B01F070FD0028EBD02F1D7B7F5BB2E3
:100EE00001202A5601984179207B01F079FD009676
:100EF0003B683A7941B2207B01F02AFD45480090D9
:100F00003B683A790198017849B2207B01F020FDD5
:100F1000607C002804D17869F1684018B9690DE057
:100F2000627D01202956307DFFF758FF002801D14E
:100F3000082026E0F868F16840183969354AD26817
:100F40008918A16760670298002803D1207E00F00D
:100F5000F1F916E0E06D10210143E16500200090F9
:100F60000023029A0421A06E01F04BFB01F0A1F8CE
:100F700002000020009000230121A06E01F041FB3F
:100F8000002009B0F0BD0000041B0010E81900109B
:100F90009C0D0010981A001070B500231E4C63744D
:100FA0006364A364E364E3750120A076E0762377AD
:100FB0001C4DAB7520856375A37520741A4E3820BF
:100FC000305C30703920305C70705920305C2121E9
:100FD0007054F06D316E3200243203C26420305CF4
:100FE0002C2170546520305C2D217054B06E30631C
:100FF000F06E7063E37423756B75206C01E04362DF
:10100000806A0028FBD1238370BD00003C61000092
:10101000081B0010341B00109C0D0010141A001047
:101020001C1B0010981A0010E8190010F2B58AB0C5
:1010300000210391049369460A71BA4C0021E184AE
:10104000E1741099002B00D10021B74A1175B74DFA
:10105000017829700078400907D0022848D0042878
:1010600044D0072800D14DE159E10120E084082255
:10107000216B681CFFF751F8E08C0830E0840822EF
:10108000E16A80B22818FFF748F8E08C0830E08465
:10109000A74840698047A084E08CA18C2954401C5B
:1010A000E084090A80B22954401CE08403AB626BDF
:1010B000C1B2280001F045FDE08C03992954401C81
:1010C000E0840399090A80B22954401CE084039902
:1010D000090C80B22954401CE0840399090E80B2A7
:1010E0002954401CE08400200BB0F0BD0120E074C6
:1010F000607C002801D10720F6E706A801210170D5
:101100000A990978C9094170E16C0791AF4A517891
:101110000172117841722C21515C817220004C3097
:1011200000901300521C06A9207B01F004FC0A99D0
:101130000978BF220A40800110430A990870207D77
:10114000002807D0002020750A980078202101434C
:101150000A980170E06B6870010AA970010CE970CF
:10116000000E28710A9800786871606CA871000AF6
:10117000E8710826A27DBF49BF48637DC018FEF70D
:10118000C2FF607DA17D401860756749497D049A62
:10119000002A22D0644A127D002A1ED0002928D0BD
:1011A000C0B210281EDA0A990978F0220A400918FC
:1011B0000907090F11430A9A11706971694608807D
:1011C000002816D068460288AB4928000830FEF790
:1011D000D9FF6846068808360BE0C0B2002808D060
:1011E000002906D050490875A3480490002069469C
:1011F000087100204C494875607D694648700020A0
:1012000000216F460EE06B461B781370401C491C92
:10121000994AC0B2125C984BC9B25B1880331A70FD
:10122000491C401C6A465278C0B290421DD2924A74
:10123000C9B252188032904B1B5C3B706B461B78D6
:10124000032B0AD0052BDED0062B08D0072B04D0A9
:10125000082B06D00A2BD6D0E3E7401CE1E7801C20
:10126000DFE76B461B781370DAE7A175A07D0028D5
:1012700002D001202C494875200084300590049844
:1012800000281FD02848017D00291BD0684600791E
:10129000F6B2A855761CF6B2A819E36B626C3F79DA
:1012A000002F06D167750290019200200090059AE8
:1012B00005E00290019200200090220094320498F0
:1012C00001F0DBFBF6B21848007D3118E18403A879
:1012D0000290606C019000200090E36B059A89B247
:1012E000280001F08BFBE08C2918039A0A70039AFE
:1012F000120A4A70039A120C8A70039A120ECA706C
:10130000001DEFE6002B01D0127D002A00D1EAE695
:101310001900681CFEF7F7FE0348007DE1E6022095
:10132000E2E600009C0D0010981A00105415001001
:101330003C610000F0B587B000216A46117102A936
:101340000870224D6878487028788870286B039060
:10135000686B0490494CE08C8881270080373B0003
:1013600001AA207B01F00AFB012666704448467002
:101370006978817069460979C170396881606160F6
:10138000002000900023FA2292000421206E01F038
:1013900038F900F08EFE00210091002302000121A7
:1013A000206E01F02EF9607C002802D1607F401C85
:1013B0006077E18CC9B23348C84A926A9047E06DC1
:1013C0000643E665002007B0F0BD0000E8190010F4
:1013D00010B586B0294C01A9227E0A70C04A537804
:1013E0004B7013788B70136B0293526B039288814E
:1013F000207B01F0EDFA002000900023FA229200F9
:101400000421206E01F0FDF800F053FE0021009150
:10141000002302000121206E01F0F3F8E06D0121AC
:101420000143E165002006B010BD10B582B0030095
:10143000080011001A0049B2A84BDB6B9847A94C71
:10144000002000900023FA2292000421206E01F077
:10145000D8F800F02EFE02000020009000230121A9
:10146000206E01F0CEF8E06D01210143E16500201E
:1014700016BD0000D4170010541700109C0D00106A
:101480001C1B001054150010F0B583B005001600A9
:10149000002D08D02868002805D06868002802D0F0
:1014A000A868002801D10320FEBD300001F006FA33
:1014B000002801D10A20FEBD8A4C656626730020F3
:1014C0002022A0546073E06560770121A177E0736A
:1014D000206560650B206946087101A9207B01F039
:1014E000F3F9002800D00120C44FF87508206946A0
:1014F000087101A9207B01F0E7F9794D2E003836FB
:10150000307005206946087101A9207B01F0DCF9E3
:1015100070700C206946087101A9207B01F0D4F994
:10152000F0600D206946087101A9207B01F0CCF91B
:1015300030610E206946087101A9207B01F0C4F9D1
:1015400070610F206946087101A9207B01F0BCF988
:10155000B06110206946087101A9207B01F0B4F93F
:10156000F06113206946087101A9207B01F0ACF9F4
:10157000290058310091487014206946087101A96A
:10158000207B01F0A1F90099486015206946087197
:1015900001A9207B01F098F9009908721A20694688
:1015A000087101A9207B01F08FF9009908731B20B5
:1015B0006946087101A9207B01F086F900994873FA
:1015C0001C206946087101A9207B01F07DF9009972
:1015D00008611D206946087101A9207B01F074F99A
:1015E000009948610021207B01F081F901200099D8
:1015F00008700A207060062131722D1D2860297143
:10160000F068A8603069E86070692861B069686155
:10161000F069A861009800782877FFF7BDFCFA25EB
:10162000AD00AD4800900023002229002EA000F05C
:10163000CDFF20660021009100232A00042100F044
:10164000E0FF00200090002300220321206E00F024
:10165000D8FFA248009000230022290027A000F014
:10166000B5FFA0669E48009000230022290000BF1D
:1016700026A000F0ABFFE0669A480090002300220D
:10168000290000BF25A000F0A1FF20679648009028
:1016900000230022290000BF24A000F097FFE0678C
:1016A00000F007FDA0659148F86191487862914883
:1016B000F862914838629148B862084D1C3738008A
:1016C0002968884768698047FEF707FD0120A073F5
:1016D000A96D8847E86A80470020FEBD3C61000094
:1016E000E81900109C0D00104D616353746174651E
:1016F000436865636B54696D657200005478446596
:101700006C6179656454696D65720000527857693F
:101710006E646F7754696D65723100005278576955
:101720006E646F7754696D657232000041636B546B
:10173000696D656F757454696D657200F1B586B039
:101740000F002F4D3920285C694648713820285CED
:1017500088716B4C6846617DA27D89180171002FEC
:1017600001D1032048E0002603A80670A17C417047
:10177000E16C049169780172297841722C21695CCD
:10178000817220004C30009001AB9B1C01AA521CBE
:1017900003A9207B01F0CFF802A82C3529788170AD
:1017A00069464979417009210170E17B002901D026
:1017B0000A21017002A9207B01F086F87870787800
:1017C00069460979884204D369460979401A387014
:1017D00004E0387069460E716675A6756846027930
:1017E0006946052009566846007EFFF7F7FA00288B
:1017F00001D1082000E0002007B0F0BD981A0010C9
:10180000E819001038B505000024002D01D103208F
:1018100032BD3B483B4A29781D2959D801A35B5C5E
:101820009F4400BF1E22262A2E32363A3E42464CA4
:101830005A566A6E72767A7E82868C8A9094989CCA
:10184000A0A6407B3FE0407C3DE0807C3BE0806B9D
:101850003CE0C06B3AE0843038E0943036E0807B86
:1018600031E0C07B2FE019210AE0243203CA01E0F5
:10187000D06D116E2D1D03C52BE0172100E0162140
:101880006A4611706946007B01F01EF81EE02032A6
:101890000EE0D0681AE0106918E0506916E090690F
:1018A00014E0D06912E0393202E050780BE03832AF
:1018B000107808E0406C09E0806C07E0006C05E0FF
:1018C000506803E0107A287103E0506B686000E014
:1018D0000224200032BD0000310A0000650C000027
:1018E000C90C0000290D0000890D00000103000053
:1018F00071040000790900004B090000CB090000C9
:101900009C0D0010E8190010F0B585B0040000200F
:101910000027002C01D1032022E1924D5C21695C5B
:10192000C90701D501201BE18F4E02A922781D2A8B
:1019300000D913E101A352009B5A9F443A0058007A
:101940005E0064006A0070007E0092009E001E022D
:10195000A4001C01480140015A0168016E01740194
:101960007A0180018601A201DA01BE01FA010002BA
:101970001E0206020E02180221796973002902D0A4
:10198000022904D0EBE07948C06A8047E7E0E874B8
:10199000FFF7CAF9E3E020796874E0E02079A874E1
:1019A000DDE06068A863DAE06068E863D7E060685B
:1019B00000284AD010220146843505E060680028DE
:1019C00043D01022014694352800FEF79CFBC6E068
:1019D0002079A8736549896D8847C0E02079E8734C
:1019E000BDE0207A694608712D20305C01A948705D
:1019F0000622287B00F083FF002826D0241D03CC7C
:101A00003200243203C2687B0228E9D1687C0028B6
:101A1000E6D0574C00947368327A2820315C49B282
:101A2000287B00F095FF287E2070706A60602D2072
:101A3000305C2074E87B60740120E074A0744D4A2F
:101A40002100287B00F08FFF002873D0F168A07C74
:101A5000FFF7B8F9E07CE87781E0207A6946087101
:101A60002D20305C01A948700622287B00F047FF3A
:101A700000285FD0241D03CC5C3603C66FE060688D
:101A80000290012001E0626802920871287B00F058
:101A900049FF002863D14DE0207900284AD0102862
:101AA00048DA203644E06068F06058E060683061F1
:101AB00055E06068706152E06068B0614FE0606856
:101AC000F0614CE0207969460871052201A9287B64
:101AD00000F015FF00282DD068460079393627E040
:101AE000207969460871042201A9287B00F007FFCC
:101AF00000281FD068460079707030E02079694670
:101B00000871082201A9287B00F0F9FE002811D0F5
:101B10006846007938360BE020796946087107225B
:101B200001A9287B00F0EBFE002803D0684600796D
:101B3000307014E0032712E0606868640FE06068AA
:101B4000A8640CE06068F063706008E020794021D0
:101B50007054307203E06068706300E00227380060
:101B600005B0F0BD9C0D0010E81900103C610000AC
:101B7000341B0010081B0010F0B585B004000225CE
:101B8000002C2BD08C4E5C20305CC00718D40C226B
:101B900000213000FEF7CCFA0120707008272020C9
:101BA000315C082008432178002905D0022953D050
:101BB0004CD3032957D05FE05C20305CC00601D5D0
:101BC000012064E06068002808D0A068002805D0E3
:101BD000E068002802D0207C002801D1032056E0D4
:101BE000694608711E2201A9307B00F088FE00289A
:101BF00006D11F2069460870307B00F065FE207416
:101C00002020305C074320203754207830706068F3
:101C1000F062A0683063E0687063207CB0770020D9
:101C2000707769460873FFF7B7F9707F401C694603
:101C3000088102A9307B00F0ADFE604948700023A6
:101C40000022002103A8FFF7E8F814E020217054D7
:101C500020783070012511E0317020217054A08867
:101C6000FFF7B6FB07E0317020217054227BA1689A
:101C7000A088FFF7DAFB0500002D07D00020F074E4
:101C80002020305CF721014020363170280005B05B
:101C9000F0BDF0B585B0070002206946487000200D
:101CA00008700024002F63D0434D5C20285C112174
:101CB000014001D001207CE069460C711422002112
:101CC0003F48FEF735FA01203D494870E8763878FC
:101CD000002804D001280AD003281CD02AE00124BF
:101CE000AC7668460079C006C00E402107E00124AA
:101CF000F87BA87668460079C006C00E80210143B3
:101D000068460171387969460870B8680290B889E8
:101D100048800E200DE00124AC7668460079E02171
:101D200001436846017178680290388969464880A5
:101D30000A203E5604A801210170224909788170C9
:101D400004A9287B00F0C0FD76B2B04200D30600A3
:101D5000002C2CD0A87C00280ED103AC267019488A
:101D60000078A070042203A9287B00F0C8FD002899
:101D700019D020781149487068464388029A017842
:101D800001A8FFF74AF8694648706846407800287D
:101D90000BD138780A4908702020285C01210143C2
:101DA0002035297003E0032003E00020E874684632
:101DB000407805B0F0BD00009C0D0010E81900103F
:101DC0001C1B0010141A0010F7B506001F00002895
:101DD00001D172B6FEE70898082801D372B6FEE773
:101DE0000A99104600F043FB040072D0206B69464C
:101DF0000989890045182D1F0720854368460089F9
:101E000000900B9B089A0199200000F0F3FA3A0029
:101E10003100280000F026FF20600998002800D03B
:101E2000046000F05BFF394DE86C401CE864384FFB
:101E3000A86A002825D1AC62E86C01282AD10026C6
:101E4000142070433818FEF7B7F9761C082EF7D324
:101E500028007430FEF7B0F92E0088363000FEF707
:101E6000ABF92800FEF7A8F928001430FEF7A4F912
:101E700028003830FEF7A0F928007430E8622E639D
:101E800008E0A86D002805D10898A96AC96A8842A7
:101E900000D3AC62A86E401CA8662064E06A696D3D
:101EA000814200D26865211DE06A1422504338182F
:101EB000FEF791F9012400F01DFFA86D002806D05F
:101EC000A86AC06A0899884201D200F001FF200088
:101ED000FEBD0024E443FAE770B5040013D00B4DB7
:101EE000286F002801D072B6FEE700F081F82E6D51
:101EF000A86A001DFEF795F9301900F0A1FA00F06C
:101F00008BF8002801D100F0E3FE70BD400E0010F8
:101F10004819001010B502000021002A01D172B644
:101F2000FEE76D4B546918003830844205D1906A41
:101F3000984202D0002800D10121080010BD000005
:101F4000F8B506000024002E01D172B6FEE700F0BD
:101F50003FFF07003000FFF7DDFF01281CD15E4D79
:101F6000286F002813D1F06AA96AC96A884200D391
:101F70000124301DFEF755F9F06A696D814200D2E7
:101F80006865311D554A14235843101802E018366D
:101F900031002800FEF71FF9380080F31088200078
:101FA000F2BD000000B585B00020039002900190C2
:101FB00000900023402200BF0BA17948FFF704FFE7
:101FC000012801D100F0E4FA012809D172B6424893
:101FD000012181650021016500F05CFE05B000BDB6
:101FE0000028FBD172B6FEE749444C4500000000D2
:101FF0003948016F491C01677047002036498A6AD9
:10200000D26A002A06D1354A1268022A02D2C86E64
:10201000096D401A70470000F8B500272E4C206F5C
:10202000002801D172B6FEE700F058FE206F401E76
:102030002067206F002838D1E06C00281CD134E0E4
:10204000E068C56828001830FEF7EBF8281DFEF799
:10205000E8F8E86A616D814200D26065291D1F4879
:10206000EA6A14235A438018FEF7B5F8E86AA16AB1
:10207000C96A884200D32666012620680028DFD17D
:10208000E06D002808D10AE000F02AF8002800D00E
:102090002666E06D401EE065E06D0028F4D1206EFC
:1020A000012802D1012700F013FE00F023FE3800C2
:1020B000F2BD10B500F012FE0748046D00F01AFEE4
:1020C000200010BD10B500F083FE03490C6D80F3B5
:1020D0001088200010BD0000400E001048190010AC
:1020E000F8B500268A4C206F00284FD1206D401C87
:1020F0002065206D009000280ED1E06A006800285D
:1021000001D072B6FEE7E06A216BE1622063606E87
:10211000401C606600F0C9F9944F0098E16E884257
:102120002BD31BE0281DFEF77CF8A86A002803D0FB
:1021300028001830FEF775F8E86A616D814200D218
:102140006065291DE86A142250433818FEF743F8E9
:10215000E86AA16AC96A884200D30126E06A006879
:10216000002802D10020C04306E0E06AC068C568CC
:10217000686800998142D5D2E066A06AC06A1421DD
:1021800048433858022804D3012602E0E06D401C81
:10219000E065206E002800D001263000F2BD00006E
:1021A0007923000010B55A4C206F002802D001207E
:1021B000206610BD2066A06A006BA16A096888428B
:1021C00004D3A16A3431A06A01F078F8142200BF68
:1021D00015A1A06A006B01F0A3F8002808D0A16A3D
:1021E0003431A06A01F06AF802E0606D401E60655B
:1021F0005E48616D142251434158002904D1606D3D
:102200000028F2D172B6FEE7616D5143411848686B
:1022100042684A6008000830824201D15068486034
:102220004868C068A06210BDA5A5A5A5A5A5A5A5DF
:10223000A5A5A5A5A5A5A5A5A5A5A5A538B50C00E9
:10224000002801D172B6FEE7314DA96A1831FDF7B9
:10225000CEFFA86A001DFDF7E4FF0020C0438442C2
:1022600000D106E000E00000286D001900F0E8F859
:1022700031BDA96A091D38352800FDF7ACFF31BD15
:1022800038B50C00002801D172B6FEE7204DA96ACE
:102290001831FDF7A0FFA86A001DFDF7C2FFE3E7B4
:1022A00038B5C068C468002C01D172B6FEE72000C2
:1022B0001830FDF7B6FF164D286F00280ED1201DEF
:1022C000FDF7AFFFE06A696D814200D26865211DAC
:1022D0002648E26A14235A43801802E0210018318C
:1022E0002800FDF778FFA86AC06AE16A884202D236
:1022F0000120286632BD002032BD0000002801D137
:1023000072B6FEE702494A6E0260096D416070478D
:10231000400E0010F2B50500002D01D172B6FEE7A7
:10232000002901D172B6FEE700F0D8FC85490A6D9C
:102330000098036800240020C043834212D06E68D6
:10234000496E2F68B94201D0B2420AD2911B99421C
:1023500007D2981A8019009908602800FFF7CEFF6D
:1023600000E0012400F0C6FC2000F2BD4819001076
:10237000012085490866704770B5844C824D1EE087
:10238000FFF736FE6869461EB641F60FFFF744FEBA
:10239000002E14D100F0A2FC286AC668301DFDF79B
:1023A00040FFE86C401EE864686B401E686300F004
:1023B000A1FC306B01F020F8300001F01DF8686BD3
:1023C0000028DDD12068022801D300F081FC01F053
:1023D00032F8FFF712FE0228F1D3FFF709FEE86E8C
:1023E000296D884201D272B6FEE7FFF706FEFFF7BD
:1023F00013FEE4E7F8B504001500002000228B1856
:102400001E78A71834373E701B78002B02D0521C60
:102410000A2AF4D33D216054082D00D30725260055
:102420001036F561A564201D0021016120001830DF
:102430000021016134600820401BB0607461F1BD6F
:1024400038B50400504DA86A4460286D8442A96ADA
:1024500004D2091D286BFDF7CAFE31BD091DE86ACB
:10246000FDF7C5FEE86E844200D2EC6631BD70B562
:1024700005000E004C2000F067FF040013D0AD00F3
:10248000002E03D1280000F05FFF00E03000206341
:10249000002804D1200000F0AFFF002403E0A522B3
:1024A000290000F0DBFF200070BD3748C16A0968D1
:1024B000002902D10021C94303E0C16AC968C96883
:1024C0004968C16670473048806A70472E48816D00
:1024D000002901D101207047006F002801D102209E
:1024E00070470020704770B5040029D0154EE06A8F
:1024F000B16AC96A884223D2A069002804D408209E
:10250000B16AC96A401AA061204D6069E16A14226B
:1025100051436918884210D1201DFDF782FEB06A30
:10252000C06AE062716D814200D27065211D142283
:1025300050432818FDF74FFE70BDB06AC06AE062D4
:1025400070BD0000400E001010B504001BD0E06A02
:10255000A16C884217D0201DFDF763FEA06CE062DD
:10256000A169002902D40821081AA061E06A06497D
:102570004A6D824200D24865211D044A1423584303
:102580001018FDF728FE10BD400E0010481900106D
:1025900000B585B000F064F9AF48806800280DD020
:1025A000002003900290019000900023802200BF41
:1025B00004A1AA48FFF708FC002801D172B6FEE783
:1025C00005B000BD546D722053766300F2B504006F
:1025D00017001D00002901D172B6FEE72C2000F083
:1025E000B3FE06000BD000F03BF934600098B061F8
:1025F000F761356206987062301D0021016130007C
:10260000F2BDFEB505001F000020934CA668002E09
:1026100018D000910192029506290DDAFFF756FFB6
:10262000022802D10023089A01E000230022694613
:10263000A06800F091FFFEBD00233A00694630001B
:1026400001F016F8FEBD000070B582B005000E0066
:1026500081480068C068C468201DFDF7E2FDE0699C
:10266000012814D12B003200A0692918200000F0A5
:1026700054F801280BD10020009000232A000021EB
:102680002000FFF7BEFF002801D172B6FEE7200050
:10269000616A884773BDF8B56F4F03E0FFF7BCFC74
:1026A00000F056F8386800250168002901D101269C
:1026B00002E00026C0680568FFF79AFC684600F053
:1026C0001AF8040000980028E8D1002E08D1AC4286
:1026D00006D3FFF7A1FC21002800FFF7B5FFDFE7D5
:1026E000291BB86801F034F9FFF796FC0028D7D110
:1026F00000F0EEFAD4E770B50400FFF7DAFC05004D
:102700006A4E3068854203D200F078F8012000E07C
:10271000002020603560280070BD38B5002441607D
:1027200000614D4D8A4206D3D11A8269914206D288
:10273000011D686807E09A4203D2994201D301243F
:1027400003E0011D2868FDF752FD200032BD0000A6
:1027500010B586B004E0130011182000FFF7DDFF6C
:102760000023002201A93C48806800F0C3FF002834
:1027700041D001980028F3D4039C6069002802D05E
:10278000201DFDF74EFD04A8FFF7B5FF02000198DC
:10279000022809D9001F24D0401E28D0401E01283D
:1027A00002D9C01E1DD0DBE702980300A1694118C1
:1027B0002000FFF7B2FF0128D2D12000616A8847CC
:1027C000E0690128CCD10020009000230298A16983
:1027D000421800212000FFF714FF0028C0D172B674
:1027E000FEE70298A0610028B5D172B6FEE720008E
:1027F00000F002FEB4E706B010BD000070B582B074
:10280000154E05E060602461211D3068FDF7EFFC86
:102810003068016800291BD0C0680568C468201DA5
:10282000FDF7FFFC2000616A8847E0690128EFD1CD
:10283000A06928188542E5D30020009000232A00D3
:1028400000212000FFF7DDFE0028E1D172B6FEE78F
:1028500071683160706073BDD01A00109726000057
:1028600010B500F03BFA124CA06800281BD12000E4
:102870000C30FDF7A1FC20002030FDF79DFC20006E
:102880000C30206020002030606000220C210F20DE
:1028900000F03CFEA060002801D172B6FEE700BF48
:1028A00004A101F043F800F025FA10BD781B0010D8
:1028B000D01A0010546D725100000000022801D19E
:1028C000012070470020704780B5C0B2022803D1B4
:1028D000080001F0A7F802BD47A0006802BD022869
:1028E00000D0704780B5080001F0F2F801BD022861
:1028F00000D0704780B5080001F0FAF801BD80B53E
:102900000B001100022803D1180001F016F902BDD6
:10291000002002BD022800D0704780B50800C046E4
:10292000C04601BD80B5022803D1080001F027F997
:1029300002BD002002BD10B50400080011001A00FD
:10294000022C03D1029B01F02FF910BD002010BD15
:1029500010B50400080011001A00022C02D1029BDD
:1029600001F05EF910BD80B50B001100022803D103
:10297000180001F097F902BD002002BD10B5040057
:10298000080011001A00022C02D101F0EBF910BD71
:10299000002010BD80B5022803D1080001F040FAE4
:1029A00002BD002002BD022800D0704780B508009B
:1029B00001F056FA01BD10B50400080011001A001C
:1029C000022C03D1029B01F069FA10BD002010BD5A
:1029D000022800D0704780B5080001F0BBFA01BDA5
:1029E00010B50400080011001A00022C02D101F0F9
:1029F000DBFA10BDC8B210BD00000000F8B506003B
:102A00000D001700954C06986071A371180AE071CB
:102A1000180C2072180E60720798A072010AE172F9
:102A2000010C2173000E6073E5732000203001F06B
:102A3000C1FA39002000203001F0CDFA1022210027
:102A40002000203001F0CFFAEAB23100200020301F
:102A500001F0C9FA210020312000103001F024FBE0
:102A6000E07C0006A17C09040143607C000208436D
:102A7000217C014308980160F1BDFDB50F000026DF
:102A80000125774CF022002120002030FDF750FB7B
:102A9000220020321021019801F048FE0898607150
:102AA0000298A0710298000AE0710298000C20724E
:102AB0000298000E60720998A072010AE172010C7E
:102AC0002173000E607317E0E5736D1C2200203245
:102AD00021001031200001F0B3FE00217018009A8F
:102AE000135C6218127C5A400A9B1A54491C102924
:102AF000F4DB103F1036F6B2BFB2102FE4DA002F2D
:102B000013D0E5732200203221001031200001F0A3
:102B100097FE00217018009A125C63181B7C5340CA
:102B20000A9A1354491CB942F4DBF7BD10B584B0BE
:102B3000089C0294079C0194069C0094FFF79DFF5B
:102B40001FBDF8B506000D001700444C20002030D2
:102B500001F030FA39002000203001F03CFAEAB2EE
:102B600031002000203001F03EFA21002031200009
:102B7000103001F099FAE07C0006A17C09040143C1
:102B8000607C00020843217C014300980160F1BD94
:102B9000F4B505000E001F00314CF022002120008A
:102BA0002030FDF7C5FA220020321021009801F0F4
:102BB000BDFD220020323900280001F041FE102E18
:102BC00007DB20342200103739001035280001F0CF
:102BD00037FEF1BDF4B584B004000E001F00204D97
:102BE000F022002128002030FDF7A2FA2A0020322E
:102BF0001021200001F09AFD102200216846FDF707
:102C000097FA6C460120207006223100601CFDF707
:102C10007AFA022204A9E01DFDF775FA2A00203293
:102C20003900684601F00CFE102200216846FDF7CD
:102C30007FFA0220207006223100601CFDF763FA43
:102C4000022204A9E01DFDF75EFA20352A000A9948
:102C5000684601F0F5FD05B0F0BD0000500B001016
:102C6000880C0010001F80235B040360001F0160BC
:102C7000001F2E49016014380260203870470000A0
:102C80002B4800680021C943884201D072B6FEE794
:102C900072B6FEE710B527480168FF2212040A4306
:102CA00002600168FF2212060A430260224C234898
:102CB0000068FA21890001F086FE401E606007204E
:102CC000206000201A49086000F075F8002010BD4F
:102CD000802040051A49086006E0000072B61448DA
:102CE0000168491C016000BFBFF34F8FBFF36F8FB6
:102CF000704700000E480168002901D172B6FEE756
:102D0000491E0160002900D162B6704710B500F07D
:102D10005FF80400FFF7E4F9002803D080204005A5
:102D200007490860200080F3108810BD812C000046
:102D3000500F001020ED00E010E000E07C1B0010C0
:102D400004ED00E030B4012100220368001D002BD7
:102D50000BD00468001D0C4202D04D466D1E641954
:102D60002260241D1B1FF0D0FAE730BC7047000022
:102D700080F308887047EFF30980194B1A682038F0
:102D80001060F0C044464D4656465F46F0C008B558
:102D900072B6FFF707FA62B60CBC1168086810300B
:102DA000F0C8A046A946B246BB4680F30988203841
:102DB000F0C8184770470A4B19680868203080F33C
:102DC0000988022080F314883FBCAE4662B600BD7D
:102DD000EFF3108072B6704780F3108870470000E0
:102DE000680E001010B50022AB49AC4B022802D08F
:102DF000E0280DD010BDDB7D0B704A704A804A6020
:102E00000A818872CA728A81FF208873C87310BDD4
:102E100001209C7B002C09D09A7303225A7505224D
:102E20000A70DA7B4A701A7C8A7004E05A78012AA8
:102E300003D0042A08D1587010BD02205875988913
:102E4000000A08709889487010BD7FB5934C002027
:102E50000090002300220321206AFFF7D2FB012506
:102E600001AE357001A8FEF7CDFC002807D13079FE
:102E7000002803D00220607625767FBD65767FBD71
:102E800080B5002000900023002203218348406A7F
:102E9000FFF7B7FB01BD80B50020009000230022A2
:102EA00003217E48806AFFF7ACFB01BD10B582B0FC
:102EB0007A4C4078002809D1FFF7FBF80200002087
:102EC000009000230121606AFFF79BFB0120207620
:102ED00013BD00004178002900D07047F0B58BB0D9
:102EE0006E4C2278002A02D0A189491CA181417B25
:102EF000002905D0C178491E012902D9DF3909D03E
:102F0000A1E0017B0129FBD180680078C107C90FCE
:102F1000E17598E0002502210126002A19D1027BE3
:102F2000042AF6D1826810780128F2D1507801285D
:102F3000EFD190780128ECD1D0780128E9D1A5759E
:102F4000E02020756175E56025742670667068461E
:102F500014E082681278627010226378072B72D8AE
:102F600001A7FF5CBF4400BF081E22262A4E5890CE
:102F7000A57521756275A581257008A80170067177
:102F8000FEF7C2FC5FE061755DE0A6755AE0A575CD
:102F900058E0027B6275BD4904230B70F223F22ACC
:102FA00000DC13009E424EDA83689B5D5B1C8B55F0
:102FB000761CF6B2F2E768460670FEF7DDFD42E0E9
:102FC000A57521756275A581257068460170067129
:102FD000FEF79AFC03A8057021002C310491210012
:102FE0003431059121003C31069103210174FEF733
:102FF000C3FD0420607626E0027B032A08D16A46DE
:10300000117080684178090280780143918016E050
:10301000072A17D1694603220A7080684278120293
:1030200083781A438A80C278120403791B021343FF
:1030300042791A4364235A4302928079087368469E
:10304000FEF79AFD6670FFF734F800210091002327
:1030500002000121A06AFFF7D4FA0BB0F0BD8C4941
:1030600001220378002B02D0012B08D012E0407817
:10307000002802D1022048760CE04A760AE0437824
:10308000002B07D10B78002B04D08A73037ACB7303
:10309000407A08740A76704754180010DC0E00104D
:1030A000F0B58DB07A4C0020607603250426012708
:1030B00058E07848099078480A9078480B900222A6
:1030C00008A909A8FEF7E0F975480090002300223E
:1030D000FA2189007EA0FFF779FA206271480090FA
:1030E00000230022FA2189007EA0FFF76FFA6062B8
:1030F00000210091002319220421FFF782FA002009
:103100000090002300220321606AFFF77AFA6648E4
:10311000009000230022FA21890000BF74A0FFF76D
:1031200055FAA06200210091002319220421FFF723
:1031300068FA00200090002300220321A06AFFF714
:1031400060FA02206946087505A90F7105A8FEF707
:10315000DBFB07206946087505A90F7105A8FEF776
:10316000D3FB67760A20FEF7B7FE207E617E00293A
:103170009FD0022919D003D30429F3D055D368E096
:1031800000216A46117021002C3101912100343157
:10319000029121003C31039169460D74002802D050
:1031A0006846FEF7E9FC6676DCE700282ED0207D35
:1031B000FFF718FE04A9607DFEF7C0FA002805D0CD
:1031C0000020694608700290888117E0A07D0028E1
:1031D00008D169460870207D08712C480290607DF6
:1031E00088810AE068460770207D69460871274893
:1031F0000290607D88810820C8730020887368462B
:10320000FEF747FD002800D0012020762078002816
:1032100001D0264806E0FA2189002548FCF768FF1E
:1032200022494018E06165769CE7667600200090B0
:103230000023E2690421206AFFF7E3F9FEF739FF72
:1032400002000020009000230121206AFFF7D9F935
:1032500088E70020607685E700B585B0FCF7F4FFCD
:1032600001F040FD002003900290124801900120DF
:1032700000900023C02200BF20A10F48FEF7A4FD4C
:10328000FEF790FE012005B000BD000054180010AC
:10329000DC0E0010AD2E0000D52E00005F300000C7
:1032A0004B2E0000812E0000972E00008813000096
:1032B00018FCFFFF681B0010A130000010B50C00C7
:1032C00011A001F004FC200001F001FC72B6FEE741
:1032D00054784E6578745061636B657454696D659C
:1032E000720000004C65643154696D657200000025
:1032F0004C65643254696D657200000076546173E8
:103300006B4C656430000000537461636B204F7632
:10331000657220666C6F7720696E203A00000000AD
:1033200010B402E0401C491C521E002A09D00B7840
:1033300004789C42F6D002D20020C04302E0012073
:1033400000E0002010BC7047F8B5040000260025FE
:10335000FEF74EFEB320000134494A69002A0DD120
:103360000A00203207239A430A604E60C8608E60CC
:1033700050600B000833136001224A61002C33D0E7
:1033800008340722144203D02300083322409C1A39
:10339000002C29D0844227D20B000A6801E01300D8
:1033A00002005068A04202D210680028F7D108003D
:1033B0000830824218D01D680835106818605068BF
:1033C000031B112B0CD310194360546044680B008D
:1033D00000E033001E687768A742FAD306601860E1
:1033E00008695268801A0861FEF716FE002D01D1A7
:1033F00000F01EF82800F2BD002800D1704770B51B
:1034000008380400FEF7F4FD606808490B0000E08E
:103410002B001D686E688642FAD325601C600A691D
:1034200010180861FEF7F8FD70BD000000000010E4
:1034300072B601BEFEE730BF704700001206130AE5
:103440001A43130C1A4300BF094205D083070BD05F
:103450000270401C491EF9D1704700001206130A81
:103460001A43130C1A4300BF130030B414001500A4
:10347000103902D310393CC0FCD2490700D30CC02C
:1034800000D504C0890002D30280801C002900D529
:10349000027030BC704700000022E5E738B5050037
:1034A0000C00002D01D172B6FEE7FFF717FC28686B
:1034B000E96B2A6C5143401868600020A8632868B3
:1034C000A8602868E96B491E2A6C51434018E860DF
:1034D0000020C0436864A864002C0BD12869002830
:1034E00010D010352800FEF7DBFE01280AD1FFF7C7
:1034F000EFFB07E028001030FCF75EFE24352800C3
:10350000FCF75AFEFFF7F6FB012032BDF4B50400CC
:103510000E00002C1DD05420FFF716FF0500002DD3
:1035200017D020007043401CFFF70EFF28600028D2
:103530000CD02F003C373C607E6001212800FFF753
:10354000ADFF6846007838752800F2BD2800FFF707
:1035500053FF72B6FEE70000FCB583B004000F0015
:1035600000260096002C01D172B6FEE7002F02D192
:10357000206C00280ED10498022802D1E06B0128AB
:103580000AD1FEF7A3FF00280DD1039800280AD026
:1035900072B6FEE772B6FEE772B6FEE7200000F0F4
:1035A00091F9FEF739FDFFF799FBA06BE16B8842BB
:1035B00002D30498022813D1049A3900200000F0A5
:1035C00037F9606A002807D024342000FEF768FE2F
:1035D000012801D1FFF77CFBFFF78CFB012045E0C0
:1035E0000398002802D1FFF785FB3EE001250098F3
:1035F000002803D101A8FEF781FE0095FFF77AFBB2
:10360000FEF7F6FCFFF76AFB0020C043616C8142C5
:1036100000D16664A16C814200D1A664FFF76AFB09
:1036200003A901A8FEF776FE002819D1FFF756FB83
:10363000A06BE16B884200D00025FFF75BFB002DFB
:10364000ACD0039920001030FEF7F8FD200000F008
:1036500039F9FEF7E1FC0028A5D1FFF739FBA2E715
:10366000200000F02FF9FEF7D7FC002005B0F0BDD8
:10367000F2B5040017001E00002C01D172B6FEE75F
:10368000002902D1206C002825D1022E02D1E06B46
:10369000012822D1FFF79CFB0500A06BE16B88425B
:1036A00001D3022E1FD132000099200000F0C0F893
:1036B0000126A06C0021C943884210D1606A00280D
:1036C00012D024342000FEF7EBFD00280CD0002F90
:1036D0000AD03E6008E072B6FEE772B6FEE7A06C64
:1036E000401CA06400E00026280080F31088300011
:1036F000F2BD0000FEB582B0040000270025002CBA
:1037000001D172B6FEE7002902D1206C002808D151
:10371000FEF7DCFE00280BD10398002808D072B613
:10372000FEE772B6FEE7200000F0CCF8FEF774FC6E
:10373000FFF7D4FAA06B00282AD0E5680299200090
:1037400000F0AEF80498002812D1A06B401EA063D0
:103750002068002802D1FEF7B6FE606020690028CC
:1037600012D010342000FEF79BFD01280CD109E097
:10377000E560606A002807D024342000FEF790FD41
:10378000002801D0FFF7A4FAFFF7B4FA01204CE0BB
:103790000398002802D1FFF7ADFA45E0002D03D1D0
:1037A0006846FEF7ABFD0125FFF7A4FAFEF720FC03
:1037B000FFF794FA0020C043616C814200D1676436
:1037C000A16C814200D1A764FFF794FA03A968466F
:1037D000FEF7A0FD002822D1FFF780FAA06B461E5D
:1037E000B641F60FFFF786FA002E9CD0206800281D
:1037F00006D1FFF773FA6068FEF775FEFFF77AFAF5
:10380000039920002430FEF719FD200000F05AF83B
:10381000FEF702FC00288BD1FFF75AFA88E7200058
:1038200000F050F8FEF7F8FB002005B0F0BD0000F6
:1038300038B504001500226C002A08D12068002841
:103840002AD16068FEF780FE0020606024E0002D31
:103850000CD1A068FCF782FCA068216C4018A06025
:103860006168884218D32068A06015E0E068FCF722
:1038700075FC216C4842E1680918E16022689142B8
:1038800002D261680818E060022D05D1A06B002803
:1038900002D0A06B401EA063A06B401CA06331BD92
:1038A00038B503000800196800290AD01A6CDC68D2
:1038B000A418DC605D68AC4200D3D960D968FCF71D
:1038C0004DFC31BD38B50400FFF708FA0AE02000CE
:1038D0002430FEF7E5FC002801D0FEF749FDA06C7E
:1038E000401EA064A06C012802DB606A0028EED1B3
:1038F0000025ED43A564FFF7FDF9FFF7EFF90AE0B6
:1039000020001030FEF7CCFC002801D0FEF730FD7F
:10391000606C401E6064606C012802DB2069002836
:10392000EED16564FFF7E6F931BD000010B5002265
:10393000064BD4001B191C68002C02D1196058607A
:1039400010BD521C082AF3D310BD0000581A0010F5
:1039500038B505000C00FFF7C1F900200021C9436C
:103960006A6C8A4200D16864AA6C8A4200D1A86459
:10397000FFF7C0F9A86B002804D1210028002430EB
:10398000FEF77EFC2800FFF79DFF31BD0200080016
:10399000904200DA10007047FFB583B00026002582
:1039A000009501950024049801994900405A01218D
:1039B000A140084223D00598009909190C225143CF
:1039C0004718386800281AD0082039560A11090704
:1039D00009176846007B40B201F0BDF900280ED0FF
:1039E0000698797A09014018C068002801D06D1C3A
:1039F00005E0009800190C99F6B28855761C641CF5
:103A0000102CD0DB0098103000900198401CC0B200
:103A1000019000986028C5DB0D980570F0B207B0E2
:103A2000F0BD0000F8B5010028A00068FA24E40009
:103A30006208934D0E78202E46D801A7BF5DBF4483
:103A40007878868686788686782E32783C40444818
:103A50004C5056786278666A707478787C8084847A
:103A6000200001200856002800D0401E40B2F2BDC0
:103A7000844800E0844801228956405CF2BDAC488D
:103A8000F2BD1000F2BD2000F2BDAA48F2BDAA4866
:103A9000F2BD8020C001F2BD1100A848FCF728FB50
:103AA0000019F2BDA648F2BD2800F2BD28000C3076
:103AB000F2BD6020F2BDA348F2BD0020F2BDA248D5
:103AC000F2BDA248F2BD3020F2BD000000000000AF
:103AD00038B542686A499B4B04780C256C431B1926
:103AE0005B7A1B01C9181831407801F067F931BDC4
:103AF00038B50100624802D0012918D031BD00213B
:103B00000022934D8F4B0C2454431B19BD4C54433E
:103B100064191C6050241C725972521C602AF1DB1B
:103B2000B9498181C181018241828182C18206229B
:103B300001000C3101F033F931BD80B5091F0129B5
:103B400009D9891E09D0491E012908D9091F14D095
:103B500013390DD011E0052202E0052201E0072211
:103B600000210023C05601F0F6F8002806D002E03C
:103B70000078302801DB012002BD002002BD80B5A5
:103B800001003F480A79002A02D0012A06D009E044
:103B90000622096801F003F9012002BD0622096826
:103BA0000C30F7E7002002BDF7B507000024002520
:103BB0000820385609217E567968196079780029DD
:103BC00026D0002801D11C6022E07968402901D369
:103BD0000125002660291BD3C906C90E012917D16A
:103BE000694620220A704870B87A88706846FFF7E4
:103BF00019FF40B200280BD100253978002907D0E1
:103C00001F49814A0A804A808A80CA800A814A8183
:103C100001990870029806702800FEBD000000009F
:103C200070B584B00D0016001C00052800DB0520CF
:103C3000607000BF15A00121615689004158754A86
:103C4000914204D05200914203D1022102E00121AD
:103C500000E00021A170012162569100415800BF8F
:103C60006AA0805C01F005F922000C32029208344F
:103C700001940122009233002A0001F017F97FBD60
:103C8000280F00105C3D0000543D000048E8010092
:103C900048E8010048E8010048E8010048E8010060
:103CA00048E80100F2B58AB0040001202656676892
:103CB000594D68688047002801D0002036E0E07C3C
:103CC000002807D12078302100F07AFE4D4841438A
:103CD00052480F183800E9688847A07C09900120F5
:103CE0000890002007900690059004900390A0682B
:103CF00080B202900820019000200090012300BFB4
:103D000042A0825D52B2A1780120AF69B847607CC1
:103D1000002801D00FA000E010A0815D0D31C9B2D4
:103D200001206A6D90470A98067001200BB0F0BD23
:103D3000B80B0000881300007017000018FCFFFF8C
:103D400020441E1E580F0010333399419A990940A0
:103D50006035081C33333373DEDE000033333373D6
:103D6000DEDE0000F6B58BB004000120225600BF55
:103D700026A0805C09A90870464B474821780C258D
:103D800069434018407A000118181A214156022050
:103D90002056FFF7FBFD0600A268616801F0E2F81B
:103DA00007001D4D3C4821780C2251434058E968DA
:103DB00088476648089000200790069005900120EB
:103DC0000490002003900820029001200190694691
:103DD0002420085600900023002239000120EF69BA
:103DE000B847A189C9B201206A6D9047A189C9B2BB
:103DF00001206A6A90470C9908600B9806700120B0
:103E00000DB0F0BD400D0300FFFF00000C0B0A09D0
:103E10000807000090D003003C610000E0F8D11DCD
:103E200030B5002504882000302100F0C9FD0029AC
:103E300014D0E00601D1012510E02000182100F087
:103E4000BFFD002901D1022508E0200701D103258B
:103E500004E0600701D1042500E00525280030BDFD
:103E600000B585B00C4900914C49019169464278F2
:103E70000A7202784A7282788A72C278CA7241687B
:103E8000039180680490684601F081F805B000BD98
:103E900000000000280F0010580F0010F6B59BB06E
:103EA00006001F00002569460D7203A86021FFF778
:103EB000F3FA394C06220021200000F054FF0028BC
:103EC00006D1234820806080A080E080208160812E
:103ED0007068FCF737F9316888421CD33D600123D4
:103EE00022001832B17A707A00F06DFF070002A844
:103EF000019003A8009023001833294A2100307A4A
:103F0000FFF74AFD010011D16846007A00281C988D
:103F100018D0076014E06846007A401C69460872B1
:103F20007068FCF70FF931680F1AEDE7411E0020A9
:103F3000FCF7DEF803A9085C1B9908701C98056063
:103F4000012001E0056000201DB0F0BDB80B0000AD
:103F5000FFFF000038B50400114D0F4B0120225621
:103F600020780C2148432818407A000118181A219B
:103F7000415602202056FFF709FD21780C225143BB
:103F80006D58A268616800F0EDFF0100A289280069
:103F9000044BDB6B984731BD280F0010400F001019
:103FA000580F00103C610000881A010600D500205F
:103FB000C0B2704710B5040010220021F130FCF7A8
:103FC000B7F800208A2149006050F022002120002B
:103FD000FCF7AEF810BD80B50B00020010211800F0
:103FE00000F0A4FB01BDF0B585B005000E00140083
:103FF0008A2040002858002848D010210F1AA742D4
:1040000000D92700BAB231002818FF239B1CC01822
:10401000FCF779F88A2040002858C0198A21490005
:10402000685010283ED3BC423CD000202918F13102
:104030000A780B7C53400B70401C1028F6DB2A00DA
:104040002900F1312800F13000F0FAFBF619E41BE9
:104050001CE000202918F1310A78335C53400B70C2
:10406000401C1028F6DB10222900F1316846FCF7CD
:104070004AF82A006946684600F0E2FB10226946C9
:104080002800F130FCF73FF81036103C112CE0D23C
:10409000A2B23100FF20801C2818FCF734F88A20D7
:1040A00040002C5005B0F0BDF1B588B00C001022D6
:1040B00000216846FCF73CF822006946684600F09B
:1040C000BFFB872100206A4613781B0603460DD5E7
:1040D000D5182E7876006F78FF0937432F705B1C58
:1040E0000F2BF5DBD37B5B004B400BE0D5182E7814
:1040F00076006F78FF0937432F705B1C0F2BF5DBC1
:10410000D37B5B00D3738A235B00E358102B0CD165
:1041100000216318FF25AD1C5B191D78565C6E40AD
:104120001E70491C102940DAF3E713781B060ED5E0
:104130000023D5182E7876006F78FF0937432F704B
:104140005B1C0F2BF5DBD37B5B0059400CE000219F
:1041500053181D786D005E78F6092E431E70491CB9
:104160000F29F5DBD17B4900D17380218A235B00C5
:10417000E358E318FF25AD1C595501E06118485577
:104180008A2149006158491C8A235B00E1501029AB
:10419000F4D300216318FF25AD1C5B191D78565C14
:1041A0006E401E70491C1029F4DB2118F1310A7889
:1041B0000B7C53400B70401C1028F6DB10222100B2
:1041C000F13104A8FBF79FFF2200089904A800F032
:1041D00037FB102200216846FBF7AAFF09B0F0BDAB
:1041E0000A7802704A7842708A788270CA78C270FF
:1041F0000A7902714A7942718A798271CA79C271E7
:104200000A7A02724A7A42728A7A8272CA7AC272CE
:104210000A7B02734A7B42738A7B8273C97BC173B8
:10422000704702780B785340037042784B785340C4
:10423000437082788B7853408370C278CB78534038
:10424000C37002790B795340037142794B79534023
:10425000437182798B7953408371C279CB79534012
:10426000C371027A0B7A53400372427A4B7A5340FD
:104270004372827A8B7A53408372C27ACB7A5340EC
:10428000C372027B0B7B53400373427B4B7B5340D7
:104290004373827B8B7B53408373C27BC97B5140CA
:1042A000C173704710B50B7814785C4004704B787C
:1042B00054785C4044708B7894785C408470CB7800
:1042C000D4785C40C4700B7914795C4004714B79EC
:1042D00054795C4044718B7994795C408471CB79DA
:1042E000D4795C40C4710B7A147A5C4004724B7AC6
:1042F000547A5C4044728B7A947A5C408472CB7AB4
:10430000D47A5C40C4720B7B147B5C4004734B7B9F
:10431000547B5C4044738B7B947B5C408473C97B8F
:10432000D27B4A40C27310BD7F4902788A5C02701A
:1043300002798A5C0271027A8A5C0272027B8A5C70
:10434000027342784379CB5C4370437ACB5C437110
:10435000437BCB5C43728A5C42738278837ACB5C0A
:1043600083708A5C82728279837BCB5C83718A5C86
:104370008273C27BC37ACB5CC373C379CB5CC372D9
:10438000C378CB5CC371895CC17070477FB5040092
:1043900021006846FFF724FF634800BF63A100BF08
:1043A000A2A26B461D78565D5D794D5D75409E7A83
:1043B000865D6E40DD7B455D754025701D78465DF0
:1043C0005D79555D75409E7A8E5D6E40DD7B455D05
:1043D000754065701D78465D5D79455D75409E7AD6
:1043E000965D6E40DD7B4D5D7540A5701D784E5D20
:1043F0005D79455D75409E7A865D6E40DD7B555DDD
:104400007540E5701D79565D5D7A4D5D75409E7B0A
:10441000865D6E40DD78455D754025711D79465D90
:104420005D7A555D75409E7B8E5D6E40DD78455DA5
:10443000754065711D79465D5D7A455D75409E7B71
:10444000965D6E40DD784D5D7540A5711D794E5DC0
:104450005D7A455D75409E7B865D6E40DD78555D7D
:104460007540E5711D7A565D5D7B4D5D75409E78AA
:10447000865D6E40DD79455D754025721D7A465D2D
:104480005D7B555D75409E788E5D6E40DD79455D46
:10449000754065721D7A465D5D7B455D75409E7811
:1044A000965D6E40DD794D5D7540A5721D7A4E5D5D
:1044B0005D7B455D75409E78865D6E40DD79555D1E
:1044C0007540E5721D7B565D5D784D5D75409E794A
:1044D000865D6E40DD7A455D754025731D7B465DCA
:1044E0005D78555D75409E798E5D6E40DD7A455DE7
:1044F000754065731D7B465D5D78455D75409E79B1
:10450000965D6E40DD7A4D5D7540A5731D7B495DFE
:104510005D78455D4D409979405C6840D97A515C41
:104520004140E1737FBD000094480000A584998D4F
:104530000DBDB1545003A97D1962E69A459D40878F
:1045400015EBC90BEC67FDEABFF7965BC21CAE6AC0
:104550005A41024F5CF434089373533F0C52655E2A
:1045600028A10FB509369B3D2669CD9F1B9E742E51
:104570002DB2EEFBF64D61CE7B3E7197F568002CB7
:10458000601FC8EDBE46D94BDED4E84A6B2AE5165B
:10459000C5D75594CF100681F044BAE3F3FEC08A24
:1045A000ADBC4804DFC17563301A0E6D4C14352F55
:1045B000E1A2CC3957F28247ACE72B95A098D17F86
:1045C000667EAB83CA29D33C79E21D763B564E1EEC
:1045D000DB0A6CE45D6EEFA6A8A4378B324359B7B3
:1045E0008C64D2E0B4FA0725AF8EE918D5886F72D3
:1045F00024F1C751237C9C21DDDC86859042C4AA2E
:10460000D8050112A35FF9D0915827B93813B333F5
:10461000BB7089A7B622922049FF787A8FF880175D
:10462000DA31C6B8C3B07711CBFCD63AC6F8EEF68D
:10463000FFD6DE916002CE56E7B54DEC8F1F89FAAA
:10464000EFB28EFB41B35F452353E49B75E13D4CD4
:104650006C7EF5836851D1F9E2AB622A0895469DDC
:1046600030370A2F0E241BDFCD4E7FEA121D58343F
:1046700036DCB45BA476B77D52DD5E13A6B900C10B
:1046800040E379B6D48D67729498B085BBC54FED81
:10469000869A66118AE904FEA078254BA25D800502
:1046A0003F2170F16377AF4220E5FDBF811826C33B
:1046B000BE35882E9355FC7AC8BA32E6C0199EA33F
:1046C00044543B0B8CC76B28A7BC16ADDB64741439
:1046D000920C48B89FBD43C43931D3F2D58B6EDA02
:1046E00001B19C49D8ACF3CFCAF447106FF04A5CD3
:1046F00038577397CBA1E83E96610D0FE07C71CCE3
:104700009006F71CC26AAE6917993A27D9EB2B229B
:10471000D2A907332D3C15C987AA50A50359091AF8
:1047200065D784D082295A1E7BA86D2CF6B584B03B
:104730001146F0316A46147C102C03D0182C01D09D
:10474000202C02D12246059B07E000200870FF20A4
:1047500074E005781D70401C5B1C15006A1E2D0658
:10476000F7D16846007C1C308006000E03900009DB
:10477000401E087001256846007C029045A62FE087
:10478000029819280FDB10290DD1F75D684669469C
:104790008978715C817069464978715C41706946BD
:1047A0000978715C01706946097C601AC0B205998C
:1047B000081801784F4001990F700199491C4278FF
:1047C0006B469B7853400B7082786B465B78534006
:1047D0004B70C0786A46127842408A70241DE4B259
:1047E0000398844229DA059800190190001F077880
:1047F000694642788A7082784A70C07808702000D2
:10480000029900F0DDF80029BAD1380069468978AC
:10481000715C2F004F4069466A465278B25C8A70DC
:104820006A461278B25C4A70305C08706800ED0924
:104830001B214D434540EDB2B5E7002006B0F0BD69
:10484000F0B585B00F001400F021615C00291DD087
:1048500001006846FFF726FD012506E0FFF796FDFB
:1048600031006846FFF7DDFC6D1CEDB2280126180B
:10487000F020205C85426846F0D3FFF755FD3200FA
:1048800069463800FFF70EFD002000E0FF2005B06C
:10489000F0BD0000637C777BF26B6FC53001672B46
:1048A000FED7AB76CA82C97DFA5947F0ADD4A2AF24
:1048B0009CA472C0B7FD9326363FF7CC34A5E5F132
:1048C00071D8311504C723C31896059A071280E2E0
:1048D000EB27B27509832C1A1B6E5AA0523BD6B334
:1048E00029E32F8453D100ED20FCB15B6ACBBE39A4
:1048F0004A4C58CFD0EFAAFB434D338545F9027F90
:10490000503C9FA851A3408F929D38F5BCB6DA2148
:1049100010FFF3D2CD0C13EC5F974417C4A77E3D74
:10492000645D197360814FDC222A908846EEB814CA
:10493000DE5E0BDBE0323A0A4906245CC2D3AC628D
:104940009195E479E7C8376D8DD54EA96C56F4EA98
:10495000657AAE08BA78252E1CA6B4C6E8DD741FA9
:104960004BBD8B8A703EB5664803F60E613557B96C
:1049700086C11D9EE1F8981169D98E949B1E87E926
:10498000CE5528DF8CA1890DBFE6426841992D0FD5
:10499000B054BB16F446002804D4494200F013F882
:1049A000404260474042002905D45FD000F00BF838
:1049B000404249426047494200F005F84942604799
:1049C00003460B43E6D40022030A8B420BD20309B1
:1049D0008B4219D243088B422ED2411A00D2014693
:1049E000524110467047FF2209023FD012068B4207
:1049F00005D3121209028B4201D3121209020309D4
:104A00008B4219D300E0090AC3098B4201D3CB01C1
:104A1000C01A524183098B4201D38B01C01A524103
:104A200043098B4201D34B01C01A524103098B4207
:104A300001D30B01C01A5241C3088B4201D3CB00F2
:104A4000C01A524183088B4201D38B00C01A5241D5
:104A500043088B4201D34B00C01A5241884200D315
:104A6000401A5241CFD201461046704708B5C046A1
:104A7000C04608BD3549012282400868964B034074
:104A800013430B60704731490A6801238340934800
:104A900005E093490A6801238340FE20000618437D
:104AA00082430A6070478E49012282400868C00133
:104AB000C00910430860704749014018835470478B
:104AC00001B501226946954800F0D3FB01BD10B540
:104AD000040002E0FFF7F4FF641C20780028F9D1FD
:104AE00010BD38B50720FFF7C5FF01248C480460CE
:104AF0000020FFF7D8FF04210020FBF7AFFB0021C7
:104B00000120FBF7ABFB0720FFF7BDFF834D28001B
:104B100000F070FB286883490140042008432860A6
:104B20000121E120400300F0DDFAE12149022800E3
:104B300000F0B1FB28687C49014021432960686886
:104B40007A4901406960EC6031BD0000808004401A
:104B500010B5774C002211212000FBF7A3FB0022A7
:104B60000B212000FBF79EFB022204212000FBF713
:104B700099FB002210212000FBF794FB00220F215B
:104B80002000FBF78FFB002208212000FBF78AFBA7
:104B9000002207212000FBF785FB002202212000D4
:104BA000FBF780FB002201212000FBF77BFB0022AA
:104BB00012212000FBF776FB00220A212000FBF7E0
:104BC00071FB002209212000FBF76CFB0022002171
:104BD0002000FBF767FB00221E212000FBF762FB91
:104BE00000221D212000FBF75DFB00221C2120007C
:104BF000FBF758FB00221B212000FBF753FB002290
:104C00001A212000FBF74EFB002219212000FBF7A0
:104C100049FB002218212000FBF744FB0322172147
:104C20002000FBF73FFB002216212000FBF73AFB98
:104C3000002215212000FBF735FB00221421200063
:104C4000FBF730FB0720FFF715FF0020FFF72BFFD6
:104C50000120FFF728FF0220FFF725FF0320FFF7C1
:104C600022FF0420FFF715FF0520FFF712FF0920A0
:104C7000FFF719FF0A20FFF716FF0B20FFF713FFBE
:104C80000C20FFF710FF0D20FFF70DFF0E20FFF7A0
:104C90000AFF0F20FFF707FF1020FFF704FF112086
:104CA000FFF701FF1220FFF7FEFE1320FFF7FBFEC8
:104CB0001420FFF7F8FE1520FFF7F5FE1620FFF78A
:104CC000F2FE1720FFF7EFFE1820FFF7ECFE07209B
:104CD000FFF7D9FE10BD0000FFFFEF25000010DA3E
:104CE000C0C1004070B5A0252D06280000F0DEFAF6
:104CF000FFF72EFF002400BF0FA6325D0120904079
:104D00000C490860012300212800FFF7D5FE641C30
:104D1000022CF2DBFFF7E5FE70BD0000004006400C
:104D20009480044001DAFC007DDAFC0006030100F7
:104D300000400440802300A0060700005849884234
:104D400001D2642070475749884202D2FA2080007D
:104D5000704755487047884203DB824201DB0120DF
:104D6000704700207047F5B50020009B002B11D143
:104D7000F6BD009B4C001B5B002400250126AE40C5
:104D800037001F40B74200D1641C6D1C102DF5DBAD
:104D90000019491CC9B29142EBD3C0B2F6BD00283C
:104DA00000D1704730B5002907D0002303E05C0034
:104DB0000D5B05535B1C9342F9DB30BD00288A6014
:104DC00000D14A607047FFB581B00024E44300275A
:104DD000002602E00024EF60761C6846007C8642D4
:104DE00044DA03983101451868460079002868467E
:104DF000007A22D1002804D0A868FBF7A3F900901C
:104E000000E000976868FBF79DF90099814201D2A4
:104E1000686804E06846007A002802D0A868FBF7BA
:104E200091F9E968884200D3EF60E9680029D3D09E
:104E3000081AA042D0D20400CEE70028CAD0A86841
:104E4000FBF780F9E968884200D3EF60E868002842
:104E5000C2D0A868FBF776F9E968081AA042BBD26D
:104E6000A868FBF76FF9E9680C1AB5E7200005B0F0
:104E7000F0BD70B50E0001218140080000F022FA5B
:104E800004000D00300000F027FA02000B002000A3
:104E9000290000F031FA00222F4B00F08EFA70BD8D
:104EA00080EE3600803F5C0210270000FBB5140046
:104EB0001D006000083800F005FA6A460CCA00F0D0
:104EC0007CFA06000F00680000F006FA32003B0092
:104ED00000F035FB6A460CCA00F00EFA06000F001F
:104EE00000F008FC00F044FC844206D23000390097
:104EF00000F000FC00F03CFC00E02000099E306067
:104F000068460CC80020154900F057FA04000D004F
:104F1000306800F0E1F96A460CCA00F04EFA00224F
:104F20000F4B00F04AFA02000B002000290000F0AD
:104F300069FB04000D00089800F0CEF902000B0098
:104F40002000290000F05EFB00F0D4FB00F0FEFB27
:104F50000A990860F7BD000000408F400000104033
:104F60000000E03F38B50C001500400000F018FCD0
:104F70000100200000F056FC290000F053FC00F076
:104F8000A9FC00F0C1FC00F0E1FB40B232BDF8B575
:104F900004002068E17A0C2251434018407A07014E
:104FA0006068C01905880026C660607A00280FD1A5
:104FB000E068FFF7C3FEA84200D30500A07A0028EE
:104FC00009D1207A002806D16068C019C660F1BDF9
:104FD000A07A0028F8D020694543281A6168C919C9
:104FE000C860F1BD56490CE00022002800D0012223
:104FF000002902D01000022202435248026070478A
:105000005149086000204860012048607047000056
:1050100000B54E480068C105C90D00BF55A04A093A
:1050200092008058C906C90E491C4900FFF7CBFC05
:1050300000BD434800688007800F04D0012804D0D9
:10504000032804D006E042487047424800E0424846
:10505000006870470020704780B5FFF7EAFF3F49BE
:105060000968C906C90E491C484302BD80B5002025
:10507000354909688907890F05D0022908D004D36A
:10508000032908D002BD324802BDFFF7D2FF02BD9E
:10509000FFF7BEFF02BDFFF7DFFF02BD80B5FFF7E0
:1050A000E5FF2F490968C9B2FFF78DFC02BD38B58D
:1050B0002C4C2068C5B2002D01D1002032BDFFF775
:1050C000D5FF2900FFF77FFCE26DD2B2FF2A08D19D
:1050D000226E010E0002D2B2A30DD218002300F0FE
:1050E0003FFC32BDF8B505000C00FFF7BFFF06001E
:1050F0002900FFF768FC010000D10121194FC8B257
:105100003860002C16D018480268184B1340036012
:105110000268174B134004221A430260FF20F8650F
:105120003000FFF750FC00022900FFF74CFCC0B232
:10513000386601E00020F865FFF7B9FFF2BD000016
:10514000408004402080044070800440248004405B
:10515000001BB700946200009862000008800440C1
:10516000788004409480044004800440FBDF010008
:10517000FFDF010000000000C027090090051000BB
:10518000C05C1500F0B31A00200B2000009F240023
:10519000E0322900C0C62D0050973100E06735008D
:1051A0007038390000093D0040164000802343005C
:1051B000C0304600012181401B4802681B4B0B4355
:1051C0009A43026002681A4B13400B430360704716
:1051D000C161704781681748084070471649884286
:1051E00001D10E2070471549884201D10F20704728
:1051F0001020704710B50400FFF7F0FF104901229E
:10520000824008680F4B034013430B600A488442F6
:1052100001D1032005E00948844201D1042000E0C7
:105220000520FFF7C7FF10BD048004400020FEFFEB
:10523000FFDF01007FFD01000040064000800640C6
:1052400080800440FFFFEF25F8B50600170000241A
:105250000D0005E029783000FFF7BAFF6D1C641CD3
:10526000BC4204DA3000FFF7B5FF4007F2D420005B
:10527000F2BDF8B50700150000240E0007E02A0073
:1052800031003800FFF7E0FF2D1A24183618012DE1
:10529000F5DA2000F2BD38B504000D00FFF707FF76
:1052A0002901FFF790FB401E206231BD03480168D1
:1052B000034A0A4040211143016070478080044046
:1052C000FFFFEF25010009D5F446404200F006F843
:1052D0000122D20711436047010000BF42221201A0
:1052E000D21E004207D002D4521E0018FCD5C10ABB
:1052F0004005120589187047F0B40E005E40012584
:10530000ED072E40B446AE0ADF184C18F4423BD2EB
:10531000F74241D2640D43D07F0D38D0E41BC9025F
:10532000DB0229432B43CF0ADB0A0600B61A9F4152
:1053300004D2641EB6197F41B6185F416812800D11
:1053400024180018844222DAE80C0021B6197F41A3
:10535000B61A9F4102D2B6185F413F1C40414941F5
:10536000F4D3241C21DD2405B6197F41B61A9F41D0
:1053700005D33743C60737430026012F70416141EB
:1053800066463143F0BC7047FCD1F74205D200209D
:10539000C14349054908F3E704D00020C143F1E7C0
:1053A0007F0DFAD000206146ECE72442FAD1401C80
:1053B00061410F03F6D30020E2E7F0B50E005E4036
:1053C0000125ED072E40B446AE0ADF184C18F44212
:1053D00008D2F7420ED2640D01D07F0D12D1002009
:1053E0006146F0BD05D1F74201D87F0D05D10020FF
:1053F000C143F0BDFBD1640DF9D00020C143490584
:1054000049088FE0E419C902DB0229432B43DB0A78
:10541000460DC00231438E4630B487B295B27D430B
:105420002E0CADB2140C7C43A419260C2404254385
:105430009CB27C43A419190C7943270CC919A4B256
:105440000F043C43090C000C97B247432E0CBE19C5
:105450003543ADB2170C4743360CBF19A6B2BF197E
:105460003E043543240C3E0C36199FB24743BF1906
:10547000BCB23E0C89191F0C47437F183E043443CD
:10548000390C704680B297B247432E0CBE19354393
:10549000ADB2170C4743360CBF19A6B2BF193E0474
:1054A0003543240C3E0C36199FB24743BF19BCB29A
:1054B0003E0C89191F0C47437F183E043443390CB6
:1054C00077463F0C90B278432E0C80190604ADB29B
:1054D0002E43050CA0B22D18120C7A435019020C61
:1054E00080B2240CA4189AB27A43121914042043EF
:1054F000120C89181B0C7B43C91830BCEF0A3942C7
:1055000003D1B61940414941641E6F12BF0DE41B1F
:105510000BDBFF19BC4211DA240500274208AE411B
:105520007841614166463143F0BD641C05D1401CA1
:105530006141CF0201D34908F4E750E75DE7F0B4D9
:105540000125ED070F005F404FD48B4200D182420E
:1055500005D98446100062468C4619006346DF1860
:105560004C18640D7F0D3AD0661C760537D0E61BCB
:10557000352E34DCDB022B43DB0A0C0DC902294338
:10558000C912202E0DDB1700203E06D01F00F74168
:10559000F3405F400026012A7741C01871410DD2C7
:1055A00017E01700F741F2405740F3415A40B3402B
:1055B000F3405A400026801859410AD3A21C5205D4
:1055C0000FD0C207012F724117004008CB071843C4
:1055D0004908641C24054208AF4170416141F0BC98
:1055E0007047641C21050020F9E76B4010E06B4018
:1055F000ABE7F742F3D1E943F1E72442EFD10020D2
:105600000021ECE7F0B40125ED070F005F40EED478
:105610000C00871A9C4105D2C01BA141D2196341DD
:1056200069406B40AE0ADF184C18F442E1D2640DB9
:105630007F0DE2D0E61B362ED1DCDB022B43DB0AEA
:10564000A4460C0DC9022943C90A012E28DC04D145
:10565000D6075208DF073A435B08EF0A76429041CB
:10566000994114D039423BD1B61940414941761C89
:10567000394204D1761C001849413942FAD0B94365
:105680006746B74208D9A41B24052143A7E7004277
:10569000EAD13642E8D1A2E7E40AE10700209EE71A
:1056A000202E0BDD203E1F00F340F7415F40012A12
:1056B000002257417E42984191410BE01700F7418B
:1056C000F2405740F3415A40B340F3405A407E42C3
:1056D000904199410A0303D2641EB61940414941E1
:1056E0000027641E24054208AE4178416141F0BCA8
:1056F000704700004A00520DFF239B009B1CD21AEA
:1057000019DD35239B1A1EDD1300153B09DA9B4179
:10571000DB0AD340094201D4401E5941002099437D
:1057200070470022D243DA40094202D40023801895
:105730005941904370470B0D5B0500D0024901D3DE
:105740000121C907002070470000F03FF4464A18C5
:1057500005D200F00FF801D580174008604700F02F
:1057600009F80121C907884200D908004042604772
:105770004A1812D2400DC90208430121C907084343
:10578000520D40210901521A521C06D452421F32B6
:1057900001D4D0407047C017704700207047000008
:1057A0009D2102000AD002D4491E9218FCD5C905D9
:1057B000100A1206524100D3012A48417047431A89
:1057C00001D2C01AC91830B44B180418240E1B0E8D
:1057D00022D0FF2C20D0E31A182B1DDC0902114324
:1057E000C40D641E0002104394461925ED1A0A00E8
:1057F000AA40D940451801D36D08A41CE405D2097C
:10580000280A2D062A436546AA41604103181B0E4B
:10581000FF2B01D3C00DC00530BC7047514006E0DE
:105820005140CCE70122D20703004B40F8D4431A81
:1058300003D2C01AC9185040514030B44B18090265
:1058400011430418240E1B0E40D0FF2C3AD0250023
:105850009D410BD31ED8C50D4002401A0BD3ED0558
:105860000100400AC90591416841D5E7C50D4002D4
:105870004918401AD0D001214008491C0018FCD515
:105880008C4204D36D1A000AED054019C4E7E805FF
:105890001040C1E7182DBFDCAC1C0D00E140E54114
:1058A0004D40012D4941C40D00021043451A01D459
:1058B0006D199543641EE405280A2D069541604143
:1058C00030BC7047FF2BA7D1D843A5E72442A3D112
:1058D0000020A1E7012212060118CA420AD28A4218
:1058E0000DD83822120609098918C20FD2071143B0
:1058F0004007704700D049080909014301E0C10F82
:10590000C9070020704700004A00520DFF239B008A
:105910009B1CD21A19DD35239B1A1DDD1300153B84
:1059200009DA9B41DB0AD340094201D5401E5941A7
:105930000020994370470022D243DA40094202D541
:10594000002380185941904370474B00034300D017
:10595000024900D200210020704700000000F0BF83
:10596000124224D0994228D970B500251B4202D09A
:105970000C00002109E000240126491864419442EA
:1059800000D3A41A7641F8D33100012601E0764114
:1059900009D2001864416D41A41A9D41F7D2A418A0
:1059A0005D41B619F5D3300022002B0070BD1B42BB
:1059B000D8D108B5C046C04608BD01D19042D3D267
:1059C00002000B0000210020704700000121C006EA
:1059D000C00E8140C5480160704701218140BF4829
:1059E0000268C34B0B439A4302600268C14B36E026
:1059F000C14A800011507047C049012282400868A6
:105A0000C0B2104308607047BD4901228240086857
:105A1000BC4B034013430B6070470268FF23DB431A
:105A20000B439A43026070474161704701239340E2
:105A300089004018902189014350704780B5002BA0
:105A400007D001239340890040188E2189014350DB
:105A500001BDFFF7EBFF01BD0268FF23BE3313401A
:105A60000B430360704738B511210020FFF7C0FFDA
:105A70000020FFF7C1FFA0242406112200212000EE
:105A8000FFF7D4FF12210120FFF7B2FF0120FFF73B
:105A9000B3FF122200212000FFF7C8FF13210220CC
:105AA000FFF7A6FF0220FFF7A7FF13220021200027
:105AB000FFF7BCFF15210320FFF79AFF0320FFF734
:105AC0009BFF152200212000FFF7B0FF16210420C4
:105AD000FFF78EFF0420FFF78FFF16220021200022
:105AE000FFF7A4FF01230F2200212000FFF7A6FFEC
:105AF000854D03220A212800FAF7D4FB012318223E
:105B000000212000FFF79AFF032218212800FAF74E
